{
	"第二周/存储/函数的可见性.sol": {
		"Base": {
			"abi": [
				{
					"inputs": [],
					"name": "examples",
					"outputs": [],
					"stateMutability": "view",
					"type": "function"
				},
				{
					"inputs": [],
					"name": "externalFunc",
					"outputs": [
						{
							"internalType": "uint256",
							"name": "",
							"type": "uint256"
						}
					],
					"stateMutability": "pure",
					"type": "function"
				},
				{
					"inputs": [],
					"name": "publicFunc",
					"outputs": [
						{
							"internalType": "uint256",
							"name": "",
							"type": "uint256"
						}
					],
					"stateMutability": "pure",
					"type": "function"
				},
				{
					"inputs": [],
					"name": "z",
					"outputs": [
						{
							"internalType": "uint256",
							"name": "",
							"type": "uint256"
						}
					],
					"stateMutability": "view",
					"type": "function"
				}
			],
			"devdoc": {
				"kind": "dev",
				"methods": {},
				"version": 1
			},
			"evm": {
				"assembly": "    /* \"\\xe7\\xac\\xac\\xe4\\xba\\x8c\\xe5\\x91\\xa8/\\xe5\\xad\\x98\\xe5\\x82\\xa8/\\xe5\\x87\\xbd\\xe6\\x95\\xb0\\xe7\\x9a\\x84\\xe5\\x8f\\xaf\\xe8\\xa7\\x81\\xe6\\x80\\xa7.sol\":239:1023  contract Base{... */\n  mstore(0x40, 0x80)\n    /* \"\\xe7\\xac\\xac\\xe4\\xba\\x8c\\xe5\\x91\\xa8/\\xe5\\xad\\x98\\xe5\\x82\\xa8/\\xe5\\x87\\xbd\\xe6\\x95\\xb0\\xe7\\x9a\\x84\\xe5\\x8f\\xaf\\xe8\\xa7\\x81\\xe6\\x80\\xa7.sol\":274:275  0 */\n  0x00\n    /* \"\\xe7\\xac\\xac\\xe4\\xba\\x8c\\xe5\\x91\\xa8/\\xe5\\xad\\x98\\xe5\\x82\\xa8/\\xe5\\x87\\xbd\\xe6\\x95\\xb0\\xe7\\x9a\\x84\\xe5\\x8f\\xaf\\xe8\\xa7\\x81\\xe6\\x80\\xa7.sol\":259:275  uint private x=0 */\n  0x00\n  sstore\n    /* \"\\xe7\\xac\\xac\\xe4\\xba\\x8c\\xe5\\x91\\xa8/\\xe5\\xad\\x98\\xe5\\x82\\xa8/\\xe5\\x87\\xbd\\xe6\\x95\\xb0\\xe7\\x9a\\x84\\xe5\\x8f\\xaf\\xe8\\xa7\\x81\\xe6\\x80\\xa7.sol\":298:299  1 */\n  0x01\n    /* \"\\xe7\\xac\\xac\\xe4\\xba\\x8c\\xe5\\x91\\xa8/\\xe5\\xad\\x98\\xe5\\x82\\xa8/\\xe5\\x87\\xbd\\xe6\\x95\\xb0\\xe7\\x9a\\x84\\xe5\\x8f\\xaf\\xe8\\xa7\\x81\\xe6\\x80\\xa7.sol\":282:299  uint internal y=1 */\n  dup1\n  sstore\n    /* \"\\xe7\\xac\\xac\\xe4\\xba\\x8c\\xe5\\x91\\xa8/\\xe5\\xad\\x98\\xe5\\x82\\xa8/\\xe5\\x87\\xbd\\xe6\\x95\\xb0\\xe7\\x9a\\x84\\xe5\\x8f\\xaf\\xe8\\xa7\\x81\\xe6\\x80\\xa7.sol\":320:321  2 */\n  0x02\n    /* \"\\xe7\\xac\\xac\\xe4\\xba\\x8c\\xe5\\x91\\xa8/\\xe5\\xad\\x98\\xe5\\x82\\xa8/\\xe5\\x87\\xbd\\xe6\\x95\\xb0\\xe7\\x9a\\x84\\xe5\\x8f\\xaf\\xe8\\xa7\\x81\\xe6\\x80\\xa7.sol\":306:321  uint public z=2 */\n  dup1\n  sstore\n    /* \"\\xe7\\xac\\xac\\xe4\\xba\\x8c\\xe5\\x91\\xa8/\\xe5\\xad\\x98\\xe5\\x82\\xa8/\\xe5\\x87\\xbd\\xe6\\x95\\xb0\\xe7\\x9a\\x84\\xe5\\x8f\\xaf\\xe8\\xa7\\x81\\xe6\\x80\\xa7.sol\":239:1023  contract Base{... */\n  callvalue\n  dup1\n  iszero\n  tag_1\n  jumpi\n  revert(0x00, 0x00)\ntag_1:\n  pop\n  dataSize(sub_0)\n  dup1\n  dataOffset(sub_0)\n  0x00\n  codecopy\n  0x00\n  return\nstop\n\nsub_0: assembly {\n        /* \"\\xe7\\xac\\xac\\xe4\\xba\\x8c\\xe5\\x91\\xa8/\\xe5\\xad\\x98\\xe5\\x82\\xa8/\\xe5\\x87\\xbd\\xe6\\x95\\xb0\\xe7\\x9a\\x84\\xe5\\x8f\\xaf\\xe8\\xa7\\x81\\xe6\\x80\\xa7.sol\":239:1023  contract Base{... */\n      mstore(0x40, 0x80)\n      callvalue\n      dup1\n      iszero\n      tag_1\n      jumpi\n      revert(0x00, 0x00)\n    tag_1:\n      pop\n      jumpi(tag_2, lt(calldatasize, 0x04))\n      shr(0xe0, calldataload(0x00))\n      dup1\n      0x335d00c2\n      eq\n      tag_3\n      jumpi\n      dup1\n      0x42b148aa\n      eq\n      tag_4\n      jumpi\n      dup1\n      0x4b73383f\n      eq\n      tag_5\n      jumpi\n      dup1\n      0xc5d7802e\n      eq\n      tag_6\n      jumpi\n    tag_2:\n      revert(0x00, 0x00)\n        /* \"\\xe7\\xac\\xac\\xe4\\xba\\x8c\\xe5\\x91\\xa8/\\xe5\\xad\\x98\\xe5\\x82\\xa8/\\xe5\\x87\\xbd\\xe6\\x95\\xb0\\xe7\\x9a\\x84\\xe5\\x8f\\xaf\\xe8\\xa7\\x81\\xe6\\x80\\xa7.sol\":671:1014  function examples() external view {... */\n    tag_3:\n      tag_7\n      tag_8\n      jump\t// in\n    tag_7:\n      stop\n        /* \"\\xe7\\xac\\xac\\xe4\\xba\\x8c\\xe5\\x91\\xa8/\\xe5\\xad\\x98\\xe5\\x82\\xa8/\\xe5\\x87\\xbd\\xe6\\x95\\xb0\\xe7\\x9a\\x84\\xe5\\x8f\\xaf\\xe8\\xa7\\x81\\xe6\\x80\\xa7.sol\":583:663  function externalFunc() external pure returns(uint){... */\n    tag_4:\n      tag_9\n      tag_10\n      jump\t// in\n    tag_9:\n      mload(0x40)\n      tag_11\n      swap2\n      swap1\n      tag_12\n      jump\t// in\n    tag_11:\n      mload(0x40)\n      dup1\n      swap2\n      sub\n      swap1\n      return\n        /* \"\\xe7\\xac\\xac\\xe4\\xba\\x8c\\xe5\\x91\\xa8/\\xe5\\xad\\x98\\xe5\\x82\\xa8/\\xe5\\x87\\xbd\\xe6\\x95\\xb0\\xe7\\x9a\\x84\\xe5\\x8f\\xaf\\xe8\\xa7\\x81\\xe6\\x80\\xa7.sol\":497:573  function publicFunc() public pure returns(uint){... */\n    tag_5:\n      tag_13\n      tag_14\n      jump\t// in\n    tag_13:\n      mload(0x40)\n      tag_15\n      swap2\n      swap1\n      tag_12\n      jump\t// in\n    tag_15:\n      mload(0x40)\n      dup1\n      swap2\n      sub\n      swap1\n      return\n        /* \"\\xe7\\xac\\xac\\xe4\\xba\\x8c\\xe5\\x91\\xa8/\\xe5\\xad\\x98\\xe5\\x82\\xa8/\\xe5\\x87\\xbd\\xe6\\x95\\xb0\\xe7\\x9a\\x84\\xe5\\x8f\\xaf\\xe8\\xa7\\x81\\xe6\\x80\\xa7.sol\":306:321  uint public z=2 */\n    tag_6:\n      tag_16\n      tag_17\n      jump\t// in\n    tag_16:\n      mload(0x40)\n      tag_18\n      swap2\n      swap1\n      tag_12\n      jump\t// in\n    tag_18:\n      mload(0x40)\n      dup1\n      swap2\n      sub\n      swap1\n      return\n        /* \"\\xe7\\xac\\xac\\xe4\\xba\\x8c\\xe5\\x91\\xa8/\\xe5\\xad\\x98\\xe5\\x82\\xa8/\\xe5\\x87\\xbd\\xe6\\x95\\xb0\\xe7\\x9a\\x84\\xe5\\x8f\\xaf\\xe8\\xa7\\x81\\xe6\\x80\\xa7.sol\":671:1014  function examples() external view {... */\n    tag_8:\n        /* \"\\xe7\\xac\\xac\\xe4\\xba\\x8c\\xe5\\x91\\xa8/\\xe5\\xad\\x98\\xe5\\x82\\xa8/\\xe5\\x87\\xbd\\xe6\\x95\\xb0\\xe7\\x9a\\x84\\xe5\\x8f\\xaf\\xe8\\xa7\\x81\\xe6\\x80\\xa7.sol\":751:752  z */\n      sload(0x02)\n        /* \"\\xe7\\xac\\xac\\xe4\\xba\\x8c\\xe5\\x91\\xa8/\\xe5\\xad\\x98\\xe5\\x82\\xa8/\\xe5\\x87\\xbd\\xe6\\x95\\xb0\\xe7\\x9a\\x84\\xe5\\x8f\\xaf\\xe8\\xa7\\x81\\xe6\\x80\\xa7.sol\":749:750  y */\n      sload(0x01)\n        /* \"\\xe7\\xac\\xac\\xe4\\xba\\x8c\\xe5\\x91\\xa8/\\xe5\\xad\\x98\\xe5\\x82\\xa8/\\xe5\\x87\\xbd\\xe6\\x95\\xb0\\xe7\\x9a\\x84\\xe5\\x8f\\xaf\\xe8\\xa7\\x81\\xe6\\x80\\xa7.sol\":745:746  x */\n      sload(0x00)\n        /* \"\\xe7\\xac\\xac\\xe4\\xba\\x8c\\xe5\\x91\\xa8/\\xe5\\xad\\x98\\xe5\\x82\\xa8/\\xe5\\x87\\xbd\\xe6\\x95\\xb0\\xe7\\x9a\\x84\\xe5\\x8f\\xaf\\xe8\\xa7\\x81\\xe6\\x80\\xa7.sol\":745:750  x + y */\n      tag_20\n      swap2\n      swap1\n      tag_21\n      jump\t// in\n    tag_20:\n        /* \"\\xe7\\xac\\xac\\xe4\\xba\\x8c\\xe5\\x91\\xa8/\\xe5\\xad\\x98\\xe5\\x82\\xa8/\\xe5\\x87\\xbd\\xe6\\x95\\xb0\\xe7\\x9a\\x84\\xe5\\x8f\\xaf\\xe8\\xa7\\x81\\xe6\\x80\\xa7.sol\":745:752  x + y+z */\n      tag_22\n      swap2\n      swap1\n      tag_21\n      jump\t// in\n    tag_22:\n      pop\n        /* \"\\xe7\\xac\\xac\\xe4\\xba\\x8c\\xe5\\x91\\xa8/\\xe5\\xad\\x98\\xe5\\x82\\xa8/\\xe5\\x87\\xbd\\xe6\\x95\\xb0\\xe7\\x9a\\x84\\xe5\\x8f\\xaf\\xe8\\xa7\\x81\\xe6\\x80\\xa7.sol\":763:775  privateFun() */\n      tag_23\n        /* \"\\xe7\\xac\\xac\\xe4\\xba\\x8c\\xe5\\x91\\xa8/\\xe5\\xad\\x98\\xe5\\x82\\xa8/\\xe5\\x87\\xbd\\xe6\\x95\\xb0\\xe7\\x9a\\x84\\xe5\\x8f\\xaf\\xe8\\xa7\\x81\\xe6\\x80\\xa7.sol\":763:773  privateFun */\n      tag_24\n        /* \"\\xe7\\xac\\xac\\xe4\\xba\\x8c\\xe5\\x91\\xa8/\\xe5\\xad\\x98\\xe5\\x82\\xa8/\\xe5\\x87\\xbd\\xe6\\x95\\xb0\\xe7\\x9a\\x84\\xe5\\x8f\\xaf\\xe8\\xa7\\x81\\xe6\\x80\\xa7.sol\":763:775  privateFun() */\n      jump\t// in\n    tag_23:\n      pop\n        /* \"\\xe7\\xac\\xac\\xe4\\xba\\x8c\\xe5\\x91\\xa8/\\xe5\\xad\\x98\\xe5\\x82\\xa8/\\xe5\\x87\\xbd\\xe6\\x95\\xb0\\xe7\\x9a\\x84\\xe5\\x8f\\xaf\\xe8\\xa7\\x81\\xe6\\x80\\xa7.sol\":786:800  internalFunc() */\n      tag_25\n        /* \"\\xe7\\xac\\xac\\xe4\\xba\\x8c\\xe5\\x91\\xa8/\\xe5\\xad\\x98\\xe5\\x82\\xa8/\\xe5\\x87\\xbd\\xe6\\x95\\xb0\\xe7\\x9a\\x84\\xe5\\x8f\\xaf\\xe8\\xa7\\x81\\xe6\\x80\\xa7.sol\":786:798  internalFunc */\n      tag_26\n        /* \"\\xe7\\xac\\xac\\xe4\\xba\\x8c\\xe5\\x91\\xa8/\\xe5\\xad\\x98\\xe5\\x82\\xa8/\\xe5\\x87\\xbd\\xe6\\x95\\xb0\\xe7\\x9a\\x84\\xe5\\x8f\\xaf\\xe8\\xa7\\x81\\xe6\\x80\\xa7.sol\":786:800  internalFunc() */\n      jump\t// in\n    tag_25:\n      pop\n        /* \"\\xe7\\xac\\xac\\xe4\\xba\\x8c\\xe5\\x91\\xa8/\\xe5\\xad\\x98\\xe5\\x82\\xa8/\\xe5\\x87\\xbd\\xe6\\x95\\xb0\\xe7\\x9a\\x84\\xe5\\x8f\\xaf\\xe8\\xa7\\x81\\xe6\\x80\\xa7.sol\":811:823  publicFunc() */\n      tag_27\n        /* \"\\xe7\\xac\\xac\\xe4\\xba\\x8c\\xe5\\x91\\xa8/\\xe5\\xad\\x98\\xe5\\x82\\xa8/\\xe5\\x87\\xbd\\xe6\\x95\\xb0\\xe7\\x9a\\x84\\xe5\\x8f\\xaf\\xe8\\xa7\\x81\\xe6\\x80\\xa7.sol\":811:821  publicFunc */\n      tag_14\n        /* \"\\xe7\\xac\\xac\\xe4\\xba\\x8c\\xe5\\x91\\xa8/\\xe5\\xad\\x98\\xe5\\x82\\xa8/\\xe5\\x87\\xbd\\xe6\\x95\\xb0\\xe7\\x9a\\x84\\xe5\\x8f\\xaf\\xe8\\xa7\\x81\\xe6\\x80\\xa7.sol\":811:823  publicFunc() */\n      jump\t// in\n    tag_27:\n      pop\n        /* \"\\xe7\\xac\\xac\\xe4\\xba\\x8c\\xe5\\x91\\xa8/\\xe5\\xad\\x98\\xe5\\x82\\xa8/\\xe5\\x87\\xbd\\xe6\\x95\\xb0\\xe7\\x9a\\x84\\xe5\\x8f\\xaf\\xe8\\xa7\\x81\\xe6\\x80\\xa7.sol\":671:1014  function examples() external view {... */\n      jump\t// out\n        /* \"\\xe7\\xac\\xac\\xe4\\xba\\x8c\\xe5\\x91\\xa8/\\xe5\\xad\\x98\\xe5\\x82\\xa8/\\xe5\\x87\\xbd\\xe6\\x95\\xb0\\xe7\\x9a\\x84\\xe5\\x8f\\xaf\\xe8\\xa7\\x81\\xe6\\x80\\xa7.sol\":583:663  function externalFunc() external pure returns(uint){... */\n    tag_10:\n        /* \"\\xe7\\xac\\xac\\xe4\\xba\\x8c\\xe5\\x91\\xa8/\\xe5\\xad\\x98\\xe5\\x82\\xa8/\\xe5\\x87\\xbd\\xe6\\x95\\xb0\\xe7\\x9a\\x84\\xe5\\x8f\\xaf\\xe8\\xa7\\x81\\xe6\\x80\\xa7.sol\":629:633  uint */\n      0x00\n        /* \"\\xe7\\xac\\xac\\xe4\\xba\\x8c\\xe5\\x91\\xa8/\\xe5\\xad\\x98\\xe5\\x82\\xa8/\\xe5\\x87\\xbd\\xe6\\x95\\xb0\\xe7\\x9a\\x84\\xe5\\x8f\\xaf\\xe8\\xa7\\x81\\xe6\\x80\\xa7.sol\":652:655  300 */\n      0x012c\n        /* \"\\xe7\\xac\\xac\\xe4\\xba\\x8c\\xe5\\x91\\xa8/\\xe5\\xad\\x98\\xe5\\x82\\xa8/\\xe5\\x87\\xbd\\xe6\\x95\\xb0\\xe7\\x9a\\x84\\xe5\\x8f\\xaf\\xe8\\xa7\\x81\\xe6\\x80\\xa7.sol\":645:655  return 300 */\n      swap1\n      pop\n        /* \"\\xe7\\xac\\xac\\xe4\\xba\\x8c\\xe5\\x91\\xa8/\\xe5\\xad\\x98\\xe5\\x82\\xa8/\\xe5\\x87\\xbd\\xe6\\x95\\xb0\\xe7\\x9a\\x84\\xe5\\x8f\\xaf\\xe8\\xa7\\x81\\xe6\\x80\\xa7.sol\":583:663  function externalFunc() external pure returns(uint){... */\n      swap1\n      jump\t// out\n        /* \"\\xe7\\xac\\xac\\xe4\\xba\\x8c\\xe5\\x91\\xa8/\\xe5\\xad\\x98\\xe5\\x82\\xa8/\\xe5\\x87\\xbd\\xe6\\x95\\xb0\\xe7\\x9a\\x84\\xe5\\x8f\\xaf\\xe8\\xa7\\x81\\xe6\\x80\\xa7.sol\":497:573  function publicFunc() public pure returns(uint){... */\n    tag_14:\n        /* \"\\xe7\\xac\\xac\\xe4\\xba\\x8c\\xe5\\x91\\xa8/\\xe5\\xad\\x98\\xe5\\x82\\xa8/\\xe5\\x87\\xbd\\xe6\\x95\\xb0\\xe7\\x9a\\x84\\xe5\\x8f\\xaf\\xe8\\xa7\\x81\\xe6\\x80\\xa7.sol\":539:543  uint */\n      0x00\n        /* \"\\xe7\\xac\\xac\\xe4\\xba\\x8c\\xe5\\x91\\xa8/\\xe5\\xad\\x98\\xe5\\x82\\xa8/\\xe5\\x87\\xbd\\xe6\\x95\\xb0\\xe7\\x9a\\x84\\xe5\\x8f\\xaf\\xe8\\xa7\\x81\\xe6\\x80\\xa7.sol\":562:565  200 */\n      0xc8\n        /* \"\\xe7\\xac\\xac\\xe4\\xba\\x8c\\xe5\\x91\\xa8/\\xe5\\xad\\x98\\xe5\\x82\\xa8/\\xe5\\x87\\xbd\\xe6\\x95\\xb0\\xe7\\x9a\\x84\\xe5\\x8f\\xaf\\xe8\\xa7\\x81\\xe6\\x80\\xa7.sol\":555:565  return 200 */\n      swap1\n      pop\n        /* \"\\xe7\\xac\\xac\\xe4\\xba\\x8c\\xe5\\x91\\xa8/\\xe5\\xad\\x98\\xe5\\x82\\xa8/\\xe5\\x87\\xbd\\xe6\\x95\\xb0\\xe7\\x9a\\x84\\xe5\\x8f\\xaf\\xe8\\xa7\\x81\\xe6\\x80\\xa7.sol\":497:573  function publicFunc() public pure returns(uint){... */\n      swap1\n      jump\t// out\n        /* \"\\xe7\\xac\\xac\\xe4\\xba\\x8c\\xe5\\x91\\xa8/\\xe5\\xad\\x98\\xe5\\x82\\xa8/\\xe5\\x87\\xbd\\xe6\\x95\\xb0\\xe7\\x9a\\x84\\xe5\\x8f\\xaf\\xe8\\xa7\\x81\\xe6\\x80\\xa7.sol\":306:321  uint public z=2 */\n    tag_17:\n      sload(0x02)\n      dup2\n      jump\t// out\n        /* \"\\xe7\\xac\\xac\\xe4\\xba\\x8c\\xe5\\x91\\xa8/\\xe5\\xad\\x98\\xe5\\x82\\xa8/\\xe5\\x87\\xbd\\xe6\\x95\\xb0\\xe7\\x9a\\x84\\xe5\\x8f\\xaf\\xe8\\xa7\\x81\\xe6\\x80\\xa7.sol\":330:404  function privateFun() private pure returns(uint){... */\n    tag_24:\n        /* \"\\xe7\\xac\\xac\\xe4\\xba\\x8c\\xe5\\x91\\xa8/\\xe5\\xad\\x98\\xe5\\x82\\xa8/\\xe5\\x87\\xbd\\xe6\\x95\\xb0\\xe7\\x9a\\x84\\xe5\\x8f\\xaf\\xe8\\xa7\\x81\\xe6\\x80\\xa7.sol\":373:377  uint */\n      0x00\n        /* \"\\xe7\\xac\\xac\\xe4\\xba\\x8c\\xe5\\x91\\xa8/\\xe5\\xad\\x98\\xe5\\x82\\xa8/\\xe5\\x87\\xbd\\xe6\\x95\\xb0\\xe7\\x9a\\x84\\xe5\\x8f\\xaf\\xe8\\xa7\\x81\\xe6\\x80\\xa7.sol\":395:396  0 */\n      0x00\n        /* \"\\xe7\\xac\\xac\\xe4\\xba\\x8c\\xe5\\x91\\xa8/\\xe5\\xad\\x98\\xe5\\x82\\xa8/\\xe5\\x87\\xbd\\xe6\\x95\\xb0\\xe7\\x9a\\x84\\xe5\\x8f\\xaf\\xe8\\xa7\\x81\\xe6\\x80\\xa7.sol\":388:396  return 0 */\n      swap1\n      pop\n        /* \"\\xe7\\xac\\xac\\xe4\\xba\\x8c\\xe5\\x91\\xa8/\\xe5\\xad\\x98\\xe5\\x82\\xa8/\\xe5\\x87\\xbd\\xe6\\x95\\xb0\\xe7\\x9a\\x84\\xe5\\x8f\\xaf\\xe8\\xa7\\x81\\xe6\\x80\\xa7.sol\":330:404  function privateFun() private pure returns(uint){... */\n      swap1\n      jump\t// out\n        /* \"\\xe7\\xac\\xac\\xe4\\xba\\x8c\\xe5\\x91\\xa8/\\xe5\\xad\\x98\\xe5\\x82\\xa8/\\xe5\\x87\\xbd\\xe6\\x95\\xb0\\xe7\\x9a\\x84\\xe5\\x8f\\xaf\\xe8\\xa7\\x81\\xe6\\x80\\xa7.sol\":410:489  function internalFunc() internal pure returns(uint){... */\n    tag_26:\n        /* \"\\xe7\\xac\\xac\\xe4\\xba\\x8c\\xe5\\x91\\xa8/\\xe5\\xad\\x98\\xe5\\x82\\xa8/\\xe5\\x87\\xbd\\xe6\\x95\\xb0\\xe7\\x9a\\x84\\xe5\\x8f\\xaf\\xe8\\xa7\\x81\\xe6\\x80\\xa7.sol\":456:460  uint */\n      0x00\n        /* \"\\xe7\\xac\\xac\\xe4\\xba\\x8c\\xe5\\x91\\xa8/\\xe5\\xad\\x98\\xe5\\x82\\xa8/\\xe5\\x87\\xbd\\xe6\\x95\\xb0\\xe7\\x9a\\x84\\xe5\\x8f\\xaf\\xe8\\xa7\\x81\\xe6\\x80\\xa7.sol\":478:481  100 */\n      0x64\n        /* \"\\xe7\\xac\\xac\\xe4\\xba\\x8c\\xe5\\x91\\xa8/\\xe5\\xad\\x98\\xe5\\x82\\xa8/\\xe5\\x87\\xbd\\xe6\\x95\\xb0\\xe7\\x9a\\x84\\xe5\\x8f\\xaf\\xe8\\xa7\\x81\\xe6\\x80\\xa7.sol\":471:481  return 100 */\n      swap1\n      pop\n        /* \"\\xe7\\xac\\xac\\xe4\\xba\\x8c\\xe5\\x91\\xa8/\\xe5\\xad\\x98\\xe5\\x82\\xa8/\\xe5\\x87\\xbd\\xe6\\x95\\xb0\\xe7\\x9a\\x84\\xe5\\x8f\\xaf\\xe8\\xa7\\x81\\xe6\\x80\\xa7.sol\":410:489  function internalFunc() internal pure returns(uint){... */\n      swap1\n      jump\t// out\n        /* \"#utility.yul\":7:84   */\n    tag_32:\n        /* \"#utility.yul\":44:51   */\n      0x00\n        /* \"#utility.yul\":73:78   */\n      dup2\n        /* \"#utility.yul\":62:78   */\n      swap1\n      pop\n        /* \"#utility.yul\":7:84   */\n      swap2\n      swap1\n      pop\n      jump\t// out\n        /* \"#utility.yul\":90:208   */\n    tag_33:\n        /* \"#utility.yul\":177:201   */\n      tag_38\n        /* \"#utility.yul\":195:200   */\n      dup2\n        /* \"#utility.yul\":177:201   */\n      tag_32\n      jump\t// in\n    tag_38:\n        /* \"#utility.yul\":172:175   */\n      dup3\n        /* \"#utility.yul\":165:202   */\n      mstore\n        /* \"#utility.yul\":90:208   */\n      pop\n      pop\n      jump\t// out\n        /* \"#utility.yul\":214:436   */\n    tag_12:\n        /* \"#utility.yul\":307:311   */\n      0x00\n        /* \"#utility.yul\":345:347   */\n      0x20\n        /* \"#utility.yul\":334:343   */\n      dup3\n        /* \"#utility.yul\":330:348   */\n      add\n        /* \"#utility.yul\":322:348   */\n      swap1\n      pop\n        /* \"#utility.yul\":358:429   */\n      tag_40\n        /* \"#utility.yul\":426:427   */\n      0x00\n        /* \"#utility.yul\":415:424   */\n      dup4\n        /* \"#utility.yul\":411:428   */\n      add\n        /* \"#utility.yul\":402:408   */\n      dup5\n        /* \"#utility.yul\":358:429   */\n      tag_33\n      jump\t// in\n    tag_40:\n        /* \"#utility.yul\":214:436   */\n      swap3\n      swap2\n      pop\n      pop\n      jump\t// out\n        /* \"#utility.yul\":442:622   */\n    tag_34:\n        /* \"#utility.yul\":490:567   */\n      0x4e487b7100000000000000000000000000000000000000000000000000000000\n        /* \"#utility.yul\":487:488   */\n      0x00\n        /* \"#utility.yul\":480:568   */\n      mstore\n        /* \"#utility.yul\":587:591   */\n      0x11\n        /* \"#utility.yul\":584:585   */\n      0x04\n        /* \"#utility.yul\":577:592   */\n      mstore\n        /* \"#utility.yul\":611:615   */\n      0x24\n        /* \"#utility.yul\":608:609   */\n      0x00\n        /* \"#utility.yul\":601:616   */\n      revert\n        /* \"#utility.yul\":628:819   */\n    tag_21:\n        /* \"#utility.yul\":668:671   */\n      0x00\n        /* \"#utility.yul\":687:707   */\n      tag_43\n        /* \"#utility.yul\":705:706   */\n      dup3\n        /* \"#utility.yul\":687:707   */\n      tag_32\n      jump\t// in\n    tag_43:\n        /* \"#utility.yul\":682:707   */\n      swap2\n      pop\n        /* \"#utility.yul\":721:741   */\n      tag_44\n        /* \"#utility.yul\":739:740   */\n      dup4\n        /* \"#utility.yul\":721:741   */\n      tag_32\n      jump\t// in\n    tag_44:\n        /* \"#utility.yul\":716:741   */\n      swap3\n      pop\n        /* \"#utility.yul\":764:765   */\n      dup3\n        /* \"#utility.yul\":761:762   */\n      dup3\n        /* \"#utility.yul\":757:766   */\n      add\n        /* \"#utility.yul\":750:766   */\n      swap1\n      pop\n        /* \"#utility.yul\":785:788   */\n      dup1\n        /* \"#utility.yul\":782:783   */\n      dup3\n        /* \"#utility.yul\":779:789   */\n      gt\n        /* \"#utility.yul\":776:812   */\n      iszero\n      tag_45\n      jumpi\n        /* \"#utility.yul\":792:810   */\n      tag_46\n      tag_34\n      jump\t// in\n    tag_46:\n        /* \"#utility.yul\":776:812   */\n    tag_45:\n        /* \"#utility.yul\":628:819   */\n      swap3\n      swap2\n      pop\n      pop\n      jump\t// out\n\n    auxdata: 0xa26469706673582212204caab1803e6b5137b7302eace49f54e036ef5704c58f40f51dd61881dad6edbc64736f6c634300081e0033\n}\n",
				"bytecode": {
					"linkReferences": {},
					"object": "60806040525f5f5560018055600280553480156019575f5ffd5b506101d9806100275f395ff3fe608060405234801561000f575f5ffd5b506004361061004a575f3560e01c8063335d00c21461004e57806342b148aa146100585780634b73383f14610076578063c5d7802e14610094575b5f5ffd5b6100566100b2565b005b6100606100ec565b60405161006d919061012a565b60405180910390f35b61007e6100f5565b60405161008b919061012a565b60405180910390f35b61009c6100fd565b6040516100a9919061012a565b60405180910390f35b6002546001545f546100c49190610170565b6100ce9190610170565b506100d7610103565b506100e061010a565b506100e96100f5565b50565b5f61012c905090565b5f60c8905090565b60025481565b5f5f905090565b5f6064905090565b5f819050919050565b61012481610112565b82525050565b5f60208201905061013d5f83018461011b565b92915050565b7f4e487b71000000000000000000000000000000000000000000000000000000005f52601160045260245ffd5b5f61017a82610112565b915061018583610112565b925082820190508082111561019d5761019c610143565b5b9291505056fea26469706673582212204caab1803e6b5137b7302eace49f54e036ef5704c58f40f51dd61881dad6edbc64736f6c634300081e0033",
					"opcodes": "PUSH1 0x80 PUSH1 0x40 MSTORE PUSH0 PUSH0 SSTORE PUSH1 0x1 DUP1 SSTORE PUSH1 0x2 DUP1 SSTORE CALLVALUE DUP1 ISZERO PUSH1 0x19 JUMPI PUSH0 PUSH0 REVERT JUMPDEST POP PUSH2 0x1D9 DUP1 PUSH2 0x27 PUSH0 CODECOPY PUSH0 RETURN INVALID PUSH1 0x80 PUSH1 0x40 MSTORE CALLVALUE DUP1 ISZERO PUSH2 0xF JUMPI PUSH0 PUSH0 REVERT JUMPDEST POP PUSH1 0x4 CALLDATASIZE LT PUSH2 0x4A JUMPI PUSH0 CALLDATALOAD PUSH1 0xE0 SHR DUP1 PUSH4 0x335D00C2 EQ PUSH2 0x4E JUMPI DUP1 PUSH4 0x42B148AA EQ PUSH2 0x58 JUMPI DUP1 PUSH4 0x4B73383F EQ PUSH2 0x76 JUMPI DUP1 PUSH4 0xC5D7802E EQ PUSH2 0x94 JUMPI JUMPDEST PUSH0 PUSH0 REVERT JUMPDEST PUSH2 0x56 PUSH2 0xB2 JUMP JUMPDEST STOP JUMPDEST PUSH2 0x60 PUSH2 0xEC JUMP JUMPDEST PUSH1 0x40 MLOAD PUSH2 0x6D SWAP2 SWAP1 PUSH2 0x12A JUMP JUMPDEST PUSH1 0x40 MLOAD DUP1 SWAP2 SUB SWAP1 RETURN JUMPDEST PUSH2 0x7E PUSH2 0xF5 JUMP JUMPDEST PUSH1 0x40 MLOAD PUSH2 0x8B SWAP2 SWAP1 PUSH2 0x12A JUMP JUMPDEST PUSH1 0x40 MLOAD DUP1 SWAP2 SUB SWAP1 RETURN JUMPDEST PUSH2 0x9C PUSH2 0xFD JUMP JUMPDEST PUSH1 0x40 MLOAD PUSH2 0xA9 SWAP2 SWAP1 PUSH2 0x12A JUMP JUMPDEST PUSH1 0x40 MLOAD DUP1 SWAP2 SUB SWAP1 RETURN JUMPDEST PUSH1 0x2 SLOAD PUSH1 0x1 SLOAD PUSH0 SLOAD PUSH2 0xC4 SWAP2 SWAP1 PUSH2 0x170 JUMP JUMPDEST PUSH2 0xCE SWAP2 SWAP1 PUSH2 0x170 JUMP JUMPDEST POP PUSH2 0xD7 PUSH2 0x103 JUMP JUMPDEST POP PUSH2 0xE0 PUSH2 0x10A JUMP JUMPDEST POP PUSH2 0xE9 PUSH2 0xF5 JUMP JUMPDEST POP JUMP JUMPDEST PUSH0 PUSH2 0x12C SWAP1 POP SWAP1 JUMP JUMPDEST PUSH0 PUSH1 0xC8 SWAP1 POP SWAP1 JUMP JUMPDEST PUSH1 0x2 SLOAD DUP2 JUMP JUMPDEST PUSH0 PUSH0 SWAP1 POP SWAP1 JUMP JUMPDEST PUSH0 PUSH1 0x64 SWAP1 POP SWAP1 JUMP JUMPDEST PUSH0 DUP2 SWAP1 POP SWAP2 SWAP1 POP JUMP JUMPDEST PUSH2 0x124 DUP2 PUSH2 0x112 JUMP JUMPDEST DUP3 MSTORE POP POP JUMP JUMPDEST PUSH0 PUSH1 0x20 DUP3 ADD SWAP1 POP PUSH2 0x13D PUSH0 DUP4 ADD DUP5 PUSH2 0x11B JUMP JUMPDEST SWAP3 SWAP2 POP POP JUMP JUMPDEST PUSH32 0x4E487B7100000000000000000000000000000000000000000000000000000000 PUSH0 MSTORE PUSH1 0x11 PUSH1 0x4 MSTORE PUSH1 0x24 PUSH0 REVERT JUMPDEST PUSH0 PUSH2 0x17A DUP3 PUSH2 0x112 JUMP JUMPDEST SWAP2 POP PUSH2 0x185 DUP4 PUSH2 0x112 JUMP JUMPDEST SWAP3 POP DUP3 DUP3 ADD SWAP1 POP DUP1 DUP3 GT ISZERO PUSH2 0x19D JUMPI PUSH2 0x19C PUSH2 0x143 JUMP JUMPDEST JUMPDEST SWAP3 SWAP2 POP POP JUMP INVALID LOG2 PUSH5 0x6970667358 0x22 SLT KECCAK256 0x4C 0xAA 0xB1 DUP1 RETURNDATACOPY PUSH12 0x5137B7302EACE49F54E036EF JUMPI DIV 0xC5 DUP16 BLOCKHASH CREATE2 SAR 0xD6 XOR DUP2 0xDA 0xD6 0xED 0xBC PUSH5 0x736F6C6343 STOP ADDMOD 0x1E STOP CALLER "
				},
				"gasEstimates": {
					"creation": {
						"codeDepositCost": "94600",
						"executionCost": "49355",
						"totalCost": "143955"
					},
					"external": {
						"examples()": "infinite",
						"externalFunc()": "332",
						"publicFunc()": "354",
						"z()": "2469"
					},
					"internal": {
						"internalFunc()": "22",
						"privateFun()": "21"
					}
				},
				"methodIdentifiers": {
					"examples()": "335d00c2",
					"externalFunc()": "42b148aa",
					"publicFunc()": "4b73383f",
					"z()": "c5d7802e"
				}
			},
			"storageLayout": {
				"storage": [
					{
						"astId": 4,
						"contract": "第二周/存储/函数的可见性.sol:Base",
						"label": "x",
						"offset": 0,
						"slot": "0",
						"type": "t_uint256"
					},
					{
						"astId": 7,
						"contract": "第二周/存储/函数的可见性.sol:Base",
						"label": "y",
						"offset": 0,
						"slot": "1",
						"type": "t_uint256"
					},
					{
						"astId": 10,
						"contract": "第二周/存储/函数的可见性.sol:Base",
						"label": "z",
						"offset": 0,
						"slot": "2",
						"type": "t_uint256"
					}
				],
				"types": {
					"t_uint256": {
						"encoding": "inplace",
						"label": "uint256",
						"numberOfBytes": "32"
					}
				}
			},
			"userdoc": {
				"kind": "user",
				"methods": {},
				"version": 1
			}
		}
	}
}