{
	"第二周/存储/函数的可见性.sol": {
		"Child": {
			"abi": [
				{
					"inputs": [],
					"name": "example1",
					"outputs": [],
					"stateMutability": "view",
					"type": "function"
				},
				{
					"inputs": [],
					"name": "examples",
					"outputs": [],
					"stateMutability": "view",
					"type": "function"
				},
				{
					"inputs": [],
					"name": "externalFunc",
					"outputs": [
						{
							"internalType": "uint256",
							"name": "",
							"type": "uint256"
						}
					],
					"stateMutability": "pure",
					"type": "function"
				},
				{
					"inputs": [],
					"name": "publicFunc",
					"outputs": [
						{
							"internalType": "uint256",
							"name": "",
							"type": "uint256"
						}
					],
					"stateMutability": "pure",
					"type": "function"
				},
				{
					"inputs": [],
					"name": "z",
					"outputs": [
						{
							"internalType": "uint256",
							"name": "",
							"type": "uint256"
						}
					],
					"stateMutability": "view",
					"type": "function"
				}
			],
			"devdoc": {
				"kind": "dev",
				"methods": {},
				"version": 1
			},
			"evm": {
				"assembly": "    /* \"\\xe7\\xac\\xac\\xe4\\xba\\x8c\\xe5\\x91\\xa8/\\xe5\\xad\\x98\\xe5\\x82\\xa8/\\xe5\\x87\\xbd\\xe6\\x95\\xb0\\xe7\\x9a\\x84\\xe5\\x8f\\xaf\\xe8\\xa7\\x81\\xe6\\x80\\xa7.sol\":1029:1271  contract Child is Base{... */\n  mstore(0x40, 0x80)\n    /* \"\\xe7\\xac\\xac\\xe4\\xba\\x8c\\xe5\\x91\\xa8/\\xe5\\xad\\x98\\xe5\\x82\\xa8/\\xe5\\x87\\xbd\\xe6\\x95\\xb0\\xe7\\x9a\\x84\\xe5\\x8f\\xaf\\xe8\\xa7\\x81\\xe6\\x80\\xa7.sol\":274:275  0 */\n  0x00\n    /* \"\\xe7\\xac\\xac\\xe4\\xba\\x8c\\xe5\\x91\\xa8/\\xe5\\xad\\x98\\xe5\\x82\\xa8/\\xe5\\x87\\xbd\\xe6\\x95\\xb0\\xe7\\x9a\\x84\\xe5\\x8f\\xaf\\xe8\\xa7\\x81\\xe6\\x80\\xa7.sol\":259:275  uint private x=0 */\n  0x00\n  sstore\n    /* \"\\xe7\\xac\\xac\\xe4\\xba\\x8c\\xe5\\x91\\xa8/\\xe5\\xad\\x98\\xe5\\x82\\xa8/\\xe5\\x87\\xbd\\xe6\\x95\\xb0\\xe7\\x9a\\x84\\xe5\\x8f\\xaf\\xe8\\xa7\\x81\\xe6\\x80\\xa7.sol\":298:299  1 */\n  0x01\n    /* \"\\xe7\\xac\\xac\\xe4\\xba\\x8c\\xe5\\x91\\xa8/\\xe5\\xad\\x98\\xe5\\x82\\xa8/\\xe5\\x87\\xbd\\xe6\\x95\\xb0\\xe7\\x9a\\x84\\xe5\\x8f\\xaf\\xe8\\xa7\\x81\\xe6\\x80\\xa7.sol\":282:299  uint internal y=1 */\n  dup1\n  sstore\n    /* \"\\xe7\\xac\\xac\\xe4\\xba\\x8c\\xe5\\x91\\xa8/\\xe5\\xad\\x98\\xe5\\x82\\xa8/\\xe5\\x87\\xbd\\xe6\\x95\\xb0\\xe7\\x9a\\x84\\xe5\\x8f\\xaf\\xe8\\xa7\\x81\\xe6\\x80\\xa7.sol\":320:321  2 */\n  0x02\n    /* \"\\xe7\\xac\\xac\\xe4\\xba\\x8c\\xe5\\x91\\xa8/\\xe5\\xad\\x98\\xe5\\x82\\xa8/\\xe5\\x87\\xbd\\xe6\\x95\\xb0\\xe7\\x9a\\x84\\xe5\\x8f\\xaf\\xe8\\xa7\\x81\\xe6\\x80\\xa7.sol\":306:321  uint public z=2 */\n  dup1\n  sstore\n    /* \"\\xe7\\xac\\xac\\xe4\\xba\\x8c\\xe5\\x91\\xa8/\\xe5\\xad\\x98\\xe5\\x82\\xa8/\\xe5\\x87\\xbd\\xe6\\x95\\xb0\\xe7\\x9a\\x84\\xe5\\x8f\\xaf\\xe8\\xa7\\x81\\xe6\\x80\\xa7.sol\":1029:1271  contract Child is Base{... */\n  callvalue\n  dup1\n  iszero\n  tag_1\n  jumpi\n  revert(0x00, 0x00)\ntag_1:\n  pop\n  dataSize(sub_0)\n  dup1\n  dataOffset(sub_0)\n  0x00\n  codecopy\n  0x00\n  return\nstop\n\nsub_0: assembly {\n        /* \"\\xe7\\xac\\xac\\xe4\\xba\\x8c\\xe5\\x91\\xa8/\\xe5\\xad\\x98\\xe5\\x82\\xa8/\\xe5\\x87\\xbd\\xe6\\x95\\xb0\\xe7\\x9a\\x84\\xe5\\x8f\\xaf\\xe8\\xa7\\x81\\xe6\\x80\\xa7.sol\":1029:1271  contract Child is Base{... */\n      mstore(0x40, 0x80)\n      callvalue\n      dup1\n      iszero\n      tag_1\n      jumpi\n      revert(0x00, 0x00)\n    tag_1:\n      pop\n      jumpi(tag_2, lt(calldatasize, 0x04))\n      shr(0xe0, calldataload(0x00))\n      dup1\n      0x1ec771e9\n      eq\n      tag_3\n      jumpi\n      dup1\n      0x335d00c2\n      eq\n      tag_4\n      jumpi\n      dup1\n      0x42b148aa\n      eq\n      tag_5\n      jumpi\n      dup1\n      0x4b73383f\n      eq\n      tag_6\n      jumpi\n      dup1\n      0xc5d7802e\n      eq\n      tag_7\n      jumpi\n    tag_2:\n      revert(0x00, 0x00)\n        /* \"\\xe7\\xac\\xac\\xe4\\xba\\x8c\\xe5\\x91\\xa8/\\xe5\\xad\\x98\\xe5\\x82\\xa8/\\xe5\\x87\\xbd\\xe6\\x95\\xb0\\xe7\\x9a\\x84\\xe5\\x8f\\xaf\\xe8\\xa7\\x81\\xe6\\x80\\xa7.sol\":1059:1264  function example1() external view {... */\n    tag_3:\n      tag_8\n      tag_9\n      jump\t// in\n    tag_8:\n      stop\n        /* \"\\xe7\\xac\\xac\\xe4\\xba\\x8c\\xe5\\x91\\xa8/\\xe5\\xad\\x98\\xe5\\x82\\xa8/\\xe5\\x87\\xbd\\xe6\\x95\\xb0\\xe7\\x9a\\x84\\xe5\\x8f\\xaf\\xe8\\xa7\\x81\\xe6\\x80\\xa7.sol\":671:1014  function examples() external view {... */\n    tag_4:\n      tag_10\n      tag_11\n      jump\t// in\n    tag_10:\n      stop\n        /* \"\\xe7\\xac\\xac\\xe4\\xba\\x8c\\xe5\\x91\\xa8/\\xe5\\xad\\x98\\xe5\\x82\\xa8/\\xe5\\x87\\xbd\\xe6\\x95\\xb0\\xe7\\x9a\\x84\\xe5\\x8f\\xaf\\xe8\\xa7\\x81\\xe6\\x80\\xa7.sol\":583:663  function externalFunc() external pure returns(uint){... */\n    tag_5:\n      tag_12\n      tag_13\n      jump\t// in\n    tag_12:\n      mload(0x40)\n      tag_14\n      swap2\n      swap1\n      tag_15\n      jump\t// in\n    tag_14:\n      mload(0x40)\n      dup1\n      swap2\n      sub\n      swap1\n      return\n        /* \"\\xe7\\xac\\xac\\xe4\\xba\\x8c\\xe5\\x91\\xa8/\\xe5\\xad\\x98\\xe5\\x82\\xa8/\\xe5\\x87\\xbd\\xe6\\x95\\xb0\\xe7\\x9a\\x84\\xe5\\x8f\\xaf\\xe8\\xa7\\x81\\xe6\\x80\\xa7.sol\":497:573  function publicFunc() public pure returns(uint){... */\n    tag_6:\n      tag_16\n      tag_17\n      jump\t// in\n    tag_16:\n      mload(0x40)\n      tag_18\n      swap2\n      swap1\n      tag_15\n      jump\t// in\n    tag_18:\n      mload(0x40)\n      dup1\n      swap2\n      sub\n      swap1\n      return\n        /* \"\\xe7\\xac\\xac\\xe4\\xba\\x8c\\xe5\\x91\\xa8/\\xe5\\xad\\x98\\xe5\\x82\\xa8/\\xe5\\x87\\xbd\\xe6\\x95\\xb0\\xe7\\x9a\\x84\\xe5\\x8f\\xaf\\xe8\\xa7\\x81\\xe6\\x80\\xa7.sol\":306:321  uint public z=2 */\n    tag_7:\n      tag_19\n      tag_20\n      jump\t// in\n    tag_19:\n      mload(0x40)\n      tag_21\n      swap2\n      swap1\n      tag_15\n      jump\t// in\n    tag_21:\n      mload(0x40)\n      dup1\n      swap2\n      sub\n      swap1\n      return\n        /* \"\\xe7\\xac\\xac\\xe4\\xba\\x8c\\xe5\\x91\\xa8/\\xe5\\xad\\x98\\xe5\\x82\\xa8/\\xe5\\x87\\xbd\\xe6\\x95\\xb0\\xe7\\x9a\\x84\\xe5\\x8f\\xaf\\xe8\\xa7\\x81\\xe6\\x80\\xa7.sol\":1059:1264  function example1() external view {... */\n    tag_9:\n        /* \"\\xe7\\xac\\xac\\xe4\\xba\\x8c\\xe5\\x91\\xa8/\\xe5\\xad\\x98\\xe5\\x82\\xa8/\\xe5\\x87\\xbd\\xe6\\x95\\xb0\\xe7\\x9a\\x84\\xe5\\x8f\\xaf\\xe8\\xa7\\x81\\xe6\\x80\\xa7.sol\":1182:1183  z */\n      sload(0x02)\n        /* \"\\xe7\\xac\\xac\\xe4\\xba\\x8c\\xe5\\x91\\xa8/\\xe5\\xad\\x98\\xe5\\x82\\xa8/\\xe5\\x87\\xbd\\xe6\\x95\\xb0\\xe7\\x9a\\x84\\xe5\\x8f\\xaf\\xe8\\xa7\\x81\\xe6\\x80\\xa7.sol\":1180:1181  y */\n      sload(0x01)\n        /* \"\\xe7\\xac\\xac\\xe4\\xba\\x8c\\xe5\\x91\\xa8/\\xe5\\xad\\x98\\xe5\\x82\\xa8/\\xe5\\x87\\xbd\\xe6\\x95\\xb0\\xe7\\x9a\\x84\\xe5\\x8f\\xaf\\xe8\\xa7\\x81\\xe6\\x80\\xa7.sol\":1180:1183  y+z */\n      tag_23\n      swap2\n      swap1\n      tag_24\n      jump\t// in\n    tag_23:\n      pop\n        /* \"\\xe7\\xac\\xac\\xe4\\xba\\x8c\\xe5\\x91\\xa8/\\xe5\\xad\\x98\\xe5\\x82\\xa8/\\xe5\\x87\\xbd\\xe6\\x95\\xb0\\xe7\\x9a\\x84\\xe5\\x8f\\xaf\\xe8\\xa7\\x81\\xe6\\x80\\xa7.sol\":1192:1206  internalFunc() */\n      tag_25\n        /* \"\\xe7\\xac\\xac\\xe4\\xba\\x8c\\xe5\\x91\\xa8/\\xe5\\xad\\x98\\xe5\\x82\\xa8/\\xe5\\x87\\xbd\\xe6\\x95\\xb0\\xe7\\x9a\\x84\\xe5\\x8f\\xaf\\xe8\\xa7\\x81\\xe6\\x80\\xa7.sol\":1192:1204  internalFunc */\n      tag_26\n        /* \"\\xe7\\xac\\xac\\xe4\\xba\\x8c\\xe5\\x91\\xa8/\\xe5\\xad\\x98\\xe5\\x82\\xa8/\\xe5\\x87\\xbd\\xe6\\x95\\xb0\\xe7\\x9a\\x84\\xe5\\x8f\\xaf\\xe8\\xa7\\x81\\xe6\\x80\\xa7.sol\":1192:1206  internalFunc() */\n      jump\t// in\n    tag_25:\n      pop\n        /* \"\\xe7\\xac\\xac\\xe4\\xba\\x8c\\xe5\\x91\\xa8/\\xe5\\xad\\x98\\xe5\\x82\\xa8/\\xe5\\x87\\xbd\\xe6\\x95\\xb0\\xe7\\x9a\\x84\\xe5\\x8f\\xaf\\xe8\\xa7\\x81\\xe6\\x80\\xa7.sol\":1230:1242  publicFunc() */\n      tag_27\n        /* \"\\xe7\\xac\\xac\\xe4\\xba\\x8c\\xe5\\x91\\xa8/\\xe5\\xad\\x98\\xe5\\x82\\xa8/\\xe5\\x87\\xbd\\xe6\\x95\\xb0\\xe7\\x9a\\x84\\xe5\\x8f\\xaf\\xe8\\xa7\\x81\\xe6\\x80\\xa7.sol\":1230:1240  publicFunc */\n      tag_17\n        /* \"\\xe7\\xac\\xac\\xe4\\xba\\x8c\\xe5\\x91\\xa8/\\xe5\\xad\\x98\\xe5\\x82\\xa8/\\xe5\\x87\\xbd\\xe6\\x95\\xb0\\xe7\\x9a\\x84\\xe5\\x8f\\xaf\\xe8\\xa7\\x81\\xe6\\x80\\xa7.sol\":1230:1242  publicFunc() */\n      jump\t// in\n    tag_27:\n      pop\n        /* \"\\xe7\\xac\\xac\\xe4\\xba\\x8c\\xe5\\x91\\xa8/\\xe5\\xad\\x98\\xe5\\x82\\xa8/\\xe5\\x87\\xbd\\xe6\\x95\\xb0\\xe7\\x9a\\x84\\xe5\\x8f\\xaf\\xe8\\xa7\\x81\\xe6\\x80\\xa7.sol\":1059:1264  function example1() external view {... */\n      jump\t// out\n        /* \"\\xe7\\xac\\xac\\xe4\\xba\\x8c\\xe5\\x91\\xa8/\\xe5\\xad\\x98\\xe5\\x82\\xa8/\\xe5\\x87\\xbd\\xe6\\x95\\xb0\\xe7\\x9a\\x84\\xe5\\x8f\\xaf\\xe8\\xa7\\x81\\xe6\\x80\\xa7.sol\":671:1014  function examples() external view {... */\n    tag_11:\n        /* \"\\xe7\\xac\\xac\\xe4\\xba\\x8c\\xe5\\x91\\xa8/\\xe5\\xad\\x98\\xe5\\x82\\xa8/\\xe5\\x87\\xbd\\xe6\\x95\\xb0\\xe7\\x9a\\x84\\xe5\\x8f\\xaf\\xe8\\xa7\\x81\\xe6\\x80\\xa7.sol\":751:752  z */\n      sload(0x02)\n        /* \"\\xe7\\xac\\xac\\xe4\\xba\\x8c\\xe5\\x91\\xa8/\\xe5\\xad\\x98\\xe5\\x82\\xa8/\\xe5\\x87\\xbd\\xe6\\x95\\xb0\\xe7\\x9a\\x84\\xe5\\x8f\\xaf\\xe8\\xa7\\x81\\xe6\\x80\\xa7.sol\":749:750  y */\n      sload(0x01)\n        /* \"\\xe7\\xac\\xac\\xe4\\xba\\x8c\\xe5\\x91\\xa8/\\xe5\\xad\\x98\\xe5\\x82\\xa8/\\xe5\\x87\\xbd\\xe6\\x95\\xb0\\xe7\\x9a\\x84\\xe5\\x8f\\xaf\\xe8\\xa7\\x81\\xe6\\x80\\xa7.sol\":745:746  x */\n      sload(0x00)\n        /* \"\\xe7\\xac\\xac\\xe4\\xba\\x8c\\xe5\\x91\\xa8/\\xe5\\xad\\x98\\xe5\\x82\\xa8/\\xe5\\x87\\xbd\\xe6\\x95\\xb0\\xe7\\x9a\\x84\\xe5\\x8f\\xaf\\xe8\\xa7\\x81\\xe6\\x80\\xa7.sol\":745:750  x + y */\n      tag_29\n      swap2\n      swap1\n      tag_24\n      jump\t// in\n    tag_29:\n        /* \"\\xe7\\xac\\xac\\xe4\\xba\\x8c\\xe5\\x91\\xa8/\\xe5\\xad\\x98\\xe5\\x82\\xa8/\\xe5\\x87\\xbd\\xe6\\x95\\xb0\\xe7\\x9a\\x84\\xe5\\x8f\\xaf\\xe8\\xa7\\x81\\xe6\\x80\\xa7.sol\":745:752  x + y+z */\n      tag_30\n      swap2\n      swap1\n      tag_24\n      jump\t// in\n    tag_30:\n      pop\n        /* \"\\xe7\\xac\\xac\\xe4\\xba\\x8c\\xe5\\x91\\xa8/\\xe5\\xad\\x98\\xe5\\x82\\xa8/\\xe5\\x87\\xbd\\xe6\\x95\\xb0\\xe7\\x9a\\x84\\xe5\\x8f\\xaf\\xe8\\xa7\\x81\\xe6\\x80\\xa7.sol\":763:775  privateFun() */\n      tag_31\n        /* \"\\xe7\\xac\\xac\\xe4\\xba\\x8c\\xe5\\x91\\xa8/\\xe5\\xad\\x98\\xe5\\x82\\xa8/\\xe5\\x87\\xbd\\xe6\\x95\\xb0\\xe7\\x9a\\x84\\xe5\\x8f\\xaf\\xe8\\xa7\\x81\\xe6\\x80\\xa7.sol\":763:773  privateFun */\n      tag_32\n        /* \"\\xe7\\xac\\xac\\xe4\\xba\\x8c\\xe5\\x91\\xa8/\\xe5\\xad\\x98\\xe5\\x82\\xa8/\\xe5\\x87\\xbd\\xe6\\x95\\xb0\\xe7\\x9a\\x84\\xe5\\x8f\\xaf\\xe8\\xa7\\x81\\xe6\\x80\\xa7.sol\":763:775  privateFun() */\n      jump\t// in\n    tag_31:\n      pop\n        /* \"\\xe7\\xac\\xac\\xe4\\xba\\x8c\\xe5\\x91\\xa8/\\xe5\\xad\\x98\\xe5\\x82\\xa8/\\xe5\\x87\\xbd\\xe6\\x95\\xb0\\xe7\\x9a\\x84\\xe5\\x8f\\xaf\\xe8\\xa7\\x81\\xe6\\x80\\xa7.sol\":786:800  internalFunc() */\n      tag_33\n        /* \"\\xe7\\xac\\xac\\xe4\\xba\\x8c\\xe5\\x91\\xa8/\\xe5\\xad\\x98\\xe5\\x82\\xa8/\\xe5\\x87\\xbd\\xe6\\x95\\xb0\\xe7\\x9a\\x84\\xe5\\x8f\\xaf\\xe8\\xa7\\x81\\xe6\\x80\\xa7.sol\":786:798  internalFunc */\n      tag_26\n        /* \"\\xe7\\xac\\xac\\xe4\\xba\\x8c\\xe5\\x91\\xa8/\\xe5\\xad\\x98\\xe5\\x82\\xa8/\\xe5\\x87\\xbd\\xe6\\x95\\xb0\\xe7\\x9a\\x84\\xe5\\x8f\\xaf\\xe8\\xa7\\x81\\xe6\\x80\\xa7.sol\":786:800  internalFunc() */\n      jump\t// in\n    tag_33:\n      pop\n        /* \"\\xe7\\xac\\xac\\xe4\\xba\\x8c\\xe5\\x91\\xa8/\\xe5\\xad\\x98\\xe5\\x82\\xa8/\\xe5\\x87\\xbd\\xe6\\x95\\xb0\\xe7\\x9a\\x84\\xe5\\x8f\\xaf\\xe8\\xa7\\x81\\xe6\\x80\\xa7.sol\":811:823  publicFunc() */\n      tag_34\n        /* \"\\xe7\\xac\\xac\\xe4\\xba\\x8c\\xe5\\x91\\xa8/\\xe5\\xad\\x98\\xe5\\x82\\xa8/\\xe5\\x87\\xbd\\xe6\\x95\\xb0\\xe7\\x9a\\x84\\xe5\\x8f\\xaf\\xe8\\xa7\\x81\\xe6\\x80\\xa7.sol\":811:821  publicFunc */\n      tag_17\n        /* \"\\xe7\\xac\\xac\\xe4\\xba\\x8c\\xe5\\x91\\xa8/\\xe5\\xad\\x98\\xe5\\x82\\xa8/\\xe5\\x87\\xbd\\xe6\\x95\\xb0\\xe7\\x9a\\x84\\xe5\\x8f\\xaf\\xe8\\xa7\\x81\\xe6\\x80\\xa7.sol\":811:823  publicFunc() */\n      jump\t// in\n    tag_34:\n      pop\n        /* \"\\xe7\\xac\\xac\\xe4\\xba\\x8c\\xe5\\x91\\xa8/\\xe5\\xad\\x98\\xe5\\x82\\xa8/\\xe5\\x87\\xbd\\xe6\\x95\\xb0\\xe7\\x9a\\x84\\xe5\\x8f\\xaf\\xe8\\xa7\\x81\\xe6\\x80\\xa7.sol\":671:1014  function examples() external view {... */\n      jump\t// out\n        /* \"\\xe7\\xac\\xac\\xe4\\xba\\x8c\\xe5\\x91\\xa8/\\xe5\\xad\\x98\\xe5\\x82\\xa8/\\xe5\\x87\\xbd\\xe6\\x95\\xb0\\xe7\\x9a\\x84\\xe5\\x8f\\xaf\\xe8\\xa7\\x81\\xe6\\x80\\xa7.sol\":583:663  function externalFunc() external pure returns(uint){... */\n    tag_13:\n        /* \"\\xe7\\xac\\xac\\xe4\\xba\\x8c\\xe5\\x91\\xa8/\\xe5\\xad\\x98\\xe5\\x82\\xa8/\\xe5\\x87\\xbd\\xe6\\x95\\xb0\\xe7\\x9a\\x84\\xe5\\x8f\\xaf\\xe8\\xa7\\x81\\xe6\\x80\\xa7.sol\":629:633  uint */\n      0x00\n        /* \"\\xe7\\xac\\xac\\xe4\\xba\\x8c\\xe5\\x91\\xa8/\\xe5\\xad\\x98\\xe5\\x82\\xa8/\\xe5\\x87\\xbd\\xe6\\x95\\xb0\\xe7\\x9a\\x84\\xe5\\x8f\\xaf\\xe8\\xa7\\x81\\xe6\\x80\\xa7.sol\":652:655  300 */\n      0x012c\n        /* \"\\xe7\\xac\\xac\\xe4\\xba\\x8c\\xe5\\x91\\xa8/\\xe5\\xad\\x98\\xe5\\x82\\xa8/\\xe5\\x87\\xbd\\xe6\\x95\\xb0\\xe7\\x9a\\x84\\xe5\\x8f\\xaf\\xe8\\xa7\\x81\\xe6\\x80\\xa7.sol\":645:655  return 300 */\n      swap1\n      pop\n        /* \"\\xe7\\xac\\xac\\xe4\\xba\\x8c\\xe5\\x91\\xa8/\\xe5\\xad\\x98\\xe5\\x82\\xa8/\\xe5\\x87\\xbd\\xe6\\x95\\xb0\\xe7\\x9a\\x84\\xe5\\x8f\\xaf\\xe8\\xa7\\x81\\xe6\\x80\\xa7.sol\":583:663  function externalFunc() external pure returns(uint){... */\n      swap1\n      jump\t// out\n        /* \"\\xe7\\xac\\xac\\xe4\\xba\\x8c\\xe5\\x91\\xa8/\\xe5\\xad\\x98\\xe5\\x82\\xa8/\\xe5\\x87\\xbd\\xe6\\x95\\xb0\\xe7\\x9a\\x84\\xe5\\x8f\\xaf\\xe8\\xa7\\x81\\xe6\\x80\\xa7.sol\":497:573  function publicFunc() public pure returns(uint){... */\n    tag_17:\n        /* \"\\xe7\\xac\\xac\\xe4\\xba\\x8c\\xe5\\x91\\xa8/\\xe5\\xad\\x98\\xe5\\x82\\xa8/\\xe5\\x87\\xbd\\xe6\\x95\\xb0\\xe7\\x9a\\x84\\xe5\\x8f\\xaf\\xe8\\xa7\\x81\\xe6\\x80\\xa7.sol\":539:543  uint */\n      0x00\n        /* \"\\xe7\\xac\\xac\\xe4\\xba\\x8c\\xe5\\x91\\xa8/\\xe5\\xad\\x98\\xe5\\x82\\xa8/\\xe5\\x87\\xbd\\xe6\\x95\\xb0\\xe7\\x9a\\x84\\xe5\\x8f\\xaf\\xe8\\xa7\\x81\\xe6\\x80\\xa7.sol\":562:565  200 */\n      0xc8\n        /* \"\\xe7\\xac\\xac\\xe4\\xba\\x8c\\xe5\\x91\\xa8/\\xe5\\xad\\x98\\xe5\\x82\\xa8/\\xe5\\x87\\xbd\\xe6\\x95\\xb0\\xe7\\x9a\\x84\\xe5\\x8f\\xaf\\xe8\\xa7\\x81\\xe6\\x80\\xa7.sol\":555:565  return 200 */\n      swap1\n      pop\n        /* \"\\xe7\\xac\\xac\\xe4\\xba\\x8c\\xe5\\x91\\xa8/\\xe5\\xad\\x98\\xe5\\x82\\xa8/\\xe5\\x87\\xbd\\xe6\\x95\\xb0\\xe7\\x9a\\x84\\xe5\\x8f\\xaf\\xe8\\xa7\\x81\\xe6\\x80\\xa7.sol\":497:573  function publicFunc() public pure returns(uint){... */\n      swap1\n      jump\t// out\n        /* \"\\xe7\\xac\\xac\\xe4\\xba\\x8c\\xe5\\x91\\xa8/\\xe5\\xad\\x98\\xe5\\x82\\xa8/\\xe5\\x87\\xbd\\xe6\\x95\\xb0\\xe7\\x9a\\x84\\xe5\\x8f\\xaf\\xe8\\xa7\\x81\\xe6\\x80\\xa7.sol\":306:321  uint public z=2 */\n    tag_20:\n      sload(0x02)\n      dup2\n      jump\t// out\n        /* \"\\xe7\\xac\\xac\\xe4\\xba\\x8c\\xe5\\x91\\xa8/\\xe5\\xad\\x98\\xe5\\x82\\xa8/\\xe5\\x87\\xbd\\xe6\\x95\\xb0\\xe7\\x9a\\x84\\xe5\\x8f\\xaf\\xe8\\xa7\\x81\\xe6\\x80\\xa7.sol\":410:489  function internalFunc() internal pure returns(uint){... */\n    tag_26:\n        /* \"\\xe7\\xac\\xac\\xe4\\xba\\x8c\\xe5\\x91\\xa8/\\xe5\\xad\\x98\\xe5\\x82\\xa8/\\xe5\\x87\\xbd\\xe6\\x95\\xb0\\xe7\\x9a\\x84\\xe5\\x8f\\xaf\\xe8\\xa7\\x81\\xe6\\x80\\xa7.sol\":456:460  uint */\n      0x00\n        /* \"\\xe7\\xac\\xac\\xe4\\xba\\x8c\\xe5\\x91\\xa8/\\xe5\\xad\\x98\\xe5\\x82\\xa8/\\xe5\\x87\\xbd\\xe6\\x95\\xb0\\xe7\\x9a\\x84\\xe5\\x8f\\xaf\\xe8\\xa7\\x81\\xe6\\x80\\xa7.sol\":478:481  100 */\n      0x64\n        /* \"\\xe7\\xac\\xac\\xe4\\xba\\x8c\\xe5\\x91\\xa8/\\xe5\\xad\\x98\\xe5\\x82\\xa8/\\xe5\\x87\\xbd\\xe6\\x95\\xb0\\xe7\\x9a\\x84\\xe5\\x8f\\xaf\\xe8\\xa7\\x81\\xe6\\x80\\xa7.sol\":471:481  return 100 */\n      swap1\n      pop\n        /* \"\\xe7\\xac\\xac\\xe4\\xba\\x8c\\xe5\\x91\\xa8/\\xe5\\xad\\x98\\xe5\\x82\\xa8/\\xe5\\x87\\xbd\\xe6\\x95\\xb0\\xe7\\x9a\\x84\\xe5\\x8f\\xaf\\xe8\\xa7\\x81\\xe6\\x80\\xa7.sol\":410:489  function internalFunc() internal pure returns(uint){... */\n      swap1\n      jump\t// out\n        /* \"\\xe7\\xac\\xac\\xe4\\xba\\x8c\\xe5\\x91\\xa8/\\xe5\\xad\\x98\\xe5\\x82\\xa8/\\xe5\\x87\\xbd\\xe6\\x95\\xb0\\xe7\\x9a\\x84\\xe5\\x8f\\xaf\\xe8\\xa7\\x81\\xe6\\x80\\xa7.sol\":330:404  function privateFun() private pure returns(uint){... */\n    tag_32:\n        /* \"\\xe7\\xac\\xac\\xe4\\xba\\x8c\\xe5\\x91\\xa8/\\xe5\\xad\\x98\\xe5\\x82\\xa8/\\xe5\\x87\\xbd\\xe6\\x95\\xb0\\xe7\\x9a\\x84\\xe5\\x8f\\xaf\\xe8\\xa7\\x81\\xe6\\x80\\xa7.sol\":373:377  uint */\n      0x00\n        /* \"\\xe7\\xac\\xac\\xe4\\xba\\x8c\\xe5\\x91\\xa8/\\xe5\\xad\\x98\\xe5\\x82\\xa8/\\xe5\\x87\\xbd\\xe6\\x95\\xb0\\xe7\\x9a\\x84\\xe5\\x8f\\xaf\\xe8\\xa7\\x81\\xe6\\x80\\xa7.sol\":395:396  0 */\n      0x00\n        /* \"\\xe7\\xac\\xac\\xe4\\xba\\x8c\\xe5\\x91\\xa8/\\xe5\\xad\\x98\\xe5\\x82\\xa8/\\xe5\\x87\\xbd\\xe6\\x95\\xb0\\xe7\\x9a\\x84\\xe5\\x8f\\xaf\\xe8\\xa7\\x81\\xe6\\x80\\xa7.sol\":388:396  return 0 */\n      swap1\n      pop\n        /* \"\\xe7\\xac\\xac\\xe4\\xba\\x8c\\xe5\\x91\\xa8/\\xe5\\xad\\x98\\xe5\\x82\\xa8/\\xe5\\x87\\xbd\\xe6\\x95\\xb0\\xe7\\x9a\\x84\\xe5\\x8f\\xaf\\xe8\\xa7\\x81\\xe6\\x80\\xa7.sol\":330:404  function privateFun() private pure returns(uint){... */\n      swap1\n      jump\t// out\n        /* \"#utility.yul\":7:84   */\n    tag_39:\n        /* \"#utility.yul\":44:51   */\n      0x00\n        /* \"#utility.yul\":73:78   */\n      dup2\n        /* \"#utility.yul\":62:78   */\n      swap1\n      pop\n        /* \"#utility.yul\":7:84   */\n      swap2\n      swap1\n      pop\n      jump\t// out\n        /* \"#utility.yul\":90:208   */\n    tag_40:\n        /* \"#utility.yul\":177:201   */\n      tag_45\n        /* \"#utility.yul\":195:200   */\n      dup2\n        /* \"#utility.yul\":177:201   */\n      tag_39\n      jump\t// in\n    tag_45:\n        /* \"#utility.yul\":172:175   */\n      dup3\n        /* \"#utility.yul\":165:202   */\n      mstore\n        /* \"#utility.yul\":90:208   */\n      pop\n      pop\n      jump\t// out\n        /* \"#utility.yul\":214:436   */\n    tag_15:\n        /* \"#utility.yul\":307:311   */\n      0x00\n        /* \"#utility.yul\":345:347   */\n      0x20\n        /* \"#utility.yul\":334:343   */\n      dup3\n        /* \"#utility.yul\":330:348   */\n      add\n        /* \"#utility.yul\":322:348   */\n      swap1\n      pop\n        /* \"#utility.yul\":358:429   */\n      tag_47\n        /* \"#utility.yul\":426:427   */\n      0x00\n        /* \"#utility.yul\":415:424   */\n      dup4\n        /* \"#utility.yul\":411:428   */\n      add\n        /* \"#utility.yul\":402:408   */\n      dup5\n        /* \"#utility.yul\":358:429   */\n      tag_40\n      jump\t// in\n    tag_47:\n        /* \"#utility.yul\":214:436   */\n      swap3\n      swap2\n      pop\n      pop\n      jump\t// out\n        /* \"#utility.yul\":442:622   */\n    tag_41:\n        /* \"#utility.yul\":490:567   */\n      0x4e487b7100000000000000000000000000000000000000000000000000000000\n        /* \"#utility.yul\":487:488   */\n      0x00\n        /* \"#utility.yul\":480:568   */\n      mstore\n        /* \"#utility.yul\":587:591   */\n      0x11\n        /* \"#utility.yul\":584:585   */\n      0x04\n        /* \"#utility.yul\":577:592   */\n      mstore\n        /* \"#utility.yul\":611:615   */\n      0x24\n        /* \"#utility.yul\":608:609   */\n      0x00\n        /* \"#utility.yul\":601:616   */\n      revert\n        /* \"#utility.yul\":628:819   */\n    tag_24:\n        /* \"#utility.yul\":668:671   */\n      0x00\n        /* \"#utility.yul\":687:707   */\n      tag_50\n        /* \"#utility.yul\":705:706   */\n      dup3\n        /* \"#utility.yul\":687:707   */\n      tag_39\n      jump\t// in\n    tag_50:\n        /* \"#utility.yul\":682:707   */\n      swap2\n      pop\n        /* \"#utility.yul\":721:741   */\n      tag_51\n        /* \"#utility.yul\":739:740   */\n      dup4\n        /* \"#utility.yul\":721:741   */\n      tag_39\n      jump\t// in\n    tag_51:\n        /* \"#utility.yul\":716:741   */\n      swap3\n      pop\n        /* \"#utility.yul\":764:765   */\n      dup3\n        /* \"#utility.yul\":761:762   */\n      dup3\n        /* \"#utility.yul\":757:766   */\n      add\n        /* \"#utility.yul\":750:766   */\n      swap1\n      pop\n        /* \"#utility.yul\":785:788   */\n      dup1\n        /* \"#utility.yul\":782:783   */\n      dup3\n        /* \"#utility.yul\":779:789   */\n      gt\n        /* \"#utility.yul\":776:812   */\n      iszero\n      tag_52\n      jumpi\n        /* \"#utility.yul\":792:810   */\n      tag_53\n      tag_41\n      jump\t// in\n    tag_53:\n        /* \"#utility.yul\":776:812   */\n    tag_52:\n        /* \"#utility.yul\":628:819   */\n      swap3\n      swap2\n      pop\n      pop\n      jump\t// out\n\n    auxdata: 0xa26469706673582212203587000c4aab3076158c34036220ce1fb688ac07ca57f8f6a7c79272214a39dd64736f6c634300081e0033\n}\n",
				"bytecode": {
					"linkReferences": {},
					"object": "60806040525f5f5560018055600280553480156019575f5ffd5b50610213806100275f395ff3fe608060405234801561000f575f5ffd5b5060043610610055575f3560e01c80631ec771e914610059578063335d00c21461006357806342b148aa1461006d5780634b73383f1461008b578063c5d7802e146100a9575b5f5ffd5b6100616100c7565b005b61006b6100ec565b005b610075610126565b6040516100829190610164565b60405180910390f35b61009361012f565b6040516100a09190610164565b60405180910390f35b6100b1610137565b6040516100be9190610164565b60405180910390f35b6002546001546100d791906101aa565b506100e061013d565b506100e961012f565b50565b6002546001545f546100fe91906101aa565b61010891906101aa565b50610111610145565b5061011a61013d565b5061012361012f565b50565b5f61012c905090565b5f60c8905090565b60025481565b5f6064905090565b5f5f905090565b5f819050919050565b61015e8161014c565b82525050565b5f6020820190506101775f830184610155565b92915050565b7f4e487b71000000000000000000000000000000000000000000000000000000005f52601160045260245ffd5b5f6101b48261014c565b91506101bf8361014c565b92508282019050808211156101d7576101d661017d565b5b9291505056fea26469706673582212203587000c4aab3076158c34036220ce1fb688ac07ca57f8f6a7c79272214a39dd64736f6c634300081e0033",
					"opcodes": "PUSH1 0x80 PUSH1 0x40 MSTORE PUSH0 PUSH0 SSTORE PUSH1 0x1 DUP1 SSTORE PUSH1 0x2 DUP1 SSTORE CALLVALUE DUP1 ISZERO PUSH1 0x19 JUMPI PUSH0 PUSH0 REVERT JUMPDEST POP PUSH2 0x213 DUP1 PUSH2 0x27 PUSH0 CODECOPY PUSH0 RETURN INVALID PUSH1 0x80 PUSH1 0x40 MSTORE CALLVALUE DUP1 ISZERO PUSH2 0xF JUMPI PUSH0 PUSH0 REVERT JUMPDEST POP PUSH1 0x4 CALLDATASIZE LT PUSH2 0x55 JUMPI PUSH0 CALLDATALOAD PUSH1 0xE0 SHR DUP1 PUSH4 0x1EC771E9 EQ PUSH2 0x59 JUMPI DUP1 PUSH4 0x335D00C2 EQ PUSH2 0x63 JUMPI DUP1 PUSH4 0x42B148AA EQ PUSH2 0x6D JUMPI DUP1 PUSH4 0x4B73383F EQ PUSH2 0x8B JUMPI DUP1 PUSH4 0xC5D7802E EQ PUSH2 0xA9 JUMPI JUMPDEST PUSH0 PUSH0 REVERT JUMPDEST PUSH2 0x61 PUSH2 0xC7 JUMP JUMPDEST STOP JUMPDEST PUSH2 0x6B PUSH2 0xEC JUMP JUMPDEST STOP JUMPDEST PUSH2 0x75 PUSH2 0x126 JUMP JUMPDEST PUSH1 0x40 MLOAD PUSH2 0x82 SWAP2 SWAP1 PUSH2 0x164 JUMP JUMPDEST PUSH1 0x40 MLOAD DUP1 SWAP2 SUB SWAP1 RETURN JUMPDEST PUSH2 0x93 PUSH2 0x12F JUMP JUMPDEST PUSH1 0x40 MLOAD PUSH2 0xA0 SWAP2 SWAP1 PUSH2 0x164 JUMP JUMPDEST PUSH1 0x40 MLOAD DUP1 SWAP2 SUB SWAP1 RETURN JUMPDEST PUSH2 0xB1 PUSH2 0x137 JUMP JUMPDEST PUSH1 0x40 MLOAD PUSH2 0xBE SWAP2 SWAP1 PUSH2 0x164 JUMP JUMPDEST PUSH1 0x40 MLOAD DUP1 SWAP2 SUB SWAP1 RETURN JUMPDEST PUSH1 0x2 SLOAD PUSH1 0x1 SLOAD PUSH2 0xD7 SWAP2 SWAP1 PUSH2 0x1AA JUMP JUMPDEST POP PUSH2 0xE0 PUSH2 0x13D JUMP JUMPDEST POP PUSH2 0xE9 PUSH2 0x12F JUMP JUMPDEST POP JUMP JUMPDEST PUSH1 0x2 SLOAD PUSH1 0x1 SLOAD PUSH0 SLOAD PUSH2 0xFE SWAP2 SWAP1 PUSH2 0x1AA JUMP JUMPDEST PUSH2 0x108 SWAP2 SWAP1 PUSH2 0x1AA JUMP JUMPDEST POP PUSH2 0x111 PUSH2 0x145 JUMP JUMPDEST POP PUSH2 0x11A PUSH2 0x13D JUMP JUMPDEST POP PUSH2 0x123 PUSH2 0x12F JUMP JUMPDEST POP JUMP JUMPDEST PUSH0 PUSH2 0x12C SWAP1 POP SWAP1 JUMP JUMPDEST PUSH0 PUSH1 0xC8 SWAP1 POP SWAP1 JUMP JUMPDEST PUSH1 0x2 SLOAD DUP2 JUMP JUMPDEST PUSH0 PUSH1 0x64 SWAP1 POP SWAP1 JUMP JUMPDEST PUSH0 PUSH0 SWAP1 POP SWAP1 JUMP JUMPDEST PUSH0 DUP2 SWAP1 POP SWAP2 SWAP1 POP JUMP JUMPDEST PUSH2 0x15E DUP2 PUSH2 0x14C JUMP JUMPDEST DUP3 MSTORE POP POP JUMP JUMPDEST PUSH0 PUSH1 0x20 DUP3 ADD SWAP1 POP PUSH2 0x177 PUSH0 DUP4 ADD DUP5 PUSH2 0x155 JUMP JUMPDEST SWAP3 SWAP2 POP POP JUMP JUMPDEST PUSH32 0x4E487B7100000000000000000000000000000000000000000000000000000000 PUSH0 MSTORE PUSH1 0x11 PUSH1 0x4 MSTORE PUSH1 0x24 PUSH0 REVERT JUMPDEST PUSH0 PUSH2 0x1B4 DUP3 PUSH2 0x14C JUMP JUMPDEST SWAP2 POP PUSH2 0x1BF DUP4 PUSH2 0x14C JUMP JUMPDEST SWAP3 POP DUP3 DUP3 ADD SWAP1 POP DUP1 DUP3 GT ISZERO PUSH2 0x1D7 JUMPI PUSH2 0x1D6 PUSH2 0x17D JUMP JUMPDEST JUMPDEST SWAP3 SWAP2 POP POP JUMP INVALID LOG2 PUSH5 0x6970667358 0x22 SLT KECCAK256 CALLDATALOAD DUP8 STOP 0xC BLOBBASEFEE 0xAB ADDRESS PUSH23 0x158C34036220CE1FB688AC07CA57F8F6A7C79272214A39 0xDD PUSH5 0x736F6C6343 STOP ADDMOD 0x1E STOP CALLER "
				},
				"gasEstimates": {
					"creation": {
						"codeDepositCost": "106200",
						"executionCost": "49367",
						"totalCost": "155567"
					},
					"external": {
						"example1()": "infinite",
						"examples()": "infinite",
						"externalFunc()": "354",
						"publicFunc()": "376",
						"z()": "2491"
					}
				},
				"methodIdentifiers": {
					"example1()": "1ec771e9",
					"examples()": "335d00c2",
					"externalFunc()": "42b148aa",
					"publicFunc()": "4b73383f",
					"z()": "c5d7802e"
				}
			},
			"storageLayout": {
				"storage": [
					{
						"astId": 4,
						"contract": "第二周/存储/函数的可见性.sol:Child",
						"label": "x",
						"offset": 0,
						"slot": "0",
						"type": "t_uint256"
					},
					{
						"astId": 7,
						"contract": "第二周/存储/函数的可见性.sol:Child",
						"label": "y",
						"offset": 0,
						"slot": "1",
						"type": "t_uint256"
					},
					{
						"astId": 10,
						"contract": "第二周/存储/函数的可见性.sol:Child",
						"label": "z",
						"offset": 0,
						"slot": "2",
						"type": "t_uint256"
					}
				],
				"types": {
					"t_uint256": {
						"encoding": "inplace",
						"label": "uint256",
						"numberOfBytes": "32"
					}
				}
			},
			"userdoc": {
				"kind": "user",
				"methods": {},
				"version": 1
			}
		}
	}
}