{
	"第二周/functionOutput.sol": {
		"functionOutput": {
			"abi": [
				{
					"inputs": [],
					"name": "destructAssign",
					"outputs": [],
					"stateMutability": "pure",
					"type": "function"
				},
				{
					"inputs": [],
					"name": "returnMany",
					"outputs": [
						{
							"internalType": "uint256",
							"name": "",
							"type": "uint256"
						},
						{
							"internalType": "bool",
							"name": "",
							"type": "bool"
						}
					],
					"stateMutability": "pure",
					"type": "function"
				},
				{
					"inputs": [],
					"name": "returnMany1",
					"outputs": [
						{
							"internalType": "uint256",
							"name": "x",
							"type": "uint256"
						},
						{
							"internalType": "bool",
							"name": "b",
							"type": "bool"
						}
					],
					"stateMutability": "pure",
					"type": "function"
				},
				{
					"inputs": [],
					"name": "returnMany2",
					"outputs": [
						{
							"internalType": "uint256",
							"name": "x",
							"type": "uint256"
						},
						{
							"internalType": "bool",
							"name": "b",
							"type": "bool"
						}
					],
					"stateMutability": "pure",
					"type": "function"
				}
			],
			"devdoc": {
				"kind": "dev",
				"methods": {},
				"version": 1
			},
			"evm": {
				"assembly": "    /* \"\\xe7\\xac\\xac\\xe4\\xba\\x8c\\xe5\\x91\\xa8/functionOutput.sol\":65:663  contract functionOutput{... */\n  mstore(0x40, 0x80)\n  callvalue\n  dup1\n  iszero\n  tag_1\n  jumpi\n  revert(0x00, 0x00)\ntag_1:\n  pop\n  dataSize(sub_0)\n  dup1\n  dataOffset(sub_0)\n  0x00\n  codecopy\n  0x00\n  return\nstop\n\nsub_0: assembly {\n        /* \"\\xe7\\xac\\xac\\xe4\\xba\\x8c\\xe5\\x91\\xa8/functionOutput.sol\":65:663  contract functionOutput{... */\n      mstore(0x40, 0x80)\n      callvalue\n      dup1\n      iszero\n      tag_1\n      jumpi\n      revert(0x00, 0x00)\n    tag_1:\n      pop\n      jumpi(tag_2, lt(calldatasize, 0x04))\n      shr(0xe0, calldataload(0x00))\n      dup1\n      0x0bbf1f04\n      eq\n      tag_3\n      jumpi\n      dup1\n      0x65fd8204\n      eq\n      tag_4\n      jumpi\n      dup1\n      0x7f980a07\n      eq\n      tag_5\n      jumpi\n      dup1\n      0x86887544\n      eq\n      tag_6\n      jumpi\n    tag_2:\n      revert(0x00, 0x00)\n        /* \"\\xe7\\xac\\xac\\xe4\\xba\\x8c\\xe5\\x91\\xa8/functionOutput.sol\":210:304  function returnMany1() public pure  returns(uint x,bool b){... */\n    tag_3:\n      tag_7\n      tag_8\n      jump\t// in\n    tag_7:\n      mload(0x40)\n      tag_9\n      swap3\n      swap2\n      swap1\n      tag_10\n      jump\t// in\n    tag_9:\n      mload(0x40)\n      dup1\n      swap2\n      sub\n      swap1\n      return\n        /* \"\\xe7\\xac\\xac\\xe4\\xba\\x8c\\xe5\\x91\\xa8/functionOutput.sol\":333:457  function returnMany2() public pure  returns(uint x,bool b){... */\n    tag_4:\n      tag_11\n      tag_12\n      jump\t// in\n    tag_11:\n      mload(0x40)\n      tag_13\n      swap3\n      swap2\n      swap1\n      tag_10\n      jump\t// in\n    tag_13:\n      mload(0x40)\n      dup1\n      swap2\n      sub\n      swap1\n      return\n        /* \"\\xe7\\xac\\xac\\xe4\\xba\\x8c\\xe5\\x91\\xa8/functionOutput.sol\":493:658  function destructAssign() public pure {... */\n    tag_5:\n      tag_14\n      tag_15\n      jump\t// in\n    tag_14:\n      stop\n        /* \"\\xe7\\xac\\xac\\xe4\\xba\\x8c\\xe5\\x91\\xa8/functionOutput.sol\":95:182  function returnMany() public pure  returns(uint,bool){... */\n    tag_6:\n      tag_16\n      tag_17\n      jump\t// in\n    tag_16:\n      mload(0x40)\n      tag_18\n      swap3\n      swap2\n      swap1\n      tag_10\n      jump\t// in\n    tag_18:\n      mload(0x40)\n      dup1\n      swap2\n      sub\n      swap1\n      return\n        /* \"\\xe7\\xac\\xac\\xe4\\xba\\x8c\\xe5\\x91\\xa8/functionOutput.sol\":210:304  function returnMany1() public pure  returns(uint x,bool b){... */\n    tag_8:\n        /* \"\\xe7\\xac\\xac\\xe4\\xba\\x8c\\xe5\\x91\\xa8/functionOutput.sol\":254:260  uint x */\n      0x00\n        /* \"\\xe7\\xac\\xac\\xe4\\xba\\x8c\\xe5\\x91\\xa8/functionOutput.sol\":261:267  bool b */\n      0x00\n        /* \"\\xe7\\xac\\xac\\xe4\\xba\\x8c\\xe5\\x91\\xa8/functionOutput.sol\":289:290  1 */\n      0x01\n        /* \"\\xe7\\xac\\xac\\xe4\\xba\\x8c\\xe5\\x91\\xa8/functionOutput.sol\":291:295  true */\n      dup1\n        /* \"\\xe7\\xac\\xac\\xe4\\xba\\x8c\\xe5\\x91\\xa8/functionOutput.sol\":281:296  return (1,true) */\n      swap2\n      pop\n      swap2\n      pop\n        /* \"\\xe7\\xac\\xac\\xe4\\xba\\x8c\\xe5\\x91\\xa8/functionOutput.sol\":210:304  function returnMany1() public pure  returns(uint x,bool b){... */\n      swap1\n      swap2\n      jump\t// out\n        /* \"\\xe7\\xac\\xac\\xe4\\xba\\x8c\\xe5\\x91\\xa8/functionOutput.sol\":333:457  function returnMany2() public pure  returns(uint x,bool b){... */\n    tag_12:\n        /* \"\\xe7\\xac\\xac\\xe4\\xba\\x8c\\xe5\\x91\\xa8/functionOutput.sol\":377:383  uint x */\n      0x00\n        /* \"\\xe7\\xac\\xac\\xe4\\xba\\x8c\\xe5\\x91\\xa8/functionOutput.sol\":384:390  bool b */\n      0x00\n        /* \"\\xe7\\xac\\xac\\xe4\\xba\\x8c\\xe5\\x91\\xa8/functionOutput.sol\":431:432  1 */\n      0x01\n        /* \"\\xe7\\xac\\xac\\xe4\\xba\\x8c\\xe5\\x91\\xa8/functionOutput.sol\":429:432  x=1 */\n      swap2\n      pop\n        /* \"\\xe7\\xac\\xac\\xe4\\xba\\x8c\\xe5\\x91\\xa8/functionOutput.sol\":445:449  true */\n      0x01\n        /* \"\\xe7\\xac\\xac\\xe4\\xba\\x8c\\xe5\\x91\\xa8/functionOutput.sol\":443:449  b=true */\n      swap1\n      pop\n        /* \"\\xe7\\xac\\xac\\xe4\\xba\\x8c\\xe5\\x91\\xa8/functionOutput.sol\":333:457  function returnMany2() public pure  returns(uint x,bool b){... */\n      swap1\n      swap2\n      jump\t// out\n        /* \"\\xe7\\xac\\xac\\xe4\\xba\\x8c\\xe5\\x91\\xa8/functionOutput.sol\":493:658  function destructAssign() public pure {... */\n    tag_15:\n        /* \"\\xe7\\xac\\xac\\xe4\\xba\\x8c\\xe5\\x91\\xa8/functionOutput.sol\":628:634  bool b */\n      0x00\n        /* \"\\xe7\\xac\\xac\\xe4\\xba\\x8c\\xe5\\x91\\xa8/functionOutput.sol\":636:648  returnMany() */\n      tag_22\n        /* \"\\xe7\\xac\\xac\\xe4\\xba\\x8c\\xe5\\x91\\xa8/functionOutput.sol\":636:646  returnMany */\n      tag_17\n        /* \"\\xe7\\xac\\xac\\xe4\\xba\\x8c\\xe5\\x91\\xa8/functionOutput.sol\":636:648  returnMany() */\n      jump\t// in\n    tag_22:\n        /* \"\\xe7\\xac\\xac\\xe4\\xba\\x8c\\xe5\\x91\\xa8/functionOutput.sol\":626:648  (,bool b)=returnMany() */\n      swap2\n      pop\n      pop\n        /* \"\\xe7\\xac\\xac\\xe4\\xba\\x8c\\xe5\\x91\\xa8/functionOutput.sol\":531:658  {... */\n      pop\n        /* \"\\xe7\\xac\\xac\\xe4\\xba\\x8c\\xe5\\x91\\xa8/functionOutput.sol\":493:658  function destructAssign() public pure {... */\n      jump\t// out\n        /* \"\\xe7\\xac\\xac\\xe4\\xba\\x8c\\xe5\\x91\\xa8/functionOutput.sol\":95:182  function returnMany() public pure  returns(uint,bool){... */\n    tag_17:\n        /* \"\\xe7\\xac\\xac\\xe4\\xba\\x8c\\xe5\\x91\\xa8/functionOutput.sol\":138:142  uint */\n      0x00\n        /* \"\\xe7\\xac\\xac\\xe4\\xba\\x8c\\xe5\\x91\\xa8/functionOutput.sol\":143:147  bool */\n      0x00\n        /* \"\\xe7\\xac\\xac\\xe4\\xba\\x8c\\xe5\\x91\\xa8/functionOutput.sol\":167:168  1 */\n      0x01\n        /* \"\\xe7\\xac\\xac\\xe4\\xba\\x8c\\xe5\\x91\\xa8/functionOutput.sol\":169:173  true */\n      dup1\n        /* \"\\xe7\\xac\\xac\\xe4\\xba\\x8c\\xe5\\x91\\xa8/functionOutput.sol\":159:174  return (1,true) */\n      swap2\n      pop\n      swap2\n      pop\n        /* \"\\xe7\\xac\\xac\\xe4\\xba\\x8c\\xe5\\x91\\xa8/functionOutput.sol\":95:182  function returnMany() public pure  returns(uint,bool){... */\n      swap1\n      swap2\n      jump\t// out\n        /* \"#utility.yul\":7:84   */\n    tag_24:\n        /* \"#utility.yul\":44:51   */\n      0x00\n        /* \"#utility.yul\":73:78   */\n      dup2\n        /* \"#utility.yul\":62:78   */\n      swap1\n      pop\n        /* \"#utility.yul\":7:84   */\n      swap2\n      swap1\n      pop\n      jump\t// out\n        /* \"#utility.yul\":90:208   */\n    tag_25:\n        /* \"#utility.yul\":177:201   */\n      tag_31\n        /* \"#utility.yul\":195:200   */\n      dup2\n        /* \"#utility.yul\":177:201   */\n      tag_24\n      jump\t// in\n    tag_31:\n        /* \"#utility.yul\":172:175   */\n      dup3\n        /* \"#utility.yul\":165:202   */\n      mstore\n        /* \"#utility.yul\":90:208   */\n      pop\n      pop\n      jump\t// out\n        /* \"#utility.yul\":214:304   */\n    tag_26:\n        /* \"#utility.yul\":248:255   */\n      0x00\n        /* \"#utility.yul\":291:296   */\n      dup2\n        /* \"#utility.yul\":284:297   */\n      iszero\n        /* \"#utility.yul\":277:298   */\n      iszero\n        /* \"#utility.yul\":266:298   */\n      swap1\n      pop\n        /* \"#utility.yul\":214:304   */\n      swap2\n      swap1\n      pop\n      jump\t// out\n        /* \"#utility.yul\":310:419   */\n    tag_27:\n        /* \"#utility.yul\":391:412   */\n      tag_34\n        /* \"#utility.yul\":406:411   */\n      dup2\n        /* \"#utility.yul\":391:412   */\n      tag_26\n      jump\t// in\n    tag_34:\n        /* \"#utility.yul\":386:389   */\n      dup3\n        /* \"#utility.yul\":379:413   */\n      mstore\n        /* \"#utility.yul\":310:419   */\n      pop\n      pop\n      jump\t// out\n        /* \"#utility.yul\":425:745   */\n    tag_10:\n        /* \"#utility.yul\":540:544   */\n      0x00\n        /* \"#utility.yul\":578:580   */\n      0x40\n        /* \"#utility.yul\":567:576   */\n      dup3\n        /* \"#utility.yul\":563:581   */\n      add\n        /* \"#utility.yul\":555:581   */\n      swap1\n      pop\n        /* \"#utility.yul\":591:662   */\n      tag_36\n        /* \"#utility.yul\":659:660   */\n      0x00\n        /* \"#utility.yul\":648:657   */\n      dup4\n        /* \"#utility.yul\":644:661   */\n      add\n        /* \"#utility.yul\":635:641   */\n      dup6\n        /* \"#utility.yul\":591:662   */\n      tag_25\n      jump\t// in\n    tag_36:\n        /* \"#utility.yul\":672:738   */\n      tag_37\n        /* \"#utility.yul\":734:736   */\n      0x20\n        /* \"#utility.yul\":723:732   */\n      dup4\n        /* \"#utility.yul\":719:737   */\n      add\n        /* \"#utility.yul\":710:716   */\n      dup5\n        /* \"#utility.yul\":672:738   */\n      tag_27\n      jump\t// in\n    tag_37:\n        /* \"#utility.yul\":425:745   */\n      swap4\n      swap3\n      pop\n      pop\n      pop\n      jump\t// out\n\n    auxdata: 0xa2646970667358221220618ff275a4fd3b52247a7b62d668458dec4dd30e36e32572f1f619fe2b603b0064736f6c634300081e0033\n}\n",
				"bytecode": {
					"linkReferences": {},
					"object": "6080604052348015600e575f5ffd5b5061017b8061001c5f395ff3fe608060405234801561000f575f5ffd5b506004361061004a575f3560e01c80630bbf1f041461004e57806365fd82041461006d5780637f980a071461008c5780638688754414610096575b5f5ffd5b6100566100b5565b60405161006492919061011e565b60405180910390f35b6100756100c2565b60405161008392919061011e565b60405180910390f35b6100946100d0565b005b61009e6100df565b6040516100ac92919061011e565b60405180910390f35b5f5f600180915091509091565b5f5f60019150600190509091565b5f6100d96100df565b91505050565b5f5f600180915091509091565b5f819050919050565b6100fe816100ec565b82525050565b5f8115159050919050565b61011881610104565b82525050565b5f6040820190506101315f8301856100f5565b61013e602083018461010f565b939250505056fea2646970667358221220618ff275a4fd3b52247a7b62d668458dec4dd30e36e32572f1f619fe2b603b0064736f6c634300081e0033",
					"opcodes": "PUSH1 0x80 PUSH1 0x40 MSTORE CALLVALUE DUP1 ISZERO PUSH1 0xE JUMPI PUSH0 PUSH0 REVERT JUMPDEST POP PUSH2 0x17B DUP1 PUSH2 0x1C PUSH0 CODECOPY PUSH0 RETURN INVALID PUSH1 0x80 PUSH1 0x40 MSTORE CALLVALUE DUP1 ISZERO PUSH2 0xF JUMPI PUSH0 PUSH0 REVERT JUMPDEST POP PUSH1 0x4 CALLDATASIZE LT PUSH2 0x4A JUMPI PUSH0 CALLDATALOAD PUSH1 0xE0 SHR DUP1 PUSH4 0xBBF1F04 EQ PUSH2 0x4E JUMPI DUP1 PUSH4 0x65FD8204 EQ PUSH2 0x6D JUMPI DUP1 PUSH4 0x7F980A07 EQ PUSH2 0x8C JUMPI DUP1 PUSH4 0x86887544 EQ PUSH2 0x96 JUMPI JUMPDEST PUSH0 PUSH0 REVERT JUMPDEST PUSH2 0x56 PUSH2 0xB5 JUMP JUMPDEST PUSH1 0x40 MLOAD PUSH2 0x64 SWAP3 SWAP2 SWAP1 PUSH2 0x11E JUMP JUMPDEST PUSH1 0x40 MLOAD DUP1 SWAP2 SUB SWAP1 RETURN JUMPDEST PUSH2 0x75 PUSH2 0xC2 JUMP JUMPDEST PUSH1 0x40 MLOAD PUSH2 0x83 SWAP3 SWAP2 SWAP1 PUSH2 0x11E JUMP JUMPDEST PUSH1 0x40 MLOAD DUP1 SWAP2 SUB SWAP1 RETURN JUMPDEST PUSH2 0x94 PUSH2 0xD0 JUMP JUMPDEST STOP JUMPDEST PUSH2 0x9E PUSH2 0xDF JUMP JUMPDEST PUSH1 0x40 MLOAD PUSH2 0xAC SWAP3 SWAP2 SWAP1 PUSH2 0x11E JUMP JUMPDEST PUSH1 0x40 MLOAD DUP1 SWAP2 SUB SWAP1 RETURN JUMPDEST PUSH0 PUSH0 PUSH1 0x1 DUP1 SWAP2 POP SWAP2 POP SWAP1 SWAP2 JUMP JUMPDEST PUSH0 PUSH0 PUSH1 0x1 SWAP2 POP PUSH1 0x1 SWAP1 POP SWAP1 SWAP2 JUMP JUMPDEST PUSH0 PUSH2 0xD9 PUSH2 0xDF JUMP JUMPDEST SWAP2 POP POP POP JUMP JUMPDEST PUSH0 PUSH0 PUSH1 0x1 DUP1 SWAP2 POP SWAP2 POP SWAP1 SWAP2 JUMP JUMPDEST PUSH0 DUP2 SWAP1 POP SWAP2 SWAP1 POP JUMP JUMPDEST PUSH2 0xFE DUP2 PUSH2 0xEC JUMP JUMPDEST DUP3 MSTORE POP POP JUMP JUMPDEST PUSH0 DUP2 ISZERO ISZERO SWAP1 POP SWAP2 SWAP1 POP JUMP JUMPDEST PUSH2 0x118 DUP2 PUSH2 0x104 JUMP JUMPDEST DUP3 MSTORE POP POP JUMP JUMPDEST PUSH0 PUSH1 0x40 DUP3 ADD SWAP1 POP PUSH2 0x131 PUSH0 DUP4 ADD DUP6 PUSH2 0xF5 JUMP JUMPDEST PUSH2 0x13E PUSH1 0x20 DUP4 ADD DUP5 PUSH2 0x10F JUMP JUMPDEST SWAP4 SWAP3 POP POP POP JUMP INVALID LOG2 PUSH5 0x6970667358 0x22 SLT KECCAK256 PUSH2 0x8FF2 PUSH22 0xA4FD3B52247A7B62D668458DEC4DD30E36E32572F1F6 NOT INVALID 0x2B PUSH1 0x3B STOP PUSH5 0x736F6C6343 STOP ADDMOD 0x1E STOP CALLER "
				},
				"gasEstimates": {
					"creation": {
						"codeDepositCost": "75800",
						"executionCost": "121",
						"totalCost": "75921"
					},
					"external": {
						"destructAssign()": "226",
						"returnMany()": "494",
						"returnMany1()": "428",
						"returnMany2()": "450"
					}
				},
				"methodIdentifiers": {
					"destructAssign()": "7f980a07",
					"returnMany()": "86887544",
					"returnMany1()": "0bbf1f04",
					"returnMany2()": "65fd8204"
				}
			},
			"storageLayout": {
				"storage": [],
				"types": null
			},
			"userdoc": {
				"kind": "user",
				"methods": {},
				"version": 1
			}
		}
	}
}