{
	"第四周/Keccak256哈希函数.sol": {
		"HashFucn": {
			"abi": [
				{
					"inputs": [
						{
							"internalType": "string",
							"name": "text0",
							"type": "string"
						},
						{
							"internalType": "string",
							"name": "text1",
							"type": "string"
						}
					],
					"name": "collision",
					"outputs": [
						{
							"internalType": "bytes32",
							"name": "",
							"type": "bytes32"
						}
					],
					"stateMutability": "pure",
					"type": "function"
				},
				{
					"inputs": [
						{
							"internalType": "string",
							"name": "text0",
							"type": "string"
						},
						{
							"internalType": "uint256",
							"name": "x",
							"type": "uint256"
						},
						{
							"internalType": "string",
							"name": "text1",
							"type": "string"
						}
					],
					"name": "collision1",
					"outputs": [
						{
							"internalType": "bytes32",
							"name": "",
							"type": "bytes32"
						}
					],
					"stateMutability": "pure",
					"type": "function"
				},
				{
					"inputs": [
						{
							"internalType": "string",
							"name": "text0",
							"type": "string"
						},
						{
							"internalType": "string",
							"name": "text1",
							"type": "string"
						}
					],
					"name": "encodPacked",
					"outputs": [
						{
							"internalType": "bytes",
							"name": "",
							"type": "bytes"
						}
					],
					"stateMutability": "pure",
					"type": "function"
				},
				{
					"inputs": [
						{
							"internalType": "string",
							"name": "text0",
							"type": "string"
						},
						{
							"internalType": "string",
							"name": "text1",
							"type": "string"
						}
					],
					"name": "encode",
					"outputs": [
						{
							"internalType": "bytes",
							"name": "",
							"type": "bytes"
						}
					],
					"stateMutability": "pure",
					"type": "function"
				},
				{
					"inputs": [
						{
							"internalType": "string",
							"name": "text",
							"type": "string"
						},
						{
							"internalType": "uint256",
							"name": "num",
							"type": "uint256"
						},
						{
							"internalType": "address",
							"name": "addr",
							"type": "address"
						}
					],
					"name": "hash",
					"outputs": [
						{
							"internalType": "bytes32",
							"name": "",
							"type": "bytes32"
						}
					],
					"stateMutability": "pure",
					"type": "function"
				}
			],
			"devdoc": {
				"kind": "dev",
				"methods": {},
				"version": 1
			},
			"evm": {
				"assembly": "    /* \"\\xe7\\xac\\xac\\xe5\\x9b\\x9b\\xe5\\x91\\xa8/Keccak256\\xe5\\x93\\x88\\xe5\\xb8\\x8c\\xe5\\x87\\xbd\\xe6\\x95\\xb0.sol\":214:1659  contract HashFucn {... */\n  mstore(0x40, 0x80)\n  callvalue\n  dup1\n  iszero\n  tag_1\n  jumpi\n  revert(0x00, 0x00)\ntag_1:\n  pop\n  dataSize(sub_0)\n  dup1\n  dataOffset(sub_0)\n  0x00\n  codecopy\n  0x00\n  return\nstop\n\nsub_0: assembly {\n        /* \"\\xe7\\xac\\xac\\xe5\\x9b\\x9b\\xe5\\x91\\xa8/Keccak256\\xe5\\x93\\x88\\xe5\\xb8\\x8c\\xe5\\x87\\xbd\\xe6\\x95\\xb0.sol\":214:1659  contract HashFucn {... */\n      mstore(0x40, 0x80)\n      callvalue\n      dup1\n      iszero\n      tag_1\n      jumpi\n      revert(0x00, 0x00)\n    tag_1:\n      pop\n      jumpi(tag_2, lt(calldatasize, 0x04))\n      shr(0xe0, calldataload(0x00))\n      dup1\n      0x09e8109d\n      eq\n      tag_3\n      jumpi\n      dup1\n      0x17fe2da2\n      eq\n      tag_4\n      jumpi\n      dup1\n      0x5dda416e\n      eq\n      tag_5\n      jumpi\n      dup1\n      0x640eb5b0\n      eq\n      tag_6\n      jumpi\n      dup1\n      0x7b7fb982\n      eq\n      tag_7\n      jumpi\n    tag_2:\n      revert(0x00, 0x00)\n        /* \"\\xe7\\xac\\xac\\xe5\\x9b\\x9b\\xe5\\x91\\xa8/Keccak256\\xe5\\x93\\x88\\xe5\\xb8\\x8c\\xe5\\x87\\xbd\\xe6\\x95\\xb0.sol\":826:1008  function encodPacked(string memory text0, string memory text1)... */\n    tag_3:\n      tag_8\n      0x04\n      dup1\n      calldatasize\n      sub\n      dup2\n      add\n      swap1\n      tag_9\n      swap2\n      swap1\n      tag_10\n      jump\t// in\n    tag_9:\n      tag_11\n      jump\t// in\n    tag_8:\n      mload(0x40)\n      tag_12\n      swap2\n      swap1\n      tag_13\n      jump\t// in\n    tag_12:\n      mload(0x40)\n      dup1\n      swap2\n      sub\n      swap1\n      return\n        /* \"\\xe7\\xac\\xac\\xe5\\x9b\\x9b\\xe5\\x91\\xa8/Keccak256\\xe5\\x93\\x88\\xe5\\xb8\\x8c\\xe5\\x87\\xbd\\xe6\\x95\\xb0.sol\":614:820  function encode(string memory text0, string memory text1)... */\n    tag_4:\n      tag_14\n      0x04\n      dup1\n      calldatasize\n      sub\n      dup2\n      add\n      swap1\n      tag_15\n      swap2\n      swap1\n      tag_10\n      jump\t// in\n    tag_15:\n      tag_16\n      jump\t// in\n    tag_14:\n      mload(0x40)\n      tag_17\n      swap2\n      swap1\n      tag_13\n      jump\t// in\n    tag_17:\n      mload(0x40)\n      dup1\n      swap2\n      sub\n      swap1\n      return\n        /* \"\\xe7\\xac\\xac\\xe5\\x9b\\x9b\\xe5\\x91\\xa8/Keccak256\\xe5\\x93\\x88\\xe5\\xb8\\x8c\\xe5\\x87\\xbd\\xe6\\x95\\xb0.sol\":238:589  function hash(... */\n    tag_5:\n      tag_18\n      0x04\n      dup1\n      calldatasize\n      sub\n      dup2\n      add\n      swap1\n      tag_19\n      swap2\n      swap1\n      tag_20\n      jump\t// in\n    tag_19:\n      tag_21\n      jump\t// in\n    tag_18:\n      mload(0x40)\n      tag_22\n      swap2\n      swap1\n      tag_23\n      jump\t// in\n    tag_22:\n      mload(0x40)\n      dup1\n      swap2\n      sub\n      swap1\n      return\n        /* \"\\xe7\\xac\\xac\\xe5\\x9b\\x9b\\xe5\\x91\\xa8/Keccak256\\xe5\\x93\\x88\\xe5\\xb8\\x8c\\xe5\\x87\\xbd\\xe6\\x95\\xb0.sol\":1340:1655  function collision1(string memory text0,uint x, string memory text1) external pure returns (bytes32){  //这里用bytes32?... */\n    tag_6:\n      tag_24\n      0x04\n      dup1\n      calldatasize\n      sub\n      dup2\n      add\n      swap1\n      tag_25\n      swap2\n      swap1\n      tag_26\n      jump\t// in\n    tag_25:\n      tag_27\n      jump\t// in\n    tag_24:\n      mload(0x40)\n      tag_28\n      swap2\n      swap1\n      tag_23\n      jump\t// in\n    tag_28:\n      mload(0x40)\n      dup1\n      swap2\n      sub\n      swap1\n      return\n        /* \"\\xe7\\xac\\xac\\xe5\\x9b\\x9b\\xe5\\x91\\xa8/Keccak256\\xe5\\x93\\x88\\xe5\\xb8\\x8c\\xe5\\x87\\xbd\\xe6\\x95\\xb0.sol\":1038:1337  function collision(string memory text0, string memory text1) external pure returns (bytes32){  //这里用bytes32?... */\n    tag_7:\n      tag_29\n      0x04\n      dup1\n      calldatasize\n      sub\n      dup2\n      add\n      swap1\n      tag_30\n      swap2\n      swap1\n      tag_10\n      jump\t// in\n    tag_30:\n      tag_31\n      jump\t// in\n    tag_29:\n      mload(0x40)\n      tag_32\n      swap2\n      swap1\n      tag_23\n      jump\t// in\n    tag_32:\n      mload(0x40)\n      dup1\n      swap2\n      sub\n      swap1\n      return\n        /* \"\\xe7\\xac\\xac\\xe5\\x9b\\x9b\\xe5\\x91\\xa8/Keccak256\\xe5\\x93\\x88\\xe5\\xb8\\x8c\\xe5\\x87\\xbd\\xe6\\x95\\xb0.sol\":826:1008  function encodPacked(string memory text0, string memory text1)... */\n    tag_11:\n        /* \"\\xe7\\xac\\xac\\xe5\\x9b\\x9b\\xe5\\x91\\xa8/Keccak256\\xe5\\x93\\x88\\xe5\\xb8\\x8c\\xe5\\x87\\xbd\\xe6\\x95\\xb0.sol\":936:948  bytes memory */\n      0x60\n        /* \"\\xe7\\xac\\xac\\xe5\\x9b\\x9b\\xe5\\x91\\xa8/Keccak256\\xe5\\x93\\x88\\xe5\\xb8\\x8c\\xe5\\x87\\xbd\\xe6\\x95\\xb0.sol\":988:993  text0 */\n      dup3\n        /* \"\\xe7\\xac\\xac\\xe5\\x9b\\x9b\\xe5\\x91\\xa8/Keccak256\\xe5\\x93\\x88\\xe5\\xb8\\x8c\\xe5\\x87\\xbd\\xe6\\x95\\xb0.sol\":995:1000  text1 */\n      dup3\n        /* \"\\xe7\\xac\\xac\\xe5\\x9b\\x9b\\xe5\\x91\\xa8/Keccak256\\xe5\\x93\\x88\\xe5\\xb8\\x8c\\xe5\\x87\\xbd\\xe6\\x95\\xb0.sol\":971:1001  abi.encodePacked(text0, text1) */\n      add(0x20, mload(0x40))\n      tag_34\n      swap3\n      swap2\n      swap1\n      tag_35\n      jump\t// in\n    tag_34:\n      mload(0x40)\n      0x20\n      dup2\n      dup4\n      sub\n      sub\n      dup2\n      mstore\n      swap1\n      0x40\n      mstore\n        /* \"\\xe7\\xac\\xac\\xe5\\x9b\\x9b\\xe5\\x91\\xa8/Keccak256\\xe5\\x93\\x88\\xe5\\xb8\\x8c\\xe5\\x87\\xbd\\xe6\\x95\\xb0.sol\":964:1001  return abi.encodePacked(text0, text1) */\n      swap1\n      pop\n        /* \"\\xe7\\xac\\xac\\xe5\\x9b\\x9b\\xe5\\x91\\xa8/Keccak256\\xe5\\x93\\x88\\xe5\\xb8\\x8c\\xe5\\x87\\xbd\\xe6\\x95\\xb0.sol\":826:1008  function encodPacked(string memory text0, string memory text1)... */\n      swap3\n      swap2\n      pop\n      pop\n      jump\t// out\n        /* \"\\xe7\\xac\\xac\\xe5\\x9b\\x9b\\xe5\\x91\\xa8/Keccak256\\xe5\\x93\\x88\\xe5\\xb8\\x8c\\xe5\\x87\\xbd\\xe6\\x95\\xb0.sol\":614:820  function encode(string memory text0, string memory text1)... */\n    tag_16:\n        /* \"\\xe7\\xac\\xac\\xe5\\x9b\\x9b\\xe5\\x91\\xa8/Keccak256\\xe5\\x93\\x88\\xe5\\xb8\\x8c\\xe5\\x87\\xbd\\xe6\\x95\\xb0.sol\":719:731  bytes memory */\n      0x60\n        /* \"\\xe7\\xac\\xac\\xe5\\x9b\\x9b\\xe5\\x91\\xa8/Keccak256\\xe5\\x93\\x88\\xe5\\xb8\\x8c\\xe5\\x87\\xbd\\xe6\\x95\\xb0.sol\":800:805  text0 */\n      dup3\n        /* \"\\xe7\\xac\\xac\\xe5\\x9b\\x9b\\xe5\\x91\\xa8/Keccak256\\xe5\\x93\\x88\\xe5\\xb8\\x8c\\xe5\\x87\\xbd\\xe6\\x95\\xb0.sol\":807:812  text1 */\n      dup3\n        /* \"\\xe7\\xac\\xac\\xe5\\x9b\\x9b\\xe5\\x91\\xa8/Keccak256\\xe5\\x93\\x88\\xe5\\xb8\\x8c\\xe5\\x87\\xbd\\xe6\\x95\\xb0.sol\":789:813  abi.encode(text0, text1) */\n      add(0x20, mload(0x40))\n      tag_37\n      swap3\n      swap2\n      swap1\n      tag_38\n      jump\t// in\n    tag_37:\n      mload(0x40)\n      0x20\n      dup2\n      dup4\n      sub\n      sub\n      dup2\n      mstore\n      swap1\n      0x40\n      mstore\n        /* \"\\xe7\\xac\\xac\\xe5\\x9b\\x9b\\xe5\\x91\\xa8/Keccak256\\xe5\\x93\\x88\\xe5\\xb8\\x8c\\xe5\\x87\\xbd\\xe6\\x95\\xb0.sol\":782:813  return abi.encode(text0, text1) */\n      swap1\n      pop\n        /* \"\\xe7\\xac\\xac\\xe5\\x9b\\x9b\\xe5\\x91\\xa8/Keccak256\\xe5\\x93\\x88\\xe5\\xb8\\x8c\\xe5\\x87\\xbd\\xe6\\x95\\xb0.sol\":614:820  function encode(string memory text0, string memory text1)... */\n      swap3\n      swap2\n      pop\n      pop\n      jump\t// out\n        /* \"\\xe7\\xac\\xac\\xe5\\x9b\\x9b\\xe5\\x91\\xa8/Keccak256\\xe5\\x93\\x88\\xe5\\xb8\\x8c\\xe5\\x87\\xbd\\xe6\\x95\\xb0.sol\":238:589  function hash(... */\n    tag_21:\n        /* \"\\xe7\\xac\\xac\\xe5\\x9b\\x9b\\xe5\\x91\\xa8/Keccak256\\xe5\\x93\\x88\\xe5\\xb8\\x8c\\xe5\\x87\\xbd\\xe6\\x95\\xb0.sol\":352:359  bytes32 */\n      0x00\n        /* \"\\xe7\\xac\\xac\\xe5\\x9b\\x9b\\xe5\\x91\\xa8/Keccak256\\xe5\\x93\\x88\\xe5\\xb8\\x8c\\xe5\\x87\\xbd\\xe6\\x95\\xb0.sol\":468:472  text */\n      dup4\n        /* \"\\xe7\\xac\\xac\\xe5\\x9b\\x9b\\xe5\\x91\\xa8/Keccak256\\xe5\\x93\\x88\\xe5\\xb8\\x8c\\xe5\\x87\\xbd\\xe6\\x95\\xb0.sol\":474:477  num */\n      dup4\n        /* \"\\xe7\\xac\\xac\\xe5\\x9b\\x9b\\xe5\\x91\\xa8/Keccak256\\xe5\\x93\\x88\\xe5\\xb8\\x8c\\xe5\\x87\\xbd\\xe6\\x95\\xb0.sol\":479:483  addr */\n      dup4\n        /* \"\\xe7\\xac\\xac\\xe5\\x9b\\x9b\\xe5\\x91\\xa8/Keccak256\\xe5\\x93\\x88\\xe5\\xb8\\x8c\\xe5\\x87\\xbd\\xe6\\x95\\xb0.sol\":451:484  abi.encodePacked(text, num, addr) */\n      add(0x20, mload(0x40))\n      tag_40\n      swap4\n      swap3\n      swap2\n      swap1\n      tag_41\n      jump\t// in\n    tag_40:\n      mload(0x40)\n      0x20\n      dup2\n      dup4\n      sub\n      sub\n      dup2\n      mstore\n      swap1\n      0x40\n      mstore\n        /* \"\\xe7\\xac\\xac\\xe5\\x9b\\x9b\\xe5\\x91\\xa8/Keccak256\\xe5\\x93\\x88\\xe5\\xb8\\x8c\\xe5\\x87\\xbd\\xe6\\x95\\xb0.sol\":441:485  keccak256(abi.encodePacked(text, num, addr)) */\n      dup1\n      mload\n      swap1\n      0x20\n      add\n      keccak256\n        /* \"\\xe7\\xac\\xac\\xe5\\x9b\\x9b\\xe5\\x91\\xa8/Keccak256\\xe5\\x93\\x88\\xe5\\xb8\\x8c\\xe5\\x87\\xbd\\xe6\\x95\\xb0.sol\":434:485  return keccak256(abi.encodePacked(text, num, addr)) */\n      swap1\n      pop\n        /* \"\\xe7\\xac\\xac\\xe5\\x9b\\x9b\\xe5\\x91\\xa8/Keccak256\\xe5\\x93\\x88\\xe5\\xb8\\x8c\\xe5\\x87\\xbd\\xe6\\x95\\xb0.sol\":238:589  function hash(... */\n      swap4\n      swap3\n      pop\n      pop\n      pop\n      jump\t// out\n        /* \"\\xe7\\xac\\xac\\xe5\\x9b\\x9b\\xe5\\x91\\xa8/Keccak256\\xe5\\x93\\x88\\xe5\\xb8\\x8c\\xe5\\x87\\xbd\\xe6\\x95\\xb0.sol\":1340:1655  function collision1(string memory text0,uint x, string memory text1) external pure returns (bytes32){  //这里用bytes32?... */\n    tag_27:\n        /* \"\\xe7\\xac\\xac\\xe5\\x9b\\x9b\\xe5\\x91\\xa8/Keccak256\\xe5\\x93\\x88\\xe5\\xb8\\x8c\\xe5\\x87\\xbd\\xe6\\x95\\xb0.sol\":1432:1439  bytes32 */\n      0x00\n        /* \"\\xe7\\xac\\xac\\xe5\\x9b\\x9b\\xe5\\x91\\xa8/Keccak256\\xe5\\x93\\x88\\xe5\\xb8\\x8c\\xe5\\x87\\xbd\\xe6\\x95\\xb0.sol\":1616:1621  text0 */\n      dup4\n        /* \"\\xe7\\xac\\xac\\xe5\\x9b\\x9b\\xe5\\x91\\xa8/Keccak256\\xe5\\x93\\x88\\xe5\\xb8\\x8c\\xe5\\x87\\xbd\\xe6\\x95\\xb0.sol\":1622:1623  x */\n      dup4\n        /* \"\\xe7\\xac\\xac\\xe5\\x9b\\x9b\\xe5\\x91\\xa8/Keccak256\\xe5\\x93\\x88\\xe5\\xb8\\x8c\\xe5\\x87\\xbd\\xe6\\x95\\xb0.sol\":1624:1629  text1 */\n      dup4\n        /* \"\\xe7\\xac\\xac\\xe5\\x9b\\x9b\\xe5\\x91\\xa8/Keccak256\\xe5\\x93\\x88\\xe5\\xb8\\x8c\\xe5\\x87\\xbd\\xe6\\x95\\xb0.sol\":1599:1630  abi.encodePacked(text0,x,text1) */\n      add(0x20, mload(0x40))\n      tag_43\n      swap4\n      swap3\n      swap2\n      swap1\n      tag_44\n      jump\t// in\n    tag_43:\n      mload(0x40)\n      0x20\n      dup2\n      dup4\n      sub\n      sub\n      dup2\n      mstore\n      swap1\n      0x40\n      mstore\n        /* \"\\xe7\\xac\\xac\\xe5\\x9b\\x9b\\xe5\\x91\\xa8/Keccak256\\xe5\\x93\\x88\\xe5\\xb8\\x8c\\xe5\\x87\\xbd\\xe6\\x95\\xb0.sol\":1589:1631  keccak256(abi.encodePacked(text0,x,text1)) */\n      dup1\n      mload\n      swap1\n      0x20\n      add\n      keccak256\n        /* \"\\xe7\\xac\\xac\\xe5\\x9b\\x9b\\xe5\\x91\\xa8/Keccak256\\xe5\\x93\\x88\\xe5\\xb8\\x8c\\xe5\\x87\\xbd\\xe6\\x95\\xb0.sol\":1582:1631  return keccak256(abi.encodePacked(text0,x,text1)) */\n      swap1\n      pop\n        /* \"\\xe7\\xac\\xac\\xe5\\x9b\\x9b\\xe5\\x91\\xa8/Keccak256\\xe5\\x93\\x88\\xe5\\xb8\\x8c\\xe5\\x87\\xbd\\xe6\\x95\\xb0.sol\":1340:1655  function collision1(string memory text0,uint x, string memory text1) external pure returns (bytes32){  //这里用bytes32?... */\n      swap4\n      swap3\n      pop\n      pop\n      pop\n      jump\t// out\n        /* \"\\xe7\\xac\\xac\\xe5\\x9b\\x9b\\xe5\\x91\\xa8/Keccak256\\xe5\\x93\\x88\\xe5\\xb8\\x8c\\xe5\\x87\\xbd\\xe6\\x95\\xb0.sol\":1038:1337  function collision(string memory text0, string memory text1) external pure returns (bytes32){  //这里用bytes32?... */\n    tag_31:\n        /* \"\\xe7\\xac\\xac\\xe5\\x9b\\x9b\\xe5\\x91\\xa8/Keccak256\\xe5\\x93\\x88\\xe5\\xb8\\x8c\\xe5\\x87\\xbd\\xe6\\x95\\xb0.sol\":1122:1129  bytes32 */\n      0x00\n        /* \"\\xe7\\xac\\xac\\xe5\\x9b\\x9b\\xe5\\x91\\xa8/Keccak256\\xe5\\x93\\x88\\xe5\\xb8\\x8c\\xe5\\x87\\xbd\\xe6\\x95\\xb0.sol\":1300:1305  text0 */\n      dup3\n        /* \"\\xe7\\xac\\xac\\xe5\\x9b\\x9b\\xe5\\x91\\xa8/Keccak256\\xe5\\x93\\x88\\xe5\\xb8\\x8c\\xe5\\x87\\xbd\\xe6\\x95\\xb0.sol\":1306:1311  text1 */\n      dup3\n        /* \"\\xe7\\xac\\xac\\xe5\\x9b\\x9b\\xe5\\x91\\xa8/Keccak256\\xe5\\x93\\x88\\xe5\\xb8\\x8c\\xe5\\x87\\xbd\\xe6\\x95\\xb0.sol\":1289:1312  abi.encode(text0,text1) */\n      add(0x20, mload(0x40))\n      tag_46\n      swap3\n      swap2\n      swap1\n      tag_38\n      jump\t// in\n    tag_46:\n      mload(0x40)\n      0x20\n      dup2\n      dup4\n      sub\n      sub\n      dup2\n      mstore\n      swap1\n      0x40\n      mstore\n        /* \"\\xe7\\xac\\xac\\xe5\\x9b\\x9b\\xe5\\x91\\xa8/Keccak256\\xe5\\x93\\x88\\xe5\\xb8\\x8c\\xe5\\x87\\xbd\\xe6\\x95\\xb0.sol\":1279:1313  keccak256(abi.encode(text0,text1)) */\n      dup1\n      mload\n      swap1\n      0x20\n      add\n      keccak256\n        /* \"\\xe7\\xac\\xac\\xe5\\x9b\\x9b\\xe5\\x91\\xa8/Keccak256\\xe5\\x93\\x88\\xe5\\xb8\\x8c\\xe5\\x87\\xbd\\xe6\\x95\\xb0.sol\":1272:1313  return keccak256(abi.encode(text0,text1)) */\n      swap1\n      pop\n        /* \"\\xe7\\xac\\xac\\xe5\\x9b\\x9b\\xe5\\x91\\xa8/Keccak256\\xe5\\x93\\x88\\xe5\\xb8\\x8c\\xe5\\x87\\xbd\\xe6\\x95\\xb0.sol\":1038:1337  function collision(string memory text0, string memory text1) external pure returns (bytes32){  //这里用bytes32?... */\n      swap3\n      swap2\n      pop\n      pop\n      jump\t// out\n        /* \"#utility.yul\":7:82   */\n    tag_47:\n        /* \"#utility.yul\":40:46   */\n      0x00\n        /* \"#utility.yul\":73:75   */\n      0x40\n        /* \"#utility.yul\":67:76   */\n      mload\n        /* \"#utility.yul\":57:76   */\n      swap1\n      pop\n        /* \"#utility.yul\":7:82   */\n      swap1\n      jump\t// out\n        /* \"#utility.yul\":88:205   */\n    tag_48:\n        /* \"#utility.yul\":197:198   */\n      0x00\n        /* \"#utility.yul\":194:195   */\n      0x00\n        /* \"#utility.yul\":187:199   */\n      revert\n        /* \"#utility.yul\":211:328   */\n    tag_49:\n        /* \"#utility.yul\":320:321   */\n      0x00\n        /* \"#utility.yul\":317:318   */\n      0x00\n        /* \"#utility.yul\":310:322   */\n      revert\n        /* \"#utility.yul\":334:451   */\n    tag_50:\n        /* \"#utility.yul\":443:444   */\n      0x00\n        /* \"#utility.yul\":440:441   */\n      0x00\n        /* \"#utility.yul\":433:445   */\n      revert\n        /* \"#utility.yul\":457:574   */\n    tag_51:\n        /* \"#utility.yul\":566:567   */\n      0x00\n        /* \"#utility.yul\":563:564   */\n      0x00\n        /* \"#utility.yul\":556:568   */\n      revert\n        /* \"#utility.yul\":580:682   */\n    tag_52:\n        /* \"#utility.yul\":621:627   */\n      0x00\n        /* \"#utility.yul\":672:674   */\n      0x1f\n        /* \"#utility.yul\":668:675   */\n      not\n        /* \"#utility.yul\":663:665   */\n      0x1f\n        /* \"#utility.yul\":656:661   */\n      dup4\n        /* \"#utility.yul\":652:666   */\n      add\n        /* \"#utility.yul\":648:676   */\n      and\n        /* \"#utility.yul\":638:676   */\n      swap1\n      pop\n        /* \"#utility.yul\":580:682   */\n      swap2\n      swap1\n      pop\n      jump\t// out\n        /* \"#utility.yul\":688:868   */\n    tag_53:\n        /* \"#utility.yul\":736:813   */\n      0x4e487b7100000000000000000000000000000000000000000000000000000000\n        /* \"#utility.yul\":733:734   */\n      0x00\n        /* \"#utility.yul\":726:814   */\n      mstore\n        /* \"#utility.yul\":833:837   */\n      0x41\n        /* \"#utility.yul\":830:831   */\n      0x04\n        /* \"#utility.yul\":823:838   */\n      mstore\n        /* \"#utility.yul\":857:861   */\n      0x24\n        /* \"#utility.yul\":854:855   */\n      0x00\n        /* \"#utility.yul\":847:862   */\n      revert\n        /* \"#utility.yul\":874:1155   */\n    tag_54:\n        /* \"#utility.yul\":957:984   */\n      tag_93\n        /* \"#utility.yul\":979:983   */\n      dup3\n        /* \"#utility.yul\":957:984   */\n      tag_52\n      jump\t// in\n    tag_93:\n        /* \"#utility.yul\":949:955   */\n      dup2\n        /* \"#utility.yul\":945:985   */\n      add\n        /* \"#utility.yul\":1087:1093   */\n      dup2\n        /* \"#utility.yul\":1075:1085   */\n      dup2\n        /* \"#utility.yul\":1072:1094   */\n      lt\n        /* \"#utility.yul\":1051:1069   */\n      0xffffffffffffffff\n        /* \"#utility.yul\":1039:1049   */\n      dup3\n        /* \"#utility.yul\":1036:1070   */\n      gt\n        /* \"#utility.yul\":1033:1095   */\n      or\n        /* \"#utility.yul\":1030:1118   */\n      iszero\n      tag_94\n      jumpi\n        /* \"#utility.yul\":1098:1116   */\n      tag_95\n      tag_53\n      jump\t// in\n    tag_95:\n        /* \"#utility.yul\":1030:1118   */\n    tag_94:\n        /* \"#utility.yul\":1138:1148   */\n      dup1\n        /* \"#utility.yul\":1134:1136   */\n      0x40\n        /* \"#utility.yul\":1127:1149   */\n      mstore\n        /* \"#utility.yul\":917:1155   */\n      pop\n        /* \"#utility.yul\":874:1155   */\n      pop\n      pop\n      jump\t// out\n        /* \"#utility.yul\":1161:1290   */\n    tag_55:\n        /* \"#utility.yul\":1195:1201   */\n      0x00\n        /* \"#utility.yul\":1222:1242   */\n      tag_97\n      tag_47\n      jump\t// in\n    tag_97:\n        /* \"#utility.yul\":1212:1242   */\n      swap1\n      pop\n        /* \"#utility.yul\":1251:1284   */\n      tag_98\n        /* \"#utility.yul\":1279:1283   */\n      dup3\n        /* \"#utility.yul\":1271:1277   */\n      dup3\n        /* \"#utility.yul\":1251:1284   */\n      tag_54\n      jump\t// in\n    tag_98:\n        /* \"#utility.yul\":1161:1290   */\n      swap2\n      swap1\n      pop\n      jump\t// out\n        /* \"#utility.yul\":1296:1604   */\n    tag_56:\n        /* \"#utility.yul\":1358:1362   */\n      0x00\n        /* \"#utility.yul\":1448:1466   */\n      0xffffffffffffffff\n        /* \"#utility.yul\":1440:1446   */\n      dup3\n        /* \"#utility.yul\":1437:1467   */\n      gt\n        /* \"#utility.yul\":1434:1490   */\n      iszero\n      tag_100\n      jumpi\n        /* \"#utility.yul\":1470:1488   */\n      tag_101\n      tag_53\n      jump\t// in\n    tag_101:\n        /* \"#utility.yul\":1434:1490   */\n    tag_100:\n        /* \"#utility.yul\":1508:1537   */\n      tag_102\n        /* \"#utility.yul\":1530:1536   */\n      dup3\n        /* \"#utility.yul\":1508:1537   */\n      tag_52\n      jump\t// in\n    tag_102:\n        /* \"#utility.yul\":1500:1537   */\n      swap1\n      pop\n        /* \"#utility.yul\":1592:1596   */\n      0x20\n        /* \"#utility.yul\":1586:1590   */\n      dup2\n        /* \"#utility.yul\":1582:1597   */\n      add\n        /* \"#utility.yul\":1574:1597   */\n      swap1\n      pop\n        /* \"#utility.yul\":1296:1604   */\n      swap2\n      swap1\n      pop\n      jump\t// out\n        /* \"#utility.yul\":1610:1758   */\n    tag_57:\n        /* \"#utility.yul\":1708:1714   */\n      dup3\n        /* \"#utility.yul\":1703:1706   */\n      dup2\n        /* \"#utility.yul\":1698:1701   */\n      dup4\n        /* \"#utility.yul\":1685:1715   */\n      calldatacopy\n        /* \"#utility.yul\":1749:1750   */\n      0x00\n        /* \"#utility.yul\":1740:1746   */\n      dup4\n        /* \"#utility.yul\":1735:1738   */\n      dup4\n        /* \"#utility.yul\":1731:1747   */\n      add\n        /* \"#utility.yul\":1724:1751   */\n      mstore\n        /* \"#utility.yul\":1610:1758   */\n      pop\n      pop\n      pop\n      jump\t// out\n        /* \"#utility.yul\":1764:2189   */\n    tag_58:\n        /* \"#utility.yul\":1842:1847   */\n      0x00\n        /* \"#utility.yul\":1867:1933   */\n      tag_105\n        /* \"#utility.yul\":1883:1932   */\n      tag_106\n        /* \"#utility.yul\":1925:1931   */\n      dup5\n        /* \"#utility.yul\":1883:1932   */\n      tag_56\n      jump\t// in\n    tag_106:\n        /* \"#utility.yul\":1867:1933   */\n      tag_55\n      jump\t// in\n    tag_105:\n        /* \"#utility.yul\":1858:1933   */\n      swap1\n      pop\n        /* \"#utility.yul\":1956:1962   */\n      dup3\n        /* \"#utility.yul\":1949:1954   */\n      dup2\n        /* \"#utility.yul\":1942:1963   */\n      mstore\n        /* \"#utility.yul\":1994:1998   */\n      0x20\n        /* \"#utility.yul\":1987:1992   */\n      dup2\n        /* \"#utility.yul\":1983:1999   */\n      add\n        /* \"#utility.yul\":2032:2035   */\n      dup5\n        /* \"#utility.yul\":2023:2029   */\n      dup5\n        /* \"#utility.yul\":2018:2021   */\n      dup5\n        /* \"#utility.yul\":2014:2030   */\n      add\n        /* \"#utility.yul\":2011:2036   */\n      gt\n        /* \"#utility.yul\":2008:2120   */\n      iszero\n      tag_107\n      jumpi\n        /* \"#utility.yul\":2039:2118   */\n      tag_108\n      tag_51\n      jump\t// in\n    tag_108:\n        /* \"#utility.yul\":2008:2120   */\n    tag_107:\n        /* \"#utility.yul\":2129:2183   */\n      tag_109\n        /* \"#utility.yul\":2176:2182   */\n      dup5\n        /* \"#utility.yul\":2171:2174   */\n      dup3\n        /* \"#utility.yul\":2166:2169   */\n      dup6\n        /* \"#utility.yul\":2129:2183   */\n      tag_57\n      jump\t// in\n    tag_109:\n        /* \"#utility.yul\":1848:2189   */\n      pop\n        /* \"#utility.yul\":1764:2189   */\n      swap4\n      swap3\n      pop\n      pop\n      pop\n      jump\t// out\n        /* \"#utility.yul\":2209:2549   */\n    tag_59:\n        /* \"#utility.yul\":2265:2270   */\n      0x00\n        /* \"#utility.yul\":2314:2317   */\n      dup3\n        /* \"#utility.yul\":2307:2311   */\n      0x1f\n        /* \"#utility.yul\":2299:2305   */\n      dup4\n        /* \"#utility.yul\":2295:2312   */\n      add\n        /* \"#utility.yul\":2291:2318   */\n      slt\n        /* \"#utility.yul\":2281:2403   */\n      tag_111\n      jumpi\n        /* \"#utility.yul\":2322:2401   */\n      tag_112\n      tag_50\n      jump\t// in\n    tag_112:\n        /* \"#utility.yul\":2281:2403   */\n    tag_111:\n        /* \"#utility.yul\":2439:2445   */\n      dup2\n        /* \"#utility.yul\":2426:2446   */\n      calldataload\n        /* \"#utility.yul\":2464:2543   */\n      tag_113\n        /* \"#utility.yul\":2539:2542   */\n      dup5\n        /* \"#utility.yul\":2531:2537   */\n      dup3\n        /* \"#utility.yul\":2524:2528   */\n      0x20\n        /* \"#utility.yul\":2516:2522   */\n      dup7\n        /* \"#utility.yul\":2512:2529   */\n      add\n        /* \"#utility.yul\":2464:2543   */\n      tag_58\n      jump\t// in\n    tag_113:\n        /* \"#utility.yul\":2455:2543   */\n      swap2\n      pop\n        /* \"#utility.yul\":2271:2549   */\n      pop\n        /* \"#utility.yul\":2209:2549   */\n      swap3\n      swap2\n      pop\n      pop\n      jump\t// out\n        /* \"#utility.yul\":2555:3389   */\n    tag_10:\n        /* \"#utility.yul\":2643:2649   */\n      0x00\n        /* \"#utility.yul\":2651:2657   */\n      0x00\n        /* \"#utility.yul\":2700:2702   */\n      0x40\n        /* \"#utility.yul\":2688:2697   */\n      dup4\n        /* \"#utility.yul\":2679:2686   */\n      dup6\n        /* \"#utility.yul\":2675:2698   */\n      sub\n        /* \"#utility.yul\":2671:2703   */\n      slt\n        /* \"#utility.yul\":2668:2787   */\n      iszero\n      tag_115\n      jumpi\n        /* \"#utility.yul\":2706:2785   */\n      tag_116\n      tag_48\n      jump\t// in\n    tag_116:\n        /* \"#utility.yul\":2668:2787   */\n    tag_115:\n        /* \"#utility.yul\":2854:2855   */\n      0x00\n        /* \"#utility.yul\":2843:2852   */\n      dup4\n        /* \"#utility.yul\":2839:2856   */\n      add\n        /* \"#utility.yul\":2826:2857   */\n      calldataload\n        /* \"#utility.yul\":2884:2902   */\n      0xffffffffffffffff\n        /* \"#utility.yul\":2876:2882   */\n      dup2\n        /* \"#utility.yul\":2873:2903   */\n      gt\n        /* \"#utility.yul\":2870:2987   */\n      iszero\n      tag_117\n      jumpi\n        /* \"#utility.yul\":2906:2985   */\n      tag_118\n      tag_49\n      jump\t// in\n    tag_118:\n        /* \"#utility.yul\":2870:2987   */\n    tag_117:\n        /* \"#utility.yul\":3011:3074   */\n      tag_119\n        /* \"#utility.yul\":3066:3073   */\n      dup6\n        /* \"#utility.yul\":3057:3063   */\n      dup3\n        /* \"#utility.yul\":3046:3055   */\n      dup7\n        /* \"#utility.yul\":3042:3064   */\n      add\n        /* \"#utility.yul\":3011:3074   */\n      tag_59\n      jump\t// in\n    tag_119:\n        /* \"#utility.yul\":3001:3074   */\n      swap3\n      pop\n        /* \"#utility.yul\":2797:3084   */\n      pop\n        /* \"#utility.yul\":3151:3153   */\n      0x20\n        /* \"#utility.yul\":3140:3149   */\n      dup4\n        /* \"#utility.yul\":3136:3154   */\n      add\n        /* \"#utility.yul\":3123:3155   */\n      calldataload\n        /* \"#utility.yul\":3182:3200   */\n      0xffffffffffffffff\n        /* \"#utility.yul\":3174:3180   */\n      dup2\n        /* \"#utility.yul\":3171:3201   */\n      gt\n        /* \"#utility.yul\":3168:3285   */\n      iszero\n      tag_120\n      jumpi\n        /* \"#utility.yul\":3204:3283   */\n      tag_121\n      tag_49\n      jump\t// in\n    tag_121:\n        /* \"#utility.yul\":3168:3285   */\n    tag_120:\n        /* \"#utility.yul\":3309:3372   */\n      tag_122\n        /* \"#utility.yul\":3364:3371   */\n      dup6\n        /* \"#utility.yul\":3355:3361   */\n      dup3\n        /* \"#utility.yul\":3344:3353   */\n      dup7\n        /* \"#utility.yul\":3340:3362   */\n      add\n        /* \"#utility.yul\":3309:3372   */\n      tag_59\n      jump\t// in\n    tag_122:\n        /* \"#utility.yul\":3299:3372   */\n      swap2\n      pop\n        /* \"#utility.yul\":3094:3382   */\n      pop\n        /* \"#utility.yul\":2555:3389   */\n      swap3\n      pop\n      swap3\n      swap1\n      pop\n      jump\t// out\n        /* \"#utility.yul\":3395:3493   */\n    tag_60:\n        /* \"#utility.yul\":3446:3452   */\n      0x00\n        /* \"#utility.yul\":3480:3485   */\n      dup2\n        /* \"#utility.yul\":3474:3486   */\n      mload\n        /* \"#utility.yul\":3464:3486   */\n      swap1\n      pop\n        /* \"#utility.yul\":3395:3493   */\n      swap2\n      swap1\n      pop\n      jump\t// out\n        /* \"#utility.yul\":3499:3667   */\n    tag_61:\n        /* \"#utility.yul\":3582:3593   */\n      0x00\n        /* \"#utility.yul\":3616:3622   */\n      dup3\n        /* \"#utility.yul\":3611:3614   */\n      dup3\n        /* \"#utility.yul\":3604:3623   */\n      mstore\n        /* \"#utility.yul\":3656:3660   */\n      0x20\n        /* \"#utility.yul\":3651:3654   */\n      dup3\n        /* \"#utility.yul\":3647:3661   */\n      add\n        /* \"#utility.yul\":3632:3661   */\n      swap1\n      pop\n        /* \"#utility.yul\":3499:3667   */\n      swap3\n      swap2\n      pop\n      pop\n      jump\t// out\n        /* \"#utility.yul\":3673:3812   */\n    tag_62:\n        /* \"#utility.yul\":3762:3768   */\n      dup3\n        /* \"#utility.yul\":3757:3760   */\n      dup2\n        /* \"#utility.yul\":3752:3755   */\n      dup4\n        /* \"#utility.yul\":3746:3769   */\n      mcopy\n        /* \"#utility.yul\":3803:3804   */\n      0x00\n        /* \"#utility.yul\":3794:3800   */\n      dup4\n        /* \"#utility.yul\":3789:3792   */\n      dup4\n        /* \"#utility.yul\":3785:3801   */\n      add\n        /* \"#utility.yul\":3778:3805   */\n      mstore\n        /* \"#utility.yul\":3673:3812   */\n      pop\n      pop\n      pop\n      jump\t// out\n        /* \"#utility.yul\":3818:4191   */\n    tag_63:\n        /* \"#utility.yul\":3904:3907   */\n      0x00\n        /* \"#utility.yul\":3932:3970   */\n      tag_127\n        /* \"#utility.yul\":3964:3969   */\n      dup3\n        /* \"#utility.yul\":3932:3970   */\n      tag_60\n      jump\t// in\n    tag_127:\n        /* \"#utility.yul\":3986:4056   */\n      tag_128\n        /* \"#utility.yul\":4049:4055   */\n      dup2\n        /* \"#utility.yul\":4044:4047   */\n      dup6\n        /* \"#utility.yul\":3986:4056   */\n      tag_61\n      jump\t// in\n    tag_128:\n        /* \"#utility.yul\":3979:4056   */\n      swap4\n      pop\n        /* \"#utility.yul\":4065:4130   */\n      tag_129\n        /* \"#utility.yul\":4123:4129   */\n      dup2\n        /* \"#utility.yul\":4118:4121   */\n      dup6\n        /* \"#utility.yul\":4111:4115   */\n      0x20\n        /* \"#utility.yul\":4104:4109   */\n      dup7\n        /* \"#utility.yul\":4100:4116   */\n      add\n        /* \"#utility.yul\":4065:4130   */\n      tag_62\n      jump\t// in\n    tag_129:\n        /* \"#utility.yul\":4155:4184   */\n      tag_130\n        /* \"#utility.yul\":4177:4183   */\n      dup2\n        /* \"#utility.yul\":4155:4184   */\n      tag_52\n      jump\t// in\n    tag_130:\n        /* \"#utility.yul\":4150:4153   */\n      dup5\n        /* \"#utility.yul\":4146:4185   */\n      add\n        /* \"#utility.yul\":4139:4185   */\n      swap2\n      pop\n        /* \"#utility.yul\":3908:4191   */\n      pop\n        /* \"#utility.yul\":3818:4191   */\n      swap3\n      swap2\n      pop\n      pop\n      jump\t// out\n        /* \"#utility.yul\":4197:4506   */\n    tag_13:\n        /* \"#utility.yul\":4308:4312   */\n      0x00\n        /* \"#utility.yul\":4346:4348   */\n      0x20\n        /* \"#utility.yul\":4335:4344   */\n      dup3\n        /* \"#utility.yul\":4331:4349   */\n      add\n        /* \"#utility.yul\":4323:4349   */\n      swap1\n      pop\n        /* \"#utility.yul\":4395:4404   */\n      dup2\n        /* \"#utility.yul\":4389:4393   */\n      dup2\n        /* \"#utility.yul\":4385:4405   */\n      sub\n        /* \"#utility.yul\":4381:4382   */\n      0x00\n        /* \"#utility.yul\":4370:4379   */\n      dup4\n        /* \"#utility.yul\":4366:4383   */\n      add\n        /* \"#utility.yul\":4359:4406   */\n      mstore\n        /* \"#utility.yul\":4423:4499   */\n      tag_132\n        /* \"#utility.yul\":4494:4498   */\n      dup2\n        /* \"#utility.yul\":4485:4491   */\n      dup5\n        /* \"#utility.yul\":4423:4499   */\n      tag_63\n      jump\t// in\n    tag_132:\n        /* \"#utility.yul\":4415:4499   */\n      swap1\n      pop\n        /* \"#utility.yul\":4197:4506   */\n      swap3\n      swap2\n      pop\n      pop\n      jump\t// out\n        /* \"#utility.yul\":4512:4589   */\n    tag_64:\n        /* \"#utility.yul\":4549:4556   */\n      0x00\n        /* \"#utility.yul\":4578:4583   */\n      dup2\n        /* \"#utility.yul\":4567:4583   */\n      swap1\n      pop\n        /* \"#utility.yul\":4512:4589   */\n      swap2\n      swap1\n      pop\n      jump\t// out\n        /* \"#utility.yul\":4595:4717   */\n    tag_65:\n        /* \"#utility.yul\":4668:4692   */\n      tag_135\n        /* \"#utility.yul\":4686:4691   */\n      dup2\n        /* \"#utility.yul\":4668:4692   */\n      tag_64\n      jump\t// in\n    tag_135:\n        /* \"#utility.yul\":4661:4666   */\n      dup2\n        /* \"#utility.yul\":4658:4693   */\n      eq\n        /* \"#utility.yul\":4648:4711   */\n      tag_136\n      jumpi\n        /* \"#utility.yul\":4707:4708   */\n      0x00\n        /* \"#utility.yul\":4704:4705   */\n      0x00\n        /* \"#utility.yul\":4697:4709   */\n      revert\n        /* \"#utility.yul\":4648:4711   */\n    tag_136:\n        /* \"#utility.yul\":4595:4717   */\n      pop\n      jump\t// out\n        /* \"#utility.yul\":4723:4862   */\n    tag_66:\n        /* \"#utility.yul\":4769:4774   */\n      0x00\n        /* \"#utility.yul\":4807:4813   */\n      dup2\n        /* \"#utility.yul\":4794:4814   */\n      calldataload\n        /* \"#utility.yul\":4785:4814   */\n      swap1\n      pop\n        /* \"#utility.yul\":4823:4856   */\n      tag_138\n        /* \"#utility.yul\":4850:4855   */\n      dup2\n        /* \"#utility.yul\":4823:4856   */\n      tag_65\n      jump\t// in\n    tag_138:\n        /* \"#utility.yul\":4723:4862   */\n      swap3\n      swap2\n      pop\n      pop\n      jump\t// out\n        /* \"#utility.yul\":4868:4994   */\n    tag_67:\n        /* \"#utility.yul\":4905:4912   */\n      0x00\n        /* \"#utility.yul\":4945:4987   */\n      0xffffffffffffffffffffffffffffffffffffffff\n        /* \"#utility.yul\":4938:4943   */\n      dup3\n        /* \"#utility.yul\":4934:4988   */\n      and\n        /* \"#utility.yul\":4923:4988   */\n      swap1\n      pop\n        /* \"#utility.yul\":4868:4994   */\n      swap2\n      swap1\n      pop\n      jump\t// out\n        /* \"#utility.yul\":5000:5096   */\n    tag_68:\n        /* \"#utility.yul\":5037:5044   */\n      0x00\n        /* \"#utility.yul\":5066:5090   */\n      tag_141\n        /* \"#utility.yul\":5084:5089   */\n      dup3\n        /* \"#utility.yul\":5066:5090   */\n      tag_67\n      jump\t// in\n    tag_141:\n        /* \"#utility.yul\":5055:5090   */\n      swap1\n      pop\n        /* \"#utility.yul\":5000:5096   */\n      swap2\n      swap1\n      pop\n      jump\t// out\n        /* \"#utility.yul\":5102:5224   */\n    tag_69:\n        /* \"#utility.yul\":5175:5199   */\n      tag_143\n        /* \"#utility.yul\":5193:5198   */\n      dup2\n        /* \"#utility.yul\":5175:5199   */\n      tag_68\n      jump\t// in\n    tag_143:\n        /* \"#utility.yul\":5168:5173   */\n      dup2\n        /* \"#utility.yul\":5165:5200   */\n      eq\n        /* \"#utility.yul\":5155:5218   */\n      tag_144\n      jumpi\n        /* \"#utility.yul\":5214:5215   */\n      0x00\n        /* \"#utility.yul\":5211:5212   */\n      0x00\n        /* \"#utility.yul\":5204:5216   */\n      revert\n        /* \"#utility.yul\":5155:5218   */\n    tag_144:\n        /* \"#utility.yul\":5102:5224   */\n      pop\n      jump\t// out\n        /* \"#utility.yul\":5230:5369   */\n    tag_70:\n        /* \"#utility.yul\":5276:5281   */\n      0x00\n        /* \"#utility.yul\":5314:5320   */\n      dup2\n        /* \"#utility.yul\":5301:5321   */\n      calldataload\n        /* \"#utility.yul\":5292:5321   */\n      swap1\n      pop\n        /* \"#utility.yul\":5330:5363   */\n      tag_146\n        /* \"#utility.yul\":5357:5362   */\n      dup2\n        /* \"#utility.yul\":5330:5363   */\n      tag_69\n      jump\t// in\n    tag_146:\n        /* \"#utility.yul\":5230:5369   */\n      swap3\n      swap2\n      pop\n      pop\n      jump\t// out\n        /* \"#utility.yul\":5375:6174   */\n    tag_20:\n        /* \"#utility.yul\":5462:5468   */\n      0x00\n        /* \"#utility.yul\":5470:5476   */\n      0x00\n        /* \"#utility.yul\":5478:5484   */\n      0x00\n        /* \"#utility.yul\":5527:5529   */\n      0x60\n        /* \"#utility.yul\":5515:5524   */\n      dup5\n        /* \"#utility.yul\":5506:5513   */\n      dup7\n        /* \"#utility.yul\":5502:5525   */\n      sub\n        /* \"#utility.yul\":5498:5530   */\n      slt\n        /* \"#utility.yul\":5495:5614   */\n      iszero\n      tag_148\n      jumpi\n        /* \"#utility.yul\":5533:5612   */\n      tag_149\n      tag_48\n      jump\t// in\n    tag_149:\n        /* \"#utility.yul\":5495:5614   */\n    tag_148:\n        /* \"#utility.yul\":5681:5682   */\n      0x00\n        /* \"#utility.yul\":5670:5679   */\n      dup5\n        /* \"#utility.yul\":5666:5683   */\n      add\n        /* \"#utility.yul\":5653:5684   */\n      calldataload\n        /* \"#utility.yul\":5711:5729   */\n      0xffffffffffffffff\n        /* \"#utility.yul\":5703:5709   */\n      dup2\n        /* \"#utility.yul\":5700:5730   */\n      gt\n        /* \"#utility.yul\":5697:5814   */\n      iszero\n      tag_150\n      jumpi\n        /* \"#utility.yul\":5733:5812   */\n      tag_151\n      tag_49\n      jump\t// in\n    tag_151:\n        /* \"#utility.yul\":5697:5814   */\n    tag_150:\n        /* \"#utility.yul\":5838:5901   */\n      tag_152\n        /* \"#utility.yul\":5893:5900   */\n      dup7\n        /* \"#utility.yul\":5884:5890   */\n      dup3\n        /* \"#utility.yul\":5873:5882   */\n      dup8\n        /* \"#utility.yul\":5869:5891   */\n      add\n        /* \"#utility.yul\":5838:5901   */\n      tag_59\n      jump\t// in\n    tag_152:\n        /* \"#utility.yul\":5828:5901   */\n      swap4\n      pop\n        /* \"#utility.yul\":5624:5911   */\n      pop\n        /* \"#utility.yul\":5950:5952   */\n      0x20\n        /* \"#utility.yul\":5976:6029   */\n      tag_153\n        /* \"#utility.yul\":6021:6028   */\n      dup7\n        /* \"#utility.yul\":6012:6018   */\n      dup3\n        /* \"#utility.yul\":6001:6010   */\n      dup8\n        /* \"#utility.yul\":5997:6019   */\n      add\n        /* \"#utility.yul\":5976:6029   */\n      tag_66\n      jump\t// in\n    tag_153:\n        /* \"#utility.yul\":5966:6029   */\n      swap3\n      pop\n        /* \"#utility.yul\":5921:6039   */\n      pop\n        /* \"#utility.yul\":6078:6080   */\n      0x40\n        /* \"#utility.yul\":6104:6157   */\n      tag_154\n        /* \"#utility.yul\":6149:6156   */\n      dup7\n        /* \"#utility.yul\":6140:6146   */\n      dup3\n        /* \"#utility.yul\":6129:6138   */\n      dup8\n        /* \"#utility.yul\":6125:6147   */\n      add\n        /* \"#utility.yul\":6104:6157   */\n      tag_70\n      jump\t// in\n    tag_154:\n        /* \"#utility.yul\":6094:6157   */\n      swap2\n      pop\n        /* \"#utility.yul\":6049:6167   */\n      pop\n        /* \"#utility.yul\":5375:6174   */\n      swap3\n      pop\n      swap3\n      pop\n      swap3\n      jump\t// out\n        /* \"#utility.yul\":6180:6257   */\n    tag_71:\n        /* \"#utility.yul\":6217:6224   */\n      0x00\n        /* \"#utility.yul\":6246:6251   */\n      dup2\n        /* \"#utility.yul\":6235:6251   */\n      swap1\n      pop\n        /* \"#utility.yul\":6180:6257   */\n      swap2\n      swap1\n      pop\n      jump\t// out\n        /* \"#utility.yul\":6263:6381   */\n    tag_72:\n        /* \"#utility.yul\":6350:6374   */\n      tag_157\n        /* \"#utility.yul\":6368:6373   */\n      dup2\n        /* \"#utility.yul\":6350:6374   */\n      tag_71\n      jump\t// in\n    tag_157:\n        /* \"#utility.yul\":6345:6348   */\n      dup3\n        /* \"#utility.yul\":6338:6375   */\n      mstore\n        /* \"#utility.yul\":6263:6381   */\n      pop\n      pop\n      jump\t// out\n        /* \"#utility.yul\":6387:6609   */\n    tag_23:\n        /* \"#utility.yul\":6480:6484   */\n      0x00\n        /* \"#utility.yul\":6518:6520   */\n      0x20\n        /* \"#utility.yul\":6507:6516   */\n      dup3\n        /* \"#utility.yul\":6503:6521   */\n      add\n        /* \"#utility.yul\":6495:6521   */\n      swap1\n      pop\n        /* \"#utility.yul\":6531:6602   */\n      tag_159\n        /* \"#utility.yul\":6599:6600   */\n      0x00\n        /* \"#utility.yul\":6588:6597   */\n      dup4\n        /* \"#utility.yul\":6584:6601   */\n      add\n        /* \"#utility.yul\":6575:6581   */\n      dup5\n        /* \"#utility.yul\":6531:6602   */\n      tag_72\n      jump\t// in\n    tag_159:\n        /* \"#utility.yul\":6387:6609   */\n      swap3\n      swap2\n      pop\n      pop\n      jump\t// out\n        /* \"#utility.yul\":6615:7594   */\n    tag_26:\n        /* \"#utility.yul\":6712:6718   */\n      0x00\n        /* \"#utility.yul\":6720:6726   */\n      0x00\n        /* \"#utility.yul\":6728:6734   */\n      0x00\n        /* \"#utility.yul\":6777:6779   */\n      0x60\n        /* \"#utility.yul\":6765:6774   */\n      dup5\n        /* \"#utility.yul\":6756:6763   */\n      dup7\n        /* \"#utility.yul\":6752:6775   */\n      sub\n        /* \"#utility.yul\":6748:6780   */\n      slt\n        /* \"#utility.yul\":6745:6864   */\n      iszero\n      tag_161\n      jumpi\n        /* \"#utility.yul\":6783:6862   */\n      tag_162\n      tag_48\n      jump\t// in\n    tag_162:\n        /* \"#utility.yul\":6745:6864   */\n    tag_161:\n        /* \"#utility.yul\":6931:6932   */\n      0x00\n        /* \"#utility.yul\":6920:6929   */\n      dup5\n        /* \"#utility.yul\":6916:6933   */\n      add\n        /* \"#utility.yul\":6903:6934   */\n      calldataload\n        /* \"#utility.yul\":6961:6979   */\n      0xffffffffffffffff\n        /* \"#utility.yul\":6953:6959   */\n      dup2\n        /* \"#utility.yul\":6950:6980   */\n      gt\n        /* \"#utility.yul\":6947:7064   */\n      iszero\n      tag_163\n      jumpi\n        /* \"#utility.yul\":6983:7062   */\n      tag_164\n      tag_49\n      jump\t// in\n    tag_164:\n        /* \"#utility.yul\":6947:7064   */\n    tag_163:\n        /* \"#utility.yul\":7088:7151   */\n      tag_165\n        /* \"#utility.yul\":7143:7150   */\n      dup7\n        /* \"#utility.yul\":7134:7140   */\n      dup3\n        /* \"#utility.yul\":7123:7132   */\n      dup8\n        /* \"#utility.yul\":7119:7141   */\n      add\n        /* \"#utility.yul\":7088:7151   */\n      tag_59\n      jump\t// in\n    tag_165:\n        /* \"#utility.yul\":7078:7151   */\n      swap4\n      pop\n        /* \"#utility.yul\":6874:7161   */\n      pop\n        /* \"#utility.yul\":7200:7202   */\n      0x20\n        /* \"#utility.yul\":7226:7279   */\n      tag_166\n        /* \"#utility.yul\":7271:7278   */\n      dup7\n        /* \"#utility.yul\":7262:7268   */\n      dup3\n        /* \"#utility.yul\":7251:7260   */\n      dup8\n        /* \"#utility.yul\":7247:7269   */\n      add\n        /* \"#utility.yul\":7226:7279   */\n      tag_66\n      jump\t// in\n    tag_166:\n        /* \"#utility.yul\":7216:7279   */\n      swap3\n      pop\n        /* \"#utility.yul\":7171:7289   */\n      pop\n        /* \"#utility.yul\":7356:7358   */\n      0x40\n        /* \"#utility.yul\":7345:7354   */\n      dup5\n        /* \"#utility.yul\":7341:7359   */\n      add\n        /* \"#utility.yul\":7328:7360   */\n      calldataload\n        /* \"#utility.yul\":7387:7405   */\n      0xffffffffffffffff\n        /* \"#utility.yul\":7379:7385   */\n      dup2\n        /* \"#utility.yul\":7376:7406   */\n      gt\n        /* \"#utility.yul\":7373:7490   */\n      iszero\n      tag_167\n      jumpi\n        /* \"#utility.yul\":7409:7488   */\n      tag_168\n      tag_49\n      jump\t// in\n    tag_168:\n        /* \"#utility.yul\":7373:7490   */\n    tag_167:\n        /* \"#utility.yul\":7514:7577   */\n      tag_169\n        /* \"#utility.yul\":7569:7576   */\n      dup7\n        /* \"#utility.yul\":7560:7566   */\n      dup3\n        /* \"#utility.yul\":7549:7558   */\n      dup8\n        /* \"#utility.yul\":7545:7567   */\n      add\n        /* \"#utility.yul\":7514:7577   */\n      tag_59\n      jump\t// in\n    tag_169:\n        /* \"#utility.yul\":7504:7577   */\n      swap2\n      pop\n        /* \"#utility.yul\":7299:7587   */\n      pop\n        /* \"#utility.yul\":6615:7594   */\n      swap3\n      pop\n      swap3\n      pop\n      swap3\n      jump\t// out\n        /* \"#utility.yul\":7600:7699   */\n    tag_73:\n        /* \"#utility.yul\":7652:7658   */\n      0x00\n        /* \"#utility.yul\":7686:7691   */\n      dup2\n        /* \"#utility.yul\":7680:7692   */\n      mload\n        /* \"#utility.yul\":7670:7692   */\n      swap1\n      pop\n        /* \"#utility.yul\":7600:7699   */\n      swap2\n      swap1\n      pop\n      jump\t// out\n        /* \"#utility.yul\":7705:7853   */\n    tag_74:\n        /* \"#utility.yul\":7807:7818   */\n      0x00\n        /* \"#utility.yul\":7844:7847   */\n      dup2\n        /* \"#utility.yul\":7829:7847   */\n      swap1\n      pop\n        /* \"#utility.yul\":7705:7853   */\n      swap3\n      swap2\n      pop\n      pop\n      jump\t// out\n        /* \"#utility.yul\":7859:8249   */\n    tag_75:\n        /* \"#utility.yul\":7965:7968   */\n      0x00\n        /* \"#utility.yul\":7993:8032   */\n      tag_173\n        /* \"#utility.yul\":8026:8031   */\n      dup3\n        /* \"#utility.yul\":7993:8032   */\n      tag_73\n      jump\t// in\n    tag_173:\n        /* \"#utility.yul\":8048:8137   */\n      tag_174\n        /* \"#utility.yul\":8130:8136   */\n      dup2\n        /* \"#utility.yul\":8125:8128   */\n      dup6\n        /* \"#utility.yul\":8048:8137   */\n      tag_74\n      jump\t// in\n    tag_174:\n        /* \"#utility.yul\":8041:8137   */\n      swap4\n      pop\n        /* \"#utility.yul\":8146:8211   */\n      tag_175\n        /* \"#utility.yul\":8204:8210   */\n      dup2\n        /* \"#utility.yul\":8199:8202   */\n      dup6\n        /* \"#utility.yul\":8192:8196   */\n      0x20\n        /* \"#utility.yul\":8185:8190   */\n      dup7\n        /* \"#utility.yul\":8181:8197   */\n      add\n        /* \"#utility.yul\":8146:8211   */\n      tag_62\n      jump\t// in\n    tag_175:\n        /* \"#utility.yul\":8236:8242   */\n      dup1\n        /* \"#utility.yul\":8231:8234   */\n      dup5\n        /* \"#utility.yul\":8227:8243   */\n      add\n        /* \"#utility.yul\":8220:8243   */\n      swap2\n      pop\n        /* \"#utility.yul\":7969:8249   */\n      pop\n        /* \"#utility.yul\":7859:8249   */\n      swap3\n      swap2\n      pop\n      pop\n      jump\t// out\n        /* \"#utility.yul\":8255:8690   */\n    tag_35:\n        /* \"#utility.yul\":8435:8438   */\n      0x00\n        /* \"#utility.yul\":8457:8552   */\n      tag_177\n        /* \"#utility.yul\":8548:8551   */\n      dup3\n        /* \"#utility.yul\":8539:8545   */\n      dup6\n        /* \"#utility.yul\":8457:8552   */\n      tag_75\n      jump\t// in\n    tag_177:\n        /* \"#utility.yul\":8450:8552   */\n      swap2\n      pop\n        /* \"#utility.yul\":8569:8664   */\n      tag_178\n        /* \"#utility.yul\":8660:8663   */\n      dup3\n        /* \"#utility.yul\":8651:8657   */\n      dup5\n        /* \"#utility.yul\":8569:8664   */\n      tag_75\n      jump\t// in\n    tag_178:\n        /* \"#utility.yul\":8562:8664   */\n      swap2\n      pop\n        /* \"#utility.yul\":8681:8684   */\n      dup2\n        /* \"#utility.yul\":8674:8684   */\n      swap1\n      pop\n        /* \"#utility.yul\":8255:8690   */\n      swap4\n      swap3\n      pop\n      pop\n      pop\n      jump\t// out\n        /* \"#utility.yul\":8696:8865   */\n    tag_76:\n        /* \"#utility.yul\":8780:8791   */\n      0x00\n        /* \"#utility.yul\":8814:8820   */\n      dup3\n        /* \"#utility.yul\":8809:8812   */\n      dup3\n        /* \"#utility.yul\":8802:8821   */\n      mstore\n        /* \"#utility.yul\":8854:8858   */\n      0x20\n        /* \"#utility.yul\":8849:8852   */\n      dup3\n        /* \"#utility.yul\":8845:8859   */\n      add\n        /* \"#utility.yul\":8830:8859   */\n      swap1\n      pop\n        /* \"#utility.yul\":8696:8865   */\n      swap3\n      swap2\n      pop\n      pop\n      jump\t// out\n        /* \"#utility.yul\":8871:9248   */\n    tag_77:\n        /* \"#utility.yul\":8959:8962   */\n      0x00\n        /* \"#utility.yul\":8987:9026   */\n      tag_181\n        /* \"#utility.yul\":9020:9025   */\n      dup3\n        /* \"#utility.yul\":8987:9026   */\n      tag_73\n      jump\t// in\n    tag_181:\n        /* \"#utility.yul\":9042:9113   */\n      tag_182\n        /* \"#utility.yul\":9106:9112   */\n      dup2\n        /* \"#utility.yul\":9101:9104   */\n      dup6\n        /* \"#utility.yul\":9042:9113   */\n      tag_76\n      jump\t// in\n    tag_182:\n        /* \"#utility.yul\":9035:9113   */\n      swap4\n      pop\n        /* \"#utility.yul\":9122:9187   */\n      tag_183\n        /* \"#utility.yul\":9180:9186   */\n      dup2\n        /* \"#utility.yul\":9175:9178   */\n      dup6\n        /* \"#utility.yul\":9168:9172   */\n      0x20\n        /* \"#utility.yul\":9161:9166   */\n      dup7\n        /* \"#utility.yul\":9157:9173   */\n      add\n        /* \"#utility.yul\":9122:9187   */\n      tag_62\n      jump\t// in\n    tag_183:\n        /* \"#utility.yul\":9212:9241   */\n      tag_184\n        /* \"#utility.yul\":9234:9240   */\n      dup2\n        /* \"#utility.yul\":9212:9241   */\n      tag_52\n      jump\t// in\n    tag_184:\n        /* \"#utility.yul\":9207:9210   */\n      dup5\n        /* \"#utility.yul\":9203:9242   */\n      add\n        /* \"#utility.yul\":9196:9242   */\n      swap2\n      pop\n        /* \"#utility.yul\":8963:9248   */\n      pop\n        /* \"#utility.yul\":8871:9248   */\n      swap3\n      swap2\n      pop\n      pop\n      jump\t// out\n        /* \"#utility.yul\":9254:9768   */\n    tag_38:\n        /* \"#utility.yul\":9415:9419   */\n      0x00\n        /* \"#utility.yul\":9453:9455   */\n      0x40\n        /* \"#utility.yul\":9442:9451   */\n      dup3\n        /* \"#utility.yul\":9438:9456   */\n      add\n        /* \"#utility.yul\":9430:9456   */\n      swap1\n      pop\n        /* \"#utility.yul\":9502:9511   */\n      dup2\n        /* \"#utility.yul\":9496:9500   */\n      dup2\n        /* \"#utility.yul\":9492:9512   */\n      sub\n        /* \"#utility.yul\":9488:9489   */\n      0x00\n        /* \"#utility.yul\":9477:9486   */\n      dup4\n        /* \"#utility.yul\":9473:9490   */\n      add\n        /* \"#utility.yul\":9466:9513   */\n      mstore\n        /* \"#utility.yul\":9530:9608   */\n      tag_186\n        /* \"#utility.yul\":9603:9607   */\n      dup2\n        /* \"#utility.yul\":9594:9600   */\n      dup6\n        /* \"#utility.yul\":9530:9608   */\n      tag_77\n      jump\t// in\n    tag_186:\n        /* \"#utility.yul\":9522:9608   */\n      swap1\n      pop\n        /* \"#utility.yul\":9655:9664   */\n      dup2\n        /* \"#utility.yul\":9649:9653   */\n      dup2\n        /* \"#utility.yul\":9645:9665   */\n      sub\n        /* \"#utility.yul\":9640:9642   */\n      0x20\n        /* \"#utility.yul\":9629:9638   */\n      dup4\n        /* \"#utility.yul\":9625:9643   */\n      add\n        /* \"#utility.yul\":9618:9666   */\n      mstore\n        /* \"#utility.yul\":9683:9761   */\n      tag_187\n        /* \"#utility.yul\":9756:9760   */\n      dup2\n        /* \"#utility.yul\":9747:9753   */\n      dup5\n        /* \"#utility.yul\":9683:9761   */\n      tag_77\n      jump\t// in\n    tag_187:\n        /* \"#utility.yul\":9675:9761   */\n      swap1\n      pop\n        /* \"#utility.yul\":9254:9768   */\n      swap4\n      swap3\n      pop\n      pop\n      pop\n      jump\t// out\n        /* \"#utility.yul\":9774:9853   */\n    tag_78:\n        /* \"#utility.yul\":9813:9820   */\n      0x00\n        /* \"#utility.yul\":9842:9847   */\n      dup2\n        /* \"#utility.yul\":9831:9847   */\n      swap1\n      pop\n        /* \"#utility.yul\":9774:9853   */\n      swap2\n      swap1\n      pop\n      jump\t// out\n        /* \"#utility.yul\":9859:10016   */\n    tag_79:\n        /* \"#utility.yul\":9964:10009   */\n      tag_190\n        /* \"#utility.yul\":9984:10008   */\n      tag_191\n        /* \"#utility.yul\":10002:10007   */\n      dup3\n        /* \"#utility.yul\":9984:10008   */\n      tag_64\n      jump\t// in\n    tag_191:\n        /* \"#utility.yul\":9964:10009   */\n      tag_78\n      jump\t// in\n    tag_190:\n        /* \"#utility.yul\":9959:9962   */\n      dup3\n        /* \"#utility.yul\":9952:10010   */\n      mstore\n        /* \"#utility.yul\":9859:10016   */\n      pop\n      pop\n      jump\t// out\n        /* \"#utility.yul\":10022:10116   */\n    tag_80:\n        /* \"#utility.yul\":10055:10063   */\n      0x00\n        /* \"#utility.yul\":10103:10108   */\n      dup2\n        /* \"#utility.yul\":10099:10101   */\n      0x60\n        /* \"#utility.yul\":10095:10109   */\n      shl\n        /* \"#utility.yul\":10074:10109   */\n      swap1\n      pop\n        /* \"#utility.yul\":10022:10116   */\n      swap2\n      swap1\n      pop\n      jump\t// out\n        /* \"#utility.yul\":10122:10216   */\n    tag_81:\n        /* \"#utility.yul\":10161:10168   */\n      0x00\n        /* \"#utility.yul\":10190:10210   */\n      tag_194\n        /* \"#utility.yul\":10204:10209   */\n      dup3\n        /* \"#utility.yul\":10190:10210   */\n      tag_80\n      jump\t// in\n    tag_194:\n        /* \"#utility.yul\":10179:10210   */\n      swap1\n      pop\n        /* \"#utility.yul\":10122:10216   */\n      swap2\n      swap1\n      pop\n      jump\t// out\n        /* \"#utility.yul\":10222:10322   */\n    tag_82:\n        /* \"#utility.yul\":10261:10268   */\n      0x00\n        /* \"#utility.yul\":10290:10316   */\n      tag_196\n        /* \"#utility.yul\":10310:10315   */\n      dup3\n        /* \"#utility.yul\":10290:10316   */\n      tag_81\n      jump\t// in\n    tag_196:\n        /* \"#utility.yul\":10279:10316   */\n      swap1\n      pop\n        /* \"#utility.yul\":10222:10322   */\n      swap2\n      swap1\n      pop\n      jump\t// out\n        /* \"#utility.yul\":10328:10485   */\n    tag_83:\n        /* \"#utility.yul\":10433:10478   */\n      tag_198\n        /* \"#utility.yul\":10453:10477   */\n      tag_199\n        /* \"#utility.yul\":10471:10476   */\n      dup3\n        /* \"#utility.yul\":10453:10477   */\n      tag_68\n      jump\t// in\n    tag_199:\n        /* \"#utility.yul\":10433:10478   */\n      tag_82\n      jump\t// in\n    tag_198:\n        /* \"#utility.yul\":10428:10431   */\n      dup3\n        /* \"#utility.yul\":10421:10479   */\n      mstore\n        /* \"#utility.yul\":10328:10485   */\n      pop\n      pop\n      jump\t// out\n        /* \"#utility.yul\":10491:11048   */\n    tag_41:\n        /* \"#utility.yul\":10679:10682   */\n      0x00\n        /* \"#utility.yul\":10701:10796   */\n      tag_201\n        /* \"#utility.yul\":10792:10795   */\n      dup3\n        /* \"#utility.yul\":10783:10789   */\n      dup7\n        /* \"#utility.yul\":10701:10796   */\n      tag_75\n      jump\t// in\n    tag_201:\n        /* \"#utility.yul\":10694:10796   */\n      swap2\n      pop\n        /* \"#utility.yul\":10806:10881   */\n      tag_202\n        /* \"#utility.yul\":10877:10880   */\n      dup3\n        /* \"#utility.yul\":10868:10874   */\n      dup6\n        /* \"#utility.yul\":10806:10881   */\n      tag_79\n      jump\t// in\n    tag_202:\n        /* \"#utility.yul\":10906:10908   */\n      0x20\n        /* \"#utility.yul\":10901:10904   */\n      dup3\n        /* \"#utility.yul\":10897:10909   */\n      add\n        /* \"#utility.yul\":10890:10909   */\n      swap2\n      pop\n        /* \"#utility.yul\":10919:10994   */\n      tag_203\n        /* \"#utility.yul\":10990:10993   */\n      dup3\n        /* \"#utility.yul\":10981:10987   */\n      dup5\n        /* \"#utility.yul\":10919:10994   */\n      tag_83\n      jump\t// in\n    tag_203:\n        /* \"#utility.yul\":11019:11021   */\n      0x14\n        /* \"#utility.yul\":11014:11017   */\n      dup3\n        /* \"#utility.yul\":11010:11022   */\n      add\n        /* \"#utility.yul\":11003:11022   */\n      swap2\n      pop\n        /* \"#utility.yul\":11039:11042   */\n      dup2\n        /* \"#utility.yul\":11032:11042   */\n      swap1\n      pop\n        /* \"#utility.yul\":10491:11048   */\n      swap5\n      swap4\n      pop\n      pop\n      pop\n      pop\n      jump\t// out\n        /* \"#utility.yul\":11054:11630   */\n    tag_44:\n        /* \"#utility.yul\":11262:11265   */\n      0x00\n        /* \"#utility.yul\":11284:11379   */\n      tag_205\n        /* \"#utility.yul\":11375:11378   */\n      dup3\n        /* \"#utility.yul\":11366:11372   */\n      dup7\n        /* \"#utility.yul\":11284:11379   */\n      tag_75\n      jump\t// in\n    tag_205:\n        /* \"#utility.yul\":11277:11379   */\n      swap2\n      pop\n        /* \"#utility.yul\":11389:11464   */\n      tag_206\n        /* \"#utility.yul\":11460:11463   */\n      dup3\n        /* \"#utility.yul\":11451:11457   */\n      dup6\n        /* \"#utility.yul\":11389:11464   */\n      tag_79\n      jump\t// in\n    tag_206:\n        /* \"#utility.yul\":11489:11491   */\n      0x20\n        /* \"#utility.yul\":11484:11487   */\n      dup3\n        /* \"#utility.yul\":11480:11492   */\n      add\n        /* \"#utility.yul\":11473:11492   */\n      swap2\n      pop\n        /* \"#utility.yul\":11509:11604   */\n      tag_207\n        /* \"#utility.yul\":11600:11603   */\n      dup3\n        /* \"#utility.yul\":11591:11597   */\n      dup5\n        /* \"#utility.yul\":11509:11604   */\n      tag_75\n      jump\t// in\n    tag_207:\n        /* \"#utility.yul\":11502:11604   */\n      swap2\n      pop\n        /* \"#utility.yul\":11621:11624   */\n      dup2\n        /* \"#utility.yul\":11614:11624   */\n      swap1\n      pop\n        /* \"#utility.yul\":11054:11630   */\n      swap5\n      swap4\n      pop\n      pop\n      pop\n      pop\n      jump\t// out\n\n    auxdata: 0xa26469706673582212200fc22d64c0b5e7676c3995417eb84dbc77b0fb6accb0fd2a378b53d96119726364736f6c634300081e0033\n}\n",
				"bytecode": {
					"linkReferences": {},
					"object": "6080604052348015600e575f5ffd5b5061081d8061001c5f395ff3fe608060405234801561000f575f5ffd5b5060043610610055575f3560e01c806309e8109d1461005957806317fe2da2146100895780635dda416e146100b9578063640eb5b0146100e95780637b7fb98214610119575b5f5ffd5b610073600480360381019061006e919061038a565b610149565b6040516100809190610460565b60405180910390f35b6100a3600480360381019061009e919061038a565b610175565b6040516100b09190610460565b60405180910390f35b6100d360048036038101906100ce919061050d565b6101a1565b6040516100e09190610591565b60405180910390f35b61010360048036038101906100fe91906105aa565b6101d6565b6040516101109190610591565b60405180910390f35b610133600480360381019061012e919061038a565b61020b565b6040516101409190610591565b60405180910390f35b6060828260405160200161015e929190610676565b604051602081830303815290604052905092915050565b6060828260405160200161018a9291906106e1565b604051602081830303815290604052905092915050565b5f8383836040516020016101b79392919061077b565b6040516020818303038152906040528051906020012090509392505050565b5f8383836040516020016101ec939291906107b3565b6040516020818303038152906040528051906020012090509392505050565b5f828260405160200161021f9291906106e1565b60405160208183030381529060405280519060200120905092915050565b5f604051905090565b5f5ffd5b5f5ffd5b5f5ffd5b5f5ffd5b5f601f19601f8301169050919050565b7f4e487b71000000000000000000000000000000000000000000000000000000005f52604160045260245ffd5b61029c82610256565b810181811067ffffffffffffffff821117156102bb576102ba610266565b5b80604052505050565b5f6102cd61023d565b90506102d98282610293565b919050565b5f67ffffffffffffffff8211156102f8576102f7610266565b5b61030182610256565b9050602081019050919050565b828183375f83830152505050565b5f61032e610329846102de565b6102c4565b90508281526020810184848401111561034a57610349610252565b5b61035584828561030e565b509392505050565b5f82601f8301126103715761037061024e565b5b813561038184826020860161031c565b91505092915050565b5f5f604083850312156103a05761039f610246565b5b5f83013567ffffffffffffffff8111156103bd576103bc61024a565b5b6103c98582860161035d565b925050602083013567ffffffffffffffff8111156103ea576103e961024a565b5b6103f68582860161035d565b9150509250929050565b5f81519050919050565b5f82825260208201905092915050565b8281835e5f83830152505050565b5f61043282610400565b61043c818561040a565b935061044c81856020860161041a565b61045581610256565b840191505092915050565b5f6020820190508181035f8301526104788184610428565b905092915050565b5f819050919050565b61049281610480565b811461049c575f5ffd5b50565b5f813590506104ad81610489565b92915050565b5f73ffffffffffffffffffffffffffffffffffffffff82169050919050565b5f6104dc826104b3565b9050919050565b6104ec816104d2565b81146104f6575f5ffd5b50565b5f81359050610507816104e3565b92915050565b5f5f5f6060848603121561052457610523610246565b5b5f84013567ffffffffffffffff8111156105415761054061024a565b5b61054d8682870161035d565b935050602061055e8682870161049f565b925050604061056f868287016104f9565b9150509250925092565b5f819050919050565b61058b81610579565b82525050565b5f6020820190506105a45f830184610582565b92915050565b5f5f5f606084860312156105c1576105c0610246565b5b5f84013567ffffffffffffffff8111156105de576105dd61024a565b5b6105ea8682870161035d565b93505060206105fb8682870161049f565b925050604084013567ffffffffffffffff81111561061c5761061b61024a565b5b6106288682870161035d565b9150509250925092565b5f81519050919050565b5f81905092915050565b5f61065082610632565b61065a818561063c565b935061066a81856020860161041a565b80840191505092915050565b5f6106818285610646565b915061068d8284610646565b91508190509392505050565b5f82825260208201905092915050565b5f6106b382610632565b6106bd8185610699565b93506106cd81856020860161041a565b6106d681610256565b840191505092915050565b5f6040820190508181035f8301526106f981856106a9565b9050818103602083015261070d81846106a9565b90509392505050565b5f819050919050565b61073061072b82610480565b610716565b82525050565b5f8160601b9050919050565b5f61074c82610736565b9050919050565b5f61075d82610742565b9050919050565b610775610770826104d2565b610753565b82525050565b5f6107868286610646565b9150610792828561071f565b6020820191506107a28284610764565b601482019150819050949350505050565b5f6107be8286610646565b91506107ca828561071f565b6020820191506107da8284610646565b915081905094935050505056fea26469706673582212200fc22d64c0b5e7676c3995417eb84dbc77b0fb6accb0fd2a378b53d96119726364736f6c634300081e0033",
					"opcodes": "PUSH1 0x80 PUSH1 0x40 MSTORE CALLVALUE DUP1 ISZERO PUSH1 0xE JUMPI PUSH0 PUSH0 REVERT JUMPDEST POP PUSH2 0x81D DUP1 PUSH2 0x1C PUSH0 CODECOPY PUSH0 RETURN INVALID PUSH1 0x80 PUSH1 0x40 MSTORE CALLVALUE DUP1 ISZERO PUSH2 0xF JUMPI PUSH0 PUSH0 REVERT JUMPDEST POP PUSH1 0x4 CALLDATASIZE LT PUSH2 0x55 JUMPI PUSH0 CALLDATALOAD PUSH1 0xE0 SHR DUP1 PUSH4 0x9E8109D EQ PUSH2 0x59 JUMPI DUP1 PUSH4 0x17FE2DA2 EQ PUSH2 0x89 JUMPI DUP1 PUSH4 0x5DDA416E EQ PUSH2 0xB9 JUMPI DUP1 PUSH4 0x640EB5B0 EQ PUSH2 0xE9 JUMPI DUP1 PUSH4 0x7B7FB982 EQ PUSH2 0x119 JUMPI JUMPDEST PUSH0 PUSH0 REVERT JUMPDEST PUSH2 0x73 PUSH1 0x4 DUP1 CALLDATASIZE SUB DUP2 ADD SWAP1 PUSH2 0x6E SWAP2 SWAP1 PUSH2 0x38A JUMP JUMPDEST PUSH2 0x149 JUMP JUMPDEST PUSH1 0x40 MLOAD PUSH2 0x80 SWAP2 SWAP1 PUSH2 0x460 JUMP JUMPDEST PUSH1 0x40 MLOAD DUP1 SWAP2 SUB SWAP1 RETURN JUMPDEST PUSH2 0xA3 PUSH1 0x4 DUP1 CALLDATASIZE SUB DUP2 ADD SWAP1 PUSH2 0x9E SWAP2 SWAP1 PUSH2 0x38A JUMP JUMPDEST PUSH2 0x175 JUMP JUMPDEST PUSH1 0x40 MLOAD PUSH2 0xB0 SWAP2 SWAP1 PUSH2 0x460 JUMP JUMPDEST PUSH1 0x40 MLOAD DUP1 SWAP2 SUB SWAP1 RETURN JUMPDEST PUSH2 0xD3 PUSH1 0x4 DUP1 CALLDATASIZE SUB DUP2 ADD SWAP1 PUSH2 0xCE SWAP2 SWAP1 PUSH2 0x50D JUMP JUMPDEST PUSH2 0x1A1 JUMP JUMPDEST PUSH1 0x40 MLOAD PUSH2 0xE0 SWAP2 SWAP1 PUSH2 0x591 JUMP JUMPDEST PUSH1 0x40 MLOAD DUP1 SWAP2 SUB SWAP1 RETURN JUMPDEST PUSH2 0x103 PUSH1 0x4 DUP1 CALLDATASIZE SUB DUP2 ADD SWAP1 PUSH2 0xFE SWAP2 SWAP1 PUSH2 0x5AA JUMP JUMPDEST PUSH2 0x1D6 JUMP JUMPDEST PUSH1 0x40 MLOAD PUSH2 0x110 SWAP2 SWAP1 PUSH2 0x591 JUMP JUMPDEST PUSH1 0x40 MLOAD DUP1 SWAP2 SUB SWAP1 RETURN JUMPDEST PUSH2 0x133 PUSH1 0x4 DUP1 CALLDATASIZE SUB DUP2 ADD SWAP1 PUSH2 0x12E SWAP2 SWAP1 PUSH2 0x38A JUMP JUMPDEST PUSH2 0x20B JUMP JUMPDEST PUSH1 0x40 MLOAD PUSH2 0x140 SWAP2 SWAP1 PUSH2 0x591 JUMP JUMPDEST PUSH1 0x40 MLOAD DUP1 SWAP2 SUB SWAP1 RETURN JUMPDEST PUSH1 0x60 DUP3 DUP3 PUSH1 0x40 MLOAD PUSH1 0x20 ADD PUSH2 0x15E SWAP3 SWAP2 SWAP1 PUSH2 0x676 JUMP JUMPDEST PUSH1 0x40 MLOAD PUSH1 0x20 DUP2 DUP4 SUB SUB DUP2 MSTORE SWAP1 PUSH1 0x40 MSTORE SWAP1 POP SWAP3 SWAP2 POP POP JUMP JUMPDEST PUSH1 0x60 DUP3 DUP3 PUSH1 0x40 MLOAD PUSH1 0x20 ADD PUSH2 0x18A SWAP3 SWAP2 SWAP1 PUSH2 0x6E1 JUMP JUMPDEST PUSH1 0x40 MLOAD PUSH1 0x20 DUP2 DUP4 SUB SUB DUP2 MSTORE SWAP1 PUSH1 0x40 MSTORE SWAP1 POP SWAP3 SWAP2 POP POP JUMP JUMPDEST PUSH0 DUP4 DUP4 DUP4 PUSH1 0x40 MLOAD PUSH1 0x20 ADD PUSH2 0x1B7 SWAP4 SWAP3 SWAP2 SWAP1 PUSH2 0x77B JUMP JUMPDEST PUSH1 0x40 MLOAD PUSH1 0x20 DUP2 DUP4 SUB SUB DUP2 MSTORE SWAP1 PUSH1 0x40 MSTORE DUP1 MLOAD SWAP1 PUSH1 0x20 ADD KECCAK256 SWAP1 POP SWAP4 SWAP3 POP POP POP JUMP JUMPDEST PUSH0 DUP4 DUP4 DUP4 PUSH1 0x40 MLOAD PUSH1 0x20 ADD PUSH2 0x1EC SWAP4 SWAP3 SWAP2 SWAP1 PUSH2 0x7B3 JUMP JUMPDEST PUSH1 0x40 MLOAD PUSH1 0x20 DUP2 DUP4 SUB SUB DUP2 MSTORE SWAP1 PUSH1 0x40 MSTORE DUP1 MLOAD SWAP1 PUSH1 0x20 ADD KECCAK256 SWAP1 POP SWAP4 SWAP3 POP POP POP JUMP JUMPDEST PUSH0 DUP3 DUP3 PUSH1 0x40 MLOAD PUSH1 0x20 ADD PUSH2 0x21F SWAP3 SWAP2 SWAP1 PUSH2 0x6E1 JUMP JUMPDEST PUSH1 0x40 MLOAD PUSH1 0x20 DUP2 DUP4 SUB SUB DUP2 MSTORE SWAP1 PUSH1 0x40 MSTORE DUP1 MLOAD SWAP1 PUSH1 0x20 ADD KECCAK256 SWAP1 POP SWAP3 SWAP2 POP POP JUMP JUMPDEST PUSH0 PUSH1 0x40 MLOAD SWAP1 POP SWAP1 JUMP JUMPDEST PUSH0 PUSH0 REVERT JUMPDEST PUSH0 PUSH0 REVERT JUMPDEST PUSH0 PUSH0 REVERT JUMPDEST PUSH0 PUSH0 REVERT JUMPDEST PUSH0 PUSH1 0x1F NOT PUSH1 0x1F DUP4 ADD AND SWAP1 POP SWAP2 SWAP1 POP JUMP JUMPDEST PUSH32 0x4E487B7100000000000000000000000000000000000000000000000000000000 PUSH0 MSTORE PUSH1 0x41 PUSH1 0x4 MSTORE PUSH1 0x24 PUSH0 REVERT JUMPDEST PUSH2 0x29C DUP3 PUSH2 0x256 JUMP JUMPDEST DUP2 ADD DUP2 DUP2 LT PUSH8 0xFFFFFFFFFFFFFFFF DUP3 GT OR ISZERO PUSH2 0x2BB JUMPI PUSH2 0x2BA PUSH2 0x266 JUMP JUMPDEST JUMPDEST DUP1 PUSH1 0x40 MSTORE POP POP POP JUMP JUMPDEST PUSH0 PUSH2 0x2CD PUSH2 0x23D JUMP JUMPDEST SWAP1 POP PUSH2 0x2D9 DUP3 DUP3 PUSH2 0x293 JUMP JUMPDEST SWAP2 SWAP1 POP JUMP JUMPDEST PUSH0 PUSH8 0xFFFFFFFFFFFFFFFF DUP3 GT ISZERO PUSH2 0x2F8 JUMPI PUSH2 0x2F7 PUSH2 0x266 JUMP JUMPDEST JUMPDEST PUSH2 0x301 DUP3 PUSH2 0x256 JUMP JUMPDEST SWAP1 POP PUSH1 0x20 DUP2 ADD SWAP1 POP SWAP2 SWAP1 POP JUMP JUMPDEST DUP3 DUP2 DUP4 CALLDATACOPY PUSH0 DUP4 DUP4 ADD MSTORE POP POP POP JUMP JUMPDEST PUSH0 PUSH2 0x32E PUSH2 0x329 DUP5 PUSH2 0x2DE JUMP JUMPDEST PUSH2 0x2C4 JUMP JUMPDEST SWAP1 POP DUP3 DUP2 MSTORE PUSH1 0x20 DUP2 ADD DUP5 DUP5 DUP5 ADD GT ISZERO PUSH2 0x34A JUMPI PUSH2 0x349 PUSH2 0x252 JUMP JUMPDEST JUMPDEST PUSH2 0x355 DUP5 DUP3 DUP6 PUSH2 0x30E JUMP JUMPDEST POP SWAP4 SWAP3 POP POP POP JUMP JUMPDEST PUSH0 DUP3 PUSH1 0x1F DUP4 ADD SLT PUSH2 0x371 JUMPI PUSH2 0x370 PUSH2 0x24E JUMP JUMPDEST JUMPDEST DUP2 CALLDATALOAD PUSH2 0x381 DUP5 DUP3 PUSH1 0x20 DUP7 ADD PUSH2 0x31C JUMP JUMPDEST SWAP2 POP POP SWAP3 SWAP2 POP POP JUMP JUMPDEST PUSH0 PUSH0 PUSH1 0x40 DUP4 DUP6 SUB SLT ISZERO PUSH2 0x3A0 JUMPI PUSH2 0x39F PUSH2 0x246 JUMP JUMPDEST JUMPDEST PUSH0 DUP4 ADD CALLDATALOAD PUSH8 0xFFFFFFFFFFFFFFFF DUP2 GT ISZERO PUSH2 0x3BD JUMPI PUSH2 0x3BC PUSH2 0x24A JUMP JUMPDEST JUMPDEST PUSH2 0x3C9 DUP6 DUP3 DUP7 ADD PUSH2 0x35D JUMP JUMPDEST SWAP3 POP POP PUSH1 0x20 DUP4 ADD CALLDATALOAD PUSH8 0xFFFFFFFFFFFFFFFF DUP2 GT ISZERO PUSH2 0x3EA JUMPI PUSH2 0x3E9 PUSH2 0x24A JUMP JUMPDEST JUMPDEST PUSH2 0x3F6 DUP6 DUP3 DUP7 ADD PUSH2 0x35D JUMP JUMPDEST SWAP2 POP POP SWAP3 POP SWAP3 SWAP1 POP JUMP JUMPDEST PUSH0 DUP2 MLOAD SWAP1 POP SWAP2 SWAP1 POP JUMP JUMPDEST PUSH0 DUP3 DUP3 MSTORE PUSH1 0x20 DUP3 ADD SWAP1 POP SWAP3 SWAP2 POP POP JUMP JUMPDEST DUP3 DUP2 DUP4 MCOPY PUSH0 DUP4 DUP4 ADD MSTORE POP POP POP JUMP JUMPDEST PUSH0 PUSH2 0x432 DUP3 PUSH2 0x400 JUMP JUMPDEST PUSH2 0x43C DUP2 DUP6 PUSH2 0x40A JUMP JUMPDEST SWAP4 POP PUSH2 0x44C DUP2 DUP6 PUSH1 0x20 DUP7 ADD PUSH2 0x41A JUMP JUMPDEST PUSH2 0x455 DUP2 PUSH2 0x256 JUMP JUMPDEST DUP5 ADD SWAP2 POP POP SWAP3 SWAP2 POP POP JUMP JUMPDEST PUSH0 PUSH1 0x20 DUP3 ADD SWAP1 POP DUP2 DUP2 SUB PUSH0 DUP4 ADD MSTORE PUSH2 0x478 DUP2 DUP5 PUSH2 0x428 JUMP JUMPDEST SWAP1 POP SWAP3 SWAP2 POP POP JUMP JUMPDEST PUSH0 DUP2 SWAP1 POP SWAP2 SWAP1 POP JUMP JUMPDEST PUSH2 0x492 DUP2 PUSH2 0x480 JUMP JUMPDEST DUP2 EQ PUSH2 0x49C JUMPI PUSH0 PUSH0 REVERT JUMPDEST POP JUMP JUMPDEST PUSH0 DUP2 CALLDATALOAD SWAP1 POP PUSH2 0x4AD DUP2 PUSH2 0x489 JUMP JUMPDEST SWAP3 SWAP2 POP POP JUMP JUMPDEST PUSH0 PUSH20 0xFFFFFFFFFFFFFFFFFFFFFFFFFFFFFFFFFFFFFFFF DUP3 AND SWAP1 POP SWAP2 SWAP1 POP JUMP JUMPDEST PUSH0 PUSH2 0x4DC DUP3 PUSH2 0x4B3 JUMP JUMPDEST SWAP1 POP SWAP2 SWAP1 POP JUMP JUMPDEST PUSH2 0x4EC DUP2 PUSH2 0x4D2 JUMP JUMPDEST DUP2 EQ PUSH2 0x4F6 JUMPI PUSH0 PUSH0 REVERT JUMPDEST POP JUMP JUMPDEST PUSH0 DUP2 CALLDATALOAD SWAP1 POP PUSH2 0x507 DUP2 PUSH2 0x4E3 JUMP JUMPDEST SWAP3 SWAP2 POP POP JUMP JUMPDEST PUSH0 PUSH0 PUSH0 PUSH1 0x60 DUP5 DUP7 SUB SLT ISZERO PUSH2 0x524 JUMPI PUSH2 0x523 PUSH2 0x246 JUMP JUMPDEST JUMPDEST PUSH0 DUP5 ADD CALLDATALOAD PUSH8 0xFFFFFFFFFFFFFFFF DUP2 GT ISZERO PUSH2 0x541 JUMPI PUSH2 0x540 PUSH2 0x24A JUMP JUMPDEST JUMPDEST PUSH2 0x54D DUP7 DUP3 DUP8 ADD PUSH2 0x35D JUMP JUMPDEST SWAP4 POP POP PUSH1 0x20 PUSH2 0x55E DUP7 DUP3 DUP8 ADD PUSH2 0x49F JUMP JUMPDEST SWAP3 POP POP PUSH1 0x40 PUSH2 0x56F DUP7 DUP3 DUP8 ADD PUSH2 0x4F9 JUMP JUMPDEST SWAP2 POP POP SWAP3 POP SWAP3 POP SWAP3 JUMP JUMPDEST PUSH0 DUP2 SWAP1 POP SWAP2 SWAP1 POP JUMP JUMPDEST PUSH2 0x58B DUP2 PUSH2 0x579 JUMP JUMPDEST DUP3 MSTORE POP POP JUMP JUMPDEST PUSH0 PUSH1 0x20 DUP3 ADD SWAP1 POP PUSH2 0x5A4 PUSH0 DUP4 ADD DUP5 PUSH2 0x582 JUMP JUMPDEST SWAP3 SWAP2 POP POP JUMP JUMPDEST PUSH0 PUSH0 PUSH0 PUSH1 0x60 DUP5 DUP7 SUB SLT ISZERO PUSH2 0x5C1 JUMPI PUSH2 0x5C0 PUSH2 0x246 JUMP JUMPDEST JUMPDEST PUSH0 DUP5 ADD CALLDATALOAD PUSH8 0xFFFFFFFFFFFFFFFF DUP2 GT ISZERO PUSH2 0x5DE JUMPI PUSH2 0x5DD PUSH2 0x24A JUMP JUMPDEST JUMPDEST PUSH2 0x5EA DUP7 DUP3 DUP8 ADD PUSH2 0x35D JUMP JUMPDEST SWAP4 POP POP PUSH1 0x20 PUSH2 0x5FB DUP7 DUP3 DUP8 ADD PUSH2 0x49F JUMP JUMPDEST SWAP3 POP POP PUSH1 0x40 DUP5 ADD CALLDATALOAD PUSH8 0xFFFFFFFFFFFFFFFF DUP2 GT ISZERO PUSH2 0x61C JUMPI PUSH2 0x61B PUSH2 0x24A JUMP JUMPDEST JUMPDEST PUSH2 0x628 DUP7 DUP3 DUP8 ADD PUSH2 0x35D JUMP JUMPDEST SWAP2 POP POP SWAP3 POP SWAP3 POP SWAP3 JUMP JUMPDEST PUSH0 DUP2 MLOAD SWAP1 POP SWAP2 SWAP1 POP JUMP JUMPDEST PUSH0 DUP2 SWAP1 POP SWAP3 SWAP2 POP POP JUMP JUMPDEST PUSH0 PUSH2 0x650 DUP3 PUSH2 0x632 JUMP JUMPDEST PUSH2 0x65A DUP2 DUP6 PUSH2 0x63C JUMP JUMPDEST SWAP4 POP PUSH2 0x66A DUP2 DUP6 PUSH1 0x20 DUP7 ADD PUSH2 0x41A JUMP JUMPDEST DUP1 DUP5 ADD SWAP2 POP POP SWAP3 SWAP2 POP POP JUMP JUMPDEST PUSH0 PUSH2 0x681 DUP3 DUP6 PUSH2 0x646 JUMP JUMPDEST SWAP2 POP PUSH2 0x68D DUP3 DUP5 PUSH2 0x646 JUMP JUMPDEST SWAP2 POP DUP2 SWAP1 POP SWAP4 SWAP3 POP POP POP JUMP JUMPDEST PUSH0 DUP3 DUP3 MSTORE PUSH1 0x20 DUP3 ADD SWAP1 POP SWAP3 SWAP2 POP POP JUMP JUMPDEST PUSH0 PUSH2 0x6B3 DUP3 PUSH2 0x632 JUMP JUMPDEST PUSH2 0x6BD DUP2 DUP6 PUSH2 0x699 JUMP JUMPDEST SWAP4 POP PUSH2 0x6CD DUP2 DUP6 PUSH1 0x20 DUP7 ADD PUSH2 0x41A JUMP JUMPDEST PUSH2 0x6D6 DUP2 PUSH2 0x256 JUMP JUMPDEST DUP5 ADD SWAP2 POP POP SWAP3 SWAP2 POP POP JUMP JUMPDEST PUSH0 PUSH1 0x40 DUP3 ADD SWAP1 POP DUP2 DUP2 SUB PUSH0 DUP4 ADD MSTORE PUSH2 0x6F9 DUP2 DUP6 PUSH2 0x6A9 JUMP JUMPDEST SWAP1 POP DUP2 DUP2 SUB PUSH1 0x20 DUP4 ADD MSTORE PUSH2 0x70D DUP2 DUP5 PUSH2 0x6A9 JUMP JUMPDEST SWAP1 POP SWAP4 SWAP3 POP POP POP JUMP JUMPDEST PUSH0 DUP2 SWAP1 POP SWAP2 SWAP1 POP JUMP JUMPDEST PUSH2 0x730 PUSH2 0x72B DUP3 PUSH2 0x480 JUMP JUMPDEST PUSH2 0x716 JUMP JUMPDEST DUP3 MSTORE POP POP JUMP JUMPDEST PUSH0 DUP2 PUSH1 0x60 SHL SWAP1 POP SWAP2 SWAP1 POP JUMP JUMPDEST PUSH0 PUSH2 0x74C DUP3 PUSH2 0x736 JUMP JUMPDEST SWAP1 POP SWAP2 SWAP1 POP JUMP JUMPDEST PUSH0 PUSH2 0x75D DUP3 PUSH2 0x742 JUMP JUMPDEST SWAP1 POP SWAP2 SWAP1 POP JUMP JUMPDEST PUSH2 0x775 PUSH2 0x770 DUP3 PUSH2 0x4D2 JUMP JUMPDEST PUSH2 0x753 JUMP JUMPDEST DUP3 MSTORE POP POP JUMP JUMPDEST PUSH0 PUSH2 0x786 DUP3 DUP7 PUSH2 0x646 JUMP JUMPDEST SWAP2 POP PUSH2 0x792 DUP3 DUP6 PUSH2 0x71F JUMP JUMPDEST PUSH1 0x20 DUP3 ADD SWAP2 POP PUSH2 0x7A2 DUP3 DUP5 PUSH2 0x764 JUMP JUMPDEST PUSH1 0x14 DUP3 ADD SWAP2 POP DUP2 SWAP1 POP SWAP5 SWAP4 POP POP POP POP JUMP JUMPDEST PUSH0 PUSH2 0x7BE DUP3 DUP7 PUSH2 0x646 JUMP JUMPDEST SWAP2 POP PUSH2 0x7CA DUP3 DUP6 PUSH2 0x71F JUMP JUMPDEST PUSH1 0x20 DUP3 ADD SWAP2 POP PUSH2 0x7DA DUP3 DUP5 PUSH2 0x646 JUMP JUMPDEST SWAP2 POP DUP2 SWAP1 POP SWAP5 SWAP4 POP POP POP POP JUMP INVALID LOG2 PUSH5 0x6970667358 0x22 SLT KECCAK256 0xF 0xC2 0x2D PUSH5 0xC0B5E7676C CODECOPY SWAP6 COINBASE PUSH31 0xB84DBC77B0FB6ACCB0FD2A378B53D96119726364736F6C634300081E003300 "
				},
				"gasEstimates": {
					"creation": {
						"codeDepositCost": "415400",
						"executionCost": "447",
						"totalCost": "415847"
					},
					"external": {
						"collision(string,string)": "infinite",
						"collision1(string,uint256,string)": "infinite",
						"encodPacked(string,string)": "infinite",
						"encode(string,string)": "infinite",
						"hash(string,uint256,address)": "infinite"
					}
				},
				"methodIdentifiers": {
					"collision(string,string)": "7b7fb982",
					"collision1(string,uint256,string)": "640eb5b0",
					"encodPacked(string,string)": "09e8109d",
					"encode(string,string)": "17fe2da2",
					"hash(string,uint256,address)": "5dda416e"
				}
			},
			"storageLayout": {
				"storage": [],
				"types": null
			},
			"userdoc": {
				"kind": "user",
				"methods": {},
				"version": 1
			}
		}
	}
}