{
	"第二周/存储/事件.sol": {
		"Event": {
			"abi": [
				{
					"anonymous": false,
					"inputs": [
						{
							"indexed": true,
							"internalType": "address",
							"name": "",
							"type": "address"
						},
						{
							"indexed": false,
							"internalType": "uint256",
							"name": "val",
							"type": "uint256"
						}
					],
					"name": "IndexLog",
					"type": "event"
				},
				{
					"anonymous": false,
					"inputs": [
						{
							"indexed": false,
							"internalType": "string",
							"name": "message",
							"type": "string"
						},
						{
							"indexed": false,
							"internalType": "uint256",
							"name": "val",
							"type": "uint256"
						}
					],
					"name": "Log",
					"type": "event"
				},
				{
					"inputs": [],
					"name": "example",
					"outputs": [],
					"stateMutability": "nonpayable",
					"type": "function"
				}
			],
			"devdoc": {
				"kind": "dev",
				"methods": {},
				"version": 1
			},
			"evm": {
				"assembly": "    /* \"\\xe7\\xac\\xac\\xe4\\xba\\x8c\\xe5\\x91\\xa8/\\xe5\\xad\\x98\\xe5\\x82\\xa8/\\xe4\\xba\\x8b\\xe4\\xbb\\xb6.sol\":243:594  contract Event{... */\n  mstore(0x40, 0x80)\n  callvalue\n  dup1\n  iszero\n  tag_1\n  jumpi\n  revert(0x00, 0x00)\ntag_1:\n  pop\n  dataSize(sub_0)\n  dup1\n  dataOffset(sub_0)\n  0x00\n  codecopy\n  0x00\n  return\nstop\n\nsub_0: assembly {\n        /* \"\\xe7\\xac\\xac\\xe4\\xba\\x8c\\xe5\\x91\\xa8/\\xe5\\xad\\x98\\xe5\\x82\\xa8/\\xe4\\xba\\x8b\\xe4\\xbb\\xb6.sol\":243:594  contract Event{... */\n      mstore(0x40, 0x80)\n      callvalue\n      dup1\n      iszero\n      tag_1\n      jumpi\n      revert(0x00, 0x00)\n    tag_1:\n      pop\n      jumpi(tag_2, lt(calldatasize, 0x04))\n      shr(0xe0, calldataload(0x00))\n      dup1\n      0x54353f2f\n      eq\n      tag_3\n      jumpi\n    tag_2:\n      revert(0x00, 0x00)\n        /* \"\\xe7\\xac\\xac\\xe4\\xba\\x8c\\xe5\\x91\\xa8/\\xe5\\xad\\x98\\xe5\\x82\\xa8/\\xe4\\xba\\x8b\\xe4\\xbb\\xb6.sol\":426:591  function example() external {... */\n    tag_3:\n      tag_4\n      tag_5\n      jump\t// in\n    tag_4:\n      stop\n    tag_5:\n        /* \"\\xe7\\xac\\xac\\xe4\\xba\\x8c\\xe5\\x91\\xa8/\\xe5\\xad\\x98\\xe5\\x82\\xa8/\\xe4\\xba\\x8b\\xe4\\xbb\\xb6.sol\":494:509  Log(\"foo\",1234) */\n      0xdd970dd9b5bfe707922155b058a407655cb18288b807e2216442bca8ad83d6b5\n        /* \"\\xe7\\xac\\xac\\xe4\\xba\\x8c\\xe5\\x91\\xa8/\\xe5\\xad\\x98\\xe5\\x82\\xa8/\\xe4\\xba\\x8b\\xe4\\xbb\\xb6.sol\":504:508  1234 */\n      0x04d2\n        /* \"\\xe7\\xac\\xac\\xe4\\xba\\x8c\\xe5\\x91\\xa8/\\xe5\\xad\\x98\\xe5\\x82\\xa8/\\xe4\\xba\\x8b\\xe4\\xbb\\xb6.sol\":494:509  Log(\"foo\",1234) */\n      mload(0x40)\n      tag_7\n      swap2\n      swap1\n      tag_8\n      jump\t// in\n    tag_7:\n      mload(0x40)\n      dup1\n      swap2\n      sub\n      swap1\n      log1\n        /* \"\\xe7\\xac\\xac\\xe4\\xba\\x8c\\xe5\\x91\\xa8/\\xe5\\xad\\x98\\xe5\\x82\\xa8/\\xe4\\xba\\x8b\\xe4\\xbb\\xb6.sol\":567:577  msg.sender */\n      caller\n        /* \"\\xe7\\xac\\xac\\xe4\\xba\\x8c\\xe5\\x91\\xa8/\\xe5\\xad\\x98\\xe5\\x82\\xa8/\\xe4\\xba\\x8b\\xe4\\xbb\\xb6.sol\":558:582  IndexLog(msg.sender, 10) */\n      0xffffffffffffffffffffffffffffffffffffffff\n      and\n      0xe5324ff98d889ef468aee09204b7b862c8ff54faf05306478c16a9278c6b25eb\n        /* \"\\xe7\\xac\\xac\\xe4\\xba\\x8c\\xe5\\x91\\xa8/\\xe5\\xad\\x98\\xe5\\x82\\xa8/\\xe4\\xba\\x8b\\xe4\\xbb\\xb6.sol\":579:581  10 */\n      0x0a\n        /* \"\\xe7\\xac\\xac\\xe4\\xba\\x8c\\xe5\\x91\\xa8/\\xe5\\xad\\x98\\xe5\\x82\\xa8/\\xe4\\xba\\x8b\\xe4\\xbb\\xb6.sol\":558:582  IndexLog(msg.sender, 10) */\n      mload(0x40)\n      tag_9\n      swap2\n      swap1\n      tag_10\n      jump\t// in\n    tag_9:\n      mload(0x40)\n      dup1\n      swap2\n      sub\n      swap1\n      log2\n        /* \"\\xe7\\xac\\xac\\xe4\\xba\\x8c\\xe5\\x91\\xa8/\\xe5\\xad\\x98\\xe5\\x82\\xa8/\\xe4\\xba\\x8b\\xe4\\xbb\\xb6.sol\":426:591  function example() external {... */\n      jump\t// out\n        /* \"#utility.yul\":7:176   */\n    tag_11:\n        /* \"#utility.yul\":91:102   */\n      0x00\n        /* \"#utility.yul\":125:131   */\n      dup3\n        /* \"#utility.yul\":120:123   */\n      dup3\n        /* \"#utility.yul\":113:132   */\n      mstore\n        /* \"#utility.yul\":165:169   */\n      0x20\n        /* \"#utility.yul\":160:163   */\n      dup3\n        /* \"#utility.yul\":156:170   */\n      add\n        /* \"#utility.yul\":141:170   */\n      swap1\n      pop\n        /* \"#utility.yul\":7:176   */\n      swap3\n      swap2\n      pop\n      pop\n      jump\t// out\n        /* \"#utility.yul\":182:335   */\n    tag_12:\n        /* \"#utility.yul\":322:327   */\n      0x666f6f0000000000000000000000000000000000000000000000000000000000\n        /* \"#utility.yul\":318:319   */\n      0x00\n        /* \"#utility.yul\":310:316   */\n      dup3\n        /* \"#utility.yul\":306:320   */\n      add\n        /* \"#utility.yul\":299:328   */\n      mstore\n        /* \"#utility.yul\":182:335   */\n      pop\n      jump\t// out\n        /* \"#utility.yul\":341:706   */\n    tag_13:\n        /* \"#utility.yul\":483:486   */\n      0x00\n        /* \"#utility.yul\":504:570   */\n      tag_26\n        /* \"#utility.yul\":568:569   */\n      0x03\n        /* \"#utility.yul\":563:566   */\n      dup4\n        /* \"#utility.yul\":504:570   */\n      tag_11\n      jump\t// in\n    tag_26:\n        /* \"#utility.yul\":497:570   */\n      swap2\n      pop\n        /* \"#utility.yul\":579:672   */\n      tag_27\n        /* \"#utility.yul\":668:671   */\n      dup3\n        /* \"#utility.yul\":579:672   */\n      tag_12\n      jump\t// in\n    tag_27:\n        /* \"#utility.yul\":697:699   */\n      0x20\n        /* \"#utility.yul\":692:695   */\n      dup3\n        /* \"#utility.yul\":688:700   */\n      add\n        /* \"#utility.yul\":681:700   */\n      swap1\n      pop\n        /* \"#utility.yul\":341:706   */\n      swap2\n      swap1\n      pop\n      jump\t// out\n        /* \"#utility.yul\":712:800   */\n    tag_14:\n        /* \"#utility.yul\":760:767   */\n      0x00\n        /* \"#utility.yul\":789:794   */\n      dup2\n        /* \"#utility.yul\":778:794   */\n      swap1\n      pop\n        /* \"#utility.yul\":712:800   */\n      swap2\n      swap1\n      pop\n      jump\t// out\n        /* \"#utility.yul\":806:883   */\n    tag_15:\n        /* \"#utility.yul\":843:850   */\n      0x00\n        /* \"#utility.yul\":872:877   */\n      dup2\n        /* \"#utility.yul\":861:877   */\n      swap1\n      pop\n        /* \"#utility.yul\":806:883   */\n      swap2\n      swap1\n      pop\n      jump\t// out\n        /* \"#utility.yul\":889:949   */\n    tag_16:\n        /* \"#utility.yul\":917:920   */\n      0x00\n        /* \"#utility.yul\":938:943   */\n      dup2\n        /* \"#utility.yul\":931:943   */\n      swap1\n      pop\n        /* \"#utility.yul\":889:949   */\n      swap2\n      swap1\n      pop\n      jump\t// out\n        /* \"#utility.yul\":955:1119   */\n    tag_17:\n        /* \"#utility.yul\":1016:1025   */\n      0x00\n        /* \"#utility.yul\":1049:1113   */\n      tag_32\n        /* \"#utility.yul\":1067:1112   */\n      tag_33\n        /* \"#utility.yul\":1076:1111   */\n      tag_34\n        /* \"#utility.yul\":1105:1110   */\n      dup5\n        /* \"#utility.yul\":1076:1111   */\n      tag_14\n      jump\t// in\n    tag_34:\n        /* \"#utility.yul\":1067:1112   */\n      tag_16\n      jump\t// in\n    tag_33:\n        /* \"#utility.yul\":1049:1113   */\n      tag_15\n      jump\t// in\n    tag_32:\n        /* \"#utility.yul\":1036:1113   */\n      swap1\n      pop\n        /* \"#utility.yul\":955:1119   */\n      swap2\n      swap1\n      pop\n      jump\t// out\n        /* \"#utility.yul\":1125:1278   */\n    tag_18:\n        /* \"#utility.yul\":1223:1271   */\n      tag_36\n        /* \"#utility.yul\":1265:1270   */\n      dup2\n        /* \"#utility.yul\":1223:1271   */\n      tag_17\n      jump\t// in\n    tag_36:\n        /* \"#utility.yul\":1218:1221   */\n      dup3\n        /* \"#utility.yul\":1211:1272   */\n      mstore\n        /* \"#utility.yul\":1125:1278   */\n      pop\n      pop\n      jump\t// out\n        /* \"#utility.yul\":1284:1835   */\n    tag_8:\n        /* \"#utility.yul\":1489:1493   */\n      0x00\n        /* \"#utility.yul\":1527:1529   */\n      0x40\n        /* \"#utility.yul\":1516:1525   */\n      dup3\n        /* \"#utility.yul\":1512:1530   */\n      add\n        /* \"#utility.yul\":1504:1530   */\n      swap1\n      pop\n        /* \"#utility.yul\":1576:1585   */\n      dup2\n        /* \"#utility.yul\":1570:1574   */\n      dup2\n        /* \"#utility.yul\":1566:1586   */\n      sub\n        /* \"#utility.yul\":1562:1563   */\n      0x00\n        /* \"#utility.yul\":1551:1560   */\n      dup4\n        /* \"#utility.yul\":1547:1564   */\n      add\n        /* \"#utility.yul\":1540:1587   */\n      mstore\n        /* \"#utility.yul\":1604:1735   */\n      tag_38\n        /* \"#utility.yul\":1730:1734   */\n      dup2\n        /* \"#utility.yul\":1604:1735   */\n      tag_13\n      jump\t// in\n    tag_38:\n        /* \"#utility.yul\":1596:1735   */\n      swap1\n      pop\n        /* \"#utility.yul\":1745:1828   */\n      tag_39\n        /* \"#utility.yul\":1824:1826   */\n      0x20\n        /* \"#utility.yul\":1813:1822   */\n      dup4\n        /* \"#utility.yul\":1809:1827   */\n      add\n        /* \"#utility.yul\":1800:1806   */\n      dup5\n        /* \"#utility.yul\":1745:1828   */\n      tag_18\n      jump\t// in\n    tag_39:\n        /* \"#utility.yul\":1284:1835   */\n      swap3\n      swap2\n      pop\n      pop\n      jump\t// out\n        /* \"#utility.yul\":1841:1927   */\n    tag_19:\n        /* \"#utility.yul\":1887:1894   */\n      0x00\n        /* \"#utility.yul\":1916:1921   */\n      dup2\n        /* \"#utility.yul\":1905:1921   */\n      swap1\n      pop\n        /* \"#utility.yul\":1841:1927   */\n      swap2\n      swap1\n      pop\n      jump\t// out\n        /* \"#utility.yul\":1933:2093   */\n    tag_20:\n        /* \"#utility.yul\":1992:2001   */\n      0x00\n        /* \"#utility.yul\":2025:2087   */\n      tag_42\n        /* \"#utility.yul\":2043:2086   */\n      tag_43\n        /* \"#utility.yul\":2052:2085   */\n      tag_44\n        /* \"#utility.yul\":2079:2084   */\n      dup5\n        /* \"#utility.yul\":2052:2085   */\n      tag_19\n      jump\t// in\n    tag_44:\n        /* \"#utility.yul\":2043:2086   */\n      tag_16\n      jump\t// in\n    tag_43:\n        /* \"#utility.yul\":2025:2087   */\n      tag_15\n      jump\t// in\n    tag_42:\n        /* \"#utility.yul\":2012:2087   */\n      swap1\n      pop\n        /* \"#utility.yul\":1933:2093   */\n      swap2\n      swap1\n      pop\n      jump\t// out\n        /* \"#utility.yul\":2099:2248   */\n    tag_21:\n        /* \"#utility.yul\":2195:2241   */\n      tag_46\n        /* \"#utility.yul\":2235:2240   */\n      dup2\n        /* \"#utility.yul\":2195:2241   */\n      tag_20\n      jump\t// in\n    tag_46:\n        /* \"#utility.yul\":2190:2193   */\n      dup3\n        /* \"#utility.yul\":2183:2242   */\n      mstore\n        /* \"#utility.yul\":2099:2248   */\n      pop\n      pop\n      jump\t// out\n        /* \"#utility.yul\":2254:2494   */\n    tag_10:\n        /* \"#utility.yul\":2356:2360   */\n      0x00\n        /* \"#utility.yul\":2394:2396   */\n      0x20\n        /* \"#utility.yul\":2383:2392   */\n      dup3\n        /* \"#utility.yul\":2379:2397   */\n      add\n        /* \"#utility.yul\":2371:2397   */\n      swap1\n      pop\n        /* \"#utility.yul\":2407:2487   */\n      tag_48\n        /* \"#utility.yul\":2484:2485   */\n      0x00\n        /* \"#utility.yul\":2473:2482   */\n      dup4\n        /* \"#utility.yul\":2469:2486   */\n      add\n        /* \"#utility.yul\":2460:2466   */\n      dup5\n        /* \"#utility.yul\":2407:2487   */\n      tag_21\n      jump\t// in\n    tag_48:\n        /* \"#utility.yul\":2254:2494   */\n      swap3\n      swap2\n      pop\n      pop\n      jump\t// out\n\n    auxdata: 0xa2646970667358221220d83c2090c3d7a0b44fa3e8b43081d7af28f63ec51681e98c5b9bb4f9becc0b9c64736f6c634300081e0033\n}\n",
				"bytecode": {
					"linkReferences": {},
					"object": "6080604052348015600e575f5ffd5b5061021a8061001c5f395ff3fe608060405234801561000f575f5ffd5b5060043610610029575f3560e01c806354353f2f1461002d575b5f5ffd5b610035610037565b005b7fdd970dd9b5bfe707922155b058a407655cb18288b807e2216442bca8ad83d6b56104d26040516100689190610166565b60405180910390a13373ffffffffffffffffffffffffffffffffffffffff167fe5324ff98d889ef468aee09204b7b862c8ff54faf05306478c16a9278c6b25eb600a6040516100b791906101cb565b60405180910390a2565b5f82825260208201905092915050565b7f666f6f00000000000000000000000000000000000000000000000000000000005f82015250565b5f6101056003836100c1565b9150610110826100d1565b602082019050919050565b5f819050919050565b5f819050919050565b5f819050919050565b5f61015061014b6101468461011b565b61012d565b610124565b9050919050565b61016081610136565b82525050565b5f6040820190508181035f83015261017d816100f9565b905061018c6020830184610157565b92915050565b5f819050919050565b5f6101b56101b06101ab84610192565b61012d565b610124565b9050919050565b6101c58161019b565b82525050565b5f6020820190506101de5f8301846101bc565b9291505056fea2646970667358221220d83c2090c3d7a0b44fa3e8b43081d7af28f63ec51681e98c5b9bb4f9becc0b9c64736f6c634300081e0033",
					"opcodes": "PUSH1 0x80 PUSH1 0x40 MSTORE CALLVALUE DUP1 ISZERO PUSH1 0xE JUMPI PUSH0 PUSH0 REVERT JUMPDEST POP PUSH2 0x21A DUP1 PUSH2 0x1C PUSH0 CODECOPY PUSH0 RETURN INVALID PUSH1 0x80 PUSH1 0x40 MSTORE CALLVALUE DUP1 ISZERO PUSH2 0xF JUMPI PUSH0 PUSH0 REVERT JUMPDEST POP PUSH1 0x4 CALLDATASIZE LT PUSH2 0x29 JUMPI PUSH0 CALLDATALOAD PUSH1 0xE0 SHR DUP1 PUSH4 0x54353F2F EQ PUSH2 0x2D JUMPI JUMPDEST PUSH0 PUSH0 REVERT JUMPDEST PUSH2 0x35 PUSH2 0x37 JUMP JUMPDEST STOP JUMPDEST PUSH32 0xDD970DD9B5BFE707922155B058A407655CB18288B807E2216442BCA8AD83D6B5 PUSH2 0x4D2 PUSH1 0x40 MLOAD PUSH2 0x68 SWAP2 SWAP1 PUSH2 0x166 JUMP JUMPDEST PUSH1 0x40 MLOAD DUP1 SWAP2 SUB SWAP1 LOG1 CALLER PUSH20 0xFFFFFFFFFFFFFFFFFFFFFFFFFFFFFFFFFFFFFFFF AND PUSH32 0xE5324FF98D889EF468AEE09204B7B862C8FF54FAF05306478C16A9278C6B25EB PUSH1 0xA PUSH1 0x40 MLOAD PUSH2 0xB7 SWAP2 SWAP1 PUSH2 0x1CB JUMP JUMPDEST PUSH1 0x40 MLOAD DUP1 SWAP2 SUB SWAP1 LOG2 JUMP JUMPDEST PUSH0 DUP3 DUP3 MSTORE PUSH1 0x20 DUP3 ADD SWAP1 POP SWAP3 SWAP2 POP POP JUMP JUMPDEST PUSH32 0x666F6F0000000000000000000000000000000000000000000000000000000000 PUSH0 DUP3 ADD MSTORE POP JUMP JUMPDEST PUSH0 PUSH2 0x105 PUSH1 0x3 DUP4 PUSH2 0xC1 JUMP JUMPDEST SWAP2 POP PUSH2 0x110 DUP3 PUSH2 0xD1 JUMP JUMPDEST PUSH1 0x20 DUP3 ADD SWAP1 POP SWAP2 SWAP1 POP JUMP JUMPDEST PUSH0 DUP2 SWAP1 POP SWAP2 SWAP1 POP JUMP JUMPDEST PUSH0 DUP2 SWAP1 POP SWAP2 SWAP1 POP JUMP JUMPDEST PUSH0 DUP2 SWAP1 POP SWAP2 SWAP1 POP JUMP JUMPDEST PUSH0 PUSH2 0x150 PUSH2 0x14B PUSH2 0x146 DUP5 PUSH2 0x11B JUMP JUMPDEST PUSH2 0x12D JUMP JUMPDEST PUSH2 0x124 JUMP JUMPDEST SWAP1 POP SWAP2 SWAP1 POP JUMP JUMPDEST PUSH2 0x160 DUP2 PUSH2 0x136 JUMP JUMPDEST DUP3 MSTORE POP POP JUMP JUMPDEST PUSH0 PUSH1 0x40 DUP3 ADD SWAP1 POP DUP2 DUP2 SUB PUSH0 DUP4 ADD MSTORE PUSH2 0x17D DUP2 PUSH2 0xF9 JUMP JUMPDEST SWAP1 POP PUSH2 0x18C PUSH1 0x20 DUP4 ADD DUP5 PUSH2 0x157 JUMP JUMPDEST SWAP3 SWAP2 POP POP JUMP JUMPDEST PUSH0 DUP2 SWAP1 POP SWAP2 SWAP1 POP JUMP JUMPDEST PUSH0 PUSH2 0x1B5 PUSH2 0x1B0 PUSH2 0x1AB DUP5 PUSH2 0x192 JUMP JUMPDEST PUSH2 0x12D JUMP JUMPDEST PUSH2 0x124 JUMP JUMPDEST SWAP1 POP SWAP2 SWAP1 POP JUMP JUMPDEST PUSH2 0x1C5 DUP2 PUSH2 0x19B JUMP JUMPDEST DUP3 MSTORE POP POP JUMP JUMPDEST PUSH0 PUSH1 0x20 DUP3 ADD SWAP1 POP PUSH2 0x1DE PUSH0 DUP4 ADD DUP5 PUSH2 0x1BC JUMP JUMPDEST SWAP3 SWAP2 POP POP JUMP INVALID LOG2 PUSH5 0x6970667358 0x22 SLT KECCAK256 0xD8 EXTCODECOPY KECCAK256 SWAP1 0xC3 0xD7 LOG0 0xB4 0x4F LOG3 0xE8 0xB4 ADDRESS DUP2 0xD7 0xAF 0x28 0xF6 RETURNDATACOPY 0xC5 AND DUP2 0xE9 DUP13 JUMPDEST SWAP12 0xB4 EXTDELEGATECALL 0xBE 0xCC SIGNEXTEND SWAP13 PUSH5 0x736F6C6343 STOP ADDMOD 0x1E STOP CALLER "
				},
				"gasEstimates": {
					"creation": {
						"codeDepositCost": "107600",
						"executionCost": "151",
						"totalCost": "107751"
					},
					"external": {
						"example()": "infinite"
					}
				},
				"methodIdentifiers": {
					"example()": "54353f2f"
				}
			},
			"storageLayout": {
				"storage": [],
				"types": null
			},
			"userdoc": {
				"kind": "user",
				"methods": {},
				"version": 1
			}
		}
	}
}