{
	"装饰器.sol": {
		"functionModifier": {
			"abi": [
				{
					"inputs": [],
					"name": "count",
					"outputs": [
						{
							"internalType": "uint256",
							"name": "",
							"type": "uint256"
						}
					],
					"stateMutability": "view",
					"type": "function"
				},
				{
					"inputs": [],
					"name": "dec",
					"outputs": [],
					"stateMutability": "nonpayable",
					"type": "function"
				},
				{
					"inputs": [],
					"name": "foo",
					"outputs": [],
					"stateMutability": "nonpayable",
					"type": "function"
				},
				{
					"inputs": [],
					"name": "inc",
					"outputs": [],
					"stateMutability": "nonpayable",
					"type": "function"
				},
				{
					"inputs": [
						{
							"internalType": "uint256",
							"name": "_x",
							"type": "uint256"
						}
					],
					"name": "incBy",
					"outputs": [],
					"stateMutability": "nonpayable",
					"type": "function"
				},
				{
					"inputs": [],
					"name": "paused",
					"outputs": [
						{
							"internalType": "bool",
							"name": "",
							"type": "bool"
						}
					],
					"stateMutability": "view",
					"type": "function"
				},
				{
					"inputs": [
						{
							"internalType": "bool",
							"name": "_paused",
							"type": "bool"
						}
					],
					"name": "setPause",
					"outputs": [],
					"stateMutability": "nonpayable",
					"type": "function"
				}
			],
			"devdoc": {
				"kind": "dev",
				"methods": {},
				"version": 1
			},
			"evm": {
				"assembly": "    /* \"\\xe8\\xa3\\x85\\xe9\\xa5\\xb0\\xe5\\x99\\xa8.sol\":57:1297  contract functionModifier {... */\n  mstore(0x40, 0x80)\n  callvalue\n  dup1\n  iszero\n  tag_1\n  jumpi\n  revert(0x00, 0x00)\ntag_1:\n  pop\n  dataSize(sub_0)\n  dup1\n  dataOffset(sub_0)\n  0x00\n  codecopy\n  0x00\n  return\nstop\n\nsub_0: assembly {\n        /* \"\\xe8\\xa3\\x85\\xe9\\xa5\\xb0\\xe5\\x99\\xa8.sol\":57:1297  contract functionModifier {... */\n      mstore(0x40, 0x80)\n      callvalue\n      dup1\n      iszero\n      tag_1\n      jumpi\n      revert(0x00, 0x00)\n    tag_1:\n      pop\n      jumpi(tag_2, lt(calldatasize, 0x04))\n      shr(0xe0, calldataload(0x00))\n      dup1\n      0x70119d06\n      gt\n      tag_10\n      jumpi\n      dup1\n      0x70119d06\n      eq\n      tag_6\n      jumpi\n      dup1\n      0xb3bcfa82\n      eq\n      tag_7\n      jumpi\n      dup1\n      0xbedb86fb\n      eq\n      tag_8\n      jumpi\n      dup1\n      0xc2985578\n      eq\n      tag_9\n      jumpi\n      jump(tag_2)\n    tag_10:\n      dup1\n      0x06661abd\n      eq\n      tag_3\n      jumpi\n      dup1\n      0x371303c0\n      eq\n      tag_4\n      jumpi\n      dup1\n      0x5c975abb\n      eq\n      tag_5\n      jumpi\n    tag_2:\n      revert(0x00, 0x00)\n        /* \"\\xe8\\xa3\\x85\\xe9\\xa5\\xb0\\xe5\\x99\\xa8.sol\":113:133  uint256 public count */\n    tag_3:\n      tag_11\n      tag_12\n      jump\t// in\n    tag_11:\n      mload(0x40)\n      tag_13\n      swap2\n      swap1\n      tag_14\n      jump\t// in\n    tag_13:\n      mload(0x40)\n      dup1\n      swap2\n      sub\n      swap1\n      return\n        /* \"\\xe8\\xa3\\x85\\xe9\\xa5\\xb0\\xe5\\x99\\xa8.sol\":672:736  function inc() external whenNotPaused{... */\n    tag_4:\n      tag_15\n      tag_16\n      jump\t// in\n    tag_15:\n      stop\n        /* \"\\xe8\\xa3\\x85\\xe9\\xa5\\xb0\\xe5\\x99\\xa8.sol\":89:107  bool public paused */\n    tag_5:\n      tag_17\n      tag_18\n      jump\t// in\n    tag_17:\n      mload(0x40)\n      tag_19\n      swap2\n      swap1\n      tag_20\n      jump\t// in\n    tag_19:\n      mload(0x40)\n      dup1\n      swap2\n      sub\n      swap1\n      return\n        /* \"\\xe8\\xa3\\x85\\xe9\\xa5\\xb0\\xe5\\x99\\xa8.sol\":960:1041  function incBy(uint _x) external whenNotPaused cap(_x){... */\n    tag_6:\n      tag_21\n      0x04\n      dup1\n      calldatasize\n      sub\n      dup2\n      add\n      swap1\n      tag_22\n      swap2\n      swap1\n      tag_23\n      jump\t// in\n    tag_22:\n      tag_24\n      jump\t// in\n    tag_21:\n      stop\n        /* \"\\xe8\\xa3\\x85\\xe9\\xa5\\xb0\\xe5\\x99\\xa8.sol\":742:816  function dec() external  whenNotPaused{... */\n    tag_7:\n      tag_25\n      tag_26\n      jump\t// in\n    tag_25:\n      stop\n        /* \"\\xe8\\xa3\\x85\\xe9\\xa5\\xb0\\xe5\\x99\\xa8.sol\":140:214  function setPause(bool _paused) external {... */\n    tag_8:\n      tag_27\n      0x04\n      dup1\n      calldatasize\n      sub\n      dup2\n      add\n      swap1\n      tag_28\n      swap2\n      swap1\n      tag_29\n      jump\t// in\n    tag_28:\n      tag_30\n      jump\t// in\n    tag_27:\n      stop\n        /* \"\\xe8\\xa3\\x85\\xe9\\xa5\\xb0\\xe5\\x99\\xa8.sol\":1233:1291  function foo() external sandwich{... */\n    tag_9:\n      tag_31\n      tag_32\n      jump\t// in\n    tag_31:\n      stop\n        /* \"\\xe8\\xa3\\x85\\xe9\\xa5\\xb0\\xe5\\x99\\xa8.sol\":113:133  uint256 public count */\n    tag_12:\n      sload(0x01)\n      dup2\n      jump\t// out\n        /* \"\\xe8\\xa3\\x85\\xe9\\xa5\\xb0\\xe5\\x99\\xa8.sol\":672:736  function inc() external whenNotPaused{... */\n    tag_16:\n        /* \"\\xe8\\xa3\\x85\\xe9\\xa5\\xb0\\xe5\\x99\\xa8.sol\":560:566  paused */\n      0x00\n      0x00\n      swap1\n      sload\n      swap1\n      0x0100\n      exp\n      swap1\n      div\n      0xff\n      and\n        /* \"\\xe8\\xa3\\x85\\xe9\\xa5\\xb0\\xe5\\x99\\xa8.sol\":552:577  require(paused, \"puased\") */\n      tag_34\n      jumpi\n      mload(0x40)\n      0x08c379a000000000000000000000000000000000000000000000000000000000\n      dup2\n      mstore\n      0x04\n      add\n      tag_35\n      swap1\n      tag_36\n      jump\t// in\n    tag_35:\n      mload(0x40)\n      dup1\n      swap2\n      sub\n      swap1\n      revert\n    tag_34:\n        /* \"\\xe8\\xa3\\x85\\xe9\\xa5\\xb0\\xe5\\x99\\xa8.sol\":728:729  1 */\n      0x01\n        /* \"\\xe8\\xa3\\x85\\xe9\\xa5\\xb0\\xe5\\x99\\xa8.sol\":719:724  count */\n      dup1\n      0x00\n        /* \"\\xe8\\xa3\\x85\\xe9\\xa5\\xb0\\xe5\\x99\\xa8.sol\":719:729  count += 1 */\n      dup3\n      dup3\n      sload\n      tag_38\n      swap2\n      swap1\n      tag_39\n      jump\t// in\n    tag_38:\n      swap3\n      pop\n      pop\n      dup2\n      swap1\n      sstore\n      pop\n        /* \"\\xe8\\xa3\\x85\\xe9\\xa5\\xb0\\xe5\\x99\\xa8.sol\":672:736  function inc() external whenNotPaused{... */\n      jump\t// out\n        /* \"\\xe8\\xa3\\x85\\xe9\\xa5\\xb0\\xe5\\x99\\xa8.sol\":89:107  bool public paused */\n    tag_18:\n      0x00\n      0x00\n      swap1\n      sload\n      swap1\n      0x0100\n      exp\n      swap1\n      div\n      0xff\n      and\n      dup2\n      jump\t// out\n        /* \"\\xe8\\xa3\\x85\\xe9\\xa5\\xb0\\xe5\\x99\\xa8.sol\":960:1041  function incBy(uint _x) external whenNotPaused cap(_x){... */\n    tag_24:\n        /* \"\\xe8\\xa3\\x85\\xe9\\xa5\\xb0\\xe5\\x99\\xa8.sol\":560:566  paused */\n      0x00\n      0x00\n      swap1\n      sload\n      swap1\n      0x0100\n      exp\n      swap1\n      div\n      0xff\n      and\n        /* \"\\xe8\\xa3\\x85\\xe9\\xa5\\xb0\\xe5\\x99\\xa8.sol\":552:577  require(paused, \"puased\") */\n      tag_41\n      jumpi\n      mload(0x40)\n      0x08c379a000000000000000000000000000000000000000000000000000000000\n      dup2\n      mstore\n      0x04\n      add\n      tag_42\n      swap1\n      tag_36\n      jump\t// in\n    tag_42:\n      mload(0x40)\n      dup1\n      swap2\n      sub\n      swap1\n      revert\n    tag_41:\n        /* \"\\xe8\\xa3\\x85\\xe9\\xa5\\xb0\\xe5\\x99\\xa8.sol\":1011:1013  _x */\n      dup1\n        /* \"\\xe8\\xa3\\x85\\xe9\\xa5\\xb0\\xe5\\x99\\xa8.sol\":896:899  100 */\n      0x64\n        /* \"\\xe8\\xa3\\x85\\xe9\\xa5\\xb0\\xe5\\x99\\xa8.sol\":893:895  _x */\n      dup2\n        /* \"\\xe8\\xa3\\x85\\xe9\\xa5\\xb0\\xe5\\x99\\xa8.sol\":893:899  _x<100 */\n      lt\n        /* \"\\xe8\\xa3\\x85\\xe9\\xa5\\xb0\\xe5\\x99\\xa8.sol\":885:909  require(_x<100, \"x>100\") */\n      tag_44\n      jumpi\n      mload(0x40)\n      0x08c379a000000000000000000000000000000000000000000000000000000000\n      dup2\n      mstore\n      0x04\n      add\n      tag_45\n      swap1\n      tag_46\n      jump\t// in\n    tag_45:\n      mload(0x40)\n      dup1\n      swap2\n      sub\n      swap1\n      revert\n    tag_44:\n        /* \"\\xe8\\xa3\\x85\\xe9\\xa5\\xb0\\xe5\\x99\\xa8.sol\":1032:1034  _x */\n      dup2\n        /* \"\\xe8\\xa3\\x85\\xe9\\xa5\\xb0\\xe5\\x99\\xa8.sol\":1024:1029  count */\n      0x01\n      0x00\n        /* \"\\xe8\\xa3\\x85\\xe9\\xa5\\xb0\\xe5\\x99\\xa8.sol\":1024:1034  count +=_x */\n      dup3\n      dup3\n      sload\n      tag_48\n      swap2\n      swap1\n      tag_39\n      jump\t// in\n    tag_48:\n      swap3\n      pop\n      pop\n      dup2\n      swap1\n      sstore\n      pop\n        /* \"\\xe8\\xa3\\x85\\xe9\\xa5\\xb0\\xe5\\x99\\xa8.sol\":612:613  _ */\n      pop\n        /* \"\\xe8\\xa3\\x85\\xe9\\xa5\\xb0\\xe5\\x99\\xa8.sol\":960:1041  function incBy(uint _x) external whenNotPaused cap(_x){... */\n      pop\n      jump\t// out\n        /* \"\\xe8\\xa3\\x85\\xe9\\xa5\\xb0\\xe5\\x99\\xa8.sol\":742:816  function dec() external  whenNotPaused{... */\n    tag_26:\n        /* \"\\xe8\\xa3\\x85\\xe9\\xa5\\xb0\\xe5\\x99\\xa8.sol\":560:566  paused */\n      0x00\n      0x00\n      swap1\n      sload\n      swap1\n      0x0100\n      exp\n      swap1\n      div\n      0xff\n      and\n        /* \"\\xe8\\xa3\\x85\\xe9\\xa5\\xb0\\xe5\\x99\\xa8.sol\":552:577  require(paused, \"puased\") */\n      tag_50\n      jumpi\n      mload(0x40)\n      0x08c379a000000000000000000000000000000000000000000000000000000000\n      dup2\n      mstore\n      0x04\n      add\n      tag_51\n      swap1\n      tag_36\n      jump\t// in\n    tag_51:\n      mload(0x40)\n      dup1\n      swap2\n      sub\n      swap1\n      revert\n    tag_50:\n        /* \"\\xe8\\xa3\\x85\\xe9\\xa5\\xb0\\xe5\\x99\\xa8.sol\":808:809  1 */\n      0x01\n        /* \"\\xe8\\xa3\\x85\\xe9\\xa5\\xb0\\xe5\\x99\\xa8.sol\":799:804  count */\n      dup1\n      0x00\n        /* \"\\xe8\\xa3\\x85\\xe9\\xa5\\xb0\\xe5\\x99\\xa8.sol\":799:809  count += 1 */\n      dup3\n      dup3\n      sload\n      tag_53\n      swap2\n      swap1\n      tag_39\n      jump\t// in\n    tag_53:\n      swap3\n      pop\n      pop\n      dup2\n      swap1\n      sstore\n      pop\n        /* \"\\xe8\\xa3\\x85\\xe9\\xa5\\xb0\\xe5\\x99\\xa8.sol\":742:816  function dec() external  whenNotPaused{... */\n      jump\t// out\n        /* \"\\xe8\\xa3\\x85\\xe9\\xa5\\xb0\\xe5\\x99\\xa8.sol\":140:214  function setPause(bool _paused) external {... */\n    tag_30:\n        /* \"\\xe8\\xa3\\x85\\xe9\\xa5\\xb0\\xe5\\x99\\xa8.sol\":200:207  _paused */\n      dup1\n        /* \"\\xe8\\xa3\\x85\\xe9\\xa5\\xb0\\xe5\\x99\\xa8.sol\":191:197  paused */\n      0x00\n      0x00\n        /* \"\\xe8\\xa3\\x85\\xe9\\xa5\\xb0\\xe5\\x99\\xa8.sol\":191:207  paused = _paused */\n      0x0100\n      exp\n      dup2\n      sload\n      dup2\n      0xff\n      mul\n      not\n      and\n      swap1\n      dup4\n      iszero\n      iszero\n      mul\n      or\n      swap1\n      sstore\n      pop\n        /* \"\\xe8\\xa3\\x85\\xe9\\xa5\\xb0\\xe5\\x99\\xa8.sol\":140:214  function setPause(bool _paused) external {... */\n      pop\n      jump\t// out\n        /* \"\\xe8\\xa3\\x85\\xe9\\xa5\\xb0\\xe5\\x99\\xa8.sol\":1233:1291  function foo() external sandwich{... */\n    tag_32:\n        /* \"\\xe8\\xa3\\x85\\xe9\\xa5\\xb0\\xe5\\x99\\xa8.sol\":1108:1109  1 */\n      0x01\n        /* \"\\xe8\\xa3\\x85\\xe9\\xa5\\xb0\\xe5\\x99\\xa8.sol\":1100:1105  count */\n      dup1\n      0x00\n        /* \"\\xe8\\xa3\\x85\\xe9\\xa5\\xb0\\xe5\\x99\\xa8.sol\":1100:1109  count +=1 */\n      dup3\n      dup3\n      sload\n      tag_56\n      swap2\n      swap1\n      tag_39\n      jump\t// in\n    tag_56:\n      swap3\n      pop\n      pop\n      dup2\n      swap1\n      sstore\n      pop\n        /* \"\\xe8\\xa3\\x85\\xe9\\xa5\\xb0\\xe5\\x99\\xa8.sol\":1283:1284  1 */\n      0x01\n        /* \"\\xe8\\xa3\\x85\\xe9\\xa5\\xb0\\xe5\\x99\\xa8.sol\":1275:1280  count */\n      dup1\n      0x00\n        /* \"\\xe8\\xa3\\x85\\xe9\\xa5\\xb0\\xe5\\x99\\xa8.sol\":1275:1284  count +=1 */\n      dup3\n      dup3\n      sload\n      tag_58\n      swap2\n      swap1\n      tag_39\n      jump\t// in\n    tag_58:\n      swap3\n      pop\n      pop\n      dup2\n      swap1\n      sstore\n      pop\n        /* \"\\xe8\\xa3\\x85\\xe9\\xa5\\xb0\\xe5\\x99\\xa8.sol\":1138:1139  2 */\n      0x02\n        /* \"\\xe8\\xa3\\x85\\xe9\\xa5\\xb0\\xe5\\x99\\xa8.sol\":1130:1135  count */\n      0x01\n      0x00\n        /* \"\\xe8\\xa3\\x85\\xe9\\xa5\\xb0\\xe5\\x99\\xa8.sol\":1130:1139  count *=2 */\n      dup3\n      dup3\n      sload\n      tag_59\n      swap2\n      swap1\n      tag_60\n      jump\t// in\n    tag_59:\n      swap3\n      pop\n      pop\n      dup2\n      swap1\n      sstore\n      pop\n        /* \"\\xe8\\xa3\\x85\\xe9\\xa5\\xb0\\xe5\\x99\\xa8.sol\":1233:1291  function foo() external sandwich{... */\n      jump\t// out\n        /* \"#utility.yul\":7:84   */\n    tag_61:\n        /* \"#utility.yul\":44:51   */\n      0x00\n        /* \"#utility.yul\":73:78   */\n      dup2\n        /* \"#utility.yul\":62:78   */\n      swap1\n      pop\n        /* \"#utility.yul\":7:84   */\n      swap2\n      swap1\n      pop\n      jump\t// out\n        /* \"#utility.yul\":90:208   */\n    tag_62:\n        /* \"#utility.yul\":177:201   */\n      tag_81\n        /* \"#utility.yul\":195:200   */\n      dup2\n        /* \"#utility.yul\":177:201   */\n      tag_61\n      jump\t// in\n    tag_81:\n        /* \"#utility.yul\":172:175   */\n      dup3\n        /* \"#utility.yul\":165:202   */\n      mstore\n        /* \"#utility.yul\":90:208   */\n      pop\n      pop\n      jump\t// out\n        /* \"#utility.yul\":214:436   */\n    tag_14:\n        /* \"#utility.yul\":307:311   */\n      0x00\n        /* \"#utility.yul\":345:347   */\n      0x20\n        /* \"#utility.yul\":334:343   */\n      dup3\n        /* \"#utility.yul\":330:348   */\n      add\n        /* \"#utility.yul\":322:348   */\n      swap1\n      pop\n        /* \"#utility.yul\":358:429   */\n      tag_83\n        /* \"#utility.yul\":426:427   */\n      0x00\n        /* \"#utility.yul\":415:424   */\n      dup4\n        /* \"#utility.yul\":411:428   */\n      add\n        /* \"#utility.yul\":402:408   */\n      dup5\n        /* \"#utility.yul\":358:429   */\n      tag_62\n      jump\t// in\n    tag_83:\n        /* \"#utility.yul\":214:436   */\n      swap3\n      swap2\n      pop\n      pop\n      jump\t// out\n        /* \"#utility.yul\":442:532   */\n    tag_63:\n        /* \"#utility.yul\":476:483   */\n      0x00\n        /* \"#utility.yul\":519:524   */\n      dup2\n        /* \"#utility.yul\":512:525   */\n      iszero\n        /* \"#utility.yul\":505:526   */\n      iszero\n        /* \"#utility.yul\":494:526   */\n      swap1\n      pop\n        /* \"#utility.yul\":442:532   */\n      swap2\n      swap1\n      pop\n      jump\t// out\n        /* \"#utility.yul\":538:647   */\n    tag_64:\n        /* \"#utility.yul\":619:640   */\n      tag_86\n        /* \"#utility.yul\":634:639   */\n      dup2\n        /* \"#utility.yul\":619:640   */\n      tag_63\n      jump\t// in\n    tag_86:\n        /* \"#utility.yul\":614:617   */\n      dup3\n        /* \"#utility.yul\":607:641   */\n      mstore\n        /* \"#utility.yul\":538:647   */\n      pop\n      pop\n      jump\t// out\n        /* \"#utility.yul\":653:863   */\n    tag_20:\n        /* \"#utility.yul\":740:744   */\n      0x00\n        /* \"#utility.yul\":778:780   */\n      0x20\n        /* \"#utility.yul\":767:776   */\n      dup3\n        /* \"#utility.yul\":763:781   */\n      add\n        /* \"#utility.yul\":755:781   */\n      swap1\n      pop\n        /* \"#utility.yul\":791:856   */\n      tag_88\n        /* \"#utility.yul\":853:854   */\n      0x00\n        /* \"#utility.yul\":842:851   */\n      dup4\n        /* \"#utility.yul\":838:855   */\n      add\n        /* \"#utility.yul\":829:835   */\n      dup5\n        /* \"#utility.yul\":791:856   */\n      tag_64\n      jump\t// in\n    tag_88:\n        /* \"#utility.yul\":653:863   */\n      swap3\n      swap2\n      pop\n      pop\n      jump\t// out\n        /* \"#utility.yul\":950:1067   */\n    tag_66:\n        /* \"#utility.yul\":1059:1060   */\n      0x00\n        /* \"#utility.yul\":1056:1057   */\n      0x00\n        /* \"#utility.yul\":1049:1061   */\n      revert\n        /* \"#utility.yul\":1196:1318   */\n    tag_68:\n        /* \"#utility.yul\":1269:1293   */\n      tag_93\n        /* \"#utility.yul\":1287:1292   */\n      dup2\n        /* \"#utility.yul\":1269:1293   */\n      tag_61\n      jump\t// in\n    tag_93:\n        /* \"#utility.yul\":1262:1267   */\n      dup2\n        /* \"#utility.yul\":1259:1294   */\n      eq\n        /* \"#utility.yul\":1249:1312   */\n      tag_94\n      jumpi\n        /* \"#utility.yul\":1308:1309   */\n      0x00\n        /* \"#utility.yul\":1305:1306   */\n      0x00\n        /* \"#utility.yul\":1298:1310   */\n      revert\n        /* \"#utility.yul\":1249:1312   */\n    tag_94:\n        /* \"#utility.yul\":1196:1318   */\n      pop\n      jump\t// out\n        /* \"#utility.yul\":1324:1463   */\n    tag_69:\n        /* \"#utility.yul\":1370:1375   */\n      0x00\n        /* \"#utility.yul\":1408:1414   */\n      dup2\n        /* \"#utility.yul\":1395:1415   */\n      calldataload\n        /* \"#utility.yul\":1386:1415   */\n      swap1\n      pop\n        /* \"#utility.yul\":1424:1457   */\n      tag_96\n        /* \"#utility.yul\":1451:1456   */\n      dup2\n        /* \"#utility.yul\":1424:1457   */\n      tag_68\n      jump\t// in\n    tag_96:\n        /* \"#utility.yul\":1324:1463   */\n      swap3\n      swap2\n      pop\n      pop\n      jump\t// out\n        /* \"#utility.yul\":1469:1798   */\n    tag_23:\n        /* \"#utility.yul\":1528:1534   */\n      0x00\n        /* \"#utility.yul\":1577:1579   */\n      0x20\n        /* \"#utility.yul\":1565:1574   */\n      dup3\n        /* \"#utility.yul\":1556:1563   */\n      dup5\n        /* \"#utility.yul\":1552:1575   */\n      sub\n        /* \"#utility.yul\":1548:1580   */\n      slt\n        /* \"#utility.yul\":1545:1664   */\n      iszero\n      tag_98\n      jumpi\n        /* \"#utility.yul\":1583:1662   */\n      tag_99\n      tag_66\n      jump\t// in\n    tag_99:\n        /* \"#utility.yul\":1545:1664   */\n    tag_98:\n        /* \"#utility.yul\":1703:1704   */\n      0x00\n        /* \"#utility.yul\":1728:1781   */\n      tag_100\n        /* \"#utility.yul\":1773:1780   */\n      dup5\n        /* \"#utility.yul\":1764:1770   */\n      dup3\n        /* \"#utility.yul\":1753:1762   */\n      dup6\n        /* \"#utility.yul\":1749:1771   */\n      add\n        /* \"#utility.yul\":1728:1781   */\n      tag_69\n      jump\t// in\n    tag_100:\n        /* \"#utility.yul\":1718:1781   */\n      swap2\n      pop\n        /* \"#utility.yul\":1674:1791   */\n      pop\n        /* \"#utility.yul\":1469:1798   */\n      swap3\n      swap2\n      pop\n      pop\n      jump\t// out\n        /* \"#utility.yul\":1804:1920   */\n    tag_70:\n        /* \"#utility.yul\":1874:1895   */\n      tag_102\n        /* \"#utility.yul\":1889:1894   */\n      dup2\n        /* \"#utility.yul\":1874:1895   */\n      tag_63\n      jump\t// in\n    tag_102:\n        /* \"#utility.yul\":1867:1872   */\n      dup2\n        /* \"#utility.yul\":1864:1896   */\n      eq\n        /* \"#utility.yul\":1854:1914   */\n      tag_103\n      jumpi\n        /* \"#utility.yul\":1910:1911   */\n      0x00\n        /* \"#utility.yul\":1907:1908   */\n      0x00\n        /* \"#utility.yul\":1900:1912   */\n      revert\n        /* \"#utility.yul\":1854:1914   */\n    tag_103:\n        /* \"#utility.yul\":1804:1920   */\n      pop\n      jump\t// out\n        /* \"#utility.yul\":1926:2059   */\n    tag_71:\n        /* \"#utility.yul\":1969:1974   */\n      0x00\n        /* \"#utility.yul\":2007:2013   */\n      dup2\n        /* \"#utility.yul\":1994:2014   */\n      calldataload\n        /* \"#utility.yul\":1985:2014   */\n      swap1\n      pop\n        /* \"#utility.yul\":2023:2053   */\n      tag_105\n        /* \"#utility.yul\":2047:2052   */\n      dup2\n        /* \"#utility.yul\":2023:2053   */\n      tag_70\n      jump\t// in\n    tag_105:\n        /* \"#utility.yul\":1926:2059   */\n      swap3\n      swap2\n      pop\n      pop\n      jump\t// out\n        /* \"#utility.yul\":2065:2388   */\n    tag_29:\n        /* \"#utility.yul\":2121:2127   */\n      0x00\n        /* \"#utility.yul\":2170:2172   */\n      0x20\n        /* \"#utility.yul\":2158:2167   */\n      dup3\n        /* \"#utility.yul\":2149:2156   */\n      dup5\n        /* \"#utility.yul\":2145:2168   */\n      sub\n        /* \"#utility.yul\":2141:2173   */\n      slt\n        /* \"#utility.yul\":2138:2257   */\n      iszero\n      tag_107\n      jumpi\n        /* \"#utility.yul\":2176:2255   */\n      tag_108\n      tag_66\n      jump\t// in\n    tag_108:\n        /* \"#utility.yul\":2138:2257   */\n    tag_107:\n        /* \"#utility.yul\":2296:2297   */\n      0x00\n        /* \"#utility.yul\":2321:2371   */\n      tag_109\n        /* \"#utility.yul\":2363:2370   */\n      dup5\n        /* \"#utility.yul\":2354:2360   */\n      dup3\n        /* \"#utility.yul\":2343:2352   */\n      dup6\n        /* \"#utility.yul\":2339:2361   */\n      add\n        /* \"#utility.yul\":2321:2371   */\n      tag_71\n      jump\t// in\n    tag_109:\n        /* \"#utility.yul\":2311:2371   */\n      swap2\n      pop\n        /* \"#utility.yul\":2267:2381   */\n      pop\n        /* \"#utility.yul\":2065:2388   */\n      swap3\n      swap2\n      pop\n      pop\n      jump\t// out\n        /* \"#utility.yul\":2394:2563   */\n    tag_72:\n        /* \"#utility.yul\":2478:2489   */\n      0x00\n        /* \"#utility.yul\":2512:2518   */\n      dup3\n        /* \"#utility.yul\":2507:2510   */\n      dup3\n        /* \"#utility.yul\":2500:2519   */\n      mstore\n        /* \"#utility.yul\":2552:2556   */\n      0x20\n        /* \"#utility.yul\":2547:2550   */\n      dup3\n        /* \"#utility.yul\":2543:2557   */\n      add\n        /* \"#utility.yul\":2528:2557   */\n      swap1\n      pop\n        /* \"#utility.yul\":2394:2563   */\n      swap3\n      swap2\n      pop\n      pop\n      jump\t// out\n        /* \"#utility.yul\":2569:2725   */\n    tag_73:\n        /* \"#utility.yul\":2709:2717   */\n      0x7075617365640000000000000000000000000000000000000000000000000000\n        /* \"#utility.yul\":2705:2706   */\n      0x00\n        /* \"#utility.yul\":2697:2703   */\n      dup3\n        /* \"#utility.yul\":2693:2707   */\n      add\n        /* \"#utility.yul\":2686:2718   */\n      mstore\n        /* \"#utility.yul\":2569:2725   */\n      pop\n      jump\t// out\n        /* \"#utility.yul\":2731:3096   */\n    tag_74:\n        /* \"#utility.yul\":2873:2876   */\n      0x00\n        /* \"#utility.yul\":2894:2960   */\n      tag_113\n        /* \"#utility.yul\":2958:2959   */\n      0x06\n        /* \"#utility.yul\":2953:2956   */\n      dup4\n        /* \"#utility.yul\":2894:2960   */\n      tag_72\n      jump\t// in\n    tag_113:\n        /* \"#utility.yul\":2887:2960   */\n      swap2\n      pop\n        /* \"#utility.yul\":2969:3062   */\n      tag_114\n        /* \"#utility.yul\":3058:3061   */\n      dup3\n        /* \"#utility.yul\":2969:3062   */\n      tag_73\n      jump\t// in\n    tag_114:\n        /* \"#utility.yul\":3087:3089   */\n      0x20\n        /* \"#utility.yul\":3082:3085   */\n      dup3\n        /* \"#utility.yul\":3078:3090   */\n      add\n        /* \"#utility.yul\":3071:3090   */\n      swap1\n      pop\n        /* \"#utility.yul\":2731:3096   */\n      swap2\n      swap1\n      pop\n      jump\t// out\n        /* \"#utility.yul\":3102:3521   */\n    tag_36:\n        /* \"#utility.yul\":3268:3272   */\n      0x00\n        /* \"#utility.yul\":3306:3308   */\n      0x20\n        /* \"#utility.yul\":3295:3304   */\n      dup3\n        /* \"#utility.yul\":3291:3309   */\n      add\n        /* \"#utility.yul\":3283:3309   */\n      swap1\n      pop\n        /* \"#utility.yul\":3355:3364   */\n      dup2\n        /* \"#utility.yul\":3349:3353   */\n      dup2\n        /* \"#utility.yul\":3345:3365   */\n      sub\n        /* \"#utility.yul\":3341:3342   */\n      0x00\n        /* \"#utility.yul\":3330:3339   */\n      dup4\n        /* \"#utility.yul\":3326:3343   */\n      add\n        /* \"#utility.yul\":3319:3366   */\n      mstore\n        /* \"#utility.yul\":3383:3514   */\n      tag_116\n        /* \"#utility.yul\":3509:3513   */\n      dup2\n        /* \"#utility.yul\":3383:3514   */\n      tag_74\n      jump\t// in\n    tag_116:\n        /* \"#utility.yul\":3375:3514   */\n      swap1\n      pop\n        /* \"#utility.yul\":3102:3521   */\n      swap2\n      swap1\n      pop\n      jump\t// out\n        /* \"#utility.yul\":3527:3707   */\n    tag_75:\n        /* \"#utility.yul\":3575:3652   */\n      0x4e487b7100000000000000000000000000000000000000000000000000000000\n        /* \"#utility.yul\":3572:3573   */\n      0x00\n        /* \"#utility.yul\":3565:3653   */\n      mstore\n        /* \"#utility.yul\":3672:3676   */\n      0x11\n        /* \"#utility.yul\":3669:3670   */\n      0x04\n        /* \"#utility.yul\":3662:3677   */\n      mstore\n        /* \"#utility.yul\":3696:3700   */\n      0x24\n        /* \"#utility.yul\":3693:3694   */\n      0x00\n        /* \"#utility.yul\":3686:3701   */\n      revert\n        /* \"#utility.yul\":3713:3904   */\n    tag_39:\n        /* \"#utility.yul\":3753:3756   */\n      0x00\n        /* \"#utility.yul\":3772:3792   */\n      tag_119\n        /* \"#utility.yul\":3790:3791   */\n      dup3\n        /* \"#utility.yul\":3772:3792   */\n      tag_61\n      jump\t// in\n    tag_119:\n        /* \"#utility.yul\":3767:3792   */\n      swap2\n      pop\n        /* \"#utility.yul\":3806:3826   */\n      tag_120\n        /* \"#utility.yul\":3824:3825   */\n      dup4\n        /* \"#utility.yul\":3806:3826   */\n      tag_61\n      jump\t// in\n    tag_120:\n        /* \"#utility.yul\":3801:3826   */\n      swap3\n      pop\n        /* \"#utility.yul\":3849:3850   */\n      dup3\n        /* \"#utility.yul\":3846:3847   */\n      dup3\n        /* \"#utility.yul\":3842:3851   */\n      add\n        /* \"#utility.yul\":3835:3851   */\n      swap1\n      pop\n        /* \"#utility.yul\":3870:3873   */\n      dup1\n        /* \"#utility.yul\":3867:3868   */\n      dup3\n        /* \"#utility.yul\":3864:3874   */\n      gt\n        /* \"#utility.yul\":3861:3897   */\n      iszero\n      tag_121\n      jumpi\n        /* \"#utility.yul\":3877:3895   */\n      tag_122\n      tag_75\n      jump\t// in\n    tag_122:\n        /* \"#utility.yul\":3861:3897   */\n    tag_121:\n        /* \"#utility.yul\":3713:3904   */\n      swap3\n      swap2\n      pop\n      pop\n      jump\t// out\n        /* \"#utility.yul\":3910:4065   */\n    tag_76:\n        /* \"#utility.yul\":4050:4057   */\n      0x783e313030000000000000000000000000000000000000000000000000000000\n        /* \"#utility.yul\":4046:4047   */\n      0x00\n        /* \"#utility.yul\":4038:4044   */\n      dup3\n        /* \"#utility.yul\":4034:4048   */\n      add\n        /* \"#utility.yul\":4027:4058   */\n      mstore\n        /* \"#utility.yul\":3910:4065   */\n      pop\n      jump\t// out\n        /* \"#utility.yul\":4071:4436   */\n    tag_77:\n        /* \"#utility.yul\":4213:4216   */\n      0x00\n        /* \"#utility.yul\":4234:4300   */\n      tag_125\n        /* \"#utility.yul\":4298:4299   */\n      0x05\n        /* \"#utility.yul\":4293:4296   */\n      dup4\n        /* \"#utility.yul\":4234:4300   */\n      tag_72\n      jump\t// in\n    tag_125:\n        /* \"#utility.yul\":4227:4300   */\n      swap2\n      pop\n        /* \"#utility.yul\":4309:4402   */\n      tag_126\n        /* \"#utility.yul\":4398:4401   */\n      dup3\n        /* \"#utility.yul\":4309:4402   */\n      tag_76\n      jump\t// in\n    tag_126:\n        /* \"#utility.yul\":4427:4429   */\n      0x20\n        /* \"#utility.yul\":4422:4425   */\n      dup3\n        /* \"#utility.yul\":4418:4430   */\n      add\n        /* \"#utility.yul\":4411:4430   */\n      swap1\n      pop\n        /* \"#utility.yul\":4071:4436   */\n      swap2\n      swap1\n      pop\n      jump\t// out\n        /* \"#utility.yul\":4442:4861   */\n    tag_46:\n        /* \"#utility.yul\":4608:4612   */\n      0x00\n        /* \"#utility.yul\":4646:4648   */\n      0x20\n        /* \"#utility.yul\":4635:4644   */\n      dup3\n        /* \"#utility.yul\":4631:4649   */\n      add\n        /* \"#utility.yul\":4623:4649   */\n      swap1\n      pop\n        /* \"#utility.yul\":4695:4704   */\n      dup2\n        /* \"#utility.yul\":4689:4693   */\n      dup2\n        /* \"#utility.yul\":4685:4705   */\n      sub\n        /* \"#utility.yul\":4681:4682   */\n      0x00\n        /* \"#utility.yul\":4670:4679   */\n      dup4\n        /* \"#utility.yul\":4666:4683   */\n      add\n        /* \"#utility.yul\":4659:4706   */\n      mstore\n        /* \"#utility.yul\":4723:4854   */\n      tag_128\n        /* \"#utility.yul\":4849:4853   */\n      dup2\n        /* \"#utility.yul\":4723:4854   */\n      tag_77\n      jump\t// in\n    tag_128:\n        /* \"#utility.yul\":4715:4854   */\n      swap1\n      pop\n        /* \"#utility.yul\":4442:4861   */\n      swap2\n      swap1\n      pop\n      jump\t// out\n        /* \"#utility.yul\":4867:5277   */\n    tag_60:\n        /* \"#utility.yul\":4907:4914   */\n      0x00\n        /* \"#utility.yul\":4930:4950   */\n      tag_130\n        /* \"#utility.yul\":4948:4949   */\n      dup3\n        /* \"#utility.yul\":4930:4950   */\n      tag_61\n      jump\t// in\n    tag_130:\n        /* \"#utility.yul\":4925:4950   */\n      swap2\n      pop\n        /* \"#utility.yul\":4964:4984   */\n      tag_131\n        /* \"#utility.yul\":4982:4983   */\n      dup4\n        /* \"#utility.yul\":4964:4984   */\n      tag_61\n      jump\t// in\n    tag_131:\n        /* \"#utility.yul\":4959:4984   */\n      swap3\n      pop\n        /* \"#utility.yul\":5019:5020   */\n      dup3\n        /* \"#utility.yul\":5016:5017   */\n      dup3\n        /* \"#utility.yul\":5012:5021   */\n      mul\n        /* \"#utility.yul\":5041:5071   */\n      tag_132\n        /* \"#utility.yul\":5059:5070   */\n      dup2\n        /* \"#utility.yul\":5041:5071   */\n      tag_61\n      jump\t// in\n    tag_132:\n        /* \"#utility.yul\":5030:5071   */\n      swap2\n      pop\n        /* \"#utility.yul\":5220:5221   */\n      dup3\n        /* \"#utility.yul\":5211:5218   */\n      dup3\n        /* \"#utility.yul\":5207:5222   */\n      div\n        /* \"#utility.yul\":5204:5205   */\n      dup5\n        /* \"#utility.yul\":5201:5223   */\n      eq\n        /* \"#utility.yul\":5181:5182   */\n      dup4\n        /* \"#utility.yul\":5174:5183   */\n      iszero\n        /* \"#utility.yul\":5154:5237   */\n      or\n        /* \"#utility.yul\":5131:5270   */\n      tag_133\n      jumpi\n        /* \"#utility.yul\":5250:5268   */\n      tag_134\n      tag_75\n      jump\t// in\n    tag_134:\n        /* \"#utility.yul\":5131:5270   */\n    tag_133:\n        /* \"#utility.yul\":4915:5277   */\n      pop\n        /* \"#utility.yul\":4867:5277   */\n      swap3\n      swap2\n      pop\n      pop\n      jump\t// out\n\n    auxdata: 0xa26469706673582212202e1baea4ba8dd515e0a39e7a2f0aca97657113c802eb7cb2bc9cc8ff2ed0cc7464736f6c634300081e0033\n}\n",
				"bytecode": {
					"linkReferences": {},
					"object": "6080604052348015600e575f5ffd5b506105d28061001c5f395ff3fe608060405234801561000f575f5ffd5b506004361061007b575f3560e01c806370119d061161005957806370119d06146100c5578063b3bcfa82146100e1578063bedb86fb146100eb578063c2985578146101075761007b565b806306661abd1461007f578063371303c01461009d5780635c975abb146100a7575b5f5ffd5b610087610111565b6040516100949190610321565b60405180910390f35b6100a5610117565b005b6100af61017e565b6040516100bc9190610354565b60405180910390f35b6100df60048036038101906100da919061039b565b61018f565b005b6100e961023c565b005b610105600480360381019061010091906103f0565b6102a3565b005b61010f6102be565b005b60015481565b5f5f9054906101000a900460ff16610164576040517f08c379a000000000000000000000000000000000000000000000000000000000815260040161015b90610475565b60405180910390fd5b6001805f82825461017591906104c0565b92505081905550565b5f5f9054906101000a900460ff1681565b5f5f9054906101000a900460ff166101dc576040517f08c379a00000000000000000000000000000000000000000000000000000000081526004016101d390610475565b60405180910390fd5b8060648110610220576040517f08c379a00000000000000000000000000000000000000000000000000000000081526004016102179061053d565b60405180910390fd5b8160015f82825461023191906104c0565b925050819055505050565b5f5f9054906101000a900460ff16610289576040517f08c379a000000000000000000000000000000000000000000000000000000000815260040161028090610475565b60405180910390fd5b6001805f82825461029a91906104c0565b92505081905550565b805f5f6101000a81548160ff02191690831515021790555050565b6001805f8282546102cf91906104c0565b925050819055506001805f8282546102e791906104c0565b92505081905550600260015f828254610300919061055b565b92505081905550565b5f819050919050565b61031b81610309565b82525050565b5f6020820190506103345f830184610312565b92915050565b5f8115159050919050565b61034e8161033a565b82525050565b5f6020820190506103675f830184610345565b92915050565b5f5ffd5b61037a81610309565b8114610384575f5ffd5b50565b5f8135905061039581610371565b92915050565b5f602082840312156103b0576103af61036d565b5b5f6103bd84828501610387565b91505092915050565b6103cf8161033a565b81146103d9575f5ffd5b50565b5f813590506103ea816103c6565b92915050565b5f602082840312156104055761040461036d565b5b5f610412848285016103dc565b91505092915050565b5f82825260208201905092915050565b7f70756173656400000000000000000000000000000000000000000000000000005f82015250565b5f61045f60068361041b565b915061046a8261042b565b602082019050919050565b5f6020820190508181035f83015261048c81610453565b9050919050565b7f4e487b71000000000000000000000000000000000000000000000000000000005f52601160045260245ffd5b5f6104ca82610309565b91506104d583610309565b92508282019050808211156104ed576104ec610493565b5b92915050565b7f783e3130300000000000000000000000000000000000000000000000000000005f82015250565b5f61052760058361041b565b9150610532826104f3565b602082019050919050565b5f6020820190508181035f8301526105548161051b565b9050919050565b5f61056582610309565b915061057083610309565b925082820261057e81610309565b9150828204841483151761059557610594610493565b5b509291505056fea26469706673582212202e1baea4ba8dd515e0a39e7a2f0aca97657113c802eb7cb2bc9cc8ff2ed0cc7464736f6c634300081e0033",
					"opcodes": "PUSH1 0x80 PUSH1 0x40 MSTORE CALLVALUE DUP1 ISZERO PUSH1 0xE JUMPI PUSH0 PUSH0 REVERT JUMPDEST POP PUSH2 0x5D2 DUP1 PUSH2 0x1C PUSH0 CODECOPY PUSH0 RETURN INVALID PUSH1 0x80 PUSH1 0x40 MSTORE CALLVALUE DUP1 ISZERO PUSH2 0xF JUMPI PUSH0 PUSH0 REVERT JUMPDEST POP PUSH1 0x4 CALLDATASIZE LT PUSH2 0x7B JUMPI PUSH0 CALLDATALOAD PUSH1 0xE0 SHR DUP1 PUSH4 0x70119D06 GT PUSH2 0x59 JUMPI DUP1 PUSH4 0x70119D06 EQ PUSH2 0xC5 JUMPI DUP1 PUSH4 0xB3BCFA82 EQ PUSH2 0xE1 JUMPI DUP1 PUSH4 0xBEDB86FB EQ PUSH2 0xEB JUMPI DUP1 PUSH4 0xC2985578 EQ PUSH2 0x107 JUMPI PUSH2 0x7B JUMP JUMPDEST DUP1 PUSH4 0x6661ABD EQ PUSH2 0x7F JUMPI DUP1 PUSH4 0x371303C0 EQ PUSH2 0x9D JUMPI DUP1 PUSH4 0x5C975ABB EQ PUSH2 0xA7 JUMPI JUMPDEST PUSH0 PUSH0 REVERT JUMPDEST PUSH2 0x87 PUSH2 0x111 JUMP JUMPDEST PUSH1 0x40 MLOAD PUSH2 0x94 SWAP2 SWAP1 PUSH2 0x321 JUMP JUMPDEST PUSH1 0x40 MLOAD DUP1 SWAP2 SUB SWAP1 RETURN JUMPDEST PUSH2 0xA5 PUSH2 0x117 JUMP JUMPDEST STOP JUMPDEST PUSH2 0xAF PUSH2 0x17E JUMP JUMPDEST PUSH1 0x40 MLOAD PUSH2 0xBC SWAP2 SWAP1 PUSH2 0x354 JUMP JUMPDEST PUSH1 0x40 MLOAD DUP1 SWAP2 SUB SWAP1 RETURN JUMPDEST PUSH2 0xDF PUSH1 0x4 DUP1 CALLDATASIZE SUB DUP2 ADD SWAP1 PUSH2 0xDA SWAP2 SWAP1 PUSH2 0x39B JUMP JUMPDEST PUSH2 0x18F JUMP JUMPDEST STOP JUMPDEST PUSH2 0xE9 PUSH2 0x23C JUMP JUMPDEST STOP JUMPDEST PUSH2 0x105 PUSH1 0x4 DUP1 CALLDATASIZE SUB DUP2 ADD SWAP1 PUSH2 0x100 SWAP2 SWAP1 PUSH2 0x3F0 JUMP JUMPDEST PUSH2 0x2A3 JUMP JUMPDEST STOP JUMPDEST PUSH2 0x10F PUSH2 0x2BE JUMP JUMPDEST STOP JUMPDEST PUSH1 0x1 SLOAD DUP2 JUMP JUMPDEST PUSH0 PUSH0 SWAP1 SLOAD SWAP1 PUSH2 0x100 EXP SWAP1 DIV PUSH1 0xFF AND PUSH2 0x164 JUMPI PUSH1 0x40 MLOAD PUSH32 0x8C379A000000000000000000000000000000000000000000000000000000000 DUP2 MSTORE PUSH1 0x4 ADD PUSH2 0x15B SWAP1 PUSH2 0x475 JUMP JUMPDEST PUSH1 0x40 MLOAD DUP1 SWAP2 SUB SWAP1 REVERT JUMPDEST PUSH1 0x1 DUP1 PUSH0 DUP3 DUP3 SLOAD PUSH2 0x175 SWAP2 SWAP1 PUSH2 0x4C0 JUMP JUMPDEST SWAP3 POP POP DUP2 SWAP1 SSTORE POP JUMP JUMPDEST PUSH0 PUSH0 SWAP1 SLOAD SWAP1 PUSH2 0x100 EXP SWAP1 DIV PUSH1 0xFF AND DUP2 JUMP JUMPDEST PUSH0 PUSH0 SWAP1 SLOAD SWAP1 PUSH2 0x100 EXP SWAP1 DIV PUSH1 0xFF AND PUSH2 0x1DC JUMPI PUSH1 0x40 MLOAD PUSH32 0x8C379A000000000000000000000000000000000000000000000000000000000 DUP2 MSTORE PUSH1 0x4 ADD PUSH2 0x1D3 SWAP1 PUSH2 0x475 JUMP JUMPDEST PUSH1 0x40 MLOAD DUP1 SWAP2 SUB SWAP1 REVERT JUMPDEST DUP1 PUSH1 0x64 DUP2 LT PUSH2 0x220 JUMPI PUSH1 0x40 MLOAD PUSH32 0x8C379A000000000000000000000000000000000000000000000000000000000 DUP2 MSTORE PUSH1 0x4 ADD PUSH2 0x217 SWAP1 PUSH2 0x53D JUMP JUMPDEST PUSH1 0x40 MLOAD DUP1 SWAP2 SUB SWAP1 REVERT JUMPDEST DUP2 PUSH1 0x1 PUSH0 DUP3 DUP3 SLOAD PUSH2 0x231 SWAP2 SWAP1 PUSH2 0x4C0 JUMP JUMPDEST SWAP3 POP POP DUP2 SWAP1 SSTORE POP POP POP JUMP JUMPDEST PUSH0 PUSH0 SWAP1 SLOAD SWAP1 PUSH2 0x100 EXP SWAP1 DIV PUSH1 0xFF AND PUSH2 0x289 JUMPI PUSH1 0x40 MLOAD PUSH32 0x8C379A000000000000000000000000000000000000000000000000000000000 DUP2 MSTORE PUSH1 0x4 ADD PUSH2 0x280 SWAP1 PUSH2 0x475 JUMP JUMPDEST PUSH1 0x40 MLOAD DUP1 SWAP2 SUB SWAP1 REVERT JUMPDEST PUSH1 0x1 DUP1 PUSH0 DUP3 DUP3 SLOAD PUSH2 0x29A SWAP2 SWAP1 PUSH2 0x4C0 JUMP JUMPDEST SWAP3 POP POP DUP2 SWAP1 SSTORE POP JUMP JUMPDEST DUP1 PUSH0 PUSH0 PUSH2 0x100 EXP DUP2 SLOAD DUP2 PUSH1 0xFF MUL NOT AND SWAP1 DUP4 ISZERO ISZERO MUL OR SWAP1 SSTORE POP POP JUMP JUMPDEST PUSH1 0x1 DUP1 PUSH0 DUP3 DUP3 SLOAD PUSH2 0x2CF SWAP2 SWAP1 PUSH2 0x4C0 JUMP JUMPDEST SWAP3 POP POP DUP2 SWAP1 SSTORE POP PUSH1 0x1 DUP1 PUSH0 DUP3 DUP3 SLOAD PUSH2 0x2E7 SWAP2 SWAP1 PUSH2 0x4C0 JUMP JUMPDEST SWAP3 POP POP DUP2 SWAP1 SSTORE POP PUSH1 0x2 PUSH1 0x1 PUSH0 DUP3 DUP3 SLOAD PUSH2 0x300 SWAP2 SWAP1 PUSH2 0x55B JUMP JUMPDEST SWAP3 POP POP DUP2 SWAP1 SSTORE POP JUMP JUMPDEST PUSH0 DUP2 SWAP1 POP SWAP2 SWAP1 POP JUMP JUMPDEST PUSH2 0x31B DUP2 PUSH2 0x309 JUMP JUMPDEST DUP3 MSTORE POP POP JUMP JUMPDEST PUSH0 PUSH1 0x20 DUP3 ADD SWAP1 POP PUSH2 0x334 PUSH0 DUP4 ADD DUP5 PUSH2 0x312 JUMP JUMPDEST SWAP3 SWAP2 POP POP JUMP JUMPDEST PUSH0 DUP2 ISZERO ISZERO SWAP1 POP SWAP2 SWAP1 POP JUMP JUMPDEST PUSH2 0x34E DUP2 PUSH2 0x33A JUMP JUMPDEST DUP3 MSTORE POP POP JUMP JUMPDEST PUSH0 PUSH1 0x20 DUP3 ADD SWAP1 POP PUSH2 0x367 PUSH0 DUP4 ADD DUP5 PUSH2 0x345 JUMP JUMPDEST SWAP3 SWAP2 POP POP JUMP JUMPDEST PUSH0 PUSH0 REVERT JUMPDEST PUSH2 0x37A DUP2 PUSH2 0x309 JUMP JUMPDEST DUP2 EQ PUSH2 0x384 JUMPI PUSH0 PUSH0 REVERT JUMPDEST POP JUMP JUMPDEST PUSH0 DUP2 CALLDATALOAD SWAP1 POP PUSH2 0x395 DUP2 PUSH2 0x371 JUMP JUMPDEST SWAP3 SWAP2 POP POP JUMP JUMPDEST PUSH0 PUSH1 0x20 DUP3 DUP5 SUB SLT ISZERO PUSH2 0x3B0 JUMPI PUSH2 0x3AF PUSH2 0x36D JUMP JUMPDEST JUMPDEST PUSH0 PUSH2 0x3BD DUP5 DUP3 DUP6 ADD PUSH2 0x387 JUMP JUMPDEST SWAP2 POP POP SWAP3 SWAP2 POP POP JUMP JUMPDEST PUSH2 0x3CF DUP2 PUSH2 0x33A JUMP JUMPDEST DUP2 EQ PUSH2 0x3D9 JUMPI PUSH0 PUSH0 REVERT JUMPDEST POP JUMP JUMPDEST PUSH0 DUP2 CALLDATALOAD SWAP1 POP PUSH2 0x3EA DUP2 PUSH2 0x3C6 JUMP JUMPDEST SWAP3 SWAP2 POP POP JUMP JUMPDEST PUSH0 PUSH1 0x20 DUP3 DUP5 SUB SLT ISZERO PUSH2 0x405 JUMPI PUSH2 0x404 PUSH2 0x36D JUMP JUMPDEST JUMPDEST PUSH0 PUSH2 0x412 DUP5 DUP3 DUP6 ADD PUSH2 0x3DC JUMP JUMPDEST SWAP2 POP POP SWAP3 SWAP2 POP POP JUMP JUMPDEST PUSH0 DUP3 DUP3 MSTORE PUSH1 0x20 DUP3 ADD SWAP1 POP SWAP3 SWAP2 POP POP JUMP JUMPDEST PUSH32 0x7075617365640000000000000000000000000000000000000000000000000000 PUSH0 DUP3 ADD MSTORE POP JUMP JUMPDEST PUSH0 PUSH2 0x45F PUSH1 0x6 DUP4 PUSH2 0x41B JUMP JUMPDEST SWAP2 POP PUSH2 0x46A DUP3 PUSH2 0x42B JUMP JUMPDEST PUSH1 0x20 DUP3 ADD SWAP1 POP SWAP2 SWAP1 POP JUMP JUMPDEST PUSH0 PUSH1 0x20 DUP3 ADD SWAP1 POP DUP2 DUP2 SUB PUSH0 DUP4 ADD MSTORE PUSH2 0x48C DUP2 PUSH2 0x453 JUMP JUMPDEST SWAP1 POP SWAP2 SWAP1 POP JUMP JUMPDEST PUSH32 0x4E487B7100000000000000000000000000000000000000000000000000000000 PUSH0 MSTORE PUSH1 0x11 PUSH1 0x4 MSTORE PUSH1 0x24 PUSH0 REVERT JUMPDEST PUSH0 PUSH2 0x4CA DUP3 PUSH2 0x309 JUMP JUMPDEST SWAP2 POP PUSH2 0x4D5 DUP4 PUSH2 0x309 JUMP JUMPDEST SWAP3 POP DUP3 DUP3 ADD SWAP1 POP DUP1 DUP3 GT ISZERO PUSH2 0x4ED JUMPI PUSH2 0x4EC PUSH2 0x493 JUMP JUMPDEST JUMPDEST SWAP3 SWAP2 POP POP JUMP JUMPDEST PUSH32 0x783E313030000000000000000000000000000000000000000000000000000000 PUSH0 DUP3 ADD MSTORE POP JUMP JUMPDEST PUSH0 PUSH2 0x527 PUSH1 0x5 DUP4 PUSH2 0x41B JUMP JUMPDEST SWAP2 POP PUSH2 0x532 DUP3 PUSH2 0x4F3 JUMP JUMPDEST PUSH1 0x20 DUP3 ADD SWAP1 POP SWAP2 SWAP1 POP JUMP JUMPDEST PUSH0 PUSH1 0x20 DUP3 ADD SWAP1 POP DUP2 DUP2 SUB PUSH0 DUP4 ADD MSTORE PUSH2 0x554 DUP2 PUSH2 0x51B JUMP JUMPDEST SWAP1 POP SWAP2 SWAP1 POP JUMP JUMPDEST PUSH0 PUSH2 0x565 DUP3 PUSH2 0x309 JUMP JUMPDEST SWAP2 POP PUSH2 0x570 DUP4 PUSH2 0x309 JUMP JUMPDEST SWAP3 POP DUP3 DUP3 MUL PUSH2 0x57E DUP2 PUSH2 0x309 JUMP JUMPDEST SWAP2 POP DUP3 DUP3 DIV DUP5 EQ DUP4 ISZERO OR PUSH2 0x595 JUMPI PUSH2 0x594 PUSH2 0x493 JUMP JUMPDEST JUMPDEST POP SWAP3 SWAP2 POP POP JUMP INVALID LOG2 PUSH5 0x6970667358 0x22 SLT KECCAK256 0x2E SHL 0xAE LOG4 0xBA DUP14 0xD5 ISZERO RJUMP 0xA39E PUSH27 0x2F0ACA97657113C802EB7CB2BC9CC8FF2ED0CC7464736F6C634300 ADDMOD 0x1E STOP CALLER "
				},
				"gasEstimates": {
					"creation": {
						"codeDepositCost": "298000",
						"executionCost": "335",
						"totalCost": "298335"
					},
					"external": {
						"count()": "2426",
						"dec()": "infinite",
						"foo()": "infinite",
						"inc()": "infinite",
						"incBy(uint256)": "infinite",
						"paused()": "2510",
						"setPause(bool)": "24716"
					}
				},
				"methodIdentifiers": {
					"count()": "06661abd",
					"dec()": "b3bcfa82",
					"foo()": "c2985578",
					"inc()": "371303c0",
					"incBy(uint256)": "70119d06",
					"paused()": "5c975abb",
					"setPause(bool)": "bedb86fb"
				}
			},
			"storageLayout": {
				"storage": [
					{
						"astId": 3,
						"contract": "装饰器.sol:functionModifier",
						"label": "paused",
						"offset": 0,
						"slot": "0",
						"type": "t_bool"
					},
					{
						"astId": 5,
						"contract": "装饰器.sol:functionModifier",
						"label": "count",
						"offset": 0,
						"slot": "1",
						"type": "t_uint256"
					}
				],
				"types": {
					"t_bool": {
						"encoding": "inplace",
						"label": "bool",
						"numberOfBytes": "1"
					},
					"t_uint256": {
						"encoding": "inplace",
						"label": "uint256",
						"numberOfBytes": "32"
					}
				}
			},
			"userdoc": {
				"kind": "user",
				"methods": {},
				"version": 1
			}
		}
	}
}