{
	"ErrorCatch.sol": {
		"Error": {
			"abi": [
				{
					"inputs": [
						{
							"internalType": "address",
							"name": "caller",
							"type": "address"
						},
						{
							"internalType": "uint256",
							"name": "i",
							"type": "uint256"
						}
					],
					"name": "myError",
					"type": "error"
				},
				{
					"inputs": [],
					"name": "foo",
					"outputs": [],
					"stateMutability": "nonpayable",
					"type": "function"
				},
				{
					"inputs": [],
					"name": "num",
					"outputs": [
						{
							"internalType": "uint256",
							"name": "",
							"type": "uint256"
						}
					],
					"stateMutability": "view",
					"type": "function"
				},
				{
					"inputs": [],
					"name": "testAssert",
					"outputs": [],
					"stateMutability": "view",
					"type": "function"
				},
				{
					"inputs": [
						{
							"internalType": "uint256",
							"name": "_i",
							"type": "uint256"
						}
					],
					"name": "testCustomError",
					"outputs": [],
					"stateMutability": "pure",
					"type": "function"
				},
				{
					"inputs": [
						{
							"internalType": "uint256",
							"name": "_i",
							"type": "uint256"
						}
					],
					"name": "testCustomError1",
					"outputs": [],
					"stateMutability": "view",
					"type": "function"
				},
				{
					"inputs": [
						{
							"internalType": "uint256",
							"name": "_i",
							"type": "uint256"
						}
					],
					"name": "testRequire",
					"outputs": [],
					"stateMutability": "pure",
					"type": "function"
				},
				{
					"inputs": [
						{
							"internalType": "uint256",
							"name": "_i",
							"type": "uint256"
						}
					],
					"name": "testRevert",
					"outputs": [],
					"stateMutability": "pure",
					"type": "function"
				}
			],
			"devdoc": {
				"kind": "dev",
				"methods": {},
				"version": 1
			},
			"evm": {
				"assembly": "    /* \"ErrorCatch.sol\":57:1442  contract Error {... */\n  mstore(0x40, 0x80)\n    /* \"ErrorCatch.sol\":594:597  123 */\n  0x7b\n    /* \"ErrorCatch.sol\":573:597  uint256 public num = 123 */\n  0x00\n  sstore\n    /* \"ErrorCatch.sol\":57:1442  contract Error {... */\n  callvalue\n  dup1\n  iszero\n  tag_1\n  jumpi\n  revert(0x00, 0x00)\ntag_1:\n  pop\n  dataSize(sub_0)\n  dup1\n  dataOffset(sub_0)\n  0x00\n  codecopy\n  0x00\n  return\nstop\n\nsub_0: assembly {\n        /* \"ErrorCatch.sol\":57:1442  contract Error {... */\n      mstore(0x40, 0x80)\n      callvalue\n      dup1\n      iszero\n      tag_1\n      jumpi\n      revert(0x00, 0x00)\n    tag_1:\n      pop\n      jumpi(tag_2, lt(calldatasize, 0x04))\n      shr(0xe0, calldataload(0x00))\n      dup1\n      0x75f7286c\n      gt\n      tag_10\n      jumpi\n      dup1\n      0x75f7286c\n      eq\n      tag_6\n      jumpi\n      dup1\n      0xb8bd717f\n      eq\n      tag_7\n      jumpi\n      dup1\n      0xc271477f\n      eq\n      tag_8\n      jumpi\n      dup1\n      0xc2985578\n      eq\n      tag_9\n      jumpi\n      jump(tag_2)\n    tag_10:\n      dup1\n      0x20987767\n      eq\n      tag_3\n      jumpi\n      dup1\n      0x2b813bc0\n      eq\n      tag_4\n      jumpi\n      dup1\n      0x4e70b1dc\n      eq\n      tag_5\n      jumpi\n    tag_2:\n      revert(0x00, 0x00)\n        /* \"ErrorCatch.sol\":188:514  function testRevert(uint256 _i) external pure {... */\n    tag_3:\n      tag_11\n      0x04\n      dup1\n      calldatasize\n      sub\n      dup2\n      add\n      swap1\n      tag_12\n      swap2\n      swap1\n      tag_13\n      jump\t// in\n    tag_12:\n      tag_14\n      jump\t// in\n    tag_11:\n      stop\n        /* \"ErrorCatch.sol\":604:880  function testAssert() external view {... */\n    tag_4:\n      tag_15\n      tag_16\n      jump\t// in\n    tag_15:\n      stop\n        /* \"ErrorCatch.sol\":573:597  uint256 public num = 123 */\n    tag_5:\n      tag_17\n      tag_18\n      jump\t// in\n    tag_17:\n      mload(0x40)\n      tag_19\n      swap2\n      swap1\n      tag_20\n      jump\t// in\n    tag_19:\n      mload(0x40)\n      dup1\n      swap2\n      sub\n      swap1\n      return\n        /* \"ErrorCatch.sol\":1002:1184  function testCustomError(uint256 _i) public pure {... */\n    tag_6:\n      tag_21\n      0x04\n      dup1\n      calldatasize\n      sub\n      dup2\n      add\n      swap1\n      tag_22\n      swap2\n      swap1\n      tag_13\n      jump\t// in\n    tag_22:\n      tag_23\n      jump\t// in\n    tag_21:\n      stop\n        /* \"ErrorCatch.sol\":78:182  function testRequire(uint256 _i) external pure {... */\n    tag_7:\n      tag_24\n      0x04\n      dup1\n      calldatasize\n      sub\n      dup2\n      add\n      swap1\n      tag_25\n      swap2\n      swap1\n      tag_13\n      jump\t// in\n    tag_25:\n      tag_26\n      jump\t// in\n    tag_24:\n      stop\n        /* \"ErrorCatch.sol\":1255:1440  function testCustomError1(uint256 _i) public view {... */\n    tag_8:\n      tag_27\n      0x04\n      dup1\n      calldatasize\n      sub\n      dup2\n      add\n      swap1\n      tag_28\n      swap2\n      swap1\n      tag_13\n      jump\t// in\n    tag_28:\n      tag_29\n      jump\t// in\n    tag_27:\n      stop\n        /* \"ErrorCatch.sol\":915:962  function foo() public {... */\n    tag_9:\n      tag_30\n      tag_31\n      jump\t// in\n    tag_30:\n      stop\n        /* \"ErrorCatch.sol\":188:514  function testRevert(uint256 _i) external pure {... */\n    tag_14:\n        /* \"ErrorCatch.sol\":308:310  10 */\n      0x0a\n        /* \"ErrorCatch.sol\":303:305  _i */\n      dup2\n        /* \"ErrorCatch.sol\":303:310  _i < 10 */\n      lt\n        /* \"ErrorCatch.sol\":299:351  if (_i < 10) {... */\n      iszero\n      tag_33\n      jumpi\n        /* \"ErrorCatch.sol\":326:340  revert(\"i>10\") */\n      mload(0x40)\n      0x08c379a000000000000000000000000000000000000000000000000000000000\n      dup2\n      mstore\n      0x04\n      add\n      tag_34\n      swap1\n      tag_35\n      jump\t// in\n    tag_34:\n      mload(0x40)\n      dup1\n      swap2\n      sub\n      swap1\n      revert\n        /* \"ErrorCatch.sol\":299:351  if (_i < 10) {... */\n    tag_33:\n        /* \"ErrorCatch.sol\":370:372  10 */\n      0x0a\n        /* \"ErrorCatch.sol\":365:367  _i */\n      dup2\n        /* \"ErrorCatch.sol\":365:372  _i < 10 */\n      lt\n        /* \"ErrorCatch.sol\":361:508  if (_i < 10) {... */\n      iszero\n      tag_36\n      jumpi\n        /* \"ErrorCatch.sol\":397:398  3 */\n      0x03\n        /* \"ErrorCatch.sol\":392:394  _i */\n      dup2\n        /* \"ErrorCatch.sol\":392:398  _i < 3 */\n      lt\n        /* \"ErrorCatch.sol\":388:498  if (_i < 3) {... */\n      iszero\n      tag_37\n      jumpi\n        /* \"ErrorCatch.sol\":427:428  1 */\n      0x01\n        /* \"ErrorCatch.sol\":422:424  _i */\n      dup2\n        /* \"ErrorCatch.sol\":422:428  _i < 1 */\n      lt\n        /* \"ErrorCatch.sol\":418:484  if (_i < 1) {... */\n      iszero\n      tag_38\n      jumpi\n        /* \"ErrorCatch.sol\":452:465  revert(\"i<1\") */\n      mload(0x40)\n      0x08c379a000000000000000000000000000000000000000000000000000000000\n      dup2\n      mstore\n      0x04\n      add\n      tag_39\n      swap1\n      tag_40\n      jump\t// in\n    tag_39:\n      mload(0x40)\n      dup1\n      swap2\n      sub\n      swap1\n      revert\n        /* \"ErrorCatch.sol\":418:484  if (_i < 1) {... */\n    tag_38:\n        /* \"ErrorCatch.sol\":388:498  if (_i < 3) {... */\n    tag_37:\n        /* \"ErrorCatch.sol\":361:508  if (_i < 10) {... */\n    tag_36:\n        /* \"ErrorCatch.sol\":188:514  function testRevert(uint256 _i) external pure {... */\n      pop\n      jump\t// out\n        /* \"ErrorCatch.sol\":604:880  function testAssert() external view {... */\n    tag_16:\n        /* \"ErrorCatch.sol\":780:783  123 */\n      0x7b\n        /* \"ErrorCatch.sol\":773:776  num */\n      sload(0x00)\n        /* \"ErrorCatch.sol\":773:783  num == 123 */\n      eq\n        /* \"ErrorCatch.sol\":766:784  assert(num == 123) */\n      tag_42\n      jumpi\n      tag_43\n      tag_44\n      jump\t// in\n    tag_43:\n    tag_42:\n        /* \"ErrorCatch.sol\":604:880  function testAssert() external view {... */\n      jump\t// out\n        /* \"ErrorCatch.sol\":573:597  uint256 public num = 123 */\n    tag_18:\n      sload(0x00)\n      dup2\n      jump\t// out\n        /* \"ErrorCatch.sol\":1002:1184  function testCustomError(uint256 _i) public pure {... */\n    tag_23:\n        /* \"ErrorCatch.sol\":1121:1123  10 */\n      0x0a\n        /* \"ErrorCatch.sol\":1116:1118  _i */\n      dup2\n        /* \"ErrorCatch.sol\":1116:1123  _i < 10 */\n      lt\n        /* \"ErrorCatch.sol\":1108:1162  require(_i < 10, \"very long error msg long long long\") */\n      tag_46\n      jumpi\n      mload(0x40)\n      0x08c379a000000000000000000000000000000000000000000000000000000000\n      dup2\n      mstore\n      0x04\n      add\n      tag_47\n      swap1\n      tag_48\n      jump\t// in\n    tag_47:\n      mload(0x40)\n      dup1\n      swap2\n      sub\n      swap1\n      revert\n    tag_46:\n        /* \"ErrorCatch.sol\":1002:1184  function testCustomError(uint256 _i) public pure {... */\n      pop\n      jump\t// out\n        /* \"ErrorCatch.sol\":78:182  function testRequire(uint256 _i) external pure {... */\n    tag_26:\n        /* \"ErrorCatch.sol\":149:151  10 */\n      0x0a\n        /* \"ErrorCatch.sol\":143:145  _i */\n      dup2\n        /* \"ErrorCatch.sol\":143:151  _i <= 10 */\n      gt\n      iszero\n        /* \"ErrorCatch.sol\":135:160  require(_i <= 10, \"i>10\") */\n      tag_50\n      jumpi\n      mload(0x40)\n      0x08c379a000000000000000000000000000000000000000000000000000000000\n      dup2\n      mstore\n      0x04\n      add\n      tag_51\n      swap1\n      tag_35\n      jump\t// in\n    tag_51:\n      mload(0x40)\n      dup1\n      swap2\n      sub\n      swap1\n      revert\n    tag_50:\n        /* \"ErrorCatch.sol\":78:182  function testRequire(uint256 _i) external pure {... */\n      pop\n      jump\t// out\n        /* \"ErrorCatch.sol\":1255:1440  function testCustomError1(uint256 _i) public view {... */\n    tag_29:\n        /* \"ErrorCatch.sol\":1367:1369  10 */\n      0x0a\n        /* \"ErrorCatch.sol\":1364:1366  _i */\n      dup2\n        /* \"ErrorCatch.sol\":1364:1369  _i<10 */\n      lt\n        /* \"ErrorCatch.sol\":1361:1419  if(_i<10){... */\n      iszero\n      tag_53\n      jumpi\n        /* \"ErrorCatch.sol\":1395:1405  msg.sender */\n      caller\n        /* \"ErrorCatch.sol\":1406:1408  _i */\n      dup2\n        /* \"ErrorCatch.sol\":1387:1409  myError(msg.sender,_i) */\n      mload(0x40)\n      0xa6e8950f00000000000000000000000000000000000000000000000000000000\n      dup2\n      mstore\n      0x04\n      add\n      tag_54\n      swap3\n      swap2\n      swap1\n      tag_55\n      jump\t// in\n    tag_54:\n      mload(0x40)\n      dup1\n      swap2\n      sub\n      swap1\n      revert\n        /* \"ErrorCatch.sol\":1361:1419  if(_i<10){... */\n    tag_53:\n        /* \"ErrorCatch.sol\":1255:1440  function testCustomError1(uint256 _i) public view {... */\n      pop\n      jump\t// out\n        /* \"ErrorCatch.sol\":915:962  function foo() public {... */\n    tag_31:\n        /* \"ErrorCatch.sol\":954:955  1 */\n      0x01\n        /* \"ErrorCatch.sol\":947:950  num */\n      0x00\n      0x00\n        /* \"ErrorCatch.sol\":947:955  num += 1 */\n      dup3\n      dup3\n      sload\n      tag_57\n      swap2\n      swap1\n      tag_58\n      jump\t// in\n    tag_57:\n      swap3\n      pop\n      pop\n      dup2\n      swap1\n      sstore\n      pop\n        /* \"ErrorCatch.sol\":915:962  function foo() public {... */\n      jump\t// out\n        /* \"#utility.yul\":88:205   */\n    tag_60:\n        /* \"#utility.yul\":197:198   */\n      0x00\n        /* \"#utility.yul\":194:195   */\n      0x00\n        /* \"#utility.yul\":187:199   */\n      revert\n        /* \"#utility.yul\":334:411   */\n    tag_62:\n        /* \"#utility.yul\":371:378   */\n      0x00\n        /* \"#utility.yul\":400:405   */\n      dup2\n        /* \"#utility.yul\":389:405   */\n      swap1\n      pop\n        /* \"#utility.yul\":334:411   */\n      swap2\n      swap1\n      pop\n      jump\t// out\n        /* \"#utility.yul\":417:539   */\n    tag_63:\n        /* \"#utility.yul\":490:514   */\n      tag_83\n        /* \"#utility.yul\":508:513   */\n      dup2\n        /* \"#utility.yul\":490:514   */\n      tag_62\n      jump\t// in\n    tag_83:\n        /* \"#utility.yul\":483:488   */\n      dup2\n        /* \"#utility.yul\":480:515   */\n      eq\n        /* \"#utility.yul\":470:533   */\n      tag_84\n      jumpi\n        /* \"#utility.yul\":529:530   */\n      0x00\n        /* \"#utility.yul\":526:527   */\n      0x00\n        /* \"#utility.yul\":519:531   */\n      revert\n        /* \"#utility.yul\":470:533   */\n    tag_84:\n        /* \"#utility.yul\":417:539   */\n      pop\n      jump\t// out\n        /* \"#utility.yul\":545:684   */\n    tag_64:\n        /* \"#utility.yul\":591:596   */\n      0x00\n        /* \"#utility.yul\":629:635   */\n      dup2\n        /* \"#utility.yul\":616:636   */\n      calldataload\n        /* \"#utility.yul\":607:636   */\n      swap1\n      pop\n        /* \"#utility.yul\":645:678   */\n      tag_86\n        /* \"#utility.yul\":672:677   */\n      dup2\n        /* \"#utility.yul\":645:678   */\n      tag_63\n      jump\t// in\n    tag_86:\n        /* \"#utility.yul\":545:684   */\n      swap3\n      swap2\n      pop\n      pop\n      jump\t// out\n        /* \"#utility.yul\":690:1019   */\n    tag_13:\n        /* \"#utility.yul\":749:755   */\n      0x00\n        /* \"#utility.yul\":798:800   */\n      0x20\n        /* \"#utility.yul\":786:795   */\n      dup3\n        /* \"#utility.yul\":777:784   */\n      dup5\n        /* \"#utility.yul\":773:796   */\n      sub\n        /* \"#utility.yul\":769:801   */\n      slt\n        /* \"#utility.yul\":766:885   */\n      iszero\n      tag_88\n      jumpi\n        /* \"#utility.yul\":804:883   */\n      tag_89\n      tag_60\n      jump\t// in\n    tag_89:\n        /* \"#utility.yul\":766:885   */\n    tag_88:\n        /* \"#utility.yul\":924:925   */\n      0x00\n        /* \"#utility.yul\":949:1002   */\n      tag_90\n        /* \"#utility.yul\":994:1001   */\n      dup5\n        /* \"#utility.yul\":985:991   */\n      dup3\n        /* \"#utility.yul\":974:983   */\n      dup6\n        /* \"#utility.yul\":970:992   */\n      add\n        /* \"#utility.yul\":949:1002   */\n      tag_64\n      jump\t// in\n    tag_90:\n        /* \"#utility.yul\":939:1002   */\n      swap2\n      pop\n        /* \"#utility.yul\":895:1012   */\n      pop\n        /* \"#utility.yul\":690:1019   */\n      swap3\n      swap2\n      pop\n      pop\n      jump\t// out\n        /* \"#utility.yul\":1025:1143   */\n    tag_65:\n        /* \"#utility.yul\":1112:1136   */\n      tag_92\n        /* \"#utility.yul\":1130:1135   */\n      dup2\n        /* \"#utility.yul\":1112:1136   */\n      tag_62\n      jump\t// in\n    tag_92:\n        /* \"#utility.yul\":1107:1110   */\n      dup3\n        /* \"#utility.yul\":1100:1137   */\n      mstore\n        /* \"#utility.yul\":1025:1143   */\n      pop\n      pop\n      jump\t// out\n        /* \"#utility.yul\":1149:1371   */\n    tag_20:\n        /* \"#utility.yul\":1242:1246   */\n      0x00\n        /* \"#utility.yul\":1280:1282   */\n      0x20\n        /* \"#utility.yul\":1269:1278   */\n      dup3\n        /* \"#utility.yul\":1265:1283   */\n      add\n        /* \"#utility.yul\":1257:1283   */\n      swap1\n      pop\n        /* \"#utility.yul\":1293:1364   */\n      tag_94\n        /* \"#utility.yul\":1361:1362   */\n      0x00\n        /* \"#utility.yul\":1350:1359   */\n      dup4\n        /* \"#utility.yul\":1346:1363   */\n      add\n        /* \"#utility.yul\":1337:1343   */\n      dup5\n        /* \"#utility.yul\":1293:1364   */\n      tag_65\n      jump\t// in\n    tag_94:\n        /* \"#utility.yul\":1149:1371   */\n      swap3\n      swap2\n      pop\n      pop\n      jump\t// out\n        /* \"#utility.yul\":1377:1546   */\n    tag_66:\n        /* \"#utility.yul\":1461:1472   */\n      0x00\n        /* \"#utility.yul\":1495:1501   */\n      dup3\n        /* \"#utility.yul\":1490:1493   */\n      dup3\n        /* \"#utility.yul\":1483:1502   */\n      mstore\n        /* \"#utility.yul\":1535:1539   */\n      0x20\n        /* \"#utility.yul\":1530:1533   */\n      dup3\n        /* \"#utility.yul\":1526:1540   */\n      add\n        /* \"#utility.yul\":1511:1540   */\n      swap1\n      pop\n        /* \"#utility.yul\":1377:1546   */\n      swap3\n      swap2\n      pop\n      pop\n      jump\t// out\n        /* \"#utility.yul\":1552:1706   */\n    tag_67:\n        /* \"#utility.yul\":1692:1698   */\n      0x693e313000000000000000000000000000000000000000000000000000000000\n        /* \"#utility.yul\":1688:1689   */\n      0x00\n        /* \"#utility.yul\":1680:1686   */\n      dup3\n        /* \"#utility.yul\":1676:1690   */\n      add\n        /* \"#utility.yul\":1669:1699   */\n      mstore\n        /* \"#utility.yul\":1552:1706   */\n      pop\n      jump\t// out\n        /* \"#utility.yul\":1712:2077   */\n    tag_68:\n        /* \"#utility.yul\":1854:1857   */\n      0x00\n        /* \"#utility.yul\":1875:1941   */\n      tag_98\n        /* \"#utility.yul\":1939:1940   */\n      0x04\n        /* \"#utility.yul\":1934:1937   */\n      dup4\n        /* \"#utility.yul\":1875:1941   */\n      tag_66\n      jump\t// in\n    tag_98:\n        /* \"#utility.yul\":1868:1941   */\n      swap2\n      pop\n        /* \"#utility.yul\":1950:2043   */\n      tag_99\n        /* \"#utility.yul\":2039:2042   */\n      dup3\n        /* \"#utility.yul\":1950:2043   */\n      tag_67\n      jump\t// in\n    tag_99:\n        /* \"#utility.yul\":2068:2070   */\n      0x20\n        /* \"#utility.yul\":2063:2066   */\n      dup3\n        /* \"#utility.yul\":2059:2071   */\n      add\n        /* \"#utility.yul\":2052:2071   */\n      swap1\n      pop\n        /* \"#utility.yul\":1712:2077   */\n      swap2\n      swap1\n      pop\n      jump\t// out\n        /* \"#utility.yul\":2083:2502   */\n    tag_35:\n        /* \"#utility.yul\":2249:2253   */\n      0x00\n        /* \"#utility.yul\":2287:2289   */\n      0x20\n        /* \"#utility.yul\":2276:2285   */\n      dup3\n        /* \"#utility.yul\":2272:2290   */\n      add\n        /* \"#utility.yul\":2264:2290   */\n      swap1\n      pop\n        /* \"#utility.yul\":2336:2345   */\n      dup2\n        /* \"#utility.yul\":2330:2334   */\n      dup2\n        /* \"#utility.yul\":2326:2346   */\n      sub\n        /* \"#utility.yul\":2322:2323   */\n      0x00\n        /* \"#utility.yul\":2311:2320   */\n      dup4\n        /* \"#utility.yul\":2307:2324   */\n      add\n        /* \"#utility.yul\":2300:2347   */\n      mstore\n        /* \"#utility.yul\":2364:2495   */\n      tag_101\n        /* \"#utility.yul\":2490:2494   */\n      dup2\n        /* \"#utility.yul\":2364:2495   */\n      tag_68\n      jump\t// in\n    tag_101:\n        /* \"#utility.yul\":2356:2495   */\n      swap1\n      pop\n        /* \"#utility.yul\":2083:2502   */\n      swap2\n      swap1\n      pop\n      jump\t// out\n        /* \"#utility.yul\":2508:2661   */\n    tag_69:\n        /* \"#utility.yul\":2648:2653   */\n      0x693c310000000000000000000000000000000000000000000000000000000000\n        /* \"#utility.yul\":2644:2645   */\n      0x00\n        /* \"#utility.yul\":2636:2642   */\n      dup3\n        /* \"#utility.yul\":2632:2646   */\n      add\n        /* \"#utility.yul\":2625:2654   */\n      mstore\n        /* \"#utility.yul\":2508:2661   */\n      pop\n      jump\t// out\n        /* \"#utility.yul\":2667:3032   */\n    tag_70:\n        /* \"#utility.yul\":2809:2812   */\n      0x00\n        /* \"#utility.yul\":2830:2896   */\n      tag_104\n        /* \"#utility.yul\":2894:2895   */\n      0x03\n        /* \"#utility.yul\":2889:2892   */\n      dup4\n        /* \"#utility.yul\":2830:2896   */\n      tag_66\n      jump\t// in\n    tag_104:\n        /* \"#utility.yul\":2823:2896   */\n      swap2\n      pop\n        /* \"#utility.yul\":2905:2998   */\n      tag_105\n        /* \"#utility.yul\":2994:2997   */\n      dup3\n        /* \"#utility.yul\":2905:2998   */\n      tag_69\n      jump\t// in\n    tag_105:\n        /* \"#utility.yul\":3023:3025   */\n      0x20\n        /* \"#utility.yul\":3018:3021   */\n      dup3\n        /* \"#utility.yul\":3014:3026   */\n      add\n        /* \"#utility.yul\":3007:3026   */\n      swap1\n      pop\n        /* \"#utility.yul\":2667:3032   */\n      swap2\n      swap1\n      pop\n      jump\t// out\n        /* \"#utility.yul\":3038:3457   */\n    tag_40:\n        /* \"#utility.yul\":3204:3208   */\n      0x00\n        /* \"#utility.yul\":3242:3244   */\n      0x20\n        /* \"#utility.yul\":3231:3240   */\n      dup3\n        /* \"#utility.yul\":3227:3245   */\n      add\n        /* \"#utility.yul\":3219:3245   */\n      swap1\n      pop\n        /* \"#utility.yul\":3291:3300   */\n      dup2\n        /* \"#utility.yul\":3285:3289   */\n      dup2\n        /* \"#utility.yul\":3281:3301   */\n      sub\n        /* \"#utility.yul\":3277:3278   */\n      0x00\n        /* \"#utility.yul\":3266:3275   */\n      dup4\n        /* \"#utility.yul\":3262:3279   */\n      add\n        /* \"#utility.yul\":3255:3302   */\n      mstore\n        /* \"#utility.yul\":3319:3450   */\n      tag_107\n        /* \"#utility.yul\":3445:3449   */\n      dup2\n        /* \"#utility.yul\":3319:3450   */\n      tag_70\n      jump\t// in\n    tag_107:\n        /* \"#utility.yul\":3311:3450   */\n      swap1\n      pop\n        /* \"#utility.yul\":3038:3457   */\n      swap2\n      swap1\n      pop\n      jump\t// out\n        /* \"#utility.yul\":3463:3643   */\n    tag_44:\n        /* \"#utility.yul\":3511:3588   */\n      0x4e487b7100000000000000000000000000000000000000000000000000000000\n        /* \"#utility.yul\":3508:3509   */\n      0x00\n        /* \"#utility.yul\":3501:3589   */\n      mstore\n        /* \"#utility.yul\":3608:3612   */\n      0x01\n        /* \"#utility.yul\":3605:3606   */\n      0x04\n        /* \"#utility.yul\":3598:3613   */\n      mstore\n        /* \"#utility.yul\":3632:3636   */\n      0x24\n        /* \"#utility.yul\":3629:3630   */\n      0x00\n        /* \"#utility.yul\":3622:3637   */\n      revert\n        /* \"#utility.yul\":3649:3870   */\n    tag_71:\n        /* \"#utility.yul\":3789:3823   */\n      0x76657279206c6f6e67206572726f72206d7367206c6f6e67206c6f6e67206c6f\n        /* \"#utility.yul\":3785:3786   */\n      0x00\n        /* \"#utility.yul\":3777:3783   */\n      dup3\n        /* \"#utility.yul\":3773:3787   */\n      add\n        /* \"#utility.yul\":3766:3824   */\n      mstore\n        /* \"#utility.yul\":3858:3862   */\n      0x6e67000000000000000000000000000000000000000000000000000000000000\n        /* \"#utility.yul\":3853:3855   */\n      0x20\n        /* \"#utility.yul\":3845:3851   */\n      dup3\n        /* \"#utility.yul\":3841:3856   */\n      add\n        /* \"#utility.yul\":3834:3863   */\n      mstore\n        /* \"#utility.yul\":3649:3870   */\n      pop\n      jump\t// out\n        /* \"#utility.yul\":3876:4242   */\n    tag_72:\n        /* \"#utility.yul\":4018:4021   */\n      0x00\n        /* \"#utility.yul\":4039:4106   */\n      tag_111\n        /* \"#utility.yul\":4103:4105   */\n      0x22\n        /* \"#utility.yul\":4098:4101   */\n      dup4\n        /* \"#utility.yul\":4039:4106   */\n      tag_66\n      jump\t// in\n    tag_111:\n        /* \"#utility.yul\":4032:4106   */\n      swap2\n      pop\n        /* \"#utility.yul\":4115:4208   */\n      tag_112\n        /* \"#utility.yul\":4204:4207   */\n      dup3\n        /* \"#utility.yul\":4115:4208   */\n      tag_71\n      jump\t// in\n    tag_112:\n        /* \"#utility.yul\":4233:4235   */\n      0x40\n        /* \"#utility.yul\":4228:4231   */\n      dup3\n        /* \"#utility.yul\":4224:4236   */\n      add\n        /* \"#utility.yul\":4217:4236   */\n      swap1\n      pop\n        /* \"#utility.yul\":3876:4242   */\n      swap2\n      swap1\n      pop\n      jump\t// out\n        /* \"#utility.yul\":4248:4667   */\n    tag_48:\n        /* \"#utility.yul\":4414:4418   */\n      0x00\n        /* \"#utility.yul\":4452:4454   */\n      0x20\n        /* \"#utility.yul\":4441:4450   */\n      dup3\n        /* \"#utility.yul\":4437:4455   */\n      add\n        /* \"#utility.yul\":4429:4455   */\n      swap1\n      pop\n        /* \"#utility.yul\":4501:4510   */\n      dup2\n        /* \"#utility.yul\":4495:4499   */\n      dup2\n        /* \"#utility.yul\":4491:4511   */\n      sub\n        /* \"#utility.yul\":4487:4488   */\n      0x00\n        /* \"#utility.yul\":4476:4485   */\n      dup4\n        /* \"#utility.yul\":4472:4489   */\n      add\n        /* \"#utility.yul\":4465:4512   */\n      mstore\n        /* \"#utility.yul\":4529:4660   */\n      tag_114\n        /* \"#utility.yul\":4655:4659   */\n      dup2\n        /* \"#utility.yul\":4529:4660   */\n      tag_72\n      jump\t// in\n    tag_114:\n        /* \"#utility.yul\":4521:4660   */\n      swap1\n      pop\n        /* \"#utility.yul\":4248:4667   */\n      swap2\n      swap1\n      pop\n      jump\t// out\n        /* \"#utility.yul\":4673:4799   */\n    tag_73:\n        /* \"#utility.yul\":4710:4717   */\n      0x00\n        /* \"#utility.yul\":4750:4792   */\n      0xffffffffffffffffffffffffffffffffffffffff\n        /* \"#utility.yul\":4743:4748   */\n      dup3\n        /* \"#utility.yul\":4739:4793   */\n      and\n        /* \"#utility.yul\":4728:4793   */\n      swap1\n      pop\n        /* \"#utility.yul\":4673:4799   */\n      swap2\n      swap1\n      pop\n      jump\t// out\n        /* \"#utility.yul\":4805:4901   */\n    tag_74:\n        /* \"#utility.yul\":4842:4849   */\n      0x00\n        /* \"#utility.yul\":4871:4895   */\n      tag_117\n        /* \"#utility.yul\":4889:4894   */\n      dup3\n        /* \"#utility.yul\":4871:4895   */\n      tag_73\n      jump\t// in\n    tag_117:\n        /* \"#utility.yul\":4860:4895   */\n      swap1\n      pop\n        /* \"#utility.yul\":4805:4901   */\n      swap2\n      swap1\n      pop\n      jump\t// out\n        /* \"#utility.yul\":4907:5025   */\n    tag_75:\n        /* \"#utility.yul\":4994:5018   */\n      tag_119\n        /* \"#utility.yul\":5012:5017   */\n      dup2\n        /* \"#utility.yul\":4994:5018   */\n      tag_74\n      jump\t// in\n    tag_119:\n        /* \"#utility.yul\":4989:4992   */\n      dup3\n        /* \"#utility.yul\":4982:5019   */\n      mstore\n        /* \"#utility.yul\":4907:5025   */\n      pop\n      pop\n      jump\t// out\n        /* \"#utility.yul\":5031:5363   */\n    tag_55:\n        /* \"#utility.yul\":5152:5156   */\n      0x00\n        /* \"#utility.yul\":5190:5192   */\n      0x40\n        /* \"#utility.yul\":5179:5188   */\n      dup3\n        /* \"#utility.yul\":5175:5193   */\n      add\n        /* \"#utility.yul\":5167:5193   */\n      swap1\n      pop\n        /* \"#utility.yul\":5203:5274   */\n      tag_121\n        /* \"#utility.yul\":5271:5272   */\n      0x00\n        /* \"#utility.yul\":5260:5269   */\n      dup4\n        /* \"#utility.yul\":5256:5273   */\n      add\n        /* \"#utility.yul\":5247:5253   */\n      dup6\n        /* \"#utility.yul\":5203:5274   */\n      tag_75\n      jump\t// in\n    tag_121:\n        /* \"#utility.yul\":5284:5356   */\n      tag_122\n        /* \"#utility.yul\":5352:5354   */\n      0x20\n        /* \"#utility.yul\":5341:5350   */\n      dup4\n        /* \"#utility.yul\":5337:5355   */\n      add\n        /* \"#utility.yul\":5328:5334   */\n      dup5\n        /* \"#utility.yul\":5284:5356   */\n      tag_65\n      jump\t// in\n    tag_122:\n        /* \"#utility.yul\":5031:5363   */\n      swap4\n      swap3\n      pop\n      pop\n      pop\n      jump\t// out\n        /* \"#utility.yul\":5369:5549   */\n    tag_76:\n        /* \"#utility.yul\":5417:5494   */\n      0x4e487b7100000000000000000000000000000000000000000000000000000000\n        /* \"#utility.yul\":5414:5415   */\n      0x00\n        /* \"#utility.yul\":5407:5495   */\n      mstore\n        /* \"#utility.yul\":5514:5518   */\n      0x11\n        /* \"#utility.yul\":5511:5512   */\n      0x04\n        /* \"#utility.yul\":5504:5519   */\n      mstore\n        /* \"#utility.yul\":5538:5542   */\n      0x24\n        /* \"#utility.yul\":5535:5536   */\n      0x00\n        /* \"#utility.yul\":5528:5543   */\n      revert\n        /* \"#utility.yul\":5555:5746   */\n    tag_58:\n        /* \"#utility.yul\":5595:5598   */\n      0x00\n        /* \"#utility.yul\":5614:5634   */\n      tag_125\n        /* \"#utility.yul\":5632:5633   */\n      dup3\n        /* \"#utility.yul\":5614:5634   */\n      tag_62\n      jump\t// in\n    tag_125:\n        /* \"#utility.yul\":5609:5634   */\n      swap2\n      pop\n        /* \"#utility.yul\":5648:5668   */\n      tag_126\n        /* \"#utility.yul\":5666:5667   */\n      dup4\n        /* \"#utility.yul\":5648:5668   */\n      tag_62\n      jump\t// in\n    tag_126:\n        /* \"#utility.yul\":5643:5668   */\n      swap3\n      pop\n        /* \"#utility.yul\":5691:5692   */\n      dup3\n        /* \"#utility.yul\":5688:5689   */\n      dup3\n        /* \"#utility.yul\":5684:5693   */\n      add\n        /* \"#utility.yul\":5677:5693   */\n      swap1\n      pop\n        /* \"#utility.yul\":5712:5715   */\n      dup1\n        /* \"#utility.yul\":5709:5710   */\n      dup3\n        /* \"#utility.yul\":5706:5716   */\n      gt\n        /* \"#utility.yul\":5703:5739   */\n      iszero\n      tag_127\n      jumpi\n        /* \"#utility.yul\":5719:5737   */\n      tag_128\n      tag_76\n      jump\t// in\n    tag_128:\n        /* \"#utility.yul\":5703:5739   */\n    tag_127:\n        /* \"#utility.yul\":5555:5746   */\n      swap3\n      swap2\n      pop\n      pop\n      jump\t// out\n\n    auxdata: 0xa26469706673582212200bc523de6e3874d30537699e833a8ae58eb64996baaad6c7a08ed1c39a2b3c3564736f6c634300081e0033\n}\n",
				"bytecode": {
					"linkReferences": {},
					"object": "6080604052607b5f553480156012575f5ffd5b506105ec806100205f395ff3fe608060405234801561000f575f5ffd5b506004361061007b575f3560e01c806375f7286c1161005957806375f7286c146100c3578063b8bd717f146100df578063c271477f146100fb578063c2985578146101175761007b565b8063209877671461007f5780632b813bc01461009b5780634e70b1dc146100a5575b5f5ffd5b61009960048036038101906100949190610302565b610121565b005b6100a36101c0565b005b6100ad6101d4565b6040516100ba919061033c565b60405180910390f35b6100dd60048036038101906100d89190610302565b6101d9565b005b6100f960048036038101906100f49190610302565b61021f565b005b61011560048036038101906101109190610302565b610266565b005b61011f6102b1565b005b600a811015610165576040517f08c379a000000000000000000000000000000000000000000000000000000000815260040161015c906103af565b60405180910390fd5b600a8110156101bd5760038110156101bc5760018110156101bb576040517f08c379a00000000000000000000000000000000000000000000000000000000081526004016101b290610417565b60405180910390fd5b5b5b50565b607b5f54146101d2576101d1610435565b5b565b5f5481565b600a811061021c576040517f08c379a0000000000000000000000000000000000000000000000000000000008152600401610213906104d2565b60405180910390fd5b50565b600a811115610263576040517f08c379a000000000000000000000000000000000000000000000000000000000815260040161025a906103af565b60405180910390fd5b50565b600a8110156102ae5733816040517fa6e8950f0000000000000000000000000000000000000000000000000000000081526004016102a592919061052f565b60405180910390fd5b50565b60015f5f8282546102c29190610583565b92505081905550565b5f5ffd5b5f819050919050565b6102e1816102cf565b81146102eb575f5ffd5b50565b5f813590506102fc816102d8565b92915050565b5f60208284031215610317576103166102cb565b5b5f610324848285016102ee565b91505092915050565b610336816102cf565b82525050565b5f60208201905061034f5f83018461032d565b92915050565b5f82825260208201905092915050565b7f693e3130000000000000000000000000000000000000000000000000000000005f82015250565b5f610399600483610355565b91506103a482610365565b602082019050919050565b5f6020820190508181035f8301526103c68161038d565b9050919050565b7f693c3100000000000000000000000000000000000000000000000000000000005f82015250565b5f610401600383610355565b915061040c826103cd565b602082019050919050565b5f6020820190508181035f83015261042e816103f5565b9050919050565b7f4e487b71000000000000000000000000000000000000000000000000000000005f52600160045260245ffd5b7f76657279206c6f6e67206572726f72206d7367206c6f6e67206c6f6e67206c6f5f8201527f6e67000000000000000000000000000000000000000000000000000000000000602082015250565b5f6104bc602283610355565b91506104c782610462565b604082019050919050565b5f6020820190508181035f8301526104e9816104b0565b9050919050565b5f73ffffffffffffffffffffffffffffffffffffffff82169050919050565b5f610519826104f0565b9050919050565b6105298161050f565b82525050565b5f6040820190506105425f830185610520565b61054f602083018461032d565b9392505050565b7f4e487b71000000000000000000000000000000000000000000000000000000005f52601160045260245ffd5b5f61058d826102cf565b9150610598836102cf565b92508282019050808211156105b0576105af610556565b5b9291505056fea26469706673582212200bc523de6e3874d30537699e833a8ae58eb64996baaad6c7a08ed1c39a2b3c3564736f6c634300081e0033",
					"opcodes": "PUSH1 0x80 PUSH1 0x40 MSTORE PUSH1 0x7B PUSH0 SSTORE CALLVALUE DUP1 ISZERO PUSH1 0x12 JUMPI PUSH0 PUSH0 REVERT JUMPDEST POP PUSH2 0x5EC DUP1 PUSH2 0x20 PUSH0 CODECOPY PUSH0 RETURN INVALID PUSH1 0x80 PUSH1 0x40 MSTORE CALLVALUE DUP1 ISZERO PUSH2 0xF JUMPI PUSH0 PUSH0 REVERT JUMPDEST POP PUSH1 0x4 CALLDATASIZE LT PUSH2 0x7B JUMPI PUSH0 CALLDATALOAD PUSH1 0xE0 SHR DUP1 PUSH4 0x75F7286C GT PUSH2 0x59 JUMPI DUP1 PUSH4 0x75F7286C EQ PUSH2 0xC3 JUMPI DUP1 PUSH4 0xB8BD717F EQ PUSH2 0xDF JUMPI DUP1 PUSH4 0xC271477F EQ PUSH2 0xFB JUMPI DUP1 PUSH4 0xC2985578 EQ PUSH2 0x117 JUMPI PUSH2 0x7B JUMP JUMPDEST DUP1 PUSH4 0x20987767 EQ PUSH2 0x7F JUMPI DUP1 PUSH4 0x2B813BC0 EQ PUSH2 0x9B JUMPI DUP1 PUSH4 0x4E70B1DC EQ PUSH2 0xA5 JUMPI JUMPDEST PUSH0 PUSH0 REVERT JUMPDEST PUSH2 0x99 PUSH1 0x4 DUP1 CALLDATASIZE SUB DUP2 ADD SWAP1 PUSH2 0x94 SWAP2 SWAP1 PUSH2 0x302 JUMP JUMPDEST PUSH2 0x121 JUMP JUMPDEST STOP JUMPDEST PUSH2 0xA3 PUSH2 0x1C0 JUMP JUMPDEST STOP JUMPDEST PUSH2 0xAD PUSH2 0x1D4 JUMP JUMPDEST PUSH1 0x40 MLOAD PUSH2 0xBA SWAP2 SWAP1 PUSH2 0x33C JUMP JUMPDEST PUSH1 0x40 MLOAD DUP1 SWAP2 SUB SWAP1 RETURN JUMPDEST PUSH2 0xDD PUSH1 0x4 DUP1 CALLDATASIZE SUB DUP2 ADD SWAP1 PUSH2 0xD8 SWAP2 SWAP1 PUSH2 0x302 JUMP JUMPDEST PUSH2 0x1D9 JUMP JUMPDEST STOP JUMPDEST PUSH2 0xF9 PUSH1 0x4 DUP1 CALLDATASIZE SUB DUP2 ADD SWAP1 PUSH2 0xF4 SWAP2 SWAP1 PUSH2 0x302 JUMP JUMPDEST PUSH2 0x21F JUMP JUMPDEST STOP JUMPDEST PUSH2 0x115 PUSH1 0x4 DUP1 CALLDATASIZE SUB DUP2 ADD SWAP1 PUSH2 0x110 SWAP2 SWAP1 PUSH2 0x302 JUMP JUMPDEST PUSH2 0x266 JUMP JUMPDEST STOP JUMPDEST PUSH2 0x11F PUSH2 0x2B1 JUMP JUMPDEST STOP JUMPDEST PUSH1 0xA DUP2 LT ISZERO PUSH2 0x165 JUMPI PUSH1 0x40 MLOAD PUSH32 0x8C379A000000000000000000000000000000000000000000000000000000000 DUP2 MSTORE PUSH1 0x4 ADD PUSH2 0x15C SWAP1 PUSH2 0x3AF JUMP JUMPDEST PUSH1 0x40 MLOAD DUP1 SWAP2 SUB SWAP1 REVERT JUMPDEST PUSH1 0xA DUP2 LT ISZERO PUSH2 0x1BD JUMPI PUSH1 0x3 DUP2 LT ISZERO PUSH2 0x1BC JUMPI PUSH1 0x1 DUP2 LT ISZERO PUSH2 0x1BB JUMPI PUSH1 0x40 MLOAD PUSH32 0x8C379A000000000000000000000000000000000000000000000000000000000 DUP2 MSTORE PUSH1 0x4 ADD PUSH2 0x1B2 SWAP1 PUSH2 0x417 JUMP JUMPDEST PUSH1 0x40 MLOAD DUP1 SWAP2 SUB SWAP1 REVERT JUMPDEST JUMPDEST JUMPDEST POP JUMP JUMPDEST PUSH1 0x7B PUSH0 SLOAD EQ PUSH2 0x1D2 JUMPI PUSH2 0x1D1 PUSH2 0x435 JUMP JUMPDEST JUMPDEST JUMP JUMPDEST PUSH0 SLOAD DUP2 JUMP JUMPDEST PUSH1 0xA DUP2 LT PUSH2 0x21C JUMPI PUSH1 0x40 MLOAD PUSH32 0x8C379A000000000000000000000000000000000000000000000000000000000 DUP2 MSTORE PUSH1 0x4 ADD PUSH2 0x213 SWAP1 PUSH2 0x4D2 JUMP JUMPDEST PUSH1 0x40 MLOAD DUP1 SWAP2 SUB SWAP1 REVERT JUMPDEST POP JUMP JUMPDEST PUSH1 0xA DUP2 GT ISZERO PUSH2 0x263 JUMPI PUSH1 0x40 MLOAD PUSH32 0x8C379A000000000000000000000000000000000000000000000000000000000 DUP2 MSTORE PUSH1 0x4 ADD PUSH2 0x25A SWAP1 PUSH2 0x3AF JUMP JUMPDEST PUSH1 0x40 MLOAD DUP1 SWAP2 SUB SWAP1 REVERT JUMPDEST POP JUMP JUMPDEST PUSH1 0xA DUP2 LT ISZERO PUSH2 0x2AE JUMPI CALLER DUP2 PUSH1 0x40 MLOAD PUSH32 0xA6E8950F00000000000000000000000000000000000000000000000000000000 DUP2 MSTORE PUSH1 0x4 ADD PUSH2 0x2A5 SWAP3 SWAP2 SWAP1 PUSH2 0x52F JUMP JUMPDEST PUSH1 0x40 MLOAD DUP1 SWAP2 SUB SWAP1 REVERT JUMPDEST POP JUMP JUMPDEST PUSH1 0x1 PUSH0 PUSH0 DUP3 DUP3 SLOAD PUSH2 0x2C2 SWAP2 SWAP1 PUSH2 0x583 JUMP JUMPDEST SWAP3 POP POP DUP2 SWAP1 SSTORE POP JUMP JUMPDEST PUSH0 PUSH0 REVERT JUMPDEST PUSH0 DUP2 SWAP1 POP SWAP2 SWAP1 POP JUMP JUMPDEST PUSH2 0x2E1 DUP2 PUSH2 0x2CF JUMP JUMPDEST DUP2 EQ PUSH2 0x2EB JUMPI PUSH0 PUSH0 REVERT JUMPDEST POP JUMP JUMPDEST PUSH0 DUP2 CALLDATALOAD SWAP1 POP PUSH2 0x2FC DUP2 PUSH2 0x2D8 JUMP JUMPDEST SWAP3 SWAP2 POP POP JUMP JUMPDEST PUSH0 PUSH1 0x20 DUP3 DUP5 SUB SLT ISZERO PUSH2 0x317 JUMPI PUSH2 0x316 PUSH2 0x2CB JUMP JUMPDEST JUMPDEST PUSH0 PUSH2 0x324 DUP5 DUP3 DUP6 ADD PUSH2 0x2EE JUMP JUMPDEST SWAP2 POP POP SWAP3 SWAP2 POP POP JUMP JUMPDEST PUSH2 0x336 DUP2 PUSH2 0x2CF JUMP JUMPDEST DUP3 MSTORE POP POP JUMP JUMPDEST PUSH0 PUSH1 0x20 DUP3 ADD SWAP1 POP PUSH2 0x34F PUSH0 DUP4 ADD DUP5 PUSH2 0x32D JUMP JUMPDEST SWAP3 SWAP2 POP POP JUMP JUMPDEST PUSH0 DUP3 DUP3 MSTORE PUSH1 0x20 DUP3 ADD SWAP1 POP SWAP3 SWAP2 POP POP JUMP JUMPDEST PUSH32 0x693E313000000000000000000000000000000000000000000000000000000000 PUSH0 DUP3 ADD MSTORE POP JUMP JUMPDEST PUSH0 PUSH2 0x399 PUSH1 0x4 DUP4 PUSH2 0x355 JUMP JUMPDEST SWAP2 POP PUSH2 0x3A4 DUP3 PUSH2 0x365 JUMP JUMPDEST PUSH1 0x20 DUP3 ADD SWAP1 POP SWAP2 SWAP1 POP JUMP JUMPDEST PUSH0 PUSH1 0x20 DUP3 ADD SWAP1 POP DUP2 DUP2 SUB PUSH0 DUP4 ADD MSTORE PUSH2 0x3C6 DUP2 PUSH2 0x38D JUMP JUMPDEST SWAP1 POP SWAP2 SWAP1 POP JUMP JUMPDEST PUSH32 0x693C310000000000000000000000000000000000000000000000000000000000 PUSH0 DUP3 ADD MSTORE POP JUMP JUMPDEST PUSH0 PUSH2 0x401 PUSH1 0x3 DUP4 PUSH2 0x355 JUMP JUMPDEST SWAP2 POP PUSH2 0x40C DUP3 PUSH2 0x3CD JUMP JUMPDEST PUSH1 0x20 DUP3 ADD SWAP1 POP SWAP2 SWAP1 POP JUMP JUMPDEST PUSH0 PUSH1 0x20 DUP3 ADD SWAP1 POP DUP2 DUP2 SUB PUSH0 DUP4 ADD MSTORE PUSH2 0x42E DUP2 PUSH2 0x3F5 JUMP JUMPDEST SWAP1 POP SWAP2 SWAP1 POP JUMP JUMPDEST PUSH32 0x4E487B7100000000000000000000000000000000000000000000000000000000 PUSH0 MSTORE PUSH1 0x1 PUSH1 0x4 MSTORE PUSH1 0x24 PUSH0 REVERT JUMPDEST PUSH32 0x76657279206C6F6E67206572726F72206D7367206C6F6E67206C6F6E67206C6F PUSH0 DUP3 ADD MSTORE PUSH32 0x6E67000000000000000000000000000000000000000000000000000000000000 PUSH1 0x20 DUP3 ADD MSTORE POP JUMP JUMPDEST PUSH0 PUSH2 0x4BC PUSH1 0x22 DUP4 PUSH2 0x355 JUMP JUMPDEST SWAP2 POP PUSH2 0x4C7 DUP3 PUSH2 0x462 JUMP JUMPDEST PUSH1 0x40 DUP3 ADD SWAP1 POP SWAP2 SWAP1 POP JUMP JUMPDEST PUSH0 PUSH1 0x20 DUP3 ADD SWAP1 POP DUP2 DUP2 SUB PUSH0 DUP4 ADD MSTORE PUSH2 0x4E9 DUP2 PUSH2 0x4B0 JUMP JUMPDEST SWAP1 POP SWAP2 SWAP1 POP JUMP JUMPDEST PUSH0 PUSH20 0xFFFFFFFFFFFFFFFFFFFFFFFFFFFFFFFFFFFFFFFF DUP3 AND SWAP1 POP SWAP2 SWAP1 POP JUMP JUMPDEST PUSH0 PUSH2 0x519 DUP3 PUSH2 0x4F0 JUMP JUMPDEST SWAP1 POP SWAP2 SWAP1 POP JUMP JUMPDEST PUSH2 0x529 DUP2 PUSH2 0x50F JUMP JUMPDEST DUP3 MSTORE POP POP JUMP JUMPDEST PUSH0 PUSH1 0x40 DUP3 ADD SWAP1 POP PUSH2 0x542 PUSH0 DUP4 ADD DUP6 PUSH2 0x520 JUMP JUMPDEST PUSH2 0x54F PUSH1 0x20 DUP4 ADD DUP5 PUSH2 0x32D JUMP JUMPDEST SWAP4 SWAP3 POP POP POP JUMP JUMPDEST PUSH32 0x4E487B7100000000000000000000000000000000000000000000000000000000 PUSH0 MSTORE PUSH1 0x11 PUSH1 0x4 MSTORE PUSH1 0x24 PUSH0 REVERT JUMPDEST PUSH0 PUSH2 0x58D DUP3 PUSH2 0x2CF JUMP JUMPDEST SWAP2 POP PUSH2 0x598 DUP4 PUSH2 0x2CF JUMP JUMPDEST SWAP3 POP DUP3 DUP3 ADD SWAP1 POP DUP1 DUP3 GT ISZERO PUSH2 0x5B0 JUMPI PUSH2 0x5AF PUSH2 0x556 JUMP JUMPDEST JUMPDEST SWAP3 SWAP2 POP POP JUMP INVALID LOG2 PUSH5 0x6970667358 0x22 SLT KECCAK256 SIGNEXTEND 0xC5 0x23 0xDE PUSH15 0x3874D30537699E833A8AE58EB64996 0xBA 0xAA 0xD6 0xC7 LOG0 DUP15 DATALOADN 0xC39A 0x2B EXTCODECOPY CALLDATALOAD PUSH5 0x736F6C6343 STOP ADDMOD 0x1E STOP CALLER "
				},
				"gasEstimates": {
					"creation": {
						"codeDepositCost": "303200",
						"executionCost": "22446",
						"totalCost": "325646"
					},
					"external": {
						"foo()": "infinite",
						"num()": "2469",
						"testAssert()": "2315",
						"testCustomError(uint256)": "724",
						"testCustomError1(uint256)": "infinite",
						"testRequire(uint256)": "731",
						"testRevert(uint256)": "786"
					}
				},
				"methodIdentifiers": {
					"foo()": "c2985578",
					"num()": "4e70b1dc",
					"testAssert()": "2b813bc0",
					"testCustomError(uint256)": "75f7286c",
					"testCustomError1(uint256)": "c271477f",
					"testRequire(uint256)": "b8bd717f",
					"testRevert(uint256)": "20987767"
				}
			},
			"storageLayout": {
				"storage": [
					{
						"astId": 51,
						"contract": "ErrorCatch.sol:Error",
						"label": "num",
						"offset": 0,
						"slot": "0",
						"type": "t_uint256"
					}
				],
				"types": {
					"t_uint256": {
						"encoding": "inplace",
						"label": "uint256",
						"numberOfBytes": "32"
					}
				}
			},
			"userdoc": {
				"kind": "user",
				"methods": {},
				"version": 1
			}
		}
	}
}