{
	"第二周/移动删除数组.sol": {
		"arrayShift": {
			"abi": [
				{
					"inputs": [
						{
							"internalType": "uint256",
							"name": "",
							"type": "uint256"
						}
					],
					"name": "arr",
					"outputs": [
						{
							"internalType": "uint256",
							"name": "",
							"type": "uint256"
						}
					],
					"stateMutability": "view",
					"type": "function"
				},
				{
					"inputs": [],
					"name": "examples",
					"outputs": [],
					"stateMutability": "nonpayable",
					"type": "function"
				},
				{
					"inputs": [
						{
							"internalType": "uint256",
							"name": "_index",
							"type": "uint256"
						}
					],
					"name": "remove",
					"outputs": [],
					"stateMutability": "nonpayable",
					"type": "function"
				},
				{
					"inputs": [],
					"name": "test",
					"outputs": [],
					"stateMutability": "nonpayable",
					"type": "function"
				}
			],
			"devdoc": {
				"kind": "dev",
				"methods": {},
				"version": 1
			},
			"evm": {
				"assembly": "    /* \"\\xe7\\xac\\xac\\xe4\\xba\\x8c\\xe5\\x91\\xa8/\\xe7\\xa7\\xbb\\xe5\\x8a\\xa8\\xe5\\x88\\xa0\\xe9\\x99\\xa4\\xe6\\x95\\xb0\\xe7\\xbb\\x84.sol\":57:644  contract arrayShift {... */\n  mstore(0x40, 0x80)\n  callvalue\n  dup1\n  iszero\n  tag_1\n  jumpi\n  revert(0x00, 0x00)\ntag_1:\n  pop\n  dataSize(sub_0)\n  dup1\n  dataOffset(sub_0)\n  0x00\n  codecopy\n  0x00\n  return\nstop\n\nsub_0: assembly {\n        /* \"\\xe7\\xac\\xac\\xe4\\xba\\x8c\\xe5\\x91\\xa8/\\xe7\\xa7\\xbb\\xe5\\x8a\\xa8\\xe5\\x88\\xa0\\xe9\\x99\\xa4\\xe6\\x95\\xb0\\xe7\\xbb\\x84.sol\":57:644  contract arrayShift {... */\n      mstore(0x40, 0x80)\n      callvalue\n      dup1\n      iszero\n      tag_1\n      jumpi\n      revert(0x00, 0x00)\n    tag_1:\n      pop\n      jumpi(tag_2, lt(calldatasize, 0x04))\n      shr(0xe0, calldataload(0x00))\n      dup1\n      0x335d00c2\n      eq\n      tag_3\n      jumpi\n      dup1\n      0x4cc82215\n      eq\n      tag_4\n      jumpi\n      dup1\n      0x71e5ee5f\n      eq\n      tag_5\n      jumpi\n      dup1\n      0xf8a8fd6d\n      eq\n      tag_6\n      jumpi\n    tag_2:\n      revert(0x00, 0x00)\n        /* \"\\xe7\\xac\\xac\\xe4\\xba\\x8c\\xe5\\x91\\xa8/\\xe7\\xa7\\xbb\\xe5\\x8a\\xa8\\xe5\\x88\\xa0\\xe9\\x99\\xa4\\xe6\\x95\\xb0\\xe7\\xbb\\x84.sol\":110:202  function examples() public {... */\n    tag_3:\n      tag_7\n      tag_8\n      jump\t// in\n    tag_7:\n      stop\n        /* \"\\xe7\\xac\\xac\\xe4\\xba\\x8c\\xe5\\x91\\xa8/\\xe7\\xa7\\xbb\\xe5\\x8a\\xa8\\xe5\\x88\\xa0\\xe9\\x99\\xa4\\xe6\\x95\\xb0\\xe7\\xbb\\x84.sol\":208:416  function remove(uint256 _index) public {... */\n    tag_4:\n      tag_9\n      0x04\n      dup1\n      calldatasize\n      sub\n      dup2\n      add\n      swap1\n      tag_10\n      swap2\n      swap1\n      tag_11\n      jump\t// in\n    tag_10:\n      tag_12\n      jump\t// in\n    tag_9:\n      stop\n        /* \"\\xe7\\xac\\xac\\xe4\\xba\\x8c\\xe5\\x91\\xa8/\\xe7\\xa7\\xbb\\xe5\\x8a\\xa8\\xe5\\x88\\xa0\\xe9\\x99\\xa4\\xe6\\x95\\xb0\\xe7\\xbb\\x84.sol\":83:103  uint256[] public arr */\n    tag_5:\n      tag_13\n      0x04\n      dup1\n      calldatasize\n      sub\n      dup2\n      add\n      swap1\n      tag_14\n      swap2\n      swap1\n      tag_11\n      jump\t// in\n    tag_14:\n      tag_15\n      jump\t// in\n    tag_13:\n      mload(0x40)\n      tag_16\n      swap2\n      swap1\n      tag_17\n      jump\t// in\n    tag_16:\n      mload(0x40)\n      dup1\n      swap2\n      sub\n      swap1\n      return\n        /* \"\\xe7\\xac\\xac\\xe4\\xba\\x8c\\xe5\\x91\\xa8/\\xe7\\xa7\\xbb\\xe5\\x8a\\xa8\\xe5\\x88\\xa0\\xe9\\x99\\xa4\\xe6\\x95\\xb0\\xe7\\xbb\\x84.sol\":418:641  function test()external {... */\n    tag_6:\n      tag_18\n      tag_19\n      jump\t// in\n    tag_18:\n      stop\n        /* \"\\xe7\\xac\\xac\\xe4\\xba\\x8c\\xe5\\x91\\xa8/\\xe7\\xa7\\xbb\\xe5\\x8a\\xa8\\xe5\\x88\\xa0\\xe9\\x99\\xa4\\xe6\\x95\\xb0\\xe7\\xbb\\x84.sol\":110:202  function examples() public {... */\n    tag_8:\n        /* \"\\xe7\\xac\\xac\\xe4\\xba\\x8c\\xe5\\x91\\xa8/\\xe7\\xa7\\xbb\\xe5\\x8a\\xa8\\xe5\\x88\\xa0\\xe9\\x99\\xa4\\xe6\\x95\\xb0\\xe7\\xbb\\x84.sol\":147:162  arr = [1, 2, 3] */\n      mload(0x40)\n      dup1\n      0x60\n      add\n      0x40\n      mstore\n      dup1\n        /* \"\\xe7\\xac\\xac\\xe4\\xba\\x8c\\xe5\\x91\\xa8/\\xe7\\xa7\\xbb\\xe5\\x8a\\xa8\\xe5\\x88\\xa0\\xe9\\x99\\xa4\\xe6\\x95\\xb0\\xe7\\xbb\\x84.sol\":154:155  1 */\n      0x01\n        /* \"\\xe7\\xac\\xac\\xe4\\xba\\x8c\\xe5\\x91\\xa8/\\xe7\\xa7\\xbb\\xe5\\x8a\\xa8\\xe5\\x88\\xa0\\xe9\\x99\\xa4\\xe6\\x95\\xb0\\xe7\\xbb\\x84.sol\":147:162  arr = [1, 2, 3] */\n      0xff\n      and\n      dup2\n      mstore\n      0x20\n      add\n        /* \"\\xe7\\xac\\xac\\xe4\\xba\\x8c\\xe5\\x91\\xa8/\\xe7\\xa7\\xbb\\xe5\\x8a\\xa8\\xe5\\x88\\xa0\\xe9\\x99\\xa4\\xe6\\x95\\xb0\\xe7\\xbb\\x84.sol\":157:158  2 */\n      0x02\n        /* \"\\xe7\\xac\\xac\\xe4\\xba\\x8c\\xe5\\x91\\xa8/\\xe7\\xa7\\xbb\\xe5\\x8a\\xa8\\xe5\\x88\\xa0\\xe9\\x99\\xa4\\xe6\\x95\\xb0\\xe7\\xbb\\x84.sol\":147:162  arr = [1, 2, 3] */\n      0xff\n      and\n      dup2\n      mstore\n      0x20\n      add\n        /* \"\\xe7\\xac\\xac\\xe4\\xba\\x8c\\xe5\\x91\\xa8/\\xe7\\xa7\\xbb\\xe5\\x8a\\xa8\\xe5\\x88\\xa0\\xe9\\x99\\xa4\\xe6\\x95\\xb0\\xe7\\xbb\\x84.sol\":160:161  3 */\n      0x03\n        /* \"\\xe7\\xac\\xac\\xe4\\xba\\x8c\\xe5\\x91\\xa8/\\xe7\\xa7\\xbb\\xe5\\x8a\\xa8\\xe5\\x88\\xa0\\xe9\\x99\\xa4\\xe6\\x95\\xb0\\xe7\\xbb\\x84.sol\":147:162  arr = [1, 2, 3] */\n      0xff\n      and\n      dup2\n      mstore\n      pop\n        /* \"\\xe7\\xac\\xac\\xe4\\xba\\x8c\\xe5\\x91\\xa8/\\xe7\\xa7\\xbb\\xe5\\x8a\\xa8\\xe5\\x88\\xa0\\xe9\\x99\\xa4\\xe6\\x95\\xb0\\xe7\\xbb\\x84.sol\":147:150  arr */\n      0x00\n        /* \"\\xe7\\xac\\xac\\xe4\\xba\\x8c\\xe5\\x91\\xa8/\\xe7\\xa7\\xbb\\xe5\\x8a\\xa8\\xe5\\x88\\xa0\\xe9\\x99\\xa4\\xe6\\x95\\xb0\\xe7\\xbb\\x84.sol\":147:162  arr = [1, 2, 3] */\n      swap1\n      0x03\n      tag_21\n      swap3\n      swap2\n      swap1\n      tag_22\n      jump\t// in\n    tag_21:\n      pop\n        /* \"\\xe7\\xac\\xac\\xe4\\xba\\x8c\\xe5\\x91\\xa8/\\xe7\\xa7\\xbb\\xe5\\x8a\\xa8\\xe5\\x88\\xa0\\xe9\\x99\\xa4\\xe6\\x95\\xb0\\xe7\\xbb\\x84.sol\":179:182  arr */\n      0x00\n        /* \"\\xe7\\xac\\xac\\xe4\\xba\\x8c\\xe5\\x91\\xa8/\\xe7\\xa7\\xbb\\xe5\\x8a\\xa8\\xe5\\x88\\xa0\\xe9\\x99\\xa4\\xe6\\x95\\xb0\\xe7\\xbb\\x84.sol\":183:184  1 */\n      0x01\n        /* \"\\xe7\\xac\\xac\\xe4\\xba\\x8c\\xe5\\x91\\xa8/\\xe7\\xa7\\xbb\\xe5\\x8a\\xa8\\xe5\\x88\\xa0\\xe9\\x99\\xa4\\xe6\\x95\\xb0\\xe7\\xbb\\x84.sol\":179:185  arr[1] */\n      dup2\n      sload\n      dup2\n      lt\n      tag_23\n      jumpi\n      tag_24\n      tag_25\n      jump\t// in\n    tag_24:\n    tag_23:\n      swap1\n      0x00\n      mstore\n      keccak256(0x00, 0x20)\n      add\n        /* \"\\xe7\\xac\\xac\\xe4\\xba\\x8c\\xe5\\x91\\xa8/\\xe7\\xa7\\xbb\\xe5\\x8a\\xa8\\xe5\\x88\\xa0\\xe9\\x99\\xa4\\xe6\\x95\\xb0\\xe7\\xbb\\x84.sol\":172:185  delete arr[1] */\n      0x00\n      swap1\n      sstore\n        /* \"\\xe7\\xac\\xac\\xe4\\xba\\x8c\\xe5\\x91\\xa8/\\xe7\\xa7\\xbb\\xe5\\x8a\\xa8\\xe5\\x88\\xa0\\xe9\\x99\\xa4\\xe6\\x95\\xb0\\xe7\\xbb\\x84.sol\":110:202  function examples() public {... */\n      jump\t// out\n        /* \"\\xe7\\xac\\xac\\xe4\\xba\\x8c\\xe5\\x91\\xa8/\\xe7\\xa7\\xbb\\xe5\\x8a\\xa8\\xe5\\x88\\xa0\\xe9\\x99\\xa4\\xe6\\x95\\xb0\\xe7\\xbb\\x84.sol\":208:416  function remove(uint256 _index) public {... */\n    tag_12:\n        /* \"\\xe7\\xac\\xac\\xe4\\xba\\x8c\\xe5\\x91\\xa8/\\xe7\\xa7\\xbb\\xe5\\x8a\\xa8\\xe5\\x88\\xa0\\xe9\\x99\\xa4\\xe6\\x95\\xb0\\xe7\\xbb\\x84.sol\":272:275  arr */\n      0x00\n        /* \"\\xe7\\xac\\xac\\xe4\\xba\\x8c\\xe5\\x91\\xa8/\\xe7\\xa7\\xbb\\xe5\\x8a\\xa8\\xe5\\x88\\xa0\\xe9\\x99\\xa4\\xe6\\x95\\xb0\\xe7\\xbb\\x84.sol\":272:282  arr.length */\n      dup1\n      sload\n      swap1\n      pop\n        /* \"\\xe7\\xac\\xac\\xe4\\xba\\x8c\\xe5\\x91\\xa8/\\xe7\\xa7\\xbb\\xe5\\x8a\\xa8\\xe5\\x88\\xa0\\xe9\\x99\\xa4\\xe6\\x95\\xb0\\xe7\\xbb\\x84.sol\":265:271  _index */\n      dup2\n        /* \"\\xe7\\xac\\xac\\xe4\\xba\\x8c\\xe5\\x91\\xa8/\\xe7\\xa7\\xbb\\xe5\\x8a\\xa8\\xe5\\x88\\xa0\\xe9\\x99\\xa4\\xe6\\x95\\xb0\\xe7\\xbb\\x84.sol\":265:282  _index<arr.length */\n      lt\n        /* \"\\xe7\\xac\\xac\\xe4\\xba\\x8c\\xe5\\x91\\xa8/\\xe7\\xa7\\xbb\\xe5\\x8a\\xa8\\xe5\\x88\\xa0\\xe9\\x99\\xa4\\xe6\\x95\\xb0\\xe7\\xbb\\x84.sol\":257:304  require(_index<arr.length,'index out of bound') */\n      tag_28\n      jumpi\n      mload(0x40)\n      0x08c379a000000000000000000000000000000000000000000000000000000000\n      dup2\n      mstore\n      0x04\n      add\n      tag_29\n      swap1\n      tag_30\n      jump\t// in\n    tag_29:\n      mload(0x40)\n      dup1\n      swap2\n      sub\n      swap1\n      revert\n    tag_28:\n        /* \"\\xe7\\xac\\xac\\xe4\\xba\\x8c\\xe5\\x91\\xa8/\\xe7\\xa7\\xbb\\xe5\\x8a\\xa8\\xe5\\x88\\xa0\\xe9\\x99\\xa4\\xe6\\x95\\xb0\\xe7\\xbb\\x84.sol\":318:324  uint i */\n      0x00\n        /* \"\\xe7\\xac\\xac\\xe4\\xba\\x8c\\xe5\\x91\\xa8/\\xe7\\xa7\\xbb\\xe5\\x8a\\xa8\\xe5\\x88\\xa0\\xe9\\x99\\xa4\\xe6\\x95\\xb0\\xe7\\xbb\\x84.sol\":325:331  _index */\n      dup2\n        /* \"\\xe7\\xac\\xac\\xe4\\xba\\x8c\\xe5\\x91\\xa8/\\xe7\\xa7\\xbb\\xe5\\x8a\\xa8\\xe5\\x88\\xa0\\xe9\\x99\\xa4\\xe6\\x95\\xb0\\xe7\\xbb\\x84.sol\":318:331  uint i=_index */\n      swap1\n      pop\n        /* \"\\xe7\\xac\\xac\\xe4\\xba\\x8c\\xe5\\x91\\xa8/\\xe7\\xa7\\xbb\\xe5\\x8a\\xa8\\xe5\\x88\\xa0\\xe9\\x99\\xa4\\xe6\\x95\\xb0\\xe7\\xbb\\x84.sol\":314:391  for(uint i=_index;i<arr.length-1;i++){... */\n    tag_31:\n        /* \"\\xe7\\xac\\xac\\xe4\\xba\\x8c\\xe5\\x91\\xa8/\\xe7\\xa7\\xbb\\xe5\\x8a\\xa8\\xe5\\x88\\xa0\\xe9\\x99\\xa4\\xe6\\x95\\xb0\\xe7\\xbb\\x84.sol\":345:346  1 */\n      0x01\n        /* \"\\xe7\\xac\\xac\\xe4\\xba\\x8c\\xe5\\x91\\xa8/\\xe7\\xa7\\xbb\\xe5\\x8a\\xa8\\xe5\\x88\\xa0\\xe9\\x99\\xa4\\xe6\\x95\\xb0\\xe7\\xbb\\x84.sol\":334:337  arr */\n      0x00\n        /* \"\\xe7\\xac\\xac\\xe4\\xba\\x8c\\xe5\\x91\\xa8/\\xe7\\xa7\\xbb\\xe5\\x8a\\xa8\\xe5\\x88\\xa0\\xe9\\x99\\xa4\\xe6\\x95\\xb0\\xe7\\xbb\\x84.sol\":334:344  arr.length */\n      dup1\n      sload\n      swap1\n      pop\n        /* \"\\xe7\\xac\\xac\\xe4\\xba\\x8c\\xe5\\x91\\xa8/\\xe7\\xa7\\xbb\\xe5\\x8a\\xa8\\xe5\\x88\\xa0\\xe9\\x99\\xa4\\xe6\\x95\\xb0\\xe7\\xbb\\x84.sol\":334:346  arr.length-1 */\n      tag_34\n      swap2\n      swap1\n      tag_35\n      jump\t// in\n    tag_34:\n        /* \"\\xe7\\xac\\xac\\xe4\\xba\\x8c\\xe5\\x91\\xa8/\\xe7\\xa7\\xbb\\xe5\\x8a\\xa8\\xe5\\x88\\xa0\\xe9\\x99\\xa4\\xe6\\x95\\xb0\\xe7\\xbb\\x84.sol\":332:333  i */\n      dup2\n        /* \"\\xe7\\xac\\xac\\xe4\\xba\\x8c\\xe5\\x91\\xa8/\\xe7\\xa7\\xbb\\xe5\\x8a\\xa8\\xe5\\x88\\xa0\\xe9\\x99\\xa4\\xe6\\x95\\xb0\\xe7\\xbb\\x84.sol\":332:346  i<arr.length-1 */\n      lt\n        /* \"\\xe7\\xac\\xac\\xe4\\xba\\x8c\\xe5\\x91\\xa8/\\xe7\\xa7\\xbb\\xe5\\x8a\\xa8\\xe5\\x88\\xa0\\xe9\\x99\\xa4\\xe6\\x95\\xb0\\xe7\\xbb\\x84.sol\":314:391  for(uint i=_index;i<arr.length-1;i++){... */\n      iszero\n      tag_32\n      jumpi\n        /* \"\\xe7\\xac\\xac\\xe4\\xba\\x8c\\xe5\\x91\\xa8/\\xe7\\xa7\\xbb\\xe5\\x8a\\xa8\\xe5\\x88\\xa0\\xe9\\x99\\xa4\\xe6\\x95\\xb0\\xe7\\xbb\\x84.sol\":372:375  arr */\n      0x00\n        /* \"\\xe7\\xac\\xac\\xe4\\xba\\x8c\\xe5\\x91\\xa8/\\xe7\\xa7\\xbb\\xe5\\x8a\\xa8\\xe5\\x88\\xa0\\xe9\\x99\\xa4\\xe6\\x95\\xb0\\xe7\\xbb\\x84.sol\":378:379  1 */\n      0x01\n        /* \"\\xe7\\xac\\xac\\xe4\\xba\\x8c\\xe5\\x91\\xa8/\\xe7\\xa7\\xbb\\xe5\\x8a\\xa8\\xe5\\x88\\xa0\\xe9\\x99\\xa4\\xe6\\x95\\xb0\\xe7\\xbb\\x84.sol\":376:377  i */\n      dup3\n        /* \"\\xe7\\xac\\xac\\xe4\\xba\\x8c\\xe5\\x91\\xa8/\\xe7\\xa7\\xbb\\xe5\\x8a\\xa8\\xe5\\x88\\xa0\\xe9\\x99\\xa4\\xe6\\x95\\xb0\\xe7\\xbb\\x84.sol\":376:379  i+1 */\n      tag_36\n      swap2\n      swap1\n      tag_37\n      jump\t// in\n    tag_36:\n        /* \"\\xe7\\xac\\xac\\xe4\\xba\\x8c\\xe5\\x91\\xa8/\\xe7\\xa7\\xbb\\xe5\\x8a\\xa8\\xe5\\x88\\xa0\\xe9\\x99\\xa4\\xe6\\x95\\xb0\\xe7\\xbb\\x84.sol\":372:380  arr[i+1] */\n      dup2\n      sload\n      dup2\n      lt\n      tag_38\n      jumpi\n      tag_39\n      tag_25\n      jump\t// in\n    tag_39:\n    tag_38:\n      swap1\n      0x00\n      mstore\n      keccak256(0x00, 0x20)\n      add\n      sload\n        /* \"\\xe7\\xac\\xac\\xe4\\xba\\x8c\\xe5\\x91\\xa8/\\xe7\\xa7\\xbb\\xe5\\x8a\\xa8\\xe5\\x88\\xa0\\xe9\\x99\\xa4\\xe6\\x95\\xb0\\xe7\\xbb\\x84.sol\":365:368  arr */\n      0x00\n        /* \"\\xe7\\xac\\xac\\xe4\\xba\\x8c\\xe5\\x91\\xa8/\\xe7\\xa7\\xbb\\xe5\\x8a\\xa8\\xe5\\x88\\xa0\\xe9\\x99\\xa4\\xe6\\x95\\xb0\\xe7\\xbb\\x84.sol\":369:370  i */\n      dup3\n        /* \"\\xe7\\xac\\xac\\xe4\\xba\\x8c\\xe5\\x91\\xa8/\\xe7\\xa7\\xbb\\xe5\\x8a\\xa8\\xe5\\x88\\xa0\\xe9\\x99\\xa4\\xe6\\x95\\xb0\\xe7\\xbb\\x84.sol\":365:371  arr[i] */\n      dup2\n      sload\n      dup2\n      lt\n      tag_41\n      jumpi\n      tag_42\n      tag_25\n      jump\t// in\n    tag_42:\n    tag_41:\n      swap1\n      0x00\n      mstore\n      keccak256(0x00, 0x20)\n      add\n        /* \"\\xe7\\xac\\xac\\xe4\\xba\\x8c\\xe5\\x91\\xa8/\\xe7\\xa7\\xbb\\xe5\\x8a\\xa8\\xe5\\x88\\xa0\\xe9\\x99\\xa4\\xe6\\x95\\xb0\\xe7\\xbb\\x84.sol\":365:380  arr[i]=arr[i+1] */\n      dup2\n      swap1\n      sstore\n      pop\n        /* \"\\xe7\\xac\\xac\\xe4\\xba\\x8c\\xe5\\x91\\xa8/\\xe7\\xa7\\xbb\\xe5\\x8a\\xa8\\xe5\\x88\\xa0\\xe9\\x99\\xa4\\xe6\\x95\\xb0\\xe7\\xbb\\x84.sol\":347:350  i++ */\n      dup1\n      dup1\n      0x01\n      add\n      swap2\n      pop\n      pop\n        /* \"\\xe7\\xac\\xac\\xe4\\xba\\x8c\\xe5\\x91\\xa8/\\xe7\\xa7\\xbb\\xe5\\x8a\\xa8\\xe5\\x88\\xa0\\xe9\\x99\\xa4\\xe6\\x95\\xb0\\xe7\\xbb\\x84.sol\":314:391  for(uint i=_index;i<arr.length-1;i++){... */\n      jump(tag_31)\n    tag_32:\n      pop\n        /* \"\\xe7\\xac\\xac\\xe4\\xba\\x8c\\xe5\\x91\\xa8/\\xe7\\xa7\\xbb\\xe5\\x8a\\xa8\\xe5\\x88\\xa0\\xe9\\x99\\xa4\\xe6\\x95\\xb0\\xe7\\xbb\\x84.sol\":400:403  arr */\n      0x00\n        /* \"\\xe7\\xac\\xac\\xe4\\xba\\x8c\\xe5\\x91\\xa8/\\xe7\\xa7\\xbb\\xe5\\x8a\\xa8\\xe5\\x88\\xa0\\xe9\\x99\\xa4\\xe6\\x95\\xb0\\xe7\\xbb\\x84.sol\":400:409  arr.pop() */\n      dup1\n      sload\n      dup1\n      tag_44\n      jumpi\n      tag_45\n      tag_46\n      jump\t// in\n    tag_45:\n    tag_44:\n      0x01\n      swap1\n      sub\n      dup2\n      dup2\n      swap1\n      0x00\n      mstore\n      keccak256(0x00, 0x20)\n      add\n      0x00\n      swap1\n      sstore\n      swap1\n      sstore\n        /* \"\\xe7\\xac\\xac\\xe4\\xba\\x8c\\xe5\\x91\\xa8/\\xe7\\xa7\\xbb\\xe5\\x8a\\xa8\\xe5\\x88\\xa0\\xe9\\x99\\xa4\\xe6\\x95\\xb0\\xe7\\xbb\\x84.sol\":208:416  function remove(uint256 _index) public {... */\n      pop\n      jump\t// out\n        /* \"\\xe7\\xac\\xac\\xe4\\xba\\x8c\\xe5\\x91\\xa8/\\xe7\\xa7\\xbb\\xe5\\x8a\\xa8\\xe5\\x88\\xa0\\xe9\\x99\\xa4\\xe6\\x95\\xb0\\xe7\\xbb\\x84.sol\":83:103  uint256[] public arr */\n    tag_15:\n      0x00\n      dup2\n      dup2\n      sload\n      dup2\n      lt\n      tag_48\n      jumpi\n      0x00\n      dup1\n      revert\n    tag_48:\n      swap1\n      0x00\n      mstore\n      keccak256(0x00, 0x20)\n      add\n      0x00\n      swap2\n      pop\n      swap1\n      pop\n      sload\n      dup2\n      jump\t// out\n        /* \"\\xe7\\xac\\xac\\xe4\\xba\\x8c\\xe5\\x91\\xa8/\\xe7\\xa7\\xbb\\xe5\\x8a\\xa8\\xe5\\x88\\xa0\\xe9\\x99\\xa4\\xe6\\x95\\xb0\\xe7\\xbb\\x84.sol\":418:641  function test()external {... */\n    tag_19:\n        /* \"\\xe7\\xac\\xac\\xe4\\xba\\x8c\\xe5\\x91\\xa8/\\xe7\\xa7\\xbb\\xe5\\x8a\\xa8\\xe5\\x88\\xa0\\xe9\\x99\\xa4\\xe6\\x95\\xb0\\xe7\\xbb\\x84.sol\":448:461  arr=[1,2,3,4] */\n      mload(0x40)\n      dup1\n      0x80\n      add\n      0x40\n      mstore\n      dup1\n        /* \"\\xe7\\xac\\xac\\xe4\\xba\\x8c\\xe5\\x91\\xa8/\\xe7\\xa7\\xbb\\xe5\\x8a\\xa8\\xe5\\x88\\xa0\\xe9\\x99\\xa4\\xe6\\x95\\xb0\\xe7\\xbb\\x84.sol\":453:454  1 */\n      0x01\n        /* \"\\xe7\\xac\\xac\\xe4\\xba\\x8c\\xe5\\x91\\xa8/\\xe7\\xa7\\xbb\\xe5\\x8a\\xa8\\xe5\\x88\\xa0\\xe9\\x99\\xa4\\xe6\\x95\\xb0\\xe7\\xbb\\x84.sol\":448:461  arr=[1,2,3,4] */\n      0xff\n      and\n      dup2\n      mstore\n      0x20\n      add\n        /* \"\\xe7\\xac\\xac\\xe4\\xba\\x8c\\xe5\\x91\\xa8/\\xe7\\xa7\\xbb\\xe5\\x8a\\xa8\\xe5\\x88\\xa0\\xe9\\x99\\xa4\\xe6\\x95\\xb0\\xe7\\xbb\\x84.sol\":455:456  2 */\n      0x02\n        /* \"\\xe7\\xac\\xac\\xe4\\xba\\x8c\\xe5\\x91\\xa8/\\xe7\\xa7\\xbb\\xe5\\x8a\\xa8\\xe5\\x88\\xa0\\xe9\\x99\\xa4\\xe6\\x95\\xb0\\xe7\\xbb\\x84.sol\":448:461  arr=[1,2,3,4] */\n      0xff\n      and\n      dup2\n      mstore\n      0x20\n      add\n        /* \"\\xe7\\xac\\xac\\xe4\\xba\\x8c\\xe5\\x91\\xa8/\\xe7\\xa7\\xbb\\xe5\\x8a\\xa8\\xe5\\x88\\xa0\\xe9\\x99\\xa4\\xe6\\x95\\xb0\\xe7\\xbb\\x84.sol\":457:458  3 */\n      0x03\n        /* \"\\xe7\\xac\\xac\\xe4\\xba\\x8c\\xe5\\x91\\xa8/\\xe7\\xa7\\xbb\\xe5\\x8a\\xa8\\xe5\\x88\\xa0\\xe9\\x99\\xa4\\xe6\\x95\\xb0\\xe7\\xbb\\x84.sol\":448:461  arr=[1,2,3,4] */\n      0xff\n      and\n      dup2\n      mstore\n      0x20\n      add\n        /* \"\\xe7\\xac\\xac\\xe4\\xba\\x8c\\xe5\\x91\\xa8/\\xe7\\xa7\\xbb\\xe5\\x8a\\xa8\\xe5\\x88\\xa0\\xe9\\x99\\xa4\\xe6\\x95\\xb0\\xe7\\xbb\\x84.sol\":459:460  4 */\n      0x04\n        /* \"\\xe7\\xac\\xac\\xe4\\xba\\x8c\\xe5\\x91\\xa8/\\xe7\\xa7\\xbb\\xe5\\x8a\\xa8\\xe5\\x88\\xa0\\xe9\\x99\\xa4\\xe6\\x95\\xb0\\xe7\\xbb\\x84.sol\":448:461  arr=[1,2,3,4] */\n      0xff\n      and\n      dup2\n      mstore\n      pop\n        /* \"\\xe7\\xac\\xac\\xe4\\xba\\x8c\\xe5\\x91\\xa8/\\xe7\\xa7\\xbb\\xe5\\x8a\\xa8\\xe5\\x88\\xa0\\xe9\\x99\\xa4\\xe6\\x95\\xb0\\xe7\\xbb\\x84.sol\":448:451  arr */\n      0x00\n        /* \"\\xe7\\xac\\xac\\xe4\\xba\\x8c\\xe5\\x91\\xa8/\\xe7\\xa7\\xbb\\xe5\\x8a\\xa8\\xe5\\x88\\xa0\\xe9\\x99\\xa4\\xe6\\x95\\xb0\\xe7\\xbb\\x84.sol\":448:461  arr=[1,2,3,4] */\n      swap1\n      0x04\n      tag_51\n      swap3\n      swap2\n      swap1\n      tag_52\n      jump\t// in\n    tag_51:\n      pop\n        /* \"\\xe7\\xac\\xac\\xe4\\xba\\x8c\\xe5\\x91\\xa8/\\xe7\\xa7\\xbb\\xe5\\x8a\\xa8\\xe5\\x88\\xa0\\xe9\\x99\\xa4\\xe6\\x95\\xb0\\xe7\\xbb\\x84.sol\":467:476  remove(2) */\n      tag_53\n        /* \"\\xe7\\xac\\xac\\xe4\\xba\\x8c\\xe5\\x91\\xa8/\\xe7\\xa7\\xbb\\xe5\\x8a\\xa8\\xe5\\x88\\xa0\\xe9\\x99\\xa4\\xe6\\x95\\xb0\\xe7\\xbb\\x84.sol\":474:475  2 */\n      0x02\n        /* \"\\xe7\\xac\\xac\\xe4\\xba\\x8c\\xe5\\x91\\xa8/\\xe7\\xa7\\xbb\\xe5\\x8a\\xa8\\xe5\\x88\\xa0\\xe9\\x99\\xa4\\xe6\\x95\\xb0\\xe7\\xbb\\x84.sol\":467:473  remove */\n      tag_12\n        /* \"\\xe7\\xac\\xac\\xe4\\xba\\x8c\\xe5\\x91\\xa8/\\xe7\\xa7\\xbb\\xe5\\x8a\\xa8\\xe5\\x88\\xa0\\xe9\\x99\\xa4\\xe6\\x95\\xb0\\xe7\\xbb\\x84.sol\":467:476  remove(2) */\n      jump\t// in\n    tag_53:\n        /* \"\\xe7\\xac\\xac\\xe4\\xba\\x8c\\xe5\\x91\\xa8/\\xe7\\xa7\\xbb\\xe5\\x8a\\xa8\\xe5\\x88\\xa0\\xe9\\x99\\xa4\\xe6\\x95\\xb0\\xe7\\xbb\\x84.sol\":511:512  1 */\n      0x01\n        /* \"\\xe7\\xac\\xac\\xe4\\xba\\x8c\\xe5\\x91\\xa8/\\xe7\\xa7\\xbb\\xe5\\x8a\\xa8\\xe5\\x88\\xa0\\xe9\\x99\\xa4\\xe6\\x95\\xb0\\xe7\\xbb\\x84.sol\":503:506  arr */\n      0x00\n        /* \"\\xe7\\xac\\xac\\xe4\\xba\\x8c\\xe5\\x91\\xa8/\\xe7\\xa7\\xbb\\xe5\\x8a\\xa8\\xe5\\x88\\xa0\\xe9\\x99\\xa4\\xe6\\x95\\xb0\\xe7\\xbb\\x84.sol\":507:508  0 */\n      0x00\n        /* \"\\xe7\\xac\\xac\\xe4\\xba\\x8c\\xe5\\x91\\xa8/\\xe7\\xa7\\xbb\\xe5\\x8a\\xa8\\xe5\\x88\\xa0\\xe9\\x99\\xa4\\xe6\\x95\\xb0\\xe7\\xbb\\x84.sol\":503:509  arr[0] */\n      dup2\n      sload\n      dup2\n      lt\n      tag_54\n      jumpi\n      tag_55\n      tag_25\n      jump\t// in\n    tag_55:\n    tag_54:\n      swap1\n      0x00\n      mstore\n      keccak256(0x00, 0x20)\n      add\n      sload\n        /* \"\\xe7\\xac\\xac\\xe4\\xba\\x8c\\xe5\\x91\\xa8/\\xe7\\xa7\\xbb\\xe5\\x8a\\xa8\\xe5\\x88\\xa0\\xe9\\x99\\xa4\\xe6\\x95\\xb0\\xe7\\xbb\\x84.sol\":503:512  arr[0]==1 */\n      eq\n        /* \"\\xe7\\xac\\xac\\xe4\\xba\\x8c\\xe5\\x91\\xa8/\\xe7\\xa7\\xbb\\xe5\\x8a\\xa8\\xe5\\x88\\xa0\\xe9\\x99\\xa4\\xe6\\x95\\xb0\\xe7\\xbb\\x84.sol\":496:513  assert(arr[0]==1) */\n      tag_57\n      jumpi\n      tag_58\n      tag_59\n      jump\t// in\n    tag_58:\n    tag_57:\n        /* \"\\xe7\\xac\\xac\\xe4\\xba\\x8c\\xe5\\x91\\xa8/\\xe7\\xa7\\xbb\\xe5\\x8a\\xa8\\xe5\\x88\\xa0\\xe9\\x99\\xa4\\xe6\\x95\\xb0\\xe7\\xbb\\x84.sol\":534:535  2 */\n      0x02\n        /* \"\\xe7\\xac\\xac\\xe4\\xba\\x8c\\xe5\\x91\\xa8/\\xe7\\xa7\\xbb\\xe5\\x8a\\xa8\\xe5\\x88\\xa0\\xe9\\x99\\xa4\\xe6\\x95\\xb0\\xe7\\xbb\\x84.sol\":526:529  arr */\n      0x00\n        /* \"\\xe7\\xac\\xac\\xe4\\xba\\x8c\\xe5\\x91\\xa8/\\xe7\\xa7\\xbb\\xe5\\x8a\\xa8\\xe5\\x88\\xa0\\xe9\\x99\\xa4\\xe6\\x95\\xb0\\xe7\\xbb\\x84.sol\":530:531  1 */\n      0x01\n        /* \"\\xe7\\xac\\xac\\xe4\\xba\\x8c\\xe5\\x91\\xa8/\\xe7\\xa7\\xbb\\xe5\\x8a\\xa8\\xe5\\x88\\xa0\\xe9\\x99\\xa4\\xe6\\x95\\xb0\\xe7\\xbb\\x84.sol\":526:532  arr[1] */\n      dup2\n      sload\n      dup2\n      lt\n      tag_60\n      jumpi\n      tag_61\n      tag_25\n      jump\t// in\n    tag_61:\n    tag_60:\n      swap1\n      0x00\n      mstore\n      keccak256(0x00, 0x20)\n      add\n      sload\n        /* \"\\xe7\\xac\\xac\\xe4\\xba\\x8c\\xe5\\x91\\xa8/\\xe7\\xa7\\xbb\\xe5\\x8a\\xa8\\xe5\\x88\\xa0\\xe9\\x99\\xa4\\xe6\\x95\\xb0\\xe7\\xbb\\x84.sol\":526:535  arr[1]==2 */\n      eq\n        /* \"\\xe7\\xac\\xac\\xe4\\xba\\x8c\\xe5\\x91\\xa8/\\xe7\\xa7\\xbb\\xe5\\x8a\\xa8\\xe5\\x88\\xa0\\xe9\\x99\\xa4\\xe6\\x95\\xb0\\xe7\\xbb\\x84.sol\":519:536  assert(arr[1]==2) */\n      tag_63\n      jumpi\n      tag_64\n      tag_59\n      jump\t// in\n    tag_64:\n    tag_63:\n        /* \"\\xe7\\xac\\xac\\xe4\\xba\\x8c\\xe5\\x91\\xa8/\\xe7\\xa7\\xbb\\xe5\\x8a\\xa8\\xe5\\x88\\xa0\\xe9\\x99\\xa4\\xe6\\x95\\xb0\\xe7\\xbb\\x84.sol\":557:558  3 */\n      0x03\n        /* \"\\xe7\\xac\\xac\\xe4\\xba\\x8c\\xe5\\x91\\xa8/\\xe7\\xa7\\xbb\\xe5\\x8a\\xa8\\xe5\\x88\\xa0\\xe9\\x99\\xa4\\xe6\\x95\\xb0\\xe7\\xbb\\x84.sol\":549:552  arr */\n      0x00\n        /* \"\\xe7\\xac\\xac\\xe4\\xba\\x8c\\xe5\\x91\\xa8/\\xe7\\xa7\\xbb\\xe5\\x8a\\xa8\\xe5\\x88\\xa0\\xe9\\x99\\xa4\\xe6\\x95\\xb0\\xe7\\xbb\\x84.sol\":553:554  2 */\n      0x02\n        /* \"\\xe7\\xac\\xac\\xe4\\xba\\x8c\\xe5\\x91\\xa8/\\xe7\\xa7\\xbb\\xe5\\x8a\\xa8\\xe5\\x88\\xa0\\xe9\\x99\\xa4\\xe6\\x95\\xb0\\xe7\\xbb\\x84.sol\":549:555  arr[2] */\n      dup2\n      sload\n      dup2\n      lt\n      tag_65\n      jumpi\n      tag_66\n      tag_25\n      jump\t// in\n    tag_66:\n    tag_65:\n      swap1\n      0x00\n      mstore\n      keccak256(0x00, 0x20)\n      add\n      sload\n        /* \"\\xe7\\xac\\xac\\xe4\\xba\\x8c\\xe5\\x91\\xa8/\\xe7\\xa7\\xbb\\xe5\\x8a\\xa8\\xe5\\x88\\xa0\\xe9\\x99\\xa4\\xe6\\x95\\xb0\\xe7\\xbb\\x84.sol\":549:558  arr[2]==3 */\n      eq\n        /* \"\\xe7\\xac\\xac\\xe4\\xba\\x8c\\xe5\\x91\\xa8/\\xe7\\xa7\\xbb\\xe5\\x8a\\xa8\\xe5\\x88\\xa0\\xe9\\x99\\xa4\\xe6\\x95\\xb0\\xe7\\xbb\\x84.sol\":542:559  assert(arr[2]==3) */\n      tag_68\n      jumpi\n      tag_69\n      tag_59\n      jump\t// in\n    tag_69:\n    tag_68:\n        /* \"\\xe7\\xac\\xac\\xe4\\xba\\x8c\\xe5\\x91\\xa8/\\xe7\\xa7\\xbb\\xe5\\x8a\\xa8\\xe5\\x88\\xa0\\xe9\\x99\\xa4\\xe6\\x95\\xb0\\xe7\\xbb\\x84.sol\":580:581  4 */\n      0x04\n        /* \"\\xe7\\xac\\xac\\xe4\\xba\\x8c\\xe5\\x91\\xa8/\\xe7\\xa7\\xbb\\xe5\\x8a\\xa8\\xe5\\x88\\xa0\\xe9\\x99\\xa4\\xe6\\x95\\xb0\\xe7\\xbb\\x84.sol\":572:575  arr */\n      0x00\n        /* \"\\xe7\\xac\\xac\\xe4\\xba\\x8c\\xe5\\x91\\xa8/\\xe7\\xa7\\xbb\\xe5\\x8a\\xa8\\xe5\\x88\\xa0\\xe9\\x99\\xa4\\xe6\\x95\\xb0\\xe7\\xbb\\x84.sol\":576:577  3 */\n      0x03\n        /* \"\\xe7\\xac\\xac\\xe4\\xba\\x8c\\xe5\\x91\\xa8/\\xe7\\xa7\\xbb\\xe5\\x8a\\xa8\\xe5\\x88\\xa0\\xe9\\x99\\xa4\\xe6\\x95\\xb0\\xe7\\xbb\\x84.sol\":572:578  arr[3] */\n      dup2\n      sload\n      dup2\n      lt\n      tag_70\n      jumpi\n      tag_71\n      tag_25\n      jump\t// in\n    tag_71:\n    tag_70:\n      swap1\n      0x00\n      mstore\n      keccak256(0x00, 0x20)\n      add\n      sload\n        /* \"\\xe7\\xac\\xac\\xe4\\xba\\x8c\\xe5\\x91\\xa8/\\xe7\\xa7\\xbb\\xe5\\x8a\\xa8\\xe5\\x88\\xa0\\xe9\\x99\\xa4\\xe6\\x95\\xb0\\xe7\\xbb\\x84.sol\":572:581  arr[3]==4 */\n      eq\n        /* \"\\xe7\\xac\\xac\\xe4\\xba\\x8c\\xe5\\x91\\xa8/\\xe7\\xa7\\xbb\\xe5\\x8a\\xa8\\xe5\\x88\\xa0\\xe9\\x99\\xa4\\xe6\\x95\\xb0\\xe7\\xbb\\x84.sol\":565:582  assert(arr[3]==4) */\n      tag_73\n      jumpi\n      tag_74\n      tag_59\n      jump\t// in\n    tag_74:\n    tag_73:\n        /* \"\\xe7\\xac\\xac\\xe4\\xba\\x8c\\xe5\\x91\\xa8/\\xe7\\xa7\\xbb\\xe5\\x8a\\xa8\\xe5\\x88\\xa0\\xe9\\x99\\xa4\\xe6\\x95\\xb0\\xe7\\xbb\\x84.sol\":587:594  arr=[1] */\n      mload(0x40)\n      dup1\n      0x20\n      add\n      0x40\n      mstore\n      dup1\n        /* \"\\xe7\\xac\\xac\\xe4\\xba\\x8c\\xe5\\x91\\xa8/\\xe7\\xa7\\xbb\\xe5\\x8a\\xa8\\xe5\\x88\\xa0\\xe9\\x99\\xa4\\xe6\\x95\\xb0\\xe7\\xbb\\x84.sol\":592:593  1 */\n      0x01\n        /* \"\\xe7\\xac\\xac\\xe4\\xba\\x8c\\xe5\\x91\\xa8/\\xe7\\xa7\\xbb\\xe5\\x8a\\xa8\\xe5\\x88\\xa0\\xe9\\x99\\xa4\\xe6\\x95\\xb0\\xe7\\xbb\\x84.sol\":587:594  arr=[1] */\n      0xff\n      and\n      dup2\n      mstore\n      pop\n        /* \"\\xe7\\xac\\xac\\xe4\\xba\\x8c\\xe5\\x91\\xa8/\\xe7\\xa7\\xbb\\xe5\\x8a\\xa8\\xe5\\x88\\xa0\\xe9\\x99\\xa4\\xe6\\x95\\xb0\\xe7\\xbb\\x84.sol\":587:590  arr */\n      0x00\n        /* \"\\xe7\\xac\\xac\\xe4\\xba\\x8c\\xe5\\x91\\xa8/\\xe7\\xa7\\xbb\\xe5\\x8a\\xa8\\xe5\\x88\\xa0\\xe9\\x99\\xa4\\xe6\\x95\\xb0\\xe7\\xbb\\x84.sol\":587:594  arr=[1] */\n      swap1\n      0x01\n      tag_75\n      swap3\n      swap2\n      swap1\n      tag_76\n      jump\t// in\n    tag_75:\n      pop\n        /* \"\\xe7\\xac\\xac\\xe4\\xba\\x8c\\xe5\\x91\\xa8/\\xe7\\xa7\\xbb\\xe5\\x8a\\xa8\\xe5\\x88\\xa0\\xe9\\x99\\xa4\\xe6\\x95\\xb0\\xe7\\xbb\\x84.sol\":599:608  remove(0) */\n      tag_77\n        /* \"\\xe7\\xac\\xac\\xe4\\xba\\x8c\\xe5\\x91\\xa8/\\xe7\\xa7\\xbb\\xe5\\x8a\\xa8\\xe5\\x88\\xa0\\xe9\\x99\\xa4\\xe6\\x95\\xb0\\xe7\\xbb\\x84.sol\":606:607  0 */\n      0x00\n        /* \"\\xe7\\xac\\xac\\xe4\\xba\\x8c\\xe5\\x91\\xa8/\\xe7\\xa7\\xbb\\xe5\\x8a\\xa8\\xe5\\x88\\xa0\\xe9\\x99\\xa4\\xe6\\x95\\xb0\\xe7\\xbb\\x84.sol\":599:605  remove */\n      tag_12\n        /* \"\\xe7\\xac\\xac\\xe4\\xba\\x8c\\xe5\\x91\\xa8/\\xe7\\xa7\\xbb\\xe5\\x8a\\xa8\\xe5\\x88\\xa0\\xe9\\x99\\xa4\\xe6\\x95\\xb0\\xe7\\xbb\\x84.sol\":599:608  remove(0) */\n      jump\t// in\n    tag_77:\n        /* \"\\xe7\\xac\\xac\\xe4\\xba\\x8c\\xe5\\x91\\xa8/\\xe7\\xa7\\xbb\\xe5\\x8a\\xa8\\xe5\\x88\\xa0\\xe9\\x99\\xa4\\xe6\\x95\\xb0\\xe7\\xbb\\x84.sol\":632:633  0 */\n      0x00\n        /* \"\\xe7\\xac\\xac\\xe4\\xba\\x8c\\xe5\\x91\\xa8/\\xe7\\xa7\\xbb\\xe5\\x8a\\xa8\\xe5\\x88\\xa0\\xe9\\x99\\xa4\\xe6\\x95\\xb0\\xe7\\xbb\\x84.sol\":620:623  arr */\n      0x00\n        /* \"\\xe7\\xac\\xac\\xe4\\xba\\x8c\\xe5\\x91\\xa8/\\xe7\\xa7\\xbb\\xe5\\x8a\\xa8\\xe5\\x88\\xa0\\xe9\\x99\\xa4\\xe6\\x95\\xb0\\xe7\\xbb\\x84.sol\":620:630  arr.length */\n      dup1\n      sload\n      swap1\n      pop\n        /* \"\\xe7\\xac\\xac\\xe4\\xba\\x8c\\xe5\\x91\\xa8/\\xe7\\xa7\\xbb\\xe5\\x8a\\xa8\\xe5\\x88\\xa0\\xe9\\x99\\xa4\\xe6\\x95\\xb0\\xe7\\xbb\\x84.sol\":620:633  arr.length==0 */\n      eq\n        /* \"\\xe7\\xac\\xac\\xe4\\xba\\x8c\\xe5\\x91\\xa8/\\xe7\\xa7\\xbb\\xe5\\x8a\\xa8\\xe5\\x88\\xa0\\xe9\\x99\\xa4\\xe6\\x95\\xb0\\xe7\\xbb\\x84.sol\":613:634  assert(arr.length==0) */\n      tag_78\n      jumpi\n      tag_79\n      tag_59\n      jump\t// in\n    tag_79:\n    tag_78:\n        /* \"\\xe7\\xac\\xac\\xe4\\xba\\x8c\\xe5\\x91\\xa8/\\xe7\\xa7\\xbb\\xe5\\x8a\\xa8\\xe5\\x88\\xa0\\xe9\\x99\\xa4\\xe6\\x95\\xb0\\xe7\\xbb\\x84.sol\":418:641  function test()external {... */\n      jump\t// out\n    tag_22:\n      dup3\n      dup1\n      sload\n      dup3\n      dup3\n      sstore\n      swap1\n      0x00\n      mstore\n      keccak256(0x00, 0x20)\n      swap1\n      dup2\n      add\n      swap3\n      dup3\n      iszero\n      tag_80\n      jumpi\n      swap2\n      0x20\n      mul\n      dup3\n      add\n    tag_81:\n      dup3\n      dup2\n      gt\n      iszero\n      tag_82\n      jumpi\n      dup3\n      mload\n      dup3\n      swap1\n      0xff\n      and\n      swap1\n      sstore\n      swap2\n      0x20\n      add\n      swap2\n      swap1\n      0x01\n      add\n      swap1\n      jump(tag_81)\n    tag_82:\n    tag_80:\n      pop\n      swap1\n      pop\n      tag_83\n      swap2\n      swap1\n      tag_84\n      jump\t// in\n    tag_83:\n      pop\n      swap1\n      jump\t// out\n    tag_52:\n      dup3\n      dup1\n      sload\n      dup3\n      dup3\n      sstore\n      swap1\n      0x00\n      mstore\n      keccak256(0x00, 0x20)\n      swap1\n      dup2\n      add\n      swap3\n      dup3\n      iszero\n      tag_85\n      jumpi\n      swap2\n      0x20\n      mul\n      dup3\n      add\n    tag_86:\n      dup3\n      dup2\n      gt\n      iszero\n      tag_87\n      jumpi\n      dup3\n      mload\n      dup3\n      swap1\n      0xff\n      and\n      swap1\n      sstore\n      swap2\n      0x20\n      add\n      swap2\n      swap1\n      0x01\n      add\n      swap1\n      jump(tag_86)\n    tag_87:\n    tag_85:\n      pop\n      swap1\n      pop\n      tag_88\n      swap2\n      swap1\n      tag_84\n      jump\t// in\n    tag_88:\n      pop\n      swap1\n      jump\t// out\n    tag_76:\n      dup3\n      dup1\n      sload\n      dup3\n      dup3\n      sstore\n      swap1\n      0x00\n      mstore\n      keccak256(0x00, 0x20)\n      swap1\n      dup2\n      add\n      swap3\n      dup3\n      iszero\n      tag_89\n      jumpi\n      swap2\n      0x20\n      mul\n      dup3\n      add\n    tag_90:\n      dup3\n      dup2\n      gt\n      iszero\n      tag_91\n      jumpi\n      dup3\n      mload\n      dup3\n      swap1\n      0xff\n      and\n      swap1\n      sstore\n      swap2\n      0x20\n      add\n      swap2\n      swap1\n      0x01\n      add\n      swap1\n      jump(tag_90)\n    tag_91:\n    tag_89:\n      pop\n      swap1\n      pop\n      tag_92\n      swap2\n      swap1\n      tag_84\n      jump\t// in\n    tag_92:\n      pop\n      swap1\n      jump\t// out\n    tag_84:\n    tag_93:\n      dup1\n      dup3\n      gt\n      iszero\n      tag_94\n      jumpi\n      0x00\n      dup2\n      0x00\n      swap1\n      sstore\n      pop\n      0x01\n      add\n      jump(tag_93)\n    tag_94:\n      pop\n      swap1\n      jump\t// out\n        /* \"#utility.yul\":88:205   */\n    tag_96:\n        /* \"#utility.yul\":197:198   */\n      0x00\n        /* \"#utility.yul\":194:195   */\n      0x00\n        /* \"#utility.yul\":187:199   */\n      revert\n        /* \"#utility.yul\":334:411   */\n    tag_98:\n        /* \"#utility.yul\":371:378   */\n      0x00\n        /* \"#utility.yul\":400:405   */\n      dup2\n        /* \"#utility.yul\":389:405   */\n      swap1\n      pop\n        /* \"#utility.yul\":334:411   */\n      swap2\n      swap1\n      pop\n      jump\t// out\n        /* \"#utility.yul\":417:539   */\n    tag_99:\n        /* \"#utility.yul\":490:514   */\n      tag_112\n        /* \"#utility.yul\":508:513   */\n      dup2\n        /* \"#utility.yul\":490:514   */\n      tag_98\n      jump\t// in\n    tag_112:\n        /* \"#utility.yul\":483:488   */\n      dup2\n        /* \"#utility.yul\":480:515   */\n      eq\n        /* \"#utility.yul\":470:533   */\n      tag_113\n      jumpi\n        /* \"#utility.yul\":529:530   */\n      0x00\n        /* \"#utility.yul\":526:527   */\n      0x00\n        /* \"#utility.yul\":519:531   */\n      revert\n        /* \"#utility.yul\":470:533   */\n    tag_113:\n        /* \"#utility.yul\":417:539   */\n      pop\n      jump\t// out\n        /* \"#utility.yul\":545:684   */\n    tag_100:\n        /* \"#utility.yul\":591:596   */\n      0x00\n        /* \"#utility.yul\":629:635   */\n      dup2\n        /* \"#utility.yul\":616:636   */\n      calldataload\n        /* \"#utility.yul\":607:636   */\n      swap1\n      pop\n        /* \"#utility.yul\":645:678   */\n      tag_115\n        /* \"#utility.yul\":672:677   */\n      dup2\n        /* \"#utility.yul\":645:678   */\n      tag_99\n      jump\t// in\n    tag_115:\n        /* \"#utility.yul\":545:684   */\n      swap3\n      swap2\n      pop\n      pop\n      jump\t// out\n        /* \"#utility.yul\":690:1019   */\n    tag_11:\n        /* \"#utility.yul\":749:755   */\n      0x00\n        /* \"#utility.yul\":798:800   */\n      0x20\n        /* \"#utility.yul\":786:795   */\n      dup3\n        /* \"#utility.yul\":777:784   */\n      dup5\n        /* \"#utility.yul\":773:796   */\n      sub\n        /* \"#utility.yul\":769:801   */\n      slt\n        /* \"#utility.yul\":766:885   */\n      iszero\n      tag_117\n      jumpi\n        /* \"#utility.yul\":804:883   */\n      tag_118\n      tag_96\n      jump\t// in\n    tag_118:\n        /* \"#utility.yul\":766:885   */\n    tag_117:\n        /* \"#utility.yul\":924:925   */\n      0x00\n        /* \"#utility.yul\":949:1002   */\n      tag_119\n        /* \"#utility.yul\":994:1001   */\n      dup5\n        /* \"#utility.yul\":985:991   */\n      dup3\n        /* \"#utility.yul\":974:983   */\n      dup6\n        /* \"#utility.yul\":970:992   */\n      add\n        /* \"#utility.yul\":949:1002   */\n      tag_100\n      jump\t// in\n    tag_119:\n        /* \"#utility.yul\":939:1002   */\n      swap2\n      pop\n        /* \"#utility.yul\":895:1012   */\n      pop\n        /* \"#utility.yul\":690:1019   */\n      swap3\n      swap2\n      pop\n      pop\n      jump\t// out\n        /* \"#utility.yul\":1025:1143   */\n    tag_101:\n        /* \"#utility.yul\":1112:1136   */\n      tag_121\n        /* \"#utility.yul\":1130:1135   */\n      dup2\n        /* \"#utility.yul\":1112:1136   */\n      tag_98\n      jump\t// in\n    tag_121:\n        /* \"#utility.yul\":1107:1110   */\n      dup3\n        /* \"#utility.yul\":1100:1137   */\n      mstore\n        /* \"#utility.yul\":1025:1143   */\n      pop\n      pop\n      jump\t// out\n        /* \"#utility.yul\":1149:1371   */\n    tag_17:\n        /* \"#utility.yul\":1242:1246   */\n      0x00\n        /* \"#utility.yul\":1280:1282   */\n      0x20\n        /* \"#utility.yul\":1269:1278   */\n      dup3\n        /* \"#utility.yul\":1265:1283   */\n      add\n        /* \"#utility.yul\":1257:1283   */\n      swap1\n      pop\n        /* \"#utility.yul\":1293:1364   */\n      tag_123\n        /* \"#utility.yul\":1361:1362   */\n      0x00\n        /* \"#utility.yul\":1350:1359   */\n      dup4\n        /* \"#utility.yul\":1346:1363   */\n      add\n        /* \"#utility.yul\":1337:1343   */\n      dup5\n        /* \"#utility.yul\":1293:1364   */\n      tag_101\n      jump\t// in\n    tag_123:\n        /* \"#utility.yul\":1149:1371   */\n      swap3\n      swap2\n      pop\n      pop\n      jump\t// out\n        /* \"#utility.yul\":1377:1557   */\n    tag_25:\n        /* \"#utility.yul\":1425:1502   */\n      0x4e487b7100000000000000000000000000000000000000000000000000000000\n        /* \"#utility.yul\":1422:1423   */\n      0x00\n        /* \"#utility.yul\":1415:1503   */\n      mstore\n        /* \"#utility.yul\":1522:1526   */\n      0x32\n        /* \"#utility.yul\":1519:1520   */\n      0x04\n        /* \"#utility.yul\":1512:1527   */\n      mstore\n        /* \"#utility.yul\":1546:1550   */\n      0x24\n        /* \"#utility.yul\":1543:1544   */\n      0x00\n        /* \"#utility.yul\":1536:1551   */\n      revert\n        /* \"#utility.yul\":1563:1732   */\n    tag_102:\n        /* \"#utility.yul\":1647:1658   */\n      0x00\n        /* \"#utility.yul\":1681:1687   */\n      dup3\n        /* \"#utility.yul\":1676:1679   */\n      dup3\n        /* \"#utility.yul\":1669:1688   */\n      mstore\n        /* \"#utility.yul\":1721:1725   */\n      0x20\n        /* \"#utility.yul\":1716:1719   */\n      dup3\n        /* \"#utility.yul\":1712:1726   */\n      add\n        /* \"#utility.yul\":1697:1726   */\n      swap1\n      pop\n        /* \"#utility.yul\":1563:1732   */\n      swap3\n      swap2\n      pop\n      pop\n      jump\t// out\n        /* \"#utility.yul\":1738:1906   */\n    tag_103:\n        /* \"#utility.yul\":1878:1898   */\n      0x696e646578206f7574206f6620626f756e640000000000000000000000000000\n        /* \"#utility.yul\":1874:1875   */\n      0x00\n        /* \"#utility.yul\":1866:1872   */\n      dup3\n        /* \"#utility.yul\":1862:1876   */\n      add\n        /* \"#utility.yul\":1855:1899   */\n      mstore\n        /* \"#utility.yul\":1738:1906   */\n      pop\n      jump\t// out\n        /* \"#utility.yul\":1912:2278   */\n    tag_104:\n        /* \"#utility.yul\":2054:2057   */\n      0x00\n        /* \"#utility.yul\":2075:2142   */\n      tag_128\n        /* \"#utility.yul\":2139:2141   */\n      0x12\n        /* \"#utility.yul\":2134:2137   */\n      dup4\n        /* \"#utility.yul\":2075:2142   */\n      tag_102\n      jump\t// in\n    tag_128:\n        /* \"#utility.yul\":2068:2142   */\n      swap2\n      pop\n        /* \"#utility.yul\":2151:2244   */\n      tag_129\n        /* \"#utility.yul\":2240:2243   */\n      dup3\n        /* \"#utility.yul\":2151:2244   */\n      tag_103\n      jump\t// in\n    tag_129:\n        /* \"#utility.yul\":2269:2271   */\n      0x20\n        /* \"#utility.yul\":2264:2267   */\n      dup3\n        /* \"#utility.yul\":2260:2272   */\n      add\n        /* \"#utility.yul\":2253:2272   */\n      swap1\n      pop\n        /* \"#utility.yul\":1912:2278   */\n      swap2\n      swap1\n      pop\n      jump\t// out\n        /* \"#utility.yul\":2284:2703   */\n    tag_30:\n        /* \"#utility.yul\":2450:2454   */\n      0x00\n        /* \"#utility.yul\":2488:2490   */\n      0x20\n        /* \"#utility.yul\":2477:2486   */\n      dup3\n        /* \"#utility.yul\":2473:2491   */\n      add\n        /* \"#utility.yul\":2465:2491   */\n      swap1\n      pop\n        /* \"#utility.yul\":2537:2546   */\n      dup2\n        /* \"#utility.yul\":2531:2535   */\n      dup2\n        /* \"#utility.yul\":2527:2547   */\n      sub\n        /* \"#utility.yul\":2523:2524   */\n      0x00\n        /* \"#utility.yul\":2512:2521   */\n      dup4\n        /* \"#utility.yul\":2508:2525   */\n      add\n        /* \"#utility.yul\":2501:2548   */\n      mstore\n        /* \"#utility.yul\":2565:2696   */\n      tag_131\n        /* \"#utility.yul\":2691:2695   */\n      dup2\n        /* \"#utility.yul\":2565:2696   */\n      tag_104\n      jump\t// in\n    tag_131:\n        /* \"#utility.yul\":2557:2696   */\n      swap1\n      pop\n        /* \"#utility.yul\":2284:2703   */\n      swap2\n      swap1\n      pop\n      jump\t// out\n        /* \"#utility.yul\":2709:2889   */\n    tag_105:\n        /* \"#utility.yul\":2757:2834   */\n      0x4e487b7100000000000000000000000000000000000000000000000000000000\n        /* \"#utility.yul\":2754:2755   */\n      0x00\n        /* \"#utility.yul\":2747:2835   */\n      mstore\n        /* \"#utility.yul\":2854:2858   */\n      0x11\n        /* \"#utility.yul\":2851:2852   */\n      0x04\n        /* \"#utility.yul\":2844:2859   */\n      mstore\n        /* \"#utility.yul\":2878:2882   */\n      0x24\n        /* \"#utility.yul\":2875:2876   */\n      0x00\n        /* \"#utility.yul\":2868:2883   */\n      revert\n        /* \"#utility.yul\":2895:3089   */\n    tag_35:\n        /* \"#utility.yul\":2935:2939   */\n      0x00\n        /* \"#utility.yul\":2955:2975   */\n      tag_134\n        /* \"#utility.yul\":2973:2974   */\n      dup3\n        /* \"#utility.yul\":2955:2975   */\n      tag_98\n      jump\t// in\n    tag_134:\n        /* \"#utility.yul\":2950:2975   */\n      swap2\n      pop\n        /* \"#utility.yul\":2989:3009   */\n      tag_135\n        /* \"#utility.yul\":3007:3008   */\n      dup4\n        /* \"#utility.yul\":2989:3009   */\n      tag_98\n      jump\t// in\n    tag_135:\n        /* \"#utility.yul\":2984:3009   */\n      swap3\n      pop\n        /* \"#utility.yul\":3033:3034   */\n      dup3\n        /* \"#utility.yul\":3030:3031   */\n      dup3\n        /* \"#utility.yul\":3026:3035   */\n      sub\n        /* \"#utility.yul\":3018:3035   */\n      swap1\n      pop\n        /* \"#utility.yul\":3057:3058   */\n      dup2\n        /* \"#utility.yul\":3051:3055   */\n      dup2\n        /* \"#utility.yul\":3048:3059   */\n      gt\n        /* \"#utility.yul\":3045:3082   */\n      iszero\n      tag_136\n      jumpi\n        /* \"#utility.yul\":3062:3080   */\n      tag_137\n      tag_105\n      jump\t// in\n    tag_137:\n        /* \"#utility.yul\":3045:3082   */\n    tag_136:\n        /* \"#utility.yul\":2895:3089   */\n      swap3\n      swap2\n      pop\n      pop\n      jump\t// out\n        /* \"#utility.yul\":3095:3286   */\n    tag_37:\n        /* \"#utility.yul\":3135:3138   */\n      0x00\n        /* \"#utility.yul\":3154:3174   */\n      tag_139\n        /* \"#utility.yul\":3172:3173   */\n      dup3\n        /* \"#utility.yul\":3154:3174   */\n      tag_98\n      jump\t// in\n    tag_139:\n        /* \"#utility.yul\":3149:3174   */\n      swap2\n      pop\n        /* \"#utility.yul\":3188:3208   */\n      tag_140\n        /* \"#utility.yul\":3206:3207   */\n      dup4\n        /* \"#utility.yul\":3188:3208   */\n      tag_98\n      jump\t// in\n    tag_140:\n        /* \"#utility.yul\":3183:3208   */\n      swap3\n      pop\n        /* \"#utility.yul\":3231:3232   */\n      dup3\n        /* \"#utility.yul\":3228:3229   */\n      dup3\n        /* \"#utility.yul\":3224:3233   */\n      add\n        /* \"#utility.yul\":3217:3233   */\n      swap1\n      pop\n        /* \"#utility.yul\":3252:3255   */\n      dup1\n        /* \"#utility.yul\":3249:3250   */\n      dup3\n        /* \"#utility.yul\":3246:3256   */\n      gt\n        /* \"#utility.yul\":3243:3279   */\n      iszero\n      tag_141\n      jumpi\n        /* \"#utility.yul\":3259:3277   */\n      tag_142\n      tag_105\n      jump\t// in\n    tag_142:\n        /* \"#utility.yul\":3243:3279   */\n    tag_141:\n        /* \"#utility.yul\":3095:3286   */\n      swap3\n      swap2\n      pop\n      pop\n      jump\t// out\n        /* \"#utility.yul\":3292:3472   */\n    tag_46:\n        /* \"#utility.yul\":3340:3417   */\n      0x4e487b7100000000000000000000000000000000000000000000000000000000\n        /* \"#utility.yul\":3337:3338   */\n      0x00\n        /* \"#utility.yul\":3330:3418   */\n      mstore\n        /* \"#utility.yul\":3437:3441   */\n      0x31\n        /* \"#utility.yul\":3434:3435   */\n      0x04\n        /* \"#utility.yul\":3427:3442   */\n      mstore\n        /* \"#utility.yul\":3461:3465   */\n      0x24\n        /* \"#utility.yul\":3458:3459   */\n      0x00\n        /* \"#utility.yul\":3451:3466   */\n      revert\n        /* \"#utility.yul\":3478:3658   */\n    tag_59:\n        /* \"#utility.yul\":3526:3603   */\n      0x4e487b7100000000000000000000000000000000000000000000000000000000\n        /* \"#utility.yul\":3523:3524   */\n      0x00\n        /* \"#utility.yul\":3516:3604   */\n      mstore\n        /* \"#utility.yul\":3623:3627   */\n      0x01\n        /* \"#utility.yul\":3620:3621   */\n      0x04\n        /* \"#utility.yul\":3613:3628   */\n      mstore\n        /* \"#utility.yul\":3647:3651   */\n      0x24\n        /* \"#utility.yul\":3644:3645   */\n      0x00\n        /* \"#utility.yul\":3637:3652   */\n      revert\n\n    auxdata: 0xa26469706673582212202d5544389cf66042a256e87b0feeeafde0ba67156de4462f8ca8d79be22fa19464736f6c634300081e0033\n}\n",
				"bytecode": {
					"linkReferences": {},
					"object": "6080604052348015600e575f5ffd5b506106a18061001c5f395ff3fe608060405234801561000f575f5ffd5b506004361061004a575f3560e01c8063335d00c21461004e5780634cc822151461005857806371e5ee5f14610074578063f8a8fd6d146100a4575b5f5ffd5b6100566100ae565b005b610072600480360381019061006d9190610486565b610106565b005b61008e60048036038101906100899190610486565b6101e5565b60405161009b91906104c0565b60405180910390f35b6100ac610204565b005b6040518060600160405280600160ff168152602001600260ff168152602001600360ff168152505f9060036100e4929190610344565b505f6001815481106100f9576100f86104d9565b5b905f5260205f20015f9055565b5f80549050811061014c576040517f08c379a000000000000000000000000000000000000000000000000000000000815260040161014390610560565b60405180910390fd5b5f8190505b60015f8054905061016291906105ab565b8110156101bd575f60018261017791906105de565b81548110610188576101876104d9565b5b905f5260205f2001545f82815481106101a4576101a36104d9565b5b905f5260205f2001819055508080600101915050610151565b505f8054806101cf576101ce610611565b5b600190038181905f5260205f20015f9055905550565b5f81815481106101f3575f80fd5b905f5260205f20015f915090505481565b6040518060800160405280600160ff168152602001600260ff168152602001600360ff168152602001600460ff168152505f906004610244929190610394565b5061024f6002610106565b60015f5f81548110610264576102636104d9565b5b905f5260205f2001541461027b5761027a61063e565b5b60025f600181548110610291576102906104d9565b5b905f5260205f200154146102a8576102a761063e565b5b60035f6002815481106102be576102bd6104d9565b5b905f5260205f200154146102d5576102d461063e565b5b60045f6003815481106102eb576102ea6104d9565b5b905f5260205f200154146103025761030161063e565b5b6040518060200160405280600160ff168152505f9060016103249291906103e4565b5061032e5f610106565b5f5f80549050146103425761034161063e565b5b565b828054828255905f5260205f20908101928215610383579160200282015b82811115610382578251829060ff16905591602001919060010190610362565b5b5090506103909190610434565b5090565b828054828255905f5260205f209081019282156103d3579160200282015b828111156103d2578251829060ff169055916020019190600101906103b2565b5b5090506103e09190610434565b5090565b828054828255905f5260205f20908101928215610423579160200282015b82811115610422578251829060ff16905591602001919060010190610402565b5b5090506104309190610434565b5090565b5b8082111561044b575f815f905550600101610435565b5090565b5f5ffd5b5f819050919050565b61046581610453565b811461046f575f5ffd5b50565b5f813590506104808161045c565b92915050565b5f6020828403121561049b5761049a61044f565b5b5f6104a884828501610472565b91505092915050565b6104ba81610453565b82525050565b5f6020820190506104d35f8301846104b1565b92915050565b7f4e487b71000000000000000000000000000000000000000000000000000000005f52603260045260245ffd5b5f82825260208201905092915050565b7f696e646578206f7574206f6620626f756e6400000000000000000000000000005f82015250565b5f61054a601283610506565b915061055582610516565b602082019050919050565b5f6020820190508181035f8301526105778161053e565b9050919050565b7f4e487b71000000000000000000000000000000000000000000000000000000005f52601160045260245ffd5b5f6105b582610453565b91506105c083610453565b92508282039050818111156105d8576105d761057e565b5b92915050565b5f6105e882610453565b91506105f383610453565b925082820190508082111561060b5761060a61057e565b5b92915050565b7f4e487b71000000000000000000000000000000000000000000000000000000005f52603160045260245ffd5b7f4e487b71000000000000000000000000000000000000000000000000000000005f52600160045260245ffdfea26469706673582212202d5544389cf66042a256e87b0feeeafde0ba67156de4462f8ca8d79be22fa19464736f6c634300081e0033",
					"opcodes": "PUSH1 0x80 PUSH1 0x40 MSTORE CALLVALUE DUP1 ISZERO PUSH1 0xE JUMPI PUSH0 PUSH0 REVERT JUMPDEST POP PUSH2 0x6A1 DUP1 PUSH2 0x1C PUSH0 CODECOPY PUSH0 RETURN INVALID PUSH1 0x80 PUSH1 0x40 MSTORE CALLVALUE DUP1 ISZERO PUSH2 0xF JUMPI PUSH0 PUSH0 REVERT JUMPDEST POP PUSH1 0x4 CALLDATASIZE LT PUSH2 0x4A JUMPI PUSH0 CALLDATALOAD PUSH1 0xE0 SHR DUP1 PUSH4 0x335D00C2 EQ PUSH2 0x4E JUMPI DUP1 PUSH4 0x4CC82215 EQ PUSH2 0x58 JUMPI DUP1 PUSH4 0x71E5EE5F EQ PUSH2 0x74 JUMPI DUP1 PUSH4 0xF8A8FD6D EQ PUSH2 0xA4 JUMPI JUMPDEST PUSH0 PUSH0 REVERT JUMPDEST PUSH2 0x56 PUSH2 0xAE JUMP JUMPDEST STOP JUMPDEST PUSH2 0x72 PUSH1 0x4 DUP1 CALLDATASIZE SUB DUP2 ADD SWAP1 PUSH2 0x6D SWAP2 SWAP1 PUSH2 0x486 JUMP JUMPDEST PUSH2 0x106 JUMP JUMPDEST STOP JUMPDEST PUSH2 0x8E PUSH1 0x4 DUP1 CALLDATASIZE SUB DUP2 ADD SWAP1 PUSH2 0x89 SWAP2 SWAP1 PUSH2 0x486 JUMP JUMPDEST PUSH2 0x1E5 JUMP JUMPDEST PUSH1 0x40 MLOAD PUSH2 0x9B SWAP2 SWAP1 PUSH2 0x4C0 JUMP JUMPDEST PUSH1 0x40 MLOAD DUP1 SWAP2 SUB SWAP1 RETURN JUMPDEST PUSH2 0xAC PUSH2 0x204 JUMP JUMPDEST STOP JUMPDEST PUSH1 0x40 MLOAD DUP1 PUSH1 0x60 ADD PUSH1 0x40 MSTORE DUP1 PUSH1 0x1 PUSH1 0xFF AND DUP2 MSTORE PUSH1 0x20 ADD PUSH1 0x2 PUSH1 0xFF AND DUP2 MSTORE PUSH1 0x20 ADD PUSH1 0x3 PUSH1 0xFF AND DUP2 MSTORE POP PUSH0 SWAP1 PUSH1 0x3 PUSH2 0xE4 SWAP3 SWAP2 SWAP1 PUSH2 0x344 JUMP JUMPDEST POP PUSH0 PUSH1 0x1 DUP2 SLOAD DUP2 LT PUSH2 0xF9 JUMPI PUSH2 0xF8 PUSH2 0x4D9 JUMP JUMPDEST JUMPDEST SWAP1 PUSH0 MSTORE PUSH1 0x20 PUSH0 KECCAK256 ADD PUSH0 SWAP1 SSTORE JUMP JUMPDEST PUSH0 DUP1 SLOAD SWAP1 POP DUP2 LT PUSH2 0x14C JUMPI PUSH1 0x40 MLOAD PUSH32 0x8C379A000000000000000000000000000000000000000000000000000000000 DUP2 MSTORE PUSH1 0x4 ADD PUSH2 0x143 SWAP1 PUSH2 0x560 JUMP JUMPDEST PUSH1 0x40 MLOAD DUP1 SWAP2 SUB SWAP1 REVERT JUMPDEST PUSH0 DUP2 SWAP1 POP JUMPDEST PUSH1 0x1 PUSH0 DUP1 SLOAD SWAP1 POP PUSH2 0x162 SWAP2 SWAP1 PUSH2 0x5AB JUMP JUMPDEST DUP2 LT ISZERO PUSH2 0x1BD JUMPI PUSH0 PUSH1 0x1 DUP3 PUSH2 0x177 SWAP2 SWAP1 PUSH2 0x5DE JUMP JUMPDEST DUP2 SLOAD DUP2 LT PUSH2 0x188 JUMPI PUSH2 0x187 PUSH2 0x4D9 JUMP JUMPDEST JUMPDEST SWAP1 PUSH0 MSTORE PUSH1 0x20 PUSH0 KECCAK256 ADD SLOAD PUSH0 DUP3 DUP2 SLOAD DUP2 LT PUSH2 0x1A4 JUMPI PUSH2 0x1A3 PUSH2 0x4D9 JUMP JUMPDEST JUMPDEST SWAP1 PUSH0 MSTORE PUSH1 0x20 PUSH0 KECCAK256 ADD DUP2 SWAP1 SSTORE POP DUP1 DUP1 PUSH1 0x1 ADD SWAP2 POP POP PUSH2 0x151 JUMP JUMPDEST POP PUSH0 DUP1 SLOAD DUP1 PUSH2 0x1CF JUMPI PUSH2 0x1CE PUSH2 0x611 JUMP JUMPDEST JUMPDEST PUSH1 0x1 SWAP1 SUB DUP2 DUP2 SWAP1 PUSH0 MSTORE PUSH1 0x20 PUSH0 KECCAK256 ADD PUSH0 SWAP1 SSTORE SWAP1 SSTORE POP JUMP JUMPDEST PUSH0 DUP2 DUP2 SLOAD DUP2 LT PUSH2 0x1F3 JUMPI PUSH0 DUP1 REVERT JUMPDEST SWAP1 PUSH0 MSTORE PUSH1 0x20 PUSH0 KECCAK256 ADD PUSH0 SWAP2 POP SWAP1 POP SLOAD DUP2 JUMP JUMPDEST PUSH1 0x40 MLOAD DUP1 PUSH1 0x80 ADD PUSH1 0x40 MSTORE DUP1 PUSH1 0x1 PUSH1 0xFF AND DUP2 MSTORE PUSH1 0x20 ADD PUSH1 0x2 PUSH1 0xFF AND DUP2 MSTORE PUSH1 0x20 ADD PUSH1 0x3 PUSH1 0xFF AND DUP2 MSTORE PUSH1 0x20 ADD PUSH1 0x4 PUSH1 0xFF AND DUP2 MSTORE POP PUSH0 SWAP1 PUSH1 0x4 PUSH2 0x244 SWAP3 SWAP2 SWAP1 PUSH2 0x394 JUMP JUMPDEST POP PUSH2 0x24F PUSH1 0x2 PUSH2 0x106 JUMP JUMPDEST PUSH1 0x1 PUSH0 PUSH0 DUP2 SLOAD DUP2 LT PUSH2 0x264 JUMPI PUSH2 0x263 PUSH2 0x4D9 JUMP JUMPDEST JUMPDEST SWAP1 PUSH0 MSTORE PUSH1 0x20 PUSH0 KECCAK256 ADD SLOAD EQ PUSH2 0x27B JUMPI PUSH2 0x27A PUSH2 0x63E JUMP JUMPDEST JUMPDEST PUSH1 0x2 PUSH0 PUSH1 0x1 DUP2 SLOAD DUP2 LT PUSH2 0x291 JUMPI PUSH2 0x290 PUSH2 0x4D9 JUMP JUMPDEST JUMPDEST SWAP1 PUSH0 MSTORE PUSH1 0x20 PUSH0 KECCAK256 ADD SLOAD EQ PUSH2 0x2A8 JUMPI PUSH2 0x2A7 PUSH2 0x63E JUMP JUMPDEST JUMPDEST PUSH1 0x3 PUSH0 PUSH1 0x2 DUP2 SLOAD DUP2 LT PUSH2 0x2BE JUMPI PUSH2 0x2BD PUSH2 0x4D9 JUMP JUMPDEST JUMPDEST SWAP1 PUSH0 MSTORE PUSH1 0x20 PUSH0 KECCAK256 ADD SLOAD EQ PUSH2 0x2D5 JUMPI PUSH2 0x2D4 PUSH2 0x63E JUMP JUMPDEST JUMPDEST PUSH1 0x4 PUSH0 PUSH1 0x3 DUP2 SLOAD DUP2 LT PUSH2 0x2EB JUMPI PUSH2 0x2EA PUSH2 0x4D9 JUMP JUMPDEST JUMPDEST SWAP1 PUSH0 MSTORE PUSH1 0x20 PUSH0 KECCAK256 ADD SLOAD EQ PUSH2 0x302 JUMPI PUSH2 0x301 PUSH2 0x63E JUMP JUMPDEST JUMPDEST PUSH1 0x40 MLOAD DUP1 PUSH1 0x20 ADD PUSH1 0x40 MSTORE DUP1 PUSH1 0x1 PUSH1 0xFF AND DUP2 MSTORE POP PUSH0 SWAP1 PUSH1 0x1 PUSH2 0x324 SWAP3 SWAP2 SWAP1 PUSH2 0x3E4 JUMP JUMPDEST POP PUSH2 0x32E PUSH0 PUSH2 0x106 JUMP JUMPDEST PUSH0 PUSH0 DUP1 SLOAD SWAP1 POP EQ PUSH2 0x342 JUMPI PUSH2 0x341 PUSH2 0x63E JUMP JUMPDEST JUMPDEST JUMP JUMPDEST DUP3 DUP1 SLOAD DUP3 DUP3 SSTORE SWAP1 PUSH0 MSTORE PUSH1 0x20 PUSH0 KECCAK256 SWAP1 DUP2 ADD SWAP3 DUP3 ISZERO PUSH2 0x383 JUMPI SWAP2 PUSH1 0x20 MUL DUP3 ADD JUMPDEST DUP3 DUP2 GT ISZERO PUSH2 0x382 JUMPI DUP3 MLOAD DUP3 SWAP1 PUSH1 0xFF AND SWAP1 SSTORE SWAP2 PUSH1 0x20 ADD SWAP2 SWAP1 PUSH1 0x1 ADD SWAP1 PUSH2 0x362 JUMP JUMPDEST JUMPDEST POP SWAP1 POP PUSH2 0x390 SWAP2 SWAP1 PUSH2 0x434 JUMP JUMPDEST POP SWAP1 JUMP JUMPDEST DUP3 DUP1 SLOAD DUP3 DUP3 SSTORE SWAP1 PUSH0 MSTORE PUSH1 0x20 PUSH0 KECCAK256 SWAP1 DUP2 ADD SWAP3 DUP3 ISZERO PUSH2 0x3D3 JUMPI SWAP2 PUSH1 0x20 MUL DUP3 ADD JUMPDEST DUP3 DUP2 GT ISZERO PUSH2 0x3D2 JUMPI DUP3 MLOAD DUP3 SWAP1 PUSH1 0xFF AND SWAP1 SSTORE SWAP2 PUSH1 0x20 ADD SWAP2 SWAP1 PUSH1 0x1 ADD SWAP1 PUSH2 0x3B2 JUMP JUMPDEST JUMPDEST POP SWAP1 POP PUSH2 0x3E0 SWAP2 SWAP1 PUSH2 0x434 JUMP JUMPDEST POP SWAP1 JUMP JUMPDEST DUP3 DUP1 SLOAD DUP3 DUP3 SSTORE SWAP1 PUSH0 MSTORE PUSH1 0x20 PUSH0 KECCAK256 SWAP1 DUP2 ADD SWAP3 DUP3 ISZERO PUSH2 0x423 JUMPI SWAP2 PUSH1 0x20 MUL DUP3 ADD JUMPDEST DUP3 DUP2 GT ISZERO PUSH2 0x422 JUMPI DUP3 MLOAD DUP3 SWAP1 PUSH1 0xFF AND SWAP1 SSTORE SWAP2 PUSH1 0x20 ADD SWAP2 SWAP1 PUSH1 0x1 ADD SWAP1 PUSH2 0x402 JUMP JUMPDEST JUMPDEST POP SWAP1 POP PUSH2 0x430 SWAP2 SWAP1 PUSH2 0x434 JUMP JUMPDEST POP SWAP1 JUMP JUMPDEST JUMPDEST DUP1 DUP3 GT ISZERO PUSH2 0x44B JUMPI PUSH0 DUP2 PUSH0 SWAP1 SSTORE POP PUSH1 0x1 ADD PUSH2 0x435 JUMP JUMPDEST POP SWAP1 JUMP JUMPDEST PUSH0 PUSH0 REVERT JUMPDEST PUSH0 DUP2 SWAP1 POP SWAP2 SWAP1 POP JUMP JUMPDEST PUSH2 0x465 DUP2 PUSH2 0x453 JUMP JUMPDEST DUP2 EQ PUSH2 0x46F JUMPI PUSH0 PUSH0 REVERT JUMPDEST POP JUMP JUMPDEST PUSH0 DUP2 CALLDATALOAD SWAP1 POP PUSH2 0x480 DUP2 PUSH2 0x45C JUMP JUMPDEST SWAP3 SWAP2 POP POP JUMP JUMPDEST PUSH0 PUSH1 0x20 DUP3 DUP5 SUB SLT ISZERO PUSH2 0x49B JUMPI PUSH2 0x49A PUSH2 0x44F JUMP JUMPDEST JUMPDEST PUSH0 PUSH2 0x4A8 DUP5 DUP3 DUP6 ADD PUSH2 0x472 JUMP JUMPDEST SWAP2 POP POP SWAP3 SWAP2 POP POP JUMP JUMPDEST PUSH2 0x4BA DUP2 PUSH2 0x453 JUMP JUMPDEST DUP3 MSTORE POP POP JUMP JUMPDEST PUSH0 PUSH1 0x20 DUP3 ADD SWAP1 POP PUSH2 0x4D3 PUSH0 DUP4 ADD DUP5 PUSH2 0x4B1 JUMP JUMPDEST SWAP3 SWAP2 POP POP JUMP JUMPDEST PUSH32 0x4E487B7100000000000000000000000000000000000000000000000000000000 PUSH0 MSTORE PUSH1 0x32 PUSH1 0x4 MSTORE PUSH1 0x24 PUSH0 REVERT JUMPDEST PUSH0 DUP3 DUP3 MSTORE PUSH1 0x20 DUP3 ADD SWAP1 POP SWAP3 SWAP2 POP POP JUMP JUMPDEST PUSH32 0x696E646578206F7574206F6620626F756E640000000000000000000000000000 PUSH0 DUP3 ADD MSTORE POP JUMP JUMPDEST PUSH0 PUSH2 0x54A PUSH1 0x12 DUP4 PUSH2 0x506 JUMP JUMPDEST SWAP2 POP PUSH2 0x555 DUP3 PUSH2 0x516 JUMP JUMPDEST PUSH1 0x20 DUP3 ADD SWAP1 POP SWAP2 SWAP1 POP JUMP JUMPDEST PUSH0 PUSH1 0x20 DUP3 ADD SWAP1 POP DUP2 DUP2 SUB PUSH0 DUP4 ADD MSTORE PUSH2 0x577 DUP2 PUSH2 0x53E JUMP JUMPDEST SWAP1 POP SWAP2 SWAP1 POP JUMP JUMPDEST PUSH32 0x4E487B7100000000000000000000000000000000000000000000000000000000 PUSH0 MSTORE PUSH1 0x11 PUSH1 0x4 MSTORE PUSH1 0x24 PUSH0 REVERT JUMPDEST PUSH0 PUSH2 0x5B5 DUP3 PUSH2 0x453 JUMP JUMPDEST SWAP2 POP PUSH2 0x5C0 DUP4 PUSH2 0x453 JUMP JUMPDEST SWAP3 POP DUP3 DUP3 SUB SWAP1 POP DUP2 DUP2 GT ISZERO PUSH2 0x5D8 JUMPI PUSH2 0x5D7 PUSH2 0x57E JUMP JUMPDEST JUMPDEST SWAP3 SWAP2 POP POP JUMP JUMPDEST PUSH0 PUSH2 0x5E8 DUP3 PUSH2 0x453 JUMP JUMPDEST SWAP2 POP PUSH2 0x5F3 DUP4 PUSH2 0x453 JUMP JUMPDEST SWAP3 POP DUP3 DUP3 ADD SWAP1 POP DUP1 DUP3 GT ISZERO PUSH2 0x60B JUMPI PUSH2 0x60A PUSH2 0x57E JUMP JUMPDEST JUMPDEST SWAP3 SWAP2 POP POP JUMP JUMPDEST PUSH32 0x4E487B7100000000000000000000000000000000000000000000000000000000 PUSH0 MSTORE PUSH1 0x31 PUSH1 0x4 MSTORE PUSH1 0x24 PUSH0 REVERT JUMPDEST PUSH32 0x4E487B7100000000000000000000000000000000000000000000000000000000 PUSH0 MSTORE PUSH1 0x1 PUSH1 0x4 MSTORE PUSH1 0x24 PUSH0 REVERT INVALID LOG2 PUSH5 0x6970667358 0x22 SLT KECCAK256 0x2D SSTORE PREVRANDAO CODESIZE SWAP13 0xF6 PUSH1 0x42 LOG2 JUMP 0xE8 PUSH28 0xFEEEAFDE0BA67156DE4462F8CA8D79BE22FA19464736F6C63430008 0x1E STOP CALLER "
				},
				"gasEstimates": {
					"creation": {
						"codeDepositCost": "339400",
						"executionCost": "378",
						"totalCost": "339778"
					},
					"external": {
						"arr(uint256)": "infinite",
						"examples()": "infinite",
						"remove(uint256)": "infinite",
						"test()": "infinite"
					}
				},
				"methodIdentifiers": {
					"arr(uint256)": "71e5ee5f",
					"examples()": "335d00c2",
					"remove(uint256)": "4cc82215",
					"test()": "f8a8fd6d"
				}
			},
			"storageLayout": {
				"storage": [
					{
						"astId": 4,
						"contract": "第二周/移动删除数组.sol:arrayShift",
						"label": "arr",
						"offset": 0,
						"slot": "0",
						"type": "t_array(t_uint256)dyn_storage"
					}
				],
				"types": {
					"t_array(t_uint256)dyn_storage": {
						"base": "t_uint256",
						"encoding": "dynamic_array",
						"label": "uint256[]",
						"numberOfBytes": "32"
					},
					"t_uint256": {
						"encoding": "inplace",
						"label": "uint256",
						"numberOfBytes": "32"
					}
				}
			},
			"userdoc": {
				"kind": "user",
				"methods": {},
				"version": 1
			}
		}
	}
}