{
	"defaultValue.sol": {
		"defaultValue": {
			"abi": [
				{
					"inputs": [],
					"name": "b",
					"outputs": [
						{
							"internalType": "bool",
							"name": "",
							"type": "bool"
						}
					],
					"stateMutability": "view",
					"type": "function"
				},
				{
					"inputs": [],
					"name": "b32",
					"outputs": [
						{
							"internalType": "bytes32",
							"name": "",
							"type": "bytes32"
						}
					],
					"stateMutability": "view",
					"type": "function"
				},
				{
					"inputs": [],
					"name": "i",
					"outputs": [
						{
							"internalType": "int256",
							"name": "",
							"type": "int256"
						}
					],
					"stateMutability": "view",
					"type": "function"
				},
				{
					"inputs": [],
					"name": "owner",
					"outputs": [
						{
							"internalType": "address",
							"name": "",
							"type": "address"
						}
					],
					"stateMutability": "view",
					"type": "function"
				},
				{
					"inputs": [],
					"name": "testDefault",
					"outputs": [
						{
							"internalType": "address",
							"name": "",
							"type": "address"
						},
						{
							"internalType": "bool",
							"name": "",
							"type": "bool"
						},
						{
							"internalType": "uint256",
							"name": "",
							"type": "uint256"
						},
						{
							"internalType": "int256",
							"name": "",
							"type": "int256"
						},
						{
							"internalType": "bytes32",
							"name": "",
							"type": "bytes32"
						}
					],
					"stateMutability": "view",
					"type": "function"
				},
				{
					"inputs": [],
					"name": "u",
					"outputs": [
						{
							"internalType": "uint256",
							"name": "",
							"type": "uint256"
						}
					],
					"stateMutability": "view",
					"type": "function"
				}
			],
			"devdoc": {
				"kind": "dev",
				"methods": {},
				"version": 1
			},
			"evm": {
				"assembly": "    /* \"defaultValue.sol\":67:535  contract defaultValue{... */\n  mstore(0x40, 0x80)\n  callvalue\n  dup1\n  iszero\n  tag_1\n  jumpi\n  revert(0x00, 0x00)\ntag_1:\n  pop\n  dataSize(sub_0)\n  dup1\n  dataOffset(sub_0)\n  0x00\n  codecopy\n  0x00\n  return\nstop\n\nsub_0: assembly {\n        /* \"defaultValue.sol\":67:535  contract defaultValue{... */\n      mstore(0x40, 0x80)\n      callvalue\n      dup1\n      iszero\n      tag_1\n      jumpi\n      revert(0x00, 0x00)\n    tag_1:\n      pop\n      jumpi(tag_2, lt(calldatasize, 0x04))\n      shr(0xe0, calldataload(0x00))\n      dup1\n      0x31ea4b26\n      eq\n      tag_3\n      jumpi\n      dup1\n      0x4df7e3d0\n      eq\n      tag_4\n      jumpi\n      dup1\n      0x8da5cb5b\n      eq\n      tag_5\n      jumpi\n      dup1\n      0xc6a898c5\n      eq\n      tag_6\n      jumpi\n      dup1\n      0xe5aa3d58\n      eq\n      tag_7\n      jumpi\n      dup1\n      0xf8aab238\n      eq\n      tag_8\n      jumpi\n    tag_2:\n      revert(0x00, 0x00)\n        /* \"defaultValue.sol\":403:523  function testDefault() public  view returns (address,bool, uint, int,bytes32){... */\n    tag_3:\n      tag_9\n      tag_10\n      jump\t// in\n    tag_9:\n      mload(0x40)\n      tag_11\n      swap6\n      swap5\n      swap4\n      swap3\n      swap2\n      swap1\n      tag_12\n      jump\t// in\n    tag_11:\n      mload(0x40)\n      dup1\n      swap2\n      sub\n      swap1\n      return\n        /* \"defaultValue.sol\":181:194  bool public b */\n    tag_4:\n      tag_13\n      tag_14\n      jump\t// in\n    tag_13:\n      mload(0x40)\n      tag_15\n      swap2\n      swap1\n      tag_16\n      jump\t// in\n    tag_15:\n      mload(0x40)\n      dup1\n      swap2\n      sub\n      swap1\n      return\n        /* \"defaultValue.sol\":95:115  address public owner */\n    tag_5:\n      tag_17\n      tag_18\n      jump\t// in\n    tag_17:\n      mload(0x40)\n      tag_19\n      swap2\n      swap1\n      tag_20\n      jump\t// in\n    tag_19:\n      mload(0x40)\n      dup1\n      swap2\n      sub\n      swap1\n      return\n        /* \"defaultValue.sol\":219:232  uint public u */\n    tag_6:\n      tag_21\n      tag_22\n      jump\t// in\n    tag_21:\n      mload(0x40)\n      tag_23\n      swap2\n      swap1\n      tag_24\n      jump\t// in\n    tag_23:\n      mload(0x40)\n      dup1\n      swap2\n      sub\n      swap1\n      return\n        /* \"defaultValue.sol\":252:264  int public i */\n    tag_7:\n      tag_25\n      tag_26\n      jump\t// in\n    tag_25:\n      mload(0x40)\n      tag_27\n      swap2\n      swap1\n      tag_28\n      jump\t// in\n    tag_27:\n      mload(0x40)\n      dup1\n      swap2\n      sub\n      swap1\n      return\n        /* \"defaultValue.sol\":284:302  bytes32 public b32 */\n    tag_8:\n      tag_29\n      tag_30\n      jump\t// in\n    tag_29:\n      mload(0x40)\n      tag_31\n      swap2\n      swap1\n      tag_32\n      jump\t// in\n    tag_31:\n      mload(0x40)\n      dup1\n      swap2\n      sub\n      swap1\n      return\n        /* \"defaultValue.sol\":403:523  function testDefault() public  view returns (address,bool, uint, int,bytes32){... */\n    tag_10:\n        /* \"defaultValue.sol\":448:455  address */\n      0x00\n        /* \"defaultValue.sol\":456:460  bool */\n      0x00\n        /* \"defaultValue.sol\":462:466  uint */\n      0x00\n        /* \"defaultValue.sol\":468:471  int */\n      0x00\n        /* \"defaultValue.sol\":472:479  bytes32 */\n      0x00\n        /* \"defaultValue.sol\":499:504  owner */\n      0x00\n      0x00\n      swap1\n      sload\n      swap1\n      0x0100\n      exp\n      swap1\n      div\n      0xffffffffffffffffffffffffffffffffffffffff\n      and\n        /* \"defaultValue.sol\":505:506  b */\n      0x00\n      0x14\n      swap1\n      sload\n      swap1\n      0x0100\n      exp\n      swap1\n      div\n      0xff\n      and\n        /* \"defaultValue.sol\":507:508  u */\n      sload(0x01)\n        /* \"defaultValue.sol\":509:510  i */\n      sload(0x02)\n        /* \"defaultValue.sol\":511:514  b32 */\n      sload(0x03)\n        /* \"defaultValue.sol\":491:515  return (owner,b,u,i,b32) */\n      swap5\n      pop\n      swap5\n      pop\n      swap5\n      pop\n      swap5\n      pop\n      swap5\n      pop\n        /* \"defaultValue.sol\":403:523  function testDefault() public  view returns (address,bool, uint, int,bytes32){... */\n      swap1\n      swap2\n      swap3\n      swap4\n      swap5\n      jump\t// out\n        /* \"defaultValue.sol\":181:194  bool public b */\n    tag_14:\n      0x00\n      0x14\n      swap1\n      sload\n      swap1\n      0x0100\n      exp\n      swap1\n      div\n      0xff\n      and\n      dup2\n      jump\t// out\n        /* \"defaultValue.sol\":95:115  address public owner */\n    tag_18:\n      0x00\n      0x00\n      swap1\n      sload\n      swap1\n      0x0100\n      exp\n      swap1\n      div\n      0xffffffffffffffffffffffffffffffffffffffff\n      and\n      dup2\n      jump\t// out\n        /* \"defaultValue.sol\":219:232  uint public u */\n    tag_22:\n      sload(0x01)\n      dup2\n      jump\t// out\n        /* \"defaultValue.sol\":252:264  int public i */\n    tag_26:\n      sload(0x02)\n      dup2\n      jump\t// out\n        /* \"defaultValue.sol\":284:302  bytes32 public b32 */\n    tag_30:\n      sload(0x03)\n      dup2\n      jump\t// out\n        /* \"#utility.yul\":7:133   */\n    tag_34:\n        /* \"#utility.yul\":44:51   */\n      0x00\n        /* \"#utility.yul\":84:126   */\n      0xffffffffffffffffffffffffffffffffffffffff\n        /* \"#utility.yul\":77:82   */\n      dup3\n        /* \"#utility.yul\":73:127   */\n      and\n        /* \"#utility.yul\":62:127   */\n      swap1\n      pop\n        /* \"#utility.yul\":7:133   */\n      swap2\n      swap1\n      pop\n      jump\t// out\n        /* \"#utility.yul\":139:235   */\n    tag_35:\n        /* \"#utility.yul\":176:183   */\n      0x00\n        /* \"#utility.yul\":205:229   */\n      tag_48\n        /* \"#utility.yul\":223:228   */\n      dup3\n        /* \"#utility.yul\":205:229   */\n      tag_34\n      jump\t// in\n    tag_48:\n        /* \"#utility.yul\":194:229   */\n      swap1\n      pop\n        /* \"#utility.yul\":139:235   */\n      swap2\n      swap1\n      pop\n      jump\t// out\n        /* \"#utility.yul\":241:359   */\n    tag_36:\n        /* \"#utility.yul\":328:352   */\n      tag_50\n        /* \"#utility.yul\":346:351   */\n      dup2\n        /* \"#utility.yul\":328:352   */\n      tag_35\n      jump\t// in\n    tag_50:\n        /* \"#utility.yul\":323:326   */\n      dup3\n        /* \"#utility.yul\":316:353   */\n      mstore\n        /* \"#utility.yul\":241:359   */\n      pop\n      pop\n      jump\t// out\n        /* \"#utility.yul\":365:455   */\n    tag_37:\n        /* \"#utility.yul\":399:406   */\n      0x00\n        /* \"#utility.yul\":442:447   */\n      dup2\n        /* \"#utility.yul\":435:448   */\n      iszero\n        /* \"#utility.yul\":428:449   */\n      iszero\n        /* \"#utility.yul\":417:449   */\n      swap1\n      pop\n        /* \"#utility.yul\":365:455   */\n      swap2\n      swap1\n      pop\n      jump\t// out\n        /* \"#utility.yul\":461:570   */\n    tag_38:\n        /* \"#utility.yul\":542:563   */\n      tag_53\n        /* \"#utility.yul\":557:562   */\n      dup2\n        /* \"#utility.yul\":542:563   */\n      tag_37\n      jump\t// in\n    tag_53:\n        /* \"#utility.yul\":537:540   */\n      dup3\n        /* \"#utility.yul\":530:564   */\n      mstore\n        /* \"#utility.yul\":461:570   */\n      pop\n      pop\n      jump\t// out\n        /* \"#utility.yul\":576:653   */\n    tag_39:\n        /* \"#utility.yul\":613:620   */\n      0x00\n        /* \"#utility.yul\":642:647   */\n      dup2\n        /* \"#utility.yul\":631:647   */\n      swap1\n      pop\n        /* \"#utility.yul\":576:653   */\n      swap2\n      swap1\n      pop\n      jump\t// out\n        /* \"#utility.yul\":659:777   */\n    tag_40:\n        /* \"#utility.yul\":746:770   */\n      tag_56\n        /* \"#utility.yul\":764:769   */\n      dup2\n        /* \"#utility.yul\":746:770   */\n      tag_39\n      jump\t// in\n    tag_56:\n        /* \"#utility.yul\":741:744   */\n      dup3\n        /* \"#utility.yul\":734:771   */\n      mstore\n        /* \"#utility.yul\":659:777   */\n      pop\n      pop\n      jump\t// out\n        /* \"#utility.yul\":783:859   */\n    tag_41:\n        /* \"#utility.yul\":819:826   */\n      0x00\n        /* \"#utility.yul\":848:853   */\n      dup2\n        /* \"#utility.yul\":837:853   */\n      swap1\n      pop\n        /* \"#utility.yul\":783:859   */\n      swap2\n      swap1\n      pop\n      jump\t// out\n        /* \"#utility.yul\":865:980   */\n    tag_42:\n        /* \"#utility.yul\":950:973   */\n      tag_59\n        /* \"#utility.yul\":967:972   */\n      dup2\n        /* \"#utility.yul\":950:973   */\n      tag_41\n      jump\t// in\n    tag_59:\n        /* \"#utility.yul\":945:948   */\n      dup3\n        /* \"#utility.yul\":938:974   */\n      mstore\n        /* \"#utility.yul\":865:980   */\n      pop\n      pop\n      jump\t// out\n        /* \"#utility.yul\":986:1063   */\n    tag_43:\n        /* \"#utility.yul\":1023:1030   */\n      0x00\n        /* \"#utility.yul\":1052:1057   */\n      dup2\n        /* \"#utility.yul\":1041:1057   */\n      swap1\n      pop\n        /* \"#utility.yul\":986:1063   */\n      swap2\n      swap1\n      pop\n      jump\t// out\n        /* \"#utility.yul\":1069:1187   */\n    tag_44:\n        /* \"#utility.yul\":1156:1180   */\n      tag_62\n        /* \"#utility.yul\":1174:1179   */\n      dup2\n        /* \"#utility.yul\":1156:1180   */\n      tag_43\n      jump\t// in\n    tag_62:\n        /* \"#utility.yul\":1151:1154   */\n      dup3\n        /* \"#utility.yul\":1144:1181   */\n      mstore\n        /* \"#utility.yul\":1069:1187   */\n      pop\n      pop\n      jump\t// out\n        /* \"#utility.yul\":1193:1841   */\n    tag_12:\n        /* \"#utility.yul\":1390:1394   */\n      0x00\n        /* \"#utility.yul\":1428:1431   */\n      0xa0\n        /* \"#utility.yul\":1417:1426   */\n      dup3\n        /* \"#utility.yul\":1413:1432   */\n      add\n        /* \"#utility.yul\":1405:1432   */\n      swap1\n      pop\n        /* \"#utility.yul\":1442:1513   */\n      tag_64\n        /* \"#utility.yul\":1510:1511   */\n      0x00\n        /* \"#utility.yul\":1499:1508   */\n      dup4\n        /* \"#utility.yul\":1495:1512   */\n      add\n        /* \"#utility.yul\":1486:1492   */\n      dup9\n        /* \"#utility.yul\":1442:1513   */\n      tag_36\n      jump\t// in\n    tag_64:\n        /* \"#utility.yul\":1523:1589   */\n      tag_65\n        /* \"#utility.yul\":1585:1587   */\n      0x20\n        /* \"#utility.yul\":1574:1583   */\n      dup4\n        /* \"#utility.yul\":1570:1588   */\n      add\n        /* \"#utility.yul\":1561:1567   */\n      dup8\n        /* \"#utility.yul\":1523:1589   */\n      tag_38\n      jump\t// in\n    tag_65:\n        /* \"#utility.yul\":1599:1671   */\n      tag_66\n        /* \"#utility.yul\":1667:1669   */\n      0x40\n        /* \"#utility.yul\":1656:1665   */\n      dup4\n        /* \"#utility.yul\":1652:1670   */\n      add\n        /* \"#utility.yul\":1643:1649   */\n      dup7\n        /* \"#utility.yul\":1599:1671   */\n      tag_40\n      jump\t// in\n    tag_66:\n        /* \"#utility.yul\":1681:1751   */\n      tag_67\n        /* \"#utility.yul\":1747:1749   */\n      0x60\n        /* \"#utility.yul\":1736:1745   */\n      dup4\n        /* \"#utility.yul\":1732:1750   */\n      add\n        /* \"#utility.yul\":1723:1729   */\n      dup6\n        /* \"#utility.yul\":1681:1751   */\n      tag_42\n      jump\t// in\n    tag_67:\n        /* \"#utility.yul\":1761:1834   */\n      tag_68\n        /* \"#utility.yul\":1829:1832   */\n      0x80\n        /* \"#utility.yul\":1818:1827   */\n      dup4\n        /* \"#utility.yul\":1814:1833   */\n      add\n        /* \"#utility.yul\":1805:1811   */\n      dup5\n        /* \"#utility.yul\":1761:1834   */\n      tag_44\n      jump\t// in\n    tag_68:\n        /* \"#utility.yul\":1193:1841   */\n      swap7\n      swap6\n      pop\n      pop\n      pop\n      pop\n      pop\n      pop\n      jump\t// out\n        /* \"#utility.yul\":1847:2057   */\n    tag_16:\n        /* \"#utility.yul\":1934:1938   */\n      0x00\n        /* \"#utility.yul\":1972:1974   */\n      0x20\n        /* \"#utility.yul\":1961:1970   */\n      dup3\n        /* \"#utility.yul\":1957:1975   */\n      add\n        /* \"#utility.yul\":1949:1975   */\n      swap1\n      pop\n        /* \"#utility.yul\":1985:2050   */\n      tag_70\n        /* \"#utility.yul\":2047:2048   */\n      0x00\n        /* \"#utility.yul\":2036:2045   */\n      dup4\n        /* \"#utility.yul\":2032:2049   */\n      add\n        /* \"#utility.yul\":2023:2029   */\n      dup5\n        /* \"#utility.yul\":1985:2050   */\n      tag_38\n      jump\t// in\n    tag_70:\n        /* \"#utility.yul\":1847:2057   */\n      swap3\n      swap2\n      pop\n      pop\n      jump\t// out\n        /* \"#utility.yul\":2063:2285   */\n    tag_20:\n        /* \"#utility.yul\":2156:2160   */\n      0x00\n        /* \"#utility.yul\":2194:2196   */\n      0x20\n        /* \"#utility.yul\":2183:2192   */\n      dup3\n        /* \"#utility.yul\":2179:2197   */\n      add\n        /* \"#utility.yul\":2171:2197   */\n      swap1\n      pop\n        /* \"#utility.yul\":2207:2278   */\n      tag_72\n        /* \"#utility.yul\":2275:2276   */\n      0x00\n        /* \"#utility.yul\":2264:2273   */\n      dup4\n        /* \"#utility.yul\":2260:2277   */\n      add\n        /* \"#utility.yul\":2251:2257   */\n      dup5\n        /* \"#utility.yul\":2207:2278   */\n      tag_36\n      jump\t// in\n    tag_72:\n        /* \"#utility.yul\":2063:2285   */\n      swap3\n      swap2\n      pop\n      pop\n      jump\t// out\n        /* \"#utility.yul\":2291:2513   */\n    tag_24:\n        /* \"#utility.yul\":2384:2388   */\n      0x00\n        /* \"#utility.yul\":2422:2424   */\n      0x20\n        /* \"#utility.yul\":2411:2420   */\n      dup3\n        /* \"#utility.yul\":2407:2425   */\n      add\n        /* \"#utility.yul\":2399:2425   */\n      swap1\n      pop\n        /* \"#utility.yul\":2435:2506   */\n      tag_74\n        /* \"#utility.yul\":2503:2504   */\n      0x00\n        /* \"#utility.yul\":2492:2501   */\n      dup4\n        /* \"#utility.yul\":2488:2505   */\n      add\n        /* \"#utility.yul\":2479:2485   */\n      dup5\n        /* \"#utility.yul\":2435:2506   */\n      tag_40\n      jump\t// in\n    tag_74:\n        /* \"#utility.yul\":2291:2513   */\n      swap3\n      swap2\n      pop\n      pop\n      jump\t// out\n        /* \"#utility.yul\":2519:2737   */\n    tag_28:\n        /* \"#utility.yul\":2610:2614   */\n      0x00\n        /* \"#utility.yul\":2648:2650   */\n      0x20\n        /* \"#utility.yul\":2637:2646   */\n      dup3\n        /* \"#utility.yul\":2633:2651   */\n      add\n        /* \"#utility.yul\":2625:2651   */\n      swap1\n      pop\n        /* \"#utility.yul\":2661:2730   */\n      tag_76\n        /* \"#utility.yul\":2727:2728   */\n      0x00\n        /* \"#utility.yul\":2716:2725   */\n      dup4\n        /* \"#utility.yul\":2712:2729   */\n      add\n        /* \"#utility.yul\":2703:2709   */\n      dup5\n        /* \"#utility.yul\":2661:2730   */\n      tag_42\n      jump\t// in\n    tag_76:\n        /* \"#utility.yul\":2519:2737   */\n      swap3\n      swap2\n      pop\n      pop\n      jump\t// out\n        /* \"#utility.yul\":2743:2965   */\n    tag_32:\n        /* \"#utility.yul\":2836:2840   */\n      0x00\n        /* \"#utility.yul\":2874:2876   */\n      0x20\n        /* \"#utility.yul\":2863:2872   */\n      dup3\n        /* \"#utility.yul\":2859:2877   */\n      add\n        /* \"#utility.yul\":2851:2877   */\n      swap1\n      pop\n        /* \"#utility.yul\":2887:2958   */\n      tag_78\n        /* \"#utility.yul\":2955:2956   */\n      0x00\n        /* \"#utility.yul\":2944:2953   */\n      dup4\n        /* \"#utility.yul\":2940:2957   */\n      add\n        /* \"#utility.yul\":2931:2937   */\n      dup5\n        /* \"#utility.yul\":2887:2958   */\n      tag_44\n      jump\t// in\n    tag_78:\n        /* \"#utility.yul\":2743:2965   */\n      swap3\n      swap2\n      pop\n      pop\n      jump\t// out\n\n    auxdata: 0xa26469706673582212208e136a927fa561be692a4cbe1f0c12d4f858a8836c44018c5defccaec6c0c38064736f6c634300081e0033\n}\n",
				"bytecode": {
					"linkReferences": {},
					"object": "6080604052348015600e575f5ffd5b506103588061001c5f395ff3fe608060405234801561000f575f5ffd5b5060043610610060575f3560e01c806331ea4b26146100645780634df7e3d0146100865780638da5cb5b146100a4578063c6a898c5146100c2578063e5aa3d58146100e0578063f8aab238146100fe575b5f5ffd5b61006c61011c565b60405161007d959493929190610254565b60405180910390f35b61008e61016b565b60405161009b91906102a5565b60405180910390f35b6100ac61017d565b6040516100b991906102be565b60405180910390f35b6100ca6101a1565b6040516100d791906102d7565b60405180910390f35b6100e86101a7565b6040516100f591906102f0565b60405180910390f35b6101066101ad565b6040516101139190610309565b60405180910390f35b5f5f5f5f5f5f5f9054906101000a900473ffffffffffffffffffffffffffffffffffffffff165f60149054906101000a900460ff16600154600254600354945094509450945094509091929394565b5f60149054906101000a900460ff1681565b5f5f9054906101000a900473ffffffffffffffffffffffffffffffffffffffff1681565b60015481565b60025481565b60035481565b5f73ffffffffffffffffffffffffffffffffffffffff82169050919050565b5f6101dc826101b3565b9050919050565b6101ec816101d2565b82525050565b5f8115159050919050565b610206816101f2565b82525050565b5f819050919050565b61021e8161020c565b82525050565b5f819050919050565b61023681610224565b82525050565b5f819050919050565b61024e8161023c565b82525050565b5f60a0820190506102675f8301886101e3565b61027460208301876101fd565b6102816040830186610215565b61028e606083018561022d565b61029b6080830184610245565b9695505050505050565b5f6020820190506102b85f8301846101fd565b92915050565b5f6020820190506102d15f8301846101e3565b92915050565b5f6020820190506102ea5f830184610215565b92915050565b5f6020820190506103035f83018461022d565b92915050565b5f60208201905061031c5f830184610245565b9291505056fea26469706673582212208e136a927fa561be692a4cbe1f0c12d4f858a8836c44018c5defccaec6c0c38064736f6c634300081e0033",
					"opcodes": "PUSH1 0x80 PUSH1 0x40 MSTORE CALLVALUE DUP1 ISZERO PUSH1 0xE JUMPI PUSH0 PUSH0 REVERT JUMPDEST POP PUSH2 0x358 DUP1 PUSH2 0x1C PUSH0 CODECOPY PUSH0 RETURN INVALID PUSH1 0x80 PUSH1 0x40 MSTORE CALLVALUE DUP1 ISZERO PUSH2 0xF JUMPI PUSH0 PUSH0 REVERT JUMPDEST POP PUSH1 0x4 CALLDATASIZE LT PUSH2 0x60 JUMPI PUSH0 CALLDATALOAD PUSH1 0xE0 SHR DUP1 PUSH4 0x31EA4B26 EQ PUSH2 0x64 JUMPI DUP1 PUSH4 0x4DF7E3D0 EQ PUSH2 0x86 JUMPI DUP1 PUSH4 0x8DA5CB5B EQ PUSH2 0xA4 JUMPI DUP1 PUSH4 0xC6A898C5 EQ PUSH2 0xC2 JUMPI DUP1 PUSH4 0xE5AA3D58 EQ PUSH2 0xE0 JUMPI DUP1 PUSH4 0xF8AAB238 EQ PUSH2 0xFE JUMPI JUMPDEST PUSH0 PUSH0 REVERT JUMPDEST PUSH2 0x6C PUSH2 0x11C JUMP JUMPDEST PUSH1 0x40 MLOAD PUSH2 0x7D SWAP6 SWAP5 SWAP4 SWAP3 SWAP2 SWAP1 PUSH2 0x254 JUMP JUMPDEST PUSH1 0x40 MLOAD DUP1 SWAP2 SUB SWAP1 RETURN JUMPDEST PUSH2 0x8E PUSH2 0x16B JUMP JUMPDEST PUSH1 0x40 MLOAD PUSH2 0x9B SWAP2 SWAP1 PUSH2 0x2A5 JUMP JUMPDEST PUSH1 0x40 MLOAD DUP1 SWAP2 SUB SWAP1 RETURN JUMPDEST PUSH2 0xAC PUSH2 0x17D JUMP JUMPDEST PUSH1 0x40 MLOAD PUSH2 0xB9 SWAP2 SWAP1 PUSH2 0x2BE JUMP JUMPDEST PUSH1 0x40 MLOAD DUP1 SWAP2 SUB SWAP1 RETURN JUMPDEST PUSH2 0xCA PUSH2 0x1A1 JUMP JUMPDEST PUSH1 0x40 MLOAD PUSH2 0xD7 SWAP2 SWAP1 PUSH2 0x2D7 JUMP JUMPDEST PUSH1 0x40 MLOAD DUP1 SWAP2 SUB SWAP1 RETURN JUMPDEST PUSH2 0xE8 PUSH2 0x1A7 JUMP JUMPDEST PUSH1 0x40 MLOAD PUSH2 0xF5 SWAP2 SWAP1 PUSH2 0x2F0 JUMP JUMPDEST PUSH1 0x40 MLOAD DUP1 SWAP2 SUB SWAP1 RETURN JUMPDEST PUSH2 0x106 PUSH2 0x1AD JUMP JUMPDEST PUSH1 0x40 MLOAD PUSH2 0x113 SWAP2 SWAP1 PUSH2 0x309 JUMP JUMPDEST PUSH1 0x40 MLOAD DUP1 SWAP2 SUB SWAP1 RETURN JUMPDEST PUSH0 PUSH0 PUSH0 PUSH0 PUSH0 PUSH0 PUSH0 SWAP1 SLOAD SWAP1 PUSH2 0x100 EXP SWAP1 DIV PUSH20 0xFFFFFFFFFFFFFFFFFFFFFFFFFFFFFFFFFFFFFFFF AND PUSH0 PUSH1 0x14 SWAP1 SLOAD SWAP1 PUSH2 0x100 EXP SWAP1 DIV PUSH1 0xFF AND PUSH1 0x1 SLOAD PUSH1 0x2 SLOAD PUSH1 0x3 SLOAD SWAP5 POP SWAP5 POP SWAP5 POP SWAP5 POP SWAP5 POP SWAP1 SWAP2 SWAP3 SWAP4 SWAP5 JUMP JUMPDEST PUSH0 PUSH1 0x14 SWAP1 SLOAD SWAP1 PUSH2 0x100 EXP SWAP1 DIV PUSH1 0xFF AND DUP2 JUMP JUMPDEST PUSH0 PUSH0 SWAP1 SLOAD SWAP1 PUSH2 0x100 EXP SWAP1 DIV PUSH20 0xFFFFFFFFFFFFFFFFFFFFFFFFFFFFFFFFFFFFFFFF AND DUP2 JUMP JUMPDEST PUSH1 0x1 SLOAD DUP2 JUMP JUMPDEST PUSH1 0x2 SLOAD DUP2 JUMP JUMPDEST PUSH1 0x3 SLOAD DUP2 JUMP JUMPDEST PUSH0 PUSH20 0xFFFFFFFFFFFFFFFFFFFFFFFFFFFFFFFFFFFFFFFF DUP3 AND SWAP1 POP SWAP2 SWAP1 POP JUMP JUMPDEST PUSH0 PUSH2 0x1DC DUP3 PUSH2 0x1B3 JUMP JUMPDEST SWAP1 POP SWAP2 SWAP1 POP JUMP JUMPDEST PUSH2 0x1EC DUP2 PUSH2 0x1D2 JUMP JUMPDEST DUP3 MSTORE POP POP JUMP JUMPDEST PUSH0 DUP2 ISZERO ISZERO SWAP1 POP SWAP2 SWAP1 POP JUMP JUMPDEST PUSH2 0x206 DUP2 PUSH2 0x1F2 JUMP JUMPDEST DUP3 MSTORE POP POP JUMP JUMPDEST PUSH0 DUP2 SWAP1 POP SWAP2 SWAP1 POP JUMP JUMPDEST PUSH2 0x21E DUP2 PUSH2 0x20C JUMP JUMPDEST DUP3 MSTORE POP POP JUMP JUMPDEST PUSH0 DUP2 SWAP1 POP SWAP2 SWAP1 POP JUMP JUMPDEST PUSH2 0x236 DUP2 PUSH2 0x224 JUMP JUMPDEST DUP3 MSTORE POP POP JUMP JUMPDEST PUSH0 DUP2 SWAP1 POP SWAP2 SWAP1 POP JUMP JUMPDEST PUSH2 0x24E DUP2 PUSH2 0x23C JUMP JUMPDEST DUP3 MSTORE POP POP JUMP JUMPDEST PUSH0 PUSH1 0xA0 DUP3 ADD SWAP1 POP PUSH2 0x267 PUSH0 DUP4 ADD DUP9 PUSH2 0x1E3 JUMP JUMPDEST PUSH2 0x274 PUSH1 0x20 DUP4 ADD DUP8 PUSH2 0x1FD JUMP JUMPDEST PUSH2 0x281 PUSH1 0x40 DUP4 ADD DUP7 PUSH2 0x215 JUMP JUMPDEST PUSH2 0x28E PUSH1 0x60 DUP4 ADD DUP6 PUSH2 0x22D JUMP JUMPDEST PUSH2 0x29B PUSH1 0x80 DUP4 ADD DUP5 PUSH2 0x245 JUMP JUMPDEST SWAP7 SWAP6 POP POP POP POP POP POP JUMP JUMPDEST PUSH0 PUSH1 0x20 DUP3 ADD SWAP1 POP PUSH2 0x2B8 PUSH0 DUP4 ADD DUP5 PUSH2 0x1FD JUMP JUMPDEST SWAP3 SWAP2 POP POP JUMP JUMPDEST PUSH0 PUSH1 0x20 DUP3 ADD SWAP1 POP PUSH2 0x2D1 PUSH0 DUP4 ADD DUP5 PUSH2 0x1E3 JUMP JUMPDEST SWAP3 SWAP2 POP POP JUMP JUMPDEST PUSH0 PUSH1 0x20 DUP3 ADD SWAP1 POP PUSH2 0x2EA PUSH0 DUP4 ADD DUP5 PUSH2 0x215 JUMP JUMPDEST SWAP3 SWAP2 POP POP JUMP JUMPDEST PUSH0 PUSH1 0x20 DUP3 ADD SWAP1 POP PUSH2 0x303 PUSH0 DUP4 ADD DUP5 PUSH2 0x22D JUMP JUMPDEST SWAP3 SWAP2 POP POP JUMP JUMPDEST PUSH0 PUSH1 0x20 DUP3 ADD SWAP1 POP PUSH2 0x31C PUSH0 DUP4 ADD DUP5 PUSH2 0x245 JUMP JUMPDEST SWAP3 SWAP2 POP POP JUMP INVALID LOG2 PUSH5 0x6970667358 0x22 SLT KECCAK256 DUP15 SGT PUSH11 0x927FA561BE692A4CBE1F0C SLT 0xD4 EXTCALL PC 0xA8 DUP4 PUSH13 0x44018C5DEFCCAEC6C0C3806473 PUSH16 0x6C634300081E00330000000000000000 "
				},
				"gasEstimates": {
					"creation": {
						"codeDepositCost": "171200",
						"executionCost": "212",
						"totalCost": "171412"
					},
					"external": {
						"b()": "2516",
						"b32()": "2513",
						"i()": "2491",
						"owner()": "2529",
						"testDefault()": "11431",
						"u()": "2469"
					}
				},
				"methodIdentifiers": {
					"b()": "4df7e3d0",
					"b32()": "f8aab238",
					"i()": "e5aa3d58",
					"owner()": "8da5cb5b",
					"testDefault()": "31ea4b26",
					"u()": "c6a898c5"
				}
			},
			"storageLayout": {
				"storage": [
					{
						"astId": 3,
						"contract": "defaultValue.sol:defaultValue",
						"label": "owner",
						"offset": 0,
						"slot": "0",
						"type": "t_address"
					},
					{
						"astId": 5,
						"contract": "defaultValue.sol:defaultValue",
						"label": "b",
						"offset": 20,
						"slot": "0",
						"type": "t_bool"
					},
					{
						"astId": 7,
						"contract": "defaultValue.sol:defaultValue",
						"label": "u",
						"offset": 0,
						"slot": "1",
						"type": "t_uint256"
					},
					{
						"astId": 9,
						"contract": "defaultValue.sol:defaultValue",
						"label": "i",
						"offset": 0,
						"slot": "2",
						"type": "t_int256"
					},
					{
						"astId": 11,
						"contract": "defaultValue.sol:defaultValue",
						"label": "b32",
						"offset": 0,
						"slot": "3",
						"type": "t_bytes32"
					}
				],
				"types": {
					"t_address": {
						"encoding": "inplace",
						"label": "address",
						"numberOfBytes": "20"
					},
					"t_bool": {
						"encoding": "inplace",
						"label": "bool",
						"numberOfBytes": "1"
					},
					"t_bytes32": {
						"encoding": "inplace",
						"label": "bytes32",
						"numberOfBytes": "32"
					},
					"t_int256": {
						"encoding": "inplace",
						"label": "int256",
						"numberOfBytes": "32"
					},
					"t_uint256": {
						"encoding": "inplace",
						"label": "uint256",
						"numberOfBytes": "32"
					}
				}
			},
			"userdoc": {
				"kind": "user",
				"methods": {},
				"version": 1
			}
		}
	}
}