{
	"第三周/调用其他合约.sol": {
		"TestContract1": {
			"abi": [
				{
					"inputs": [],
					"name": "getX",
					"outputs": [
						{
							"internalType": "uint256",
							"name": "",
							"type": "uint256"
						}
					],
					"stateMutability": "view",
					"type": "function"
				},
				{
					"inputs": [],
					"name": "getXandValue",
					"outputs": [
						{
							"internalType": "uint256",
							"name": "",
							"type": "uint256"
						},
						{
							"internalType": "uint256",
							"name": "",
							"type": "uint256"
						}
					],
					"stateMutability": "view",
					"type": "function"
				},
				{
					"inputs": [
						{
							"internalType": "uint256",
							"name": "_x",
							"type": "uint256"
						}
					],
					"name": "setX",
					"outputs": [
						{
							"internalType": "uint256",
							"name": "",
							"type": "uint256"
						}
					],
					"stateMutability": "nonpayable",
					"type": "function"
				},
				{
					"inputs": [
						{
							"internalType": "uint256",
							"name": "_x",
							"type": "uint256"
						}
					],
					"name": "setXandSendEther",
					"outputs": [
						{
							"internalType": "uint256",
							"name": "",
							"type": "uint256"
						},
						{
							"internalType": "uint256",
							"name": "",
							"type": "uint256"
						}
					],
					"stateMutability": "payable",
					"type": "function"
				},
				{
					"inputs": [],
					"name": "value",
					"outputs": [
						{
							"internalType": "uint256",
							"name": "",
							"type": "uint256"
						}
					],
					"stateMutability": "view",
					"type": "function"
				},
				{
					"inputs": [],
					"name": "x",
					"outputs": [
						{
							"internalType": "uint256",
							"name": "",
							"type": "uint256"
						}
					],
					"stateMutability": "view",
					"type": "function"
				}
			],
			"devdoc": {
				"kind": "dev",
				"methods": {},
				"version": 1
			},
			"evm": {
				"assembly": "    /* \"\\xe7\\xac\\xac\\xe4\\xb8\\x89\\xe5\\x91\\xa8/\\xe8\\xb0\\x83\\xe7\\x94\\xa8\\xe5\\x85\\xb6\\xe4\\xbb\\x96\\xe5\\x90\\x88\\xe7\\xba\\xa6.sol\":851:1340  contract TestContract1{... */\n  mstore(0x40, 0x80)\n    /* \"\\xe7\\xac\\xac\\xe4\\xb8\\x89\\xe5\\x91\\xa8/\\xe8\\xb0\\x83\\xe7\\x94\\xa8\\xe5\\x85\\xb6\\xe4\\xbb\\x96\\xe5\\x90\\x88\\xe7\\xba\\xa6.sol\":924:927  123 */\n  0x7b\n    /* \"\\xe7\\xac\\xac\\xe4\\xb8\\x89\\xe5\\x91\\xa8/\\xe8\\xb0\\x83\\xe7\\x94\\xa8\\xe5\\x85\\xb6\\xe4\\xbb\\x96\\xe5\\x90\\x88\\xe7\\xba\\xa6.sol\":903:927  uint256 public value=123 */\n  0x01\n  sstore\n    /* \"\\xe7\\xac\\xac\\xe4\\xb8\\x89\\xe5\\x91\\xa8/\\xe8\\xb0\\x83\\xe7\\x94\\xa8\\xe5\\x85\\xb6\\xe4\\xbb\\x96\\xe5\\x90\\x88\\xe7\\xba\\xa6.sol\":851:1340  contract TestContract1{... */\n  callvalue\n  dup1\n  iszero\n  tag_1\n  jumpi\n  revert(0x00, 0x00)\ntag_1:\n  pop\n  dataSize(sub_0)\n  dup1\n  dataOffset(sub_0)\n  0x00\n  codecopy\n  0x00\n  return\nstop\n\nsub_0: assembly {\n        /* \"\\xe7\\xac\\xac\\xe4\\xb8\\x89\\xe5\\x91\\xa8/\\xe8\\xb0\\x83\\xe7\\x94\\xa8\\xe5\\x85\\xb6\\xe4\\xbb\\x96\\xe5\\x90\\x88\\xe7\\xba\\xa6.sol\":851:1340  contract TestContract1{... */\n      mstore(0x40, 0x80)\n      jumpi(tag_1, lt(calldatasize, 0x04))\n      shr(0xe0, calldataload(0x00))\n      dup1\n      0x0c55699c\n      eq\n      tag_2\n      jumpi\n      dup1\n      0x3fa4f245\n      eq\n      tag_3\n      jumpi\n      dup1\n      0x4018d9aa\n      eq\n      tag_4\n      jumpi\n      dup1\n      0x5197c7aa\n      eq\n      tag_5\n      jumpi\n      dup1\n      0xcdc23076\n      eq\n      tag_6\n      jumpi\n      dup1\n      0xd6c7a3be\n      eq\n      tag_7\n      jumpi\n    tag_1:\n      revert(0x00, 0x00)\n        /* \"\\xe7\\xac\\xac\\xe4\\xb8\\x89\\xe5\\x91\\xa8/\\xe8\\xb0\\x83\\xe7\\x94\\xa8\\xe5\\x85\\xb6\\xe4\\xbb\\x96\\xe5\\x90\\x88\\xe7\\xba\\xa6.sol\":880:896  uint256 public x */\n    tag_2:\n      callvalue\n      dup1\n      iszero\n      tag_8\n      jumpi\n      revert(0x00, 0x00)\n    tag_8:\n      pop\n      tag_9\n      tag_10\n      jump\t// in\n    tag_9:\n      mload(0x40)\n      tag_11\n      swap2\n      swap1\n      tag_12\n      jump\t// in\n    tag_11:\n      mload(0x40)\n      dup1\n      swap2\n      sub\n      swap1\n      return\n        /* \"\\xe7\\xac\\xac\\xe4\\xb8\\x89\\xe5\\x91\\xa8/\\xe8\\xb0\\x83\\xe7\\x94\\xa8\\xe5\\x85\\xb6\\xe4\\xbb\\x96\\xe5\\x90\\x88\\xe7\\xba\\xa6.sol\":903:927  uint256 public value=123 */\n    tag_3:\n      callvalue\n      dup1\n      iszero\n      tag_13\n      jumpi\n      revert(0x00, 0x00)\n    tag_13:\n      pop\n      tag_14\n      tag_15\n      jump\t// in\n    tag_14:\n      mload(0x40)\n      tag_16\n      swap2\n      swap1\n      tag_12\n      jump\t// in\n    tag_16:\n      mload(0x40)\n      dup1\n      swap2\n      sub\n      swap1\n      return\n        /* \"\\xe7\\xac\\xac\\xe4\\xb8\\x89\\xe5\\x91\\xa8/\\xe8\\xb0\\x83\\xe7\\x94\\xa8\\xe5\\x85\\xb6\\xe4\\xbb\\x96\\xe5\\x90\\x88\\xe7\\xba\\xa6.sol\":934:1023  function setX(uint _x) public returns (uint256){... */\n    tag_4:\n      callvalue\n      dup1\n      iszero\n      tag_17\n      jumpi\n      revert(0x00, 0x00)\n    tag_17:\n      pop\n      tag_18\n      0x04\n      dup1\n      calldatasize\n      sub\n      dup2\n      add\n      swap1\n      tag_19\n      swap2\n      swap1\n      tag_20\n      jump\t// in\n    tag_19:\n      tag_21\n      jump\t// in\n    tag_18:\n      mload(0x40)\n      tag_22\n      swap2\n      swap1\n      tag_12\n      jump\t// in\n    tag_22:\n      mload(0x40)\n      dup1\n      swap2\n      sub\n      swap1\n      return\n        /* \"\\xe7\\xac\\xac\\xe4\\xb8\\x89\\xe5\\x91\\xa8/\\xe8\\xb0\\x83\\xe7\\x94\\xa8\\xe5\\x85\\xb6\\xe4\\xbb\\x96\\xe5\\x90\\x88\\xe7\\xba\\xa6.sol\":1030:1101  function getX() external view returns (uint){... */\n    tag_5:\n      callvalue\n      dup1\n      iszero\n      tag_23\n      jumpi\n      revert(0x00, 0x00)\n    tag_23:\n      pop\n      tag_24\n      tag_25\n      jump\t// in\n    tag_24:\n      mload(0x40)\n      tag_26\n      swap2\n      swap1\n      tag_12\n      jump\t// in\n    tag_26:\n      mload(0x40)\n      dup1\n      swap2\n      sub\n      swap1\n      return\n        /* \"\\xe7\\xac\\xac\\xe4\\xb8\\x89\\xe5\\x91\\xa8/\\xe8\\xb0\\x83\\xe7\\x94\\xa8\\xe5\\x85\\xb6\\xe4\\xbb\\x96\\xe5\\x90\\x88\\xe7\\xba\\xa6.sol\":1105:1245  function setXandSendEther(uint256 _x) public payable returns (uint256,uint256){... */\n    tag_6:\n      tag_27\n      0x04\n      dup1\n      calldatasize\n      sub\n      dup2\n      add\n      swap1\n      tag_28\n      swap2\n      swap1\n      tag_20\n      jump\t// in\n    tag_28:\n      tag_29\n      jump\t// in\n    tag_27:\n      mload(0x40)\n      tag_30\n      swap3\n      swap2\n      swap1\n      tag_31\n      jump\t// in\n    tag_30:\n      mload(0x40)\n      dup1\n      swap2\n      sub\n      swap1\n      return\n        /* \"\\xe7\\xac\\xac\\xe4\\xb8\\x89\\xe5\\x91\\xa8/\\xe8\\xb0\\x83\\xe7\\x94\\xa8\\xe5\\x85\\xb6\\xe4\\xbb\\x96\\xe5\\x90\\x88\\xe7\\xba\\xa6.sol\":1249:1333  function getXandValue() external view returns (uint,uint){... */\n    tag_7:\n      callvalue\n      dup1\n      iszero\n      tag_32\n      jumpi\n      revert(0x00, 0x00)\n    tag_32:\n      pop\n      tag_33\n      tag_34\n      jump\t// in\n    tag_33:\n      mload(0x40)\n      tag_35\n      swap3\n      swap2\n      swap1\n      tag_31\n      jump\t// in\n    tag_35:\n      mload(0x40)\n      dup1\n      swap2\n      sub\n      swap1\n      return\n        /* \"\\xe7\\xac\\xac\\xe4\\xb8\\x89\\xe5\\x91\\xa8/\\xe8\\xb0\\x83\\xe7\\x94\\xa8\\xe5\\x85\\xb6\\xe4\\xbb\\x96\\xe5\\x90\\x88\\xe7\\xba\\xa6.sol\":880:896  uint256 public x */\n    tag_10:\n      sload(0x00)\n      dup2\n      jump\t// out\n        /* \"\\xe7\\xac\\xac\\xe4\\xb8\\x89\\xe5\\x91\\xa8/\\xe8\\xb0\\x83\\xe7\\x94\\xa8\\xe5\\x85\\xb6\\xe4\\xbb\\x96\\xe5\\x90\\x88\\xe7\\xba\\xa6.sol\":903:927  uint256 public value=123 */\n    tag_15:\n      sload(0x01)\n      dup2\n      jump\t// out\n        /* \"\\xe7\\xac\\xac\\xe4\\xb8\\x89\\xe5\\x91\\xa8/\\xe8\\xb0\\x83\\xe7\\x94\\xa8\\xe5\\x85\\xb6\\xe4\\xbb\\x96\\xe5\\x90\\x88\\xe7\\xba\\xa6.sol\":934:1023  function setX(uint _x) public returns (uint256){... */\n    tag_21:\n        /* \"\\xe7\\xac\\xac\\xe4\\xb8\\x89\\xe5\\x91\\xa8/\\xe8\\xb0\\x83\\xe7\\x94\\xa8\\xe5\\x85\\xb6\\xe4\\xbb\\x96\\xe5\\x90\\x88\\xe7\\xba\\xa6.sol\":973:980  uint256 */\n      0x00\n        /* \"\\xe7\\xac\\xac\\xe4\\xb8\\x89\\xe5\\x91\\xa8/\\xe8\\xb0\\x83\\xe7\\x94\\xa8\\xe5\\x85\\xb6\\xe4\\xbb\\x96\\xe5\\x90\\x88\\xe7\\xba\\xa6.sol\":994:996  _x */\n      dup2\n        /* \"\\xe7\\xac\\xac\\xe4\\xb8\\x89\\xe5\\x91\\xa8/\\xe8\\xb0\\x83\\xe7\\x94\\xa8\\xe5\\x85\\xb6\\xe4\\xbb\\x96\\xe5\\x90\\x88\\xe7\\xba\\xa6.sol\":992:993  x */\n      0x00\n        /* \"\\xe7\\xac\\xac\\xe4\\xb8\\x89\\xe5\\x91\\xa8/\\xe8\\xb0\\x83\\xe7\\x94\\xa8\\xe5\\x85\\xb6\\xe4\\xbb\\x96\\xe5\\x90\\x88\\xe7\\xba\\xa6.sol\":992:996  x=_x */\n      dup2\n      swap1\n      sstore\n      pop\n        /* \"\\xe7\\xac\\xac\\xe4\\xb8\\x89\\xe5\\x91\\xa8/\\xe8\\xb0\\x83\\xe7\\x94\\xa8\\xe5\\x85\\xb6\\xe4\\xbb\\x96\\xe5\\x90\\x88\\xe7\\xba\\xa6.sol\":1014:1015  x */\n      sload(0x00)\n        /* \"\\xe7\\xac\\xac\\xe4\\xb8\\x89\\xe5\\x91\\xa8/\\xe8\\xb0\\x83\\xe7\\x94\\xa8\\xe5\\x85\\xb6\\xe4\\xbb\\x96\\xe5\\x90\\x88\\xe7\\xba\\xa6.sol\":1007:1015  return x */\n      swap1\n      pop\n        /* \"\\xe7\\xac\\xac\\xe4\\xb8\\x89\\xe5\\x91\\xa8/\\xe8\\xb0\\x83\\xe7\\x94\\xa8\\xe5\\x85\\xb6\\xe4\\xbb\\x96\\xe5\\x90\\x88\\xe7\\xba\\xa6.sol\":934:1023  function setX(uint _x) public returns (uint256){... */\n      swap2\n      swap1\n      pop\n      jump\t// out\n        /* \"\\xe7\\xac\\xac\\xe4\\xb8\\x89\\xe5\\x91\\xa8/\\xe8\\xb0\\x83\\xe7\\x94\\xa8\\xe5\\x85\\xb6\\xe4\\xbb\\x96\\xe5\\x90\\x88\\xe7\\xba\\xa6.sol\":1030:1101  function getX() external view returns (uint){... */\n    tag_25:\n        /* \"\\xe7\\xac\\xac\\xe4\\xb8\\x89\\xe5\\x91\\xa8/\\xe8\\xb0\\x83\\xe7\\x94\\xa8\\xe5\\x85\\xb6\\xe4\\xbb\\x96\\xe5\\x90\\x88\\xe7\\xba\\xa6.sol\":1069:1073  uint */\n      0x00\n        /* \"\\xe7\\xac\\xac\\xe4\\xb8\\x89\\xe5\\x91\\xa8/\\xe8\\xb0\\x83\\xe7\\x94\\xa8\\xe5\\x85\\xb6\\xe4\\xbb\\x96\\xe5\\x90\\x88\\xe7\\xba\\xa6.sol\":1092:1093  x */\n      sload(0x00)\n        /* \"\\xe7\\xac\\xac\\xe4\\xb8\\x89\\xe5\\x91\\xa8/\\xe8\\xb0\\x83\\xe7\\x94\\xa8\\xe5\\x85\\xb6\\xe4\\xbb\\x96\\xe5\\x90\\x88\\xe7\\xba\\xa6.sol\":1085:1093  return x */\n      swap1\n      pop\n        /* \"\\xe7\\xac\\xac\\xe4\\xb8\\x89\\xe5\\x91\\xa8/\\xe8\\xb0\\x83\\xe7\\x94\\xa8\\xe5\\x85\\xb6\\xe4\\xbb\\x96\\xe5\\x90\\x88\\xe7\\xba\\xa6.sol\":1030:1101  function getX() external view returns (uint){... */\n      swap1\n      jump\t// out\n        /* \"\\xe7\\xac\\xac\\xe4\\xb8\\x89\\xe5\\x91\\xa8/\\xe8\\xb0\\x83\\xe7\\x94\\xa8\\xe5\\x85\\xb6\\xe4\\xbb\\x96\\xe5\\x90\\x88\\xe7\\xba\\xa6.sol\":1105:1245  function setXandSendEther(uint256 _x) public payable returns (uint256,uint256){... */\n    tag_29:\n        /* \"\\xe7\\xac\\xac\\xe4\\xb8\\x89\\xe5\\x91\\xa8/\\xe8\\xb0\\x83\\xe7\\x94\\xa8\\xe5\\x85\\xb6\\xe4\\xbb\\x96\\xe5\\x90\\x88\\xe7\\xba\\xa6.sol\":1167:1174  uint256 */\n      0x00\n        /* \"\\xe7\\xac\\xac\\xe4\\xb8\\x89\\xe5\\x91\\xa8/\\xe8\\xb0\\x83\\xe7\\x94\\xa8\\xe5\\x85\\xb6\\xe4\\xbb\\x96\\xe5\\x90\\x88\\xe7\\xba\\xa6.sol\":1175:1182  uint256 */\n      0x00\n        /* \"\\xe7\\xac\\xac\\xe4\\xb8\\x89\\xe5\\x91\\xa8/\\xe8\\xb0\\x83\\xe7\\x94\\xa8\\xe5\\x85\\xb6\\xe4\\xbb\\x96\\xe5\\x90\\x88\\xe7\\xba\\xa6.sol\":1192:1194  _x */\n      dup3\n        /* \"\\xe7\\xac\\xac\\xe4\\xb8\\x89\\xe5\\x91\\xa8/\\xe8\\xb0\\x83\\xe7\\x94\\xa8\\xe5\\x85\\xb6\\xe4\\xbb\\x96\\xe5\\x90\\x88\\xe7\\xba\\xa6.sol\":1190:1191  x */\n      0x00\n        /* \"\\xe7\\xac\\xac\\xe4\\xb8\\x89\\xe5\\x91\\xa8/\\xe8\\xb0\\x83\\xe7\\x94\\xa8\\xe5\\x85\\xb6\\xe4\\xbb\\x96\\xe5\\x90\\x88\\xe7\\xba\\xa6.sol\":1190:1194  x=_x */\n      dup2\n      swap1\n      sstore\n      pop\n        /* \"\\xe7\\xac\\xac\\xe4\\xb8\\x89\\xe5\\x91\\xa8/\\xe8\\xb0\\x83\\xe7\\x94\\xa8\\xe5\\x85\\xb6\\xe4\\xbb\\x96\\xe5\\x90\\x88\\xe7\\xba\\xa6.sol\":1209:1218  msg.value */\n      callvalue\n        /* \"\\xe7\\xac\\xac\\xe4\\xb8\\x89\\xe5\\x91\\xa8/\\xe8\\xb0\\x83\\xe7\\x94\\xa8\\xe5\\x85\\xb6\\xe4\\xbb\\x96\\xe5\\x90\\x88\\xe7\\xba\\xa6.sol\":1201:1206  value */\n      0x01\n        /* \"\\xe7\\xac\\xac\\xe4\\xb8\\x89\\xe5\\x91\\xa8/\\xe8\\xb0\\x83\\xe7\\x94\\xa8\\xe5\\x85\\xb6\\xe4\\xbb\\x96\\xe5\\x90\\x88\\xe7\\xba\\xa6.sol\":1201:1218  value = msg.value */\n      dup2\n      swap1\n      sstore\n      pop\n        /* \"\\xe7\\xac\\xac\\xe4\\xb8\\x89\\xe5\\x91\\xa8/\\xe8\\xb0\\x83\\xe7\\x94\\xa8\\xe5\\x85\\xb6\\xe4\\xbb\\x96\\xe5\\x90\\x88\\xe7\\xba\\xa6.sol\":1233:1234  x */\n      sload(0x00)\n        /* \"\\xe7\\xac\\xac\\xe4\\xb8\\x89\\xe5\\x91\\xa8/\\xe8\\xb0\\x83\\xe7\\x94\\xa8\\xe5\\x85\\xb6\\xe4\\xbb\\x96\\xe5\\x90\\x88\\xe7\\xba\\xa6.sol\":1235:1240  value */\n      sload(0x01)\n        /* \"\\xe7\\xac\\xac\\xe4\\xb8\\x89\\xe5\\x91\\xa8/\\xe8\\xb0\\x83\\xe7\\x94\\xa8\\xe5\\x85\\xb6\\xe4\\xbb\\x96\\xe5\\x90\\x88\\xe7\\xba\\xa6.sol\":1225:1241  return (x,value) */\n      swap2\n      pop\n      swap2\n      pop\n        /* \"\\xe7\\xac\\xac\\xe4\\xb8\\x89\\xe5\\x91\\xa8/\\xe8\\xb0\\x83\\xe7\\x94\\xa8\\xe5\\x85\\xb6\\xe4\\xbb\\x96\\xe5\\x90\\x88\\xe7\\xba\\xa6.sol\":1105:1245  function setXandSendEther(uint256 _x) public payable returns (uint256,uint256){... */\n      swap2\n      pop\n      swap2\n      jump\t// out\n        /* \"\\xe7\\xac\\xac\\xe4\\xb8\\x89\\xe5\\x91\\xa8/\\xe8\\xb0\\x83\\xe7\\x94\\xa8\\xe5\\x85\\xb6\\xe4\\xbb\\x96\\xe5\\x90\\x88\\xe7\\xba\\xa6.sol\":1249:1333  function getXandValue() external view returns (uint,uint){... */\n    tag_34:\n        /* \"\\xe7\\xac\\xac\\xe4\\xb8\\x89\\xe5\\x91\\xa8/\\xe8\\xb0\\x83\\xe7\\x94\\xa8\\xe5\\x85\\xb6\\xe4\\xbb\\x96\\xe5\\x90\\x88\\xe7\\xba\\xa6.sol\":1296:1300  uint */\n      0x00\n        /* \"\\xe7\\xac\\xac\\xe4\\xb8\\x89\\xe5\\x91\\xa8/\\xe8\\xb0\\x83\\xe7\\x94\\xa8\\xe5\\x85\\xb6\\xe4\\xbb\\x96\\xe5\\x90\\x88\\xe7\\xba\\xa6.sol\":1301:1305  uint */\n      0x00\n        /* \"\\xe7\\xac\\xac\\xe4\\xb8\\x89\\xe5\\x91\\xa8/\\xe8\\xb0\\x83\\xe7\\x94\\xa8\\xe5\\x85\\xb6\\xe4\\xbb\\x96\\xe5\\x90\\x88\\xe7\\xba\\xa6.sol\":1321:1322  x */\n      sload(0x00)\n        /* \"\\xe7\\xac\\xac\\xe4\\xb8\\x89\\xe5\\x91\\xa8/\\xe8\\xb0\\x83\\xe7\\x94\\xa8\\xe5\\x85\\xb6\\xe4\\xbb\\x96\\xe5\\x90\\x88\\xe7\\xba\\xa6.sol\":1323:1328  value */\n      sload(0x01)\n        /* \"\\xe7\\xac\\xac\\xe4\\xb8\\x89\\xe5\\x91\\xa8/\\xe8\\xb0\\x83\\xe7\\x94\\xa8\\xe5\\x85\\xb6\\xe4\\xbb\\x96\\xe5\\x90\\x88\\xe7\\xba\\xa6.sol\":1313:1329  return (x,value) */\n      swap2\n      pop\n      swap2\n      pop\n        /* \"\\xe7\\xac\\xac\\xe4\\xb8\\x89\\xe5\\x91\\xa8/\\xe8\\xb0\\x83\\xe7\\x94\\xa8\\xe5\\x85\\xb6\\xe4\\xbb\\x96\\xe5\\x90\\x88\\xe7\\xba\\xa6.sol\":1249:1333  function getXandValue() external view returns (uint,uint){... */\n      swap1\n      swap2\n      jump\t// out\n        /* \"#utility.yul\":7:84   */\n    tag_40:\n        /* \"#utility.yul\":44:51   */\n      0x00\n        /* \"#utility.yul\":73:78   */\n      dup2\n        /* \"#utility.yul\":62:78   */\n      swap1\n      pop\n        /* \"#utility.yul\":7:84   */\n      swap2\n      swap1\n      pop\n      jump\t// out\n        /* \"#utility.yul\":90:208   */\n    tag_41:\n        /* \"#utility.yul\":177:201   */\n      tag_50\n        /* \"#utility.yul\":195:200   */\n      dup2\n        /* \"#utility.yul\":177:201   */\n      tag_40\n      jump\t// in\n    tag_50:\n        /* \"#utility.yul\":172:175   */\n      dup3\n        /* \"#utility.yul\":165:202   */\n      mstore\n        /* \"#utility.yul\":90:208   */\n      pop\n      pop\n      jump\t// out\n        /* \"#utility.yul\":214:436   */\n    tag_12:\n        /* \"#utility.yul\":307:311   */\n      0x00\n        /* \"#utility.yul\":345:347   */\n      0x20\n        /* \"#utility.yul\":334:343   */\n      dup3\n        /* \"#utility.yul\":330:348   */\n      add\n        /* \"#utility.yul\":322:348   */\n      swap1\n      pop\n        /* \"#utility.yul\":358:429   */\n      tag_52\n        /* \"#utility.yul\":426:427   */\n      0x00\n        /* \"#utility.yul\":415:424   */\n      dup4\n        /* \"#utility.yul\":411:428   */\n      add\n        /* \"#utility.yul\":402:408   */\n      dup5\n        /* \"#utility.yul\":358:429   */\n      tag_41\n      jump\t// in\n    tag_52:\n        /* \"#utility.yul\":214:436   */\n      swap3\n      swap2\n      pop\n      pop\n      jump\t// out\n        /* \"#utility.yul\":523:640   */\n    tag_43:\n        /* \"#utility.yul\":632:633   */\n      0x00\n        /* \"#utility.yul\":629:630   */\n      0x00\n        /* \"#utility.yul\":622:634   */\n      revert\n        /* \"#utility.yul\":769:891   */\n    tag_45:\n        /* \"#utility.yul\":842:866   */\n      tag_57\n        /* \"#utility.yul\":860:865   */\n      dup2\n        /* \"#utility.yul\":842:866   */\n      tag_40\n      jump\t// in\n    tag_57:\n        /* \"#utility.yul\":835:840   */\n      dup2\n        /* \"#utility.yul\":832:867   */\n      eq\n        /* \"#utility.yul\":822:885   */\n      tag_58\n      jumpi\n        /* \"#utility.yul\":881:882   */\n      0x00\n        /* \"#utility.yul\":878:879   */\n      0x00\n        /* \"#utility.yul\":871:883   */\n      revert\n        /* \"#utility.yul\":822:885   */\n    tag_58:\n        /* \"#utility.yul\":769:891   */\n      pop\n      jump\t// out\n        /* \"#utility.yul\":897:1036   */\n    tag_46:\n        /* \"#utility.yul\":943:948   */\n      0x00\n        /* \"#utility.yul\":981:987   */\n      dup2\n        /* \"#utility.yul\":968:988   */\n      calldataload\n        /* \"#utility.yul\":959:988   */\n      swap1\n      pop\n        /* \"#utility.yul\":997:1030   */\n      tag_60\n        /* \"#utility.yul\":1024:1029   */\n      dup2\n        /* \"#utility.yul\":997:1030   */\n      tag_45\n      jump\t// in\n    tag_60:\n        /* \"#utility.yul\":897:1036   */\n      swap3\n      swap2\n      pop\n      pop\n      jump\t// out\n        /* \"#utility.yul\":1042:1371   */\n    tag_20:\n        /* \"#utility.yul\":1101:1107   */\n      0x00\n        /* \"#utility.yul\":1150:1152   */\n      0x20\n        /* \"#utility.yul\":1138:1147   */\n      dup3\n        /* \"#utility.yul\":1129:1136   */\n      dup5\n        /* \"#utility.yul\":1125:1148   */\n      sub\n        /* \"#utility.yul\":1121:1153   */\n      slt\n        /* \"#utility.yul\":1118:1237   */\n      iszero\n      tag_62\n      jumpi\n        /* \"#utility.yul\":1156:1235   */\n      tag_63\n      tag_43\n      jump\t// in\n    tag_63:\n        /* \"#utility.yul\":1118:1237   */\n    tag_62:\n        /* \"#utility.yul\":1276:1277   */\n      0x00\n        /* \"#utility.yul\":1301:1354   */\n      tag_64\n        /* \"#utility.yul\":1346:1353   */\n      dup5\n        /* \"#utility.yul\":1337:1343   */\n      dup3\n        /* \"#utility.yul\":1326:1335   */\n      dup6\n        /* \"#utility.yul\":1322:1344   */\n      add\n        /* \"#utility.yul\":1301:1354   */\n      tag_46\n      jump\t// in\n    tag_64:\n        /* \"#utility.yul\":1291:1354   */\n      swap2\n      pop\n        /* \"#utility.yul\":1247:1364   */\n      pop\n        /* \"#utility.yul\":1042:1371   */\n      swap3\n      swap2\n      pop\n      pop\n      jump\t// out\n        /* \"#utility.yul\":1377:1709   */\n    tag_31:\n        /* \"#utility.yul\":1498:1502   */\n      0x00\n        /* \"#utility.yul\":1536:1538   */\n      0x40\n        /* \"#utility.yul\":1525:1534   */\n      dup3\n        /* \"#utility.yul\":1521:1539   */\n      add\n        /* \"#utility.yul\":1513:1539   */\n      swap1\n      pop\n        /* \"#utility.yul\":1549:1620   */\n      tag_66\n        /* \"#utility.yul\":1617:1618   */\n      0x00\n        /* \"#utility.yul\":1606:1615   */\n      dup4\n        /* \"#utility.yul\":1602:1619   */\n      add\n        /* \"#utility.yul\":1593:1599   */\n      dup6\n        /* \"#utility.yul\":1549:1620   */\n      tag_41\n      jump\t// in\n    tag_66:\n        /* \"#utility.yul\":1630:1702   */\n      tag_67\n        /* \"#utility.yul\":1698:1700   */\n      0x20\n        /* \"#utility.yul\":1687:1696   */\n      dup4\n        /* \"#utility.yul\":1683:1701   */\n      add\n        /* \"#utility.yul\":1674:1680   */\n      dup5\n        /* \"#utility.yul\":1630:1702   */\n      tag_41\n      jump\t// in\n    tag_67:\n        /* \"#utility.yul\":1377:1709   */\n      swap4\n      swap3\n      pop\n      pop\n      pop\n      jump\t// out\n\n    auxdata: 0xa264697066735822122084d77d27e6f70682f6a02fe22cb9e072d09c09a4c5c1fb62fba591bec302870c64736f6c634300081e0033\n}\n",
				"bytecode": {
					"linkReferences": {},
					"object": "6080604052607b6001553480156013575f5ffd5b506102a4806100215f395ff3fe608060405260043610610054575f3560e01c80630c55699c146100585780633fa4f245146100825780634018d9aa146100ac5780635197c7aa146100e8578063cdc2307614610112578063d6c7a3be14610143575b5f5ffd5b348015610063575f5ffd5b5061006c61016e565b60405161007991906101d5565b60405180910390f35b34801561008d575f5ffd5b50610096610173565b6040516100a391906101d5565b60405180910390f35b3480156100b7575f5ffd5b506100d260048036038101906100cd919061021c565b610179565b6040516100df91906101d5565b60405180910390f35b3480156100f3575f5ffd5b506100fc610189565b60405161010991906101d5565b60405180910390f35b61012c6004803603810190610127919061021c565b610191565b60405161013a929190610247565b60405180910390f35b34801561014e575f5ffd5b506101576101ae565b604051610165929190610247565b60405180910390f35b5f5481565b60015481565b5f815f819055505f549050919050565b5f5f54905090565b5f5f825f81905550346001819055505f5460015491509150915091565b5f5f5f54600154915091509091565b5f819050919050565b6101cf816101bd565b82525050565b5f6020820190506101e85f8301846101c6565b92915050565b5f5ffd5b6101fb816101bd565b8114610205575f5ffd5b50565b5f81359050610216816101f2565b92915050565b5f60208284031215610231576102306101ee565b5b5f61023e84828501610208565b91505092915050565b5f60408201905061025a5f8301856101c6565b61026760208301846101c6565b939250505056fea264697066735822122084d77d27e6f70682f6a02fe22cb9e072d09c09a4c5c1fb62fba591bec302870c64736f6c634300081e0033",
					"opcodes": "PUSH1 0x80 PUSH1 0x40 MSTORE PUSH1 0x7B PUSH1 0x1 SSTORE CALLVALUE DUP1 ISZERO PUSH1 0x13 JUMPI PUSH0 PUSH0 REVERT JUMPDEST POP PUSH2 0x2A4 DUP1 PUSH2 0x21 PUSH0 CODECOPY PUSH0 RETURN INVALID PUSH1 0x80 PUSH1 0x40 MSTORE PUSH1 0x4 CALLDATASIZE LT PUSH2 0x54 JUMPI PUSH0 CALLDATALOAD PUSH1 0xE0 SHR DUP1 PUSH4 0xC55699C EQ PUSH2 0x58 JUMPI DUP1 PUSH4 0x3FA4F245 EQ PUSH2 0x82 JUMPI DUP1 PUSH4 0x4018D9AA EQ PUSH2 0xAC JUMPI DUP1 PUSH4 0x5197C7AA EQ PUSH2 0xE8 JUMPI DUP1 PUSH4 0xCDC23076 EQ PUSH2 0x112 JUMPI DUP1 PUSH4 0xD6C7A3BE EQ PUSH2 0x143 JUMPI JUMPDEST PUSH0 PUSH0 REVERT JUMPDEST CALLVALUE DUP1 ISZERO PUSH2 0x63 JUMPI PUSH0 PUSH0 REVERT JUMPDEST POP PUSH2 0x6C PUSH2 0x16E JUMP JUMPDEST PUSH1 0x40 MLOAD PUSH2 0x79 SWAP2 SWAP1 PUSH2 0x1D5 JUMP JUMPDEST PUSH1 0x40 MLOAD DUP1 SWAP2 SUB SWAP1 RETURN JUMPDEST CALLVALUE DUP1 ISZERO PUSH2 0x8D JUMPI PUSH0 PUSH0 REVERT JUMPDEST POP PUSH2 0x96 PUSH2 0x173 JUMP JUMPDEST PUSH1 0x40 MLOAD PUSH2 0xA3 SWAP2 SWAP1 PUSH2 0x1D5 JUMP JUMPDEST PUSH1 0x40 MLOAD DUP1 SWAP2 SUB SWAP1 RETURN JUMPDEST CALLVALUE DUP1 ISZERO PUSH2 0xB7 JUMPI PUSH0 PUSH0 REVERT JUMPDEST POP PUSH2 0xD2 PUSH1 0x4 DUP1 CALLDATASIZE SUB DUP2 ADD SWAP1 PUSH2 0xCD SWAP2 SWAP1 PUSH2 0x21C JUMP JUMPDEST PUSH2 0x179 JUMP JUMPDEST PUSH1 0x40 MLOAD PUSH2 0xDF SWAP2 SWAP1 PUSH2 0x1D5 JUMP JUMPDEST PUSH1 0x40 MLOAD DUP1 SWAP2 SUB SWAP1 RETURN JUMPDEST CALLVALUE DUP1 ISZERO PUSH2 0xF3 JUMPI PUSH0 PUSH0 REVERT JUMPDEST POP PUSH2 0xFC PUSH2 0x189 JUMP JUMPDEST PUSH1 0x40 MLOAD PUSH2 0x109 SWAP2 SWAP1 PUSH2 0x1D5 JUMP JUMPDEST PUSH1 0x40 MLOAD DUP1 SWAP2 SUB SWAP1 RETURN JUMPDEST PUSH2 0x12C PUSH1 0x4 DUP1 CALLDATASIZE SUB DUP2 ADD SWAP1 PUSH2 0x127 SWAP2 SWAP1 PUSH2 0x21C JUMP JUMPDEST PUSH2 0x191 JUMP JUMPDEST PUSH1 0x40 MLOAD PUSH2 0x13A SWAP3 SWAP2 SWAP1 PUSH2 0x247 JUMP JUMPDEST PUSH1 0x40 MLOAD DUP1 SWAP2 SUB SWAP1 RETURN JUMPDEST CALLVALUE DUP1 ISZERO PUSH2 0x14E JUMPI PUSH0 PUSH0 REVERT JUMPDEST POP PUSH2 0x157 PUSH2 0x1AE JUMP JUMPDEST PUSH1 0x40 MLOAD PUSH2 0x165 SWAP3 SWAP2 SWAP1 PUSH2 0x247 JUMP JUMPDEST PUSH1 0x40 MLOAD DUP1 SWAP2 SUB SWAP1 RETURN JUMPDEST PUSH0 SLOAD DUP2 JUMP JUMPDEST PUSH1 0x1 SLOAD DUP2 JUMP JUMPDEST PUSH0 DUP2 PUSH0 DUP2 SWAP1 SSTORE POP PUSH0 SLOAD SWAP1 POP SWAP2 SWAP1 POP JUMP JUMPDEST PUSH0 PUSH0 SLOAD SWAP1 POP SWAP1 JUMP JUMPDEST PUSH0 PUSH0 DUP3 PUSH0 DUP2 SWAP1 SSTORE POP CALLVALUE PUSH1 0x1 DUP2 SWAP1 SSTORE POP PUSH0 SLOAD PUSH1 0x1 SLOAD SWAP2 POP SWAP2 POP SWAP2 POP SWAP2 JUMP JUMPDEST PUSH0 PUSH0 PUSH0 SLOAD PUSH1 0x1 SLOAD SWAP2 POP SWAP2 POP SWAP1 SWAP2 JUMP JUMPDEST PUSH0 DUP2 SWAP1 POP SWAP2 SWAP1 POP JUMP JUMPDEST PUSH2 0x1CF DUP2 PUSH2 0x1BD JUMP JUMPDEST DUP3 MSTORE POP POP JUMP JUMPDEST PUSH0 PUSH1 0x20 DUP3 ADD SWAP1 POP PUSH2 0x1E8 PUSH0 DUP4 ADD DUP5 PUSH2 0x1C6 JUMP JUMPDEST SWAP3 SWAP2 POP POP JUMP JUMPDEST PUSH0 PUSH0 REVERT JUMPDEST PUSH2 0x1FB DUP2 PUSH2 0x1BD JUMP JUMPDEST DUP2 EQ PUSH2 0x205 JUMPI PUSH0 PUSH0 REVERT JUMPDEST POP JUMP JUMPDEST PUSH0 DUP2 CALLDATALOAD SWAP1 POP PUSH2 0x216 DUP2 PUSH2 0x1F2 JUMP JUMPDEST SWAP3 SWAP2 POP POP JUMP JUMPDEST PUSH0 PUSH1 0x20 DUP3 DUP5 SUB SLT ISZERO PUSH2 0x231 JUMPI PUSH2 0x230 PUSH2 0x1EE JUMP JUMPDEST JUMPDEST PUSH0 PUSH2 0x23E DUP5 DUP3 DUP6 ADD PUSH2 0x208 JUMP JUMPDEST SWAP2 POP POP SWAP3 SWAP2 POP POP JUMP JUMPDEST PUSH0 PUSH1 0x40 DUP3 ADD SWAP1 POP PUSH2 0x25A PUSH0 DUP4 ADD DUP6 PUSH2 0x1C6 JUMP JUMPDEST PUSH2 0x267 PUSH1 0x20 DUP4 ADD DUP5 PUSH2 0x1C6 JUMP JUMPDEST SWAP4 SWAP3 POP POP POP JUMP INVALID LOG2 PUSH5 0x6970667358 0x22 SLT KECCAK256 DUP5 0xD7 PUSH30 0x27E6F70682F6A02FE22CB9E072D09C09A4C5C1FB62FBA591BEC302870C64 PUSH20 0x6F6C634300081E00330000000000000000000000 "
				},
				"gasEstimates": {
					"creation": {
						"codeDepositCost": "135200",
						"executionCost": "22287",
						"totalCost": "157487"
					},
					"external": {
						"getX()": "2475",
						"getXandValue()": "infinite",
						"setX(uint256)": "infinite",
						"setXandSendEther(uint256)": "infinite",
						"value()": "2425",
						"x()": "2402"
					}
				},
				"methodIdentifiers": {
					"getX()": "5197c7aa",
					"getXandValue()": "d6c7a3be",
					"setX(uint256)": "4018d9aa",
					"setXandSendEther(uint256)": "cdc23076",
					"value()": "3fa4f245",
					"x()": "0c55699c"
				}
			},
			"storageLayout": {
				"storage": [
					{
						"astId": 35,
						"contract": "第三周/调用其他合约.sol:TestContract1",
						"label": "x",
						"offset": 0,
						"slot": "0",
						"type": "t_uint256"
					},
					{
						"astId": 38,
						"contract": "第三周/调用其他合约.sol:TestContract1",
						"label": "value",
						"offset": 0,
						"slot": "1",
						"type": "t_uint256"
					}
				],
				"types": {
					"t_uint256": {
						"encoding": "inplace",
						"label": "uint256",
						"numberOfBytes": "32"
					}
				}
			},
			"userdoc": {
				"kind": "user",
				"methods": {},
				"version": 1
			}
		}
	}
}